:020000040800F2
:10000000A80A00200101000865290008B92100089C
:100010001D29000891090008B931000800000000FE
:10002000000000000000000000000000372C000865
:10003000A109000800000000352C0008592C000818
:100040001B0100081B0100081B0100081B01000820
:100050001B0100081B0100081B0100081B01000810
:100060001B0100081B0100081B0100081B01000800
:100070001B0100081B0100081B010008950900086E
:100080001B0100081B0100081B0100081B010008E0
:100090001B0100081B0100081B0100081B010008D0
:1000A0001B010008C92C00081B010008BD2C00081A
:1000B0001B0100081B0100081B0100081B010008B0
:1000C0001B0100081B0100081B0100081B010008A0
:1000D0001B010008AD3100081B0100081B010008CE
:1000E0001B0100081B0100081B010008DFF80CD0F1
:1000F00000F03CFC0048004755480008A80A0020D2
:100100000648804706480047FEE7FEE7FEE7FEE7B1
:10011000FEE7FEE7FEE7FEE7FEE7FEE7BB2C000892
:10012000ED0000082DE9F0410024061B254671F181
:10013000000605DA01240027D0EB070067EB010178
:10014000161E73F1000605DA0027D2EB070201251F
:1001500067EB030300F0F3FA86460E4617469C460B
:10016000AC4204D00025D0EB050E65EB010624B1AE
:100170000020D2EB000760EB030C704631463A4694
:100180006346BDE8F081202A04DB203A21FA02F020
:100190000021704721FA02F3D040C2F120029140C1
:1001A000084319467047D2B201E000F8012B491EFE
:1001B000FBD270470022F6E710B513460A46044604
:1001C0001946FFF7F0FF204610BD30B50446002069
:1001D000034600E05B1C934203D2E05CCD5C401B15
:1001E000F8D030BDF0B480EA0102D40F4200B2EB87
:1001F000410F02D20246084611464A0042D0C30DC2
:10020000DDB2C1F3C752AD1A202D35DAC1F31601A4
:1002100041F4000204B15242C5F1200602FA06F18F
:100220002A411044B3EBD05F23D0C4B1012DA0EB21
:10023000C35009DCF0BC4FF0004202EAC352DBB20B
:1002400000F5000000F0D6BA400000F1807000EB2D
:10025000C350A0F1807040EAD170490009E049081C
:1002600041EAC071A0EBC35000F50000400800EB6C
:10027000C350F0BC00F0B5BA6142012202EB41016B
:10028000001BF6E7F0BC704781F00041AAE780F060
:100290000040A7E780EA010210B502F000434000E9
:1002A00022D04A001FD0010E01EB1261C0F35600AC
:1002B000C2F3560240F4000042F40002A0FB022008
:1002C00000047F39140400D0401C50EA124001D4CD
:1002D0004000491EC2B20C0604EBD010401C40087E
:1002E000802A02D003E0002010BD20F00100002988
:1002F00000DA0020184310BD30B480EA010202F099
:10030000004530F0004221F0004013D090B1C30D01
:10031000D40DC2F31601C0F31600E41A41F4000133
:1003200040F400027D34914201D3641C00E0490096
:10033000002C02DA30BC002070474FF4000000238C
:10034000914201D3891A034340084FEA4101F7D192
:1003500051B1914202D14FF0004105E002D24FF07D
:10036000010101E06FF0010103EBC450284430BCEF
:1003700000F037BA420005D0C0F3C7525242914252
:1003800001DC0020704700EBC15070472DE9FE4FA3
:10039000804681EA0300C00F0C46009021F0004126
:1003A00023F00045B8EB0200A94105D240462146A2
:1003B00090461C460B46024623F00040104347D0AF
:1003C000270DC7F30A00C3F30A510290401A0190A7
:1003D00040286BDAC3F3130040F4801B0098924668
:1003E00020B10023D2EB030A63EB0B0B01985946B3
:1003F000C0F14002504600F0D3F906460D46504683
:100400005946019A00F0DBF910EB08006141002425
:1004100087EA115284EAE7731A4340D0009A62B324
:10042000019A012A4FEA075215DC001B61EB020119
:100430004FF0004202EA0752CDE90042001C41F5AC
:10044000801132462B4600F012FA03B0BDE8F08F5F
:1004500040462146F9E7001B61EB0201001C41F513
:10046000801300185B412018A2F5001747EB030129
:1004700040EAD570B6196D4111E06D084FEA3606B5
:1004800045EAC0754FEA0752001B61EB0201001CF0
:1004900041F5801149084FEA3000001951413246B8
:1004A0002B4603B0BDE8F04F00F0D2B9009801220E
:1004B00040000023D0EB020263EBE073009821467A
:1004C0004FEAE074B8EB000061EB0401E9E783F068
:1004D00000435BE781F0004158E72DE9FE4F81EAD8
:1004E000030404F0004421F0004100944FF0000B9D
:1004F00023F0004350EA01045ED052EA03045BD0CB
:10050000C3F30A54C1F30A552C44A4F2F334019402
:10051000A0FB0254C1F3130141F48011C3F3130390
:1005200043F4801301FB024400FB034E840A970A44
:1005300044EA815447EA8357A4FB076802958D0A71
:1005400005FB07854FEA932C04FB0C542705029DFD
:100550004FEA065847EA1637B5EB08056EEB070C6D
:10056000870E920E47EA811742EA8312A7FB020127
:10057000B6EB0B0164EB00042B0D43EA0C335E1861
:1005800044EB1C50DA465146E7FB0201C5F3130465
:100590004FEA0B3343EA14534FEA0432019C43EA17
:1005A0000603A4F10C040294009CCDE900B400F011
:1005B0005EF903B0BDE8F08F00200146F9E72DE9B0
:1005C000F04D81EA030404F0004B21F0004514468D
:1005D0004FF0000A23F0004150EA050220D054EA0F
:1005E00001021DD0C5F30A570246C5F31303C1F338
:1005F0001300C1F30A5640F4801543F48013A7EBAF
:100600000608101BD64608F2FD3873EB050002D32E
:1006100008F1010801E092185B41B8F1000F03DA1C
:1006200000200146BDE8F08D00204FF48011064601
:1006300084460EE0171B73EB050705D3121B63EB13
:10064000050306434CEA010C49084FEA30009218B2
:100650005B4150EA0107EDD152EA030012D082EA71
:10066000040083EA0501084305D0101BAB4106D204
:100670000122002306E000224FF0004302E06FF069
:10068000010253101AEB06004CEB085110EB0A0064
:1006900041EB0B01BDE8F04D00F0DAB8C10F80EA84
:1006A000E0700844CA079623002100F0A3B89623FF
:1006B0000022114600F09EB800F0004220F00040F9
:1006C000C10DC0F3160040F400007F2901DA0020BC
:1006D0007047962903DCC1F19601C84001E09639C4
:1006E0008840002AF4D04042704720F00040C10DFD
:1006F000C0F3160040F400007F2901DA00207047A3
:10070000962903DCC1F19601C840704796398840AC
:10071000704730B50B46014600202022012409E035
:1007200021FA02F59D4205D303FA02F5491B04FAAA
:1007300002F52844151EA2F10102F1DC30BD2DE9BD
:10074000F05F0546002092469B4688460646814655
:1007500040241BE02846414647462246FFF713FD4A
:1007600053465A46C01A914110D3114618462246A4
:1007700000F016F82D1A67EB01084F4622460120BB
:10078000002100F00DF817EB00094E41201EA4F1E6
:100790000104DFDC484631462A464346BDE8F09F67
:1007A000202A04DB203A00FA02F100207047914031
:1007B000C2F1200320FA03F3194390407047202A26
:1007C00006DBCB17203A41FA02F043EAE07306E079
:1007D00041FA02F3D040C2F1200291400843194689
:1007E00070470029A8BF7047401C490008BF20F08F
:1007F0000100704710B4B0FA80FC00FA0CF050EA27
:10080000010404BF10BC704749B1CCF1200421FAA7
:1008100004F411FA0CF118BF012121430843A3EBA2
:100820000C01CB1D4FEA00614FEA102042BF0020AF
:1008300010BC704700EBC35010440029A4BF10BC8B
:100840007047401C490008BF20F0010010BC7047F1
:1008500010B5141E73F1000408DA401C41F10001C8
:1008600092185B411A4301D120F0010010BD2DE91F
:10087000F04D92469B4611B1B1FA81F202E0B0FA16
:1008800080F220329046FFF78BFF04460F4640EA85
:100890000A0041EA0B0153465A46084313D0114659
:1008A00053EA010019D0C8F140025046FFF76BFC33
:1008B00005460E46504659464246FFF771FF08432B
:1008C00005D0012004E020463946BDE8F08D002027
:1008D000054346EAE0762C4337430A986305E40A69
:1008E000A0EB08000022FD0A44EA47540A3002D572
:1008F00000200146E9E7010510196941DDE90845D5
:1009000000196941BDE8F04DA2E7C1F30A52C1F3F5
:10091000130140F2FF3341F480119A4202DA0020C1
:100920000146704740F233439A42A2F2334202DC5E
:100930005242FFF728BCFFF733BF000030B5041E5A
:1009400071F1000404DB4FF00044404264EB01010C
:10095000141E73F1000405DB1C464FF000435242A5
:1009600063EB0403994208BF904230BD064C074D2B
:1009700006E0E06840F0010394E80700984710346F
:10098000AC42F6D3FFF7B6FB2069000840690008C7
:10099000FEE70000014800F075B80000700100207B
:1009A000704772B6FEE710B590F8211000220229B8
:1009B00005D00421816380F82020012010BD01684A
:1009C0000B6823F00E030B6001680B6823F0010332
:1009D0000B6090F84030C46B012101FA03F36360AF
:1009E00080F8211080F82020104610BD10B590F836
:1009F00021100024022903D00421816301243DE059
:100A000001680A6822F00E020A6001680A6822F092
:100A100001020A601A4A0168914201D1012121E0D4
:100A2000174A1432914201D110211BE0144A283296
:100A3000914201D1891515E0114A3C32914201D110
:100A400089140FE00E4A5032914202D14FF48031A6
:100A500008E00B4A6432914202D14FF4801101E068
:100A60004FF08071064A083A5160012180F8211048
:100A7000002180F82010416B01B18847204610BD4D
:100A8000080002402DE9F05FC16B0C6801680B683B
:100A9000D0F840C0042202FA0CF2494DDFF824A13C
:100AA000494E4A4FDFF828B1DFF828E122422CD026
:100AB0005A072AD50A68920603D40A6822F004026B
:100AC0000A600168A94201D1042219E0514501D10F
:100AD000402215E0B14202D14FF4806210E0B942E9
:100AE00002D14FF480420BE0594502D14FF48022ED
:100AF00006E0714502D14FF4800201E04FF08062C0
:100B00002F4908394A60C16A3BE04FF0020808FAF1
:100B10000CF818EA040F4FF000094FF0010235D02D
:100B20005FEA837832D50B689B0605D40B6823F007
:100B30000A030B6080F821200168A94201D102223A
:100B400019E0514501D1202215E0B14202D14FF404
:100B5000007210E0B94202D14FF400520BE0594547
:100B600002D14FF4003206E0714502D14FF4001279
:100B700001E04FF00072124908394A6080F8209075
:100B8000816A00291AD0BDE8F05F0847082505FAF8
:100B90000CF5254212D01B0710D50B6823F00E036D
:100BA0000B6090F84010C36B02FA01F15960826348
:100BB00080F8212080F82090016BE2E7BDE8F09FEB
:100BC000080002401C000240300002404400024085
:100BD000580002406C00024030B528B308C81349E1
:100BE00014221944B1FBF2F18900C16310498163F9
:100BF000022141771A6843F6F0718A43D0E9001464
:100C00002143D0E902452C4321430469214344692F
:100C1000214384692143114319600021416301226A
:100C200042770177084630BD012030BDF8FFFDBF97
:100C30000000024070B5044600F010F90546601C43
:100C400002D004480078044400F008F9401BA04298
:100C5000FAD370BD080000202DE9F84FDFF8B891F5
:100C6000002409F1040A0AF1040B23460F270BF1B3
:100C7000040EC9E00125A5402A40AA427DD1674E55
:100C8000D1F804C0ACEB0608B44532D014DCBCF19A
:100C9000030F3AD009DCBCF1000F2AD0BCF1010FE0
:100CA0001CD0BCF1020F31D11DE0BCF1110F17D0E7
:100CB000BCF1120F2AD119E0B8F5881F19D006DC53
:100CC000B8F5803F15D0B8F5801F1FD111E0B8F5F9
:100CD000001F0ED0B8F5041F18D10AE0CB6815E04C
:100CE000CB681B1D12E0CB6808330FE0CB680C33D8
:100CF0000CE08B682BB1012B4FF0080303D045614A
:100D000004E0042302E0056100E00023FF2A01D88B
:100D1000064601E000F104064FEA840501D9A5F179
:100D20002005D6F8008007FA05FC28EA0C0803FA2B
:100D300005F548EA0508C6F800804D68ED0062D563
:100D4000374DAE6946F00106AE61AD6924F0030689
:100D500005F001050095334D06EB050CDCF8085055
:100D6000A607360F07FA06F825EA0805DFF8B88067
:100D7000404503D14FF0000817E044E0DFF8AC80B5
:100D8000404502D14FF001080FE0DFF8A480404554
:100D900002D14FF0020808E0DFF89880404502D108
:100DA0004FF0030801E04FF0040808FA06F848EA9B
:100DB0000508CCF808804D68D9F80060ED034D4671
:100DC00001D5164300E096432E604D68DAF80060C6
:100DD000AD03554601D5164300E096432E604D689D
:100DE000DBF80060ED025D4601D5164300E0964356
:100DF0002E604D68DEF80060AD02754601D51643E1
:100E000000E096432E60641C0D682A46E5407FF49E
:100E100031AFBDE8F88F0000000401400000111060
:100E2000001002400000014000080140000C014099
:100E300000100140001401408068084000D00120EB
:100E40007047C26821EA02030A4043EA0241016195
:100E500070470AB1016170470904FBE701488068E7
:100E600070470000080000200248816802781144A1
:100E70008160704708000020074810B5016841F004
:100E800010010160032000F079F8032000F006F85B
:100E900000F024F8002010BD0020024070B50D4D78
:100EA00004464FF47A712878B1FBF0F00A490968DA
:100EB000B1FBF0F000F0F6FA48B9102C07D200228E
:100EC0002146501E00F03AF800206C6070BD0120F1
:100ED00070BD000008000020140000200E4808B576
:100EE000816941F001018161816901F00101009195
:100EF000C16941F08051C161C06900F0805000902B
:100F0000052000F03BF80548416821F0E06141F020
:100F10000071416008BD0000001002400000014067
:100F2000002809DB00F01F020121914040098000E8
:100F300000F1E020C0F8001170470000F0B40E4B43
:100F40001B680C46C3F30223C3F10705042D00D927
:100F50000425191D072901D2002300E0DB1E01260C
:100F600006FA05F1491E214099409E40761E164022
:100F70003143F0BC02F032B90CED00E0064900F05C
:100F8000070208684FF6FF03184040EA0220034AB0
:100F900010430860704700000CED00E00000FA0507
:100FA0002DE9F0470F46050061D0434E306800F050
:100FB0000700B84209D2306820F00700384330609B
:100FC000306800F00700B84251D128683B4C8107D7
:100FD00012D5400703D5606840F4E060606028786F
:100FE000000703D5606840F4605060606068A968DD
:100FF00020F0F000084360602878C00728D06868B7
:10100000012810D02168022810D0890700292EDA83
:10101000616821F0030101436160FFF71FFF804613
:1010200041F288390DE021688903EFE78901EDE796
:10103000FFF714FFA0EB0801494502D90320BDE8E2
:10104000F0876068696800F00C00B0EB810FEFD1A9
:10105000306800F00700B8420BD9306820F0070074
:1010600038433060306800F00700B84201D00120FA
:10107000E5E72878400705D56068E96820F4E06076
:10108000084360602878000706D56068296920F465
:10109000605040EAC100606000F03EF86168084AB4
:1010A000C1F30311515CC840064908600648006856
:1010B000FFF7F4FE0020C2E70020024000100240CB
:1010C00080560008140000200C0000200148006831
:1010D0007047000014000020044805490068496872
:1010E000044AC1F30221515CC8407047140000203B
:1010F00000100240905600080448054900684968FD
:10110000044AC1F3C221515CC8407047140000205A
:10111000001002409056000812A185B00FC98DE85A
:101120000F0014A0144A006804905168134801F09D
:101130000C03042B10D0082B0ED1C1F38343C90339
:101140001DF803000AD5516804AAC1F34041515C5F
:101150000A4A5043B0FBF1F005B0704708494843D4
:10116000FAE7000002030405060708090A0B0C0D44
:101170000E0F1010010200000010024000127A0051
:1011800000093D002DE9F84F040070D02078C04DD3
:10119000C00749D06868C0F38100012807D068689B
:1011A000C0F38100022809D16868C00306D5286809
:1011B000800339D560680028E7D035E06068B0F575
:1011C000803F0BD010B1B0F5A02F11D0286820F4CB
:1011D00080302860286820F4802002E0286840F4ED
:1011E00080302860606890B1FFF738FE06460AE05C
:1011F000286840F480202860F0E700BFFFF72EFE4B
:10120000801B642873D828688003F7D50CE0FFF7AB
:1012100025FE064605E000BFFFF720FE801B642880
:10122000F0D828688003F7D420789A4E80074FF0D2
:1012300001094FF0000839D5686810F00C0F07D08D
:101240006868C0F38100022809D16868C00306D429
:101250002868800714D52069012808D110E020698A
:10126000B0B1C6F80090FFF7F9FD074605E00AE1C6
:10127000FFF7F4FDC01B0228C4D828688007F7D503
:101280002868616920F0F80040EAC10028600DE09C
:10129000C6F80080FFF7E2FD074604E0FFF7DEFD39
:1012A000C01B022823D828688007F7D420780007BD
:1012B0002CD57948A169D9B1C0F80090FFF7CEFDCF
:1012C000074604E0FFF7CAFDC01B02280FD8686A72
:1012D0008007F7D571484FF4FA510068B0FBF1F080
:1012E000009000BF0098411E0091FAD20EE080E00D
:1012F000C0F80080FFF7B2FD074604E0FFF7AEFD3F
:10130000C01B022875D8686A8007F7D42078400788
:1013100060D5E8690027C00008D4E86940F0805033
:10132000E861E869012700F0805000905C4801689E
:10133000C90513D40168834641F480710160FFF749
:101340008DFD824606E000BFFFF788FDA0EB0A0096
:1013500064284ED8DBF80000C005F5D5E068012808
:101360000AD008B1052813D0286A20F001002862AD
:10137000286A20F0040002E0286A40F00100286298
:10138000E06841F2883B98B1FFF768FD82460BE0C8
:10139000286A40F004002862EEE700BFFFF75EFD18
:1013A000A0EB0A0159455AD8286A8007F6D50CE007
:1013B000FFF754FD824605E0FFF750FDA0EB0A0160
:1013C00059454CD8286A8007F6D41FB1E86920F047
:1013D0008050E861E06988B36968C1F3810102293E
:1013E00044D00228C6F8608004D0FFF737FD0446D9
:1013F00038E034E0FFF732FD074604E0FFF72EFD4A
:10140000C01B02282BD828688001F7D4206AB0F5C9
:10141000803F05D16868A16820F400300843686007
:10142000D4E908010843696821F47411084368602D
:10143000C6F86090FFF712FD044606E025E000BF05
:10144000FFF70CFD001B022809D828688001F7D59A
:101450001BE000BFFFF702FD001B022802D903209A
:10146000BDE8F88F28688001F4D40EE00128F7D099
:101470006868226A00F48031914204D1616A00F404
:101480007010884201D00120EAE70020E8E7000060
:10149000001002400000424280044242140000203A
:1014A0000070004010B5401EB0F1807F01D30120D4
:1014B00010BD4FF0E02460610F21601701F08EFE37
:1014C0000020A06107202061002010BD70477047F8
:1014D00070B590F83C20012A26D0012480F83C40C9
:1014E000022280F83D2003685A689D6822F0700649
:1014F0000A6832435A600D4B02689A4208D0B2F132
:10150000804F05D00A4B9A4202D00A4B9A4204D12E
:10151000496825F080031943916080F83D4000211F
:1015200080F83C10084670BD022070BD002C0140C0
:10153000000400400008004010B5040003D094F8F7
:101540003D0010B107E0012010BD002084F83C00F0
:10155000204600F01FF8022084F83D00211D20687D
:1015600001F0B8FB012084F8460084F83E0084F8BE
:101570003F0084F8400084F8410084F8420084F879
:10158000430084F8440084F8450084F83D000020BE
:1015900010BD000000B585B00021009101910291BD
:1015A0000391234B0268234923489A4227D18A6931
:1015B00042F400628A618A6902F4006204928A69D4
:1015C00042F004028A61896901F0040104914FF438
:1015D000406100916946FFF73FFB0022012119207D
:1015E000FFF7ACFC1920FFF79BFC002211461B20E3
:1015F000FFF7A4FC1B20FFF793FC05B000BDB2F180
:10160000804FFAD1CA6942F00102CA61CA6902F088
:10161000010204928A6942F004028A61896901F038
:1016200004010491082100916946FFF715FBE4E7E6
:10163000002C0140001002400008014090F83D10CD
:10164000012901D001207047022180F83D10016876
:10165000CA6842F00102CA6000680B49884208D09B
:10166000B0F1804F05D00949884202D0084988422C
:1016700004D1816801F00701062903D0016841F017
:101680000101016000207047002C0140000400406F
:101690000008004070B5044690F83C00012817D0BF
:1016A000012584F83C50022084F83D0020688268BF
:1016B00022F0770222F47F4282600868502830D0FE
:1016C0000DDC20284DD005DC98B310283BD148E034
:1016D000022070BD302844D0402834D139E0602841
:1016E00028D0702806D0B0F5805F2CD0B0F5005F10
:1016F00029D10AE0CB68D1E90121206801F02DFB56
:101700002068816841F0770109E0CB68D1E90121C7
:10171000206801F022FB2068816841F480418160EB
:1017200011E0CA684968206801F0CCFB50212068AC
:1017300007E016E0CA684968206801F001FC6021F2
:10174000206801F014FB84F83D50002084F83C0030
:1017500070BDCA684968206801F0B4FB4021206868
:10176000EFE7226801461046EBE7000070B505463A
:101770001248854221D1287F114E124C04280CD1E9
:1017800001033046FFF758FB20B1012805D120683E
:10179000401E01E02068401C2060287F08280CD1F2
:1017A00001033046FFF748FB20B1012805D16068EE
:1017B000401C01E06068401E606070BD5400002065
:1017C000000C0140000000202DE9F041054690F892
:1017D0003C000C46012836D0012085F83C008AB335
:1017E000042A42D02868082A51D0D4E90023E168AD
:1017F000066A26F480560662C669076A26F44076B1
:1018000046EA03234FF6FF7606EA013123F47043DC
:1018100019434FF4005627F4005306EA02321A43E4
:10182000C16102622868C16921F44061C161286810
:10183000C169A26841EA0221C161002085F83C002B
:10184000BDE8F08101E00220FAE7D4E90012E36884
:10185000286801F049FB2868816921F00C01816149
:1018600028688169A26811430FE0D4E90012E36897
:10187000286801F077FB2868816921F44061816163
:1018800028688169A26841EA02218161D5E7D4E92B
:101890000027267B016A21F480710162C169036A15
:1018A00021F00301394321F0F00731074FF40076AE
:1018B00047EA116123F4007306EA02221A43C16168
:1018C00002622868C16921F00C01C1612868C16900
:1018D000A2681143B0E710B5040003D094F83D00AE
:1018E00010B107E0012010BD002084F83C00204624
:1018F00000F01EF8022084F83D00211D206801F050
:10190000E9F9012084F8460084F83E0084F83F009D
:1019100084F8400084F8410084F8420084F84300D1
:1019200084F8440084F8450084F83D00002010BD90
:101930007047000010B5044651B104290DD00829A4
:1019400010D094F8410094F84520012811D10EE000
:1019500094F83E0094F84220F7E794F83F0094F89A
:101960004320F2E794F8400094F84420EDE7012A80
:1019700001D0012010BD022051B1042911D0082945
:1019800018D084F8410084F845000C291BD136E0BA
:1019900084F83E0084F842002068C26842F00202E7
:1019A00010E084F83F0084F843002068C26842F0E9
:1019B000040207E084F8400084F844002068C2680C
:1019C00042F00802C2600122206801F0B9F90E4914
:1019D0002068884208D0B0F1804F05D00B4988427A
:1019E00002D00B49884204D1816801F00701062921
:1019F00003D0016841F001010160002010BD2068A2
:101A0000C26842F01002DDE7002C014000040040F3
:101A10000008004070B50446006801694FF00005F9
:101A2000C943890715D4C168C943890711D4E91E80
:101A3000016101202077206880698007204602D05C
:101A4000FFF794FE04E000F0C9F8204600F06CF9BE
:101A5000257720680169C943490717D4C168C9437C
:101A6000490713D46FF00401016102202077206838
:101A7000806910F4407F204602D0FFF777FE04E033
:101A800000F0ACF8204600F04FF925772068016996
:101A9000C943090716D4C168C943090712D46FF0B6
:101AA00008010161042020772068C0698007204672
:101AB00002D0FFF75BFE04E000F090F8204600F053
:101AC00033F9257720680169C943C90617D4C1686D
:101AD000C943C90613D46FF01001016108202077B3
:101AE0002068C06910F4407F204602D0FFF73EFE18
:101AF00004E000F073F8204600F016F9257720681E
:101B00000169C943C90708D1C168C943C90704D1DC
:101B1000891E0161204600F057F920680169C94318
:101B2000090609D4C168C943090605D46FF08001CC
:101B300001612046FFF7CAFC20680169C9434906D4
:101B400009D4C168C943490605D46FF04001016159
:101B5000204600F03AF920680169C94389060BD490
:101B6000C168C943890607D46FF02001016120468E
:101B7000BDE87040FFF7ABBC70BD000030B585B06C
:101B8000002100910191029103910068104988425F
:101B90001CD11048816941F00801816180690224EB
:101BA00000F0080004904FF48070CDE900040A4D65
:101BB000694628460394FFF74FF82002CDE9000458
:101BC0000120039069462846FFF746F805B030BD6E
:101BD0000008004000100240000C0140704770B542
:101BE000044690F83C000D4601280AD0012084F8F4
:101BF0003C0042B1042A18D0082A2AD00C2A4DD120
:101C000039E0022070BD206801F0BAF820688169CF
:101C100041F0080181612068816921F0040181613E
:101C2000206881692A69114311E0206801F0D0F829
:101C30002068816941F4006181612068816921F433
:101C400080618161206881692A6941EA022181619C
:101C500024E0206801F0E8F82068C16941F008013B
:101C6000C1612068C16921F00401C1612068C169B6
:101C70002A69114311E0206801F002F92068C16966
:101C800041F40061C1612068C16921F48061C161D2
:101C90002068C1692A6941EA0221C161002084F8F3
:101CA0003C0070BD10B5040003D094F83D0010B1A5
:101CB00007E0012010BD002084F83C00204600F021
:101CC0001FF8022084F83D00211D206801F002F871
:101CD000012084F8460084F83E0084F83F0084F830
:101CE000400084F8410084F8420084F8430084F8FE
:101CF000440084F8450084F83D00002010BD000039
:101D000008B500680649884208D10648C16941F013
:101D10000401C161C06900F00400009008BD00002A
:101D200000080040001002407047000010B5044653
:101D3000022249B104290ED0082913D094F8410099
:101D4000012816D0012010BD94F83E000128F9D1D9
:101D500084F83E200FE094F83F000128F2D184F887
:101D60003F2008E094F840000128EBD184F840209F
:101D700001E084F841200122206800F0E1FF0F49D2
:101D80002068884203D1426C42F4004242642068D9
:101D9000884208D0B0F1804F05D00949884202D06E
:101DA0000849884204D1816801F00701062903D05F
:101DB000016841F001010160002010BD002C0140CC
:101DC00000040040000800407047704770477047AB
:101DD000F8B5026804461068D168536910F00F0F17
:101DE0004FF0000554D003F0010601F4907737431B
:101DF0005FD0C20705D0CA0503D5226C42F00102AC
:101E00002264420705D5DA0703D0226C42F00202B1
:101E10002264820705D5DA0703D0226C42F004025F
:101E20002264020707D501F02002324303D0226C5E
:101E300042F008022264226C002A35D0800604D5C4
:101E4000880602D5204601F0C8F820684069216C58
:101E5000C0F3801001F008010143204625D001F0B5
:101E6000A4F82068416949061BD5416921F0400169
:101E70004161A06BA8B158494163A06BFEF7B6FD64
:101E8000002811D0A06B416B01B0BDE8F0400847BD
:101E900083060ED58B060CD52046BDE8F84001F030
:101EA0009CB82046FFF793FFF8BDFFF790FF25642D
:101EB000F8BD266B2023012E52D1C60650D5CE0682
:101EC0004ED5106850680090506940062AD5A16B25
:101ED000086840680004000CEAD0A68D8642E7D965
:101EE000E0858869202818D0D06820F48070D06000
:101EF0002068416921F0010141612068416921F0B8
:101F00004001416184F83E3025632068C16821F0BA
:101F10001001C160A06BFEF746FDA08DE18D401A57
:101F200081B219E0A08DE18D401A81B2E08D0028C8
:101F3000BED00029BCD0D06820F49070D06020685A
:101F4000426922F00102426184F83E302563206834
:101F5000C26822F01002C2602046FFF737FFF8BDCA
:101F600005062BD50D0629D594F83D002128F6D17C
:101F7000A068B0F5805F01D12069B0B1206A411C32
:101F80002162216800784860E08C401E0004000C4B
:101F9000E084E4D12068C16821F08001C16020683C
:101FA000C16841F04001C160F8BD206A0088C0F3FB
:101FB00008005060206A801C2062E5E74006F3D5E7
:101FC0004806F1D5D168204621F04001D16084F85F
:101FD0003D3000F0F0F8F8BD9B2F000870B504000C
:101FE00004D094F83D00002510B106E0012070BD3A
:101FF00084F83C50204600F023F8242084F83D006B
:102000002068C16821F40051C160204601F040F809
:102010002068016921F4904101612068416921F043
:102020002A0141612068C16841F40051C160256402
:10203000202084F83D0084F83E00002070BD0000A0
:10204000F0B585B0002506460095019502950395EB
:1020500000682549884245D12448816941F480417E
:102060008161816901F480410491816941F0080135
:10207000816180691E4C00F00800049040200090AF
:10208000022001900320039069462046FEF7E4FDFC
:102090008027CDE90075694620460295FEF7DCFDF4
:1020A0001448416841F0E06141F004014160134C83
:1020B0001148C4E90005C4E902572561801465612F
:1020C000C4E906502046FEF787FD08B1FEF769FC1B
:1020D000B4630022114625206662FEF72FFF2520FB
:1020E000FEF71EFF05B0F0BD0038014000100240B1
:1020F000000C014000000140580002407001002027
:10210000704700002DE9F843044690F83D001F4653
:1021100016460D4620284CD1C5B1BEB194F83C00FE
:10212000012846D0012084F83C004FF00008C4F894
:102130004080212084F83D00FEF790FEA684814671
:10214000E684A068B0F5805F03D004E00120BDE81C
:10215000F883206928B12E465FF0000584F83C80A2
:102160000EE00026FAE78021204600F0EDFFA0B93E
:10217000AEB116F8010B21684860E08C401EE08487
:10218000E08C4B464FF0000200970028EBD14FF057
:102190004001204600F0D8FF30B10320D7E735F8E2
:1021A000020BC0F30800E6E7202084F83D00002081
:1021B000CDE70220CBE77047FEE7000010B50E4CDC
:1021C000002210212046FEF744FE00F017F80122FD
:1021D00020212046FEF73DFE00F010F800222021CD
:1021E0002046FEF736FE00F009F820460122BDE841
:1021F00010401021FEF72DBE000801400020401CB9
:10220000C0B20A28FBD370470C4800B5816985B07D
:1022100041F0040181618069694600F00400049086
:102220003020009003200390112001900448FEF715
:1022300013FD00F09DF805B000BD00000010024045
:102240000008014010B50C4C012210212046FEF779
:1022500000FEFFF7D3FF012220212046FEF7F9FD03
:10226000FFF7CCFF002220212046FEF7F2FDBDE85B
:102270001040FFF7C3BF0000000801402DE9F04106
:102280000024134E074625466006040E0122202135
:102290003046FEF7DEFDFFF7B1FF10213046FEF7B6
:1022A000CBFD08B1641CE4B2002220213046FEF7C9
:1022B000D0FDFFF7A3FF6D1CEDB2082DE4D327B1CD
:1022C000FFF77CFF2046BDE8F081FFF7BBFFF9E791
:1022D0000008014070B5154E05460024280601D5BA
:1022E000012200E0002210213046FEF7B2FDFFF788
:1022F00085FF012220213046FEF7ABFDFFF77EFF70
:10230000002220213046FEF7A4FD072C04D1012233
:1023100010213046FEF79DFD6806050EFFF76EFFA3
:10232000641CE4B2082CD9D370BD00000008014041
:1023300010B50E4C012210212046FEF78AFD012225
:1023400020212046FEF785FDFFF758FF00221021CF
:102350002046FEF77EFDFFF751FF00222021204698
:10236000FEF777FDBDE81040FFF748BF00080140C9
:1023700010B50A4C002210212046FEF76AFD01220A
:1023800020212046FEF765FDFFF738FF2046012299
:10239000BDE810401021FEF75CBD000000080140C0
:1023A00070B5104D012210212846FEF752FDFFF7AF
:1023B00025FF012220212846FEF74BFDFFF71EFFD7
:1023C00010212846FEF738FD08B1012400E0002462
:1023D000002220212846FEF73CFDFFF70FFF204694
:1023E00070BD00000008014010B5FFF70DFF80210F
:1023F0006B2000F0C0F80520FEF71CFC00216B20CC
:1024000000F0B9F8032000F082F8002000F07AF81C
:10241000322000F099F80021382000F0ACF80021BB
:102420006A2000F0A8F80021232000F0A4F8802101
:10243000372000F0A0F8752000F011F8682801D0CE
:10244000012010BD01216B2000F095F800216C20C7
:1024500000F091F8322000F077F8002010BD10B5A0
:102460000446FFF765FFD020FFF734FFFFF798FF22
:102470002046FFF72FFFFFF793FFFFF759FFD1200B
:10248000FFF728FFFFF78CFF0020FFF7F7FE044659
:10249000FFF76EFF204610BD2DE9F0411D461446A2
:1024A0000F460646FFF744FF7006000EFFF712FFC7
:1024B000FFF776FF20B1FFF75BFF0120BDE8F08159
:1024C0003846FFF707FFFFF76BFFFFF731FF0120EB
:1024D00000EB4600C0B2FFF7FDFEFFF761FF09E029
:1024E000012C0DD05FF00100FFF7C8FE641E05F857
:1024F000010BE4B2002CF3D1FFF73AFF0020DDE737
:102500000020F1E7C006010E1C2000F034B8C00620
:10251000010E1B2000F02FB8BC2801D3012110E0D0
:10252000622801D302210CE02A2801D3032108E00C
:10253000142801D3042104E00A2801D3052100E076
:1025400006211A2000F017B810B504464FF47A702F
:10255000844201D9044602E0042C00D20424B0FBDA
:10256000F4F0401EC1B2192000F005F86008BDE883
:102570001040FFF7D1BF70B50C460546FFF7D8FEF7
:10258000D020FFF7A7FEFFF70BFF50B92846FFF753
:10259000A1FEFFF705FF2046FFF79CFEFFF700FFB7
:1025A00018B1FFF7E5FE012070BDFFF7E1FE002046
:1025B00070BD2DE9F0411E4615460F460446FFF753
:1025C000B7FE6006000EFFF785FEFFF7E9FE60B973
:1025D0003846FFF77FFEFFF7E3FE00240CE0305D96
:1025E000FFF778FEFFF7DCFE20B1FFF7C1FE012008
:1025F000BDE8F081641CE4B2AC42F0D3FFF7B8FE52
:102600000020F5E7094808B5416941F00101416141
:102610004069002200F00100009011460F20FEF7F3
:102620008DFCBDE808400F20FEF77ABC0010024088
:102630002DE9F04385B000253848009501950295B5
:102640000395816941F010018161816901F01001F8
:102650000491816941F020018161816901F02001CB
:102660000491816941F004018161816901F00401F3
:102670000491816941F0080181618069012200F0C3
:102680000800274E5403049021463046FEF7E1FB34
:10269000DFF89080002248F234014046FEF7D9FB73
:1026A000DFF88490002238214846FEF7D2FB0094E0
:1026B0000124CDE90145694630460394FEF7CCFA82
:1026C00048F204008DE83100694640460394FEF765
:1026D000C3FA302611270096CDE9017469464046B9
:1026E0000394FEF7B9FAB002CDE900056946484601
:1026F0000295FEF7B1FA08208DE831006946484698
:102700000394FEF7A9FA0096CDE90174694648469C
:102710000394FEF7A1FA05B0BDE8F0830010024073
:102720000010014000080140000C014010B58AB0C3
:102730000024274804940594069407940894099467
:102740000094019402942149039401604721C0E957
:1027500001144CF24F31C0E9031444618461FEF767
:10276000EBFE08B1FEF71DF94FF48050049004A968
:102770001748FEF78FFF08B1FEF713F91448FFF76B
:10278000AAF808B1FEF70DF9089408A910480994B1
:10279000FEF79EFE08B1FEF704F90120CDE90040E6
:1027A0000294082269460A480394FFF70DF808B11D
:1027B000FEF7F7F80C2269460548FFF705F80028F0
:1027C00001D0FEF7EEF80AB010BD0000002C014069
:1027D0005400002010B58AB00024214804940594C8
:1027E00006940794089409940094019402944FF07D
:1027F00080410394C0E900144FF6FF71C0E9024123
:1028000004618461FEF798FE08B1FEF7CAF84FF440
:102810008050049004A91248FEF73CFF08B1FEF76F
:10282000C0F80F48FFF757F808B1FEF7BAF8089458
:1028300008A90B480994FEF74BFE08B1FEF7B1F862
:102840000120CDE9004002940C226946044803941B
:10285000FEF7BAFF002801D0FEF7A3F80AB010BDBA
:102860009C00002010B58AB0002407941C21684603
:102870000894FDF79FFC1A48184901604721C0E9F8
:10288000011440F2E731C0E903148461FFF70AFA4A
:1028900008B1FEF786F8079407A911480894FEF7D7
:1028A00017FE08B1FEF77DF86020CDE90004029420
:1028B000082269460A480494FFF791F908B1FEF727
:1028C00070F80C2269460648FFF789F908B1FEF74F
:1028D00068F80348FFF752F90AB010BD000800403D
:1028E000E40000200C4810B50A4901604FF416417D
:1028F0004160002181600C22C160C0E90412816145
:10290000C161FFF76BFB002803D0BDE81040FEF764
:1029100048B810BD003801402C010020FEE700003F
:1029200070B50C210C48FFF701FA08210A48FFF79F
:10293000FDF9094C0025206805642A464FF4004142
:102940000648FEF786FA2068C563BDE8704000229D
:1029500008210348FEF77DBAE4000020000801408A
:10296000000C0140FEE7000030B5C40800F007038A
:1029700001259D40EBB2074DC00805EBC101012ABE
:10298000085C04D063EA0000C043085530BD18431A
:10299000FBE70000280200202DE9F0410024174E3B
:1029A0000746802525FA04F0384201D0012200E0D4
:1029B000002220213046FEF74CFA01221021304639
:1029C000FEF747FA022001F0B3F80022102130464A
:1029D000FEF73FFA641CE4B2082CE3D30122102175
:1029E0003046FEF736FA022001F0A2F83046BDE884
:1029F000F04100221021FEF72CBA0000000C01402B
:102A000010B5104C012220212046FEF722FA0122A7
:102A100010212046FEF71DFA022001F089F800225D
:102A200020212046FEF715FA022001F081F800224D
:102A300010212046FEF70DFABDE81040022001F0FB
:102A400077B80000000C014010B50E4C0022202188
:102A50002046FEF7FEF9002210212046FEF7F9F984
:102A6000012210212046FEF7F4F9022001F060F85F
:102A7000012220212046FEF7ECF9BDE8104002209B
:102A800001F056B8000C014070B50A4E0024002138
:102A9000204600F011F8002506EBC500005D00F0AF
:102AA0007BF86D1CEDB2802DF6D3641CE4B2082CCB
:102AB000EDD370BD2802002010B50C4640F0B000E8
:102AC00000F059F8102040EA141000F054F804F017
:102AD0000F00BDE8104000F04EB800002DE9F04FA7
:102AE00000011038C4B2C800A0F1080B1848A14674
:102AF0000BF0FF08002500EB021A00BF0AEB0500EF
:102B0000A0F58050002690F8007EF80701D0012241
:102B100000E0002241462046FFF726FF641C761C99
:102B20007F08F6B2E4B2082EEFD308F1010000F0FE
:102B3000FF08072D05D109F1080000F0FF090BF08F
:102B4000FF086D1CEDB24C46102DD7D3BDE8F08FB9
:102B5000DE620008F0B515460E460746002406E082
:102B60003019C1B23846FFF7B9FF641CE4B22A5DE0
:102B7000002AF5D1F0BD10B50446FFF741FF7820DB
:102B8000FFF70AFF0020FFF707FF2046FFF704FFCB
:102B9000BDE81040FFF758BF10B50446FFF730FFFF
:102BA0007820FFF7F9FE4020FFF7F6FE2046FFF7FA
:102BB000F3FEBDE81040FFF747BF000000B500215D
:102BC000064800F01BF805480121283000F016F8EF
:102BD00002485DF804EB503000F002B8B401002068
:102BE000044901600449416000218160C1600161C4
:102BF000704700000000F0C10000B4C20A4A4FF064
:102C00007E5311B1012902D005E0084900E00849CE
:102C10008360C0E900210021C160016141618161DF
:102C2000C1610162416270470000A0419A99C940A8
:102C3000000010417047704710B50648FEF7FEFCD3
:102C400008210448FEF776FEBDE810400C2101483B
:102C5000FEF770BE54000020FEF706B930B58FB005
:102C600028216846FDF7A6FA14210AA8FDF7A2FA62
:102C700001210804CDE900100024029402250491EA
:102C8000CDE907504FF4E01009906846FEF77AFA54
:102C900008B172B6FEE70F20CDE90A054FF4806057
:102CA000CDE90C4002210AA80E94FEF779F900281C
:102CB00001D072B6FEE70FB030BD70470148FEF795
:102CC000A9BE0000540000200148FEF7A3BE00008A
:102CD00054000020F0B50268164B174C174D4FF00A
:102CE0008047984205D0B84203D0A04201D0A84204
:102CF00003D122F070064A683243984205D0B842A8
:102D000003D0A04201D0A84203D122F44074CA6883
:102D100022434C6922F08002224302608A68C26228
:102D20000A688262984201D1096901630121416107
:102D3000F0BD0000002C01400004004000080040ED
:102D400010B501F01F030121046A99408C4304620D
:102D5000016A9A401143016210BD10B5846842EACD
:102D6000032224F47F440A432243826010BD826818
:102D700022F070020A4342F00701816070470000B0
:102D800030B5026A22F001020262026A4368846975
:102D900024F073050C682C4322F002058A682A434C
:102DA0000A4DA8420BD122F00805CA6823F44073EB
:102DB0002A434D6922F004021D438B692B43436073
:102DC000846149684163026230BD0000002C01400B
:102DD00030B5026A22F010020262026A4368846916
:102DE0000D6824F4E64444EA05248D6822F02002AC
:102DF00042EA05120B4DA8420ED1CD6822F08002A6
:102E000042EA05124D6923F4406343EA85038D6964
:102E100022F0400243EA850343608461496881638C
:102E2000026230BD002C014030B5026A22F480728B
:102E30000262036A4268C46923F4007324F07305D4
:102E40000C682C438D6843EA05230C4DA8420ED133
:102E5000CD6823F4006343EA05234D6922F4405210
:102E600042EA05128D6923F4806342EA051242604A
:102E7000C4614968C163036230BD0000002C014099
:102E800030B5026A22F480520262046A4268C36961
:102E90000D6823F4E64343EA05238D6824F40054C7
:102EA00044EA0534064DA84204D14D6922F480421B
:102EB00042EA85124260C36149680164046230BD20
:102EC000002C014010B5036A046A24F00104046276
:102ED000846924F0F00444EA021423F00A020A434D
:102EE0008461026210BD000070B5046A24F0010420
:102EF00004628469056A0F4EB04208D0B0F1804F79
:102F000005D00D4EB04202D00C4EB04203D124F099
:102F10000304144301E044F001041A0724F0F00410
:102F200044EA126225F00A0301F00A0119438261A2
:102F3000016270BD002C0140000400400008004008
:102F400010B5036A23F0100303628369046A23F453
:102F5000704343EA023224F0A00343EA0111826184
:102F6000016210BD30B5046A24F010040462846963
:102F7000056A24F4407444EA022222F470444FF6B5
:102F8000FF7202EA03322243A02425F0A00304EAE0
:102F9000011119438261016230BD10B5406A002100
:102FA000C185C184FEF713FF10BD0168CA6822F411
:102FB0009072CA6001684A6922F001024A61016B9D
:102FC000012904D10168CA6822F01002CA602021D8
:102FD00080F83E1000210163704708B590F83E105C
:102FE000222901D0022008BD82684FF480539A4202
:102FF00001D1016921B1816A9A421BD04AB10AE02C
:103000000268816A5268C2F308020A80816A891CD8
:1030100008E0026972B10268526802F07F020A7029
:10302000816A491C8162C18D491E0904090CC18550
:1030300003D019E002685268F1E70168CA6822F01B
:103040002002CA600168CA6822F48072CA600168FE
:103050004A6922F001024A61202180F83E10016B8A
:10306000012903D0FFF74CF8002008BD00210163BF
:103070000168CA6822F01002CA6001680A68D206B4
:1030800002D50A6849680091818DFEF79FFEEBE743
:1030900070B5044600680169E26821F440511143AB
:1030A00001612169A0680843616908432168CA6811
:1030B00041F20C639A430243CA6020684169A269E5
:1030C00021F44071114341611E492068884202D1B8
:1030D000FEF712F801E0FDF7FFFF00EBC00101EB86
:1030E0000012606864218000B2FBF0F3B3FBF1F3DF
:1030F0006FF018067343B2FBF0F5B2FBF0F605EB88
:103100008305322303EB0515B5FBF1F5B6FBF1F6AC
:1031100005F0F00505EB0615B2FBF0F6B2FBF0F09A
:10312000B0FBF1F06FF01802504306EB800003EBA8
:103130000010B0FBF1F0216800F00F002844886017
:1031400070BD0000003801402DE9F0419846174657
:103150000E460446069D1DE0681C1BD02DB1FDF7F0
:103160007DFEA0EB0800A84214D92068C16821F4B4
:10317000D071C1602068416921F0010141612020C6
:1031800084F83D0084F83E00002084F83C000320D1
:10319000BDE8F0812068006836EA000004D0002015
:1031A000B842D9D00020F3E70120F9E70148FEF743
:1031B0000FBE00002C010020FEE700000FB4054BFD
:1031C00010B503A9044A029800F0DAF810BC5DF8C3
:1031D00014FB00003D430008500000200907090EC1
:1031E000002804DB00F1E02080F80014704700F0B4
:1031F0000F0000F1E02080F8141D704702E008C8BD
:10320000121F08C1002AFAD170477047002001E060
:1032100001C1121F002AFBD1704700002DE9FF5F9A
:10322000DDE90220010DDDF838B0024318D044F684
:103230001050A1F2FF3141430D140F98012820D006
:10324000A5EB0B00401C5FEA000A4FF00004474E5C
:10325000DFF81C91A046504616D5CAF1000728E0B9
:103260000F98012443A2012808D0002100980F9B49
:10327000C0E90021C0E90243BDE8FF9F6FEA0B01EE
:10328000F4E7CBF10000DEE7074612E0F80707D0CD
:103290002246334640464946FDF71FF98046894697
:1032A0002246334610461946FDF717F904460E46E6
:1032B0007F10002FEAD1DDE90201BAF1000F42468A
:1032C0004B4602DAFDF709F901E0FDF778F904460B
:1032D0000E460022284BFDF731FB03D84FF0FF309C
:1032E000014607E00022254B20463146FDF74EF807
:1032F000FDF70BFB102409E0002C0ADB0A22002357
:10330000FDF71DFA019B30321A55641E50EA010286
:10331000F2D1641C019AC4F1110314440F9A012ADA
:1033200003D0012208430DD10AE0084304D0002055
:103330004FF0110B0F9080E7A3EB0B056D1E0DE016
:103340005B4504DD4FF0000205F1010504E003DAFE
:103350004FF00002A5F10105002AECD000980F996A
:10336000C0E90231C0E9004586E7000000002440C2
:103370000000F03F300000000000F0430000E03F9C
:103380002DE9FF4F95B09B468946064600250FE282
:10339000252877D100242746F84A0121059400E02A
:1033A000044316F8013F203B01FA03F01042F7D125
:1033B00030782A2811D06FF02F033078A0F1300236
:1033C000092A16D8059A44F0020402EB820203EBA4
:1033D00042021044761C0590EFE759F8042B059241
:1033E000002A03DA504244F40054059044F00204E9
:1033F000761C30782E2816D116F8010F44F00404FC
:103400002A280DD06FF02F023078A0F13003092B5D
:1034100009D807EB870302EB4303C718761CF3E7D1
:1034200059F8047B761C30786C280FD006DC4C28C9
:1034300017D068280DD06A2814D104E0742810D061
:103440007A280FD10DE044F400140AE044F480140B
:1034500001E044F440147278824202D104F58014F1
:10346000761C761C307866280BD013DC582877D071
:1034700009DC002875D04528F6D04628F4D0472826
:103480001AD19DE118E0632835D0642879D06528E9
:1034900012D195E1702873D008DC6728F1D0692833
:1034A0006FD06E280DD06F2806D1B5E073282CD0D0
:1034B000752875D0782874D05A46179990476D1C96
:1034C00075E1C4F30250022809D003280DD0D9F8C1
:1034D000001004280DD00D6009F1040967E1D9F846
:1034E0000010EA17C1E90052F6E7D9F800100D8084
:1034F000F2E70D70F0E719F8041B8DF800100020BA
:103500008DF80100EA46012003E059F804AB4FF0C2
:10351000FF3061074FF0000102D40DE008F1010116
:103520008846B9420FDA8045F8DB1AF808100029FE
:10353000F4D108E008F1010188468142FADB1AF86B
:1035400008100029F6D105985B46A0EB0807214634
:103550003846179A00F094FA284400EB080507E073
:103560004DE029E10DE01AF8010B5A4617999047F2
:10357000B8F10108F7D25B4621463846179A13E1A5
:1035800042E00A220092C4F302524FF0000A022ADB
:1035900008D059F804CB032A4FEAEC710AD00DE0A9
:1035A00029E02AE009F1070121F00702F2E802C14F
:1035B000914609E00FFA8CFC4FEAEC71042A03D122
:1035C0004FFA8CFC4FEAEC71002907DA0A46002119
:1035D000DCF1000C61EB02012D2202E0220504D592
:1035E0002B228DF80420012203E0E20701D02022E3
:1035F000F7E7904659E00A2102E010220DE0102181
:103600004FF0000A00910BE010224FF0000A44F046
:1036100004040827009203E008224FF0000A0092F9
:10362000C4F30252022A05D059F804CB0021032A20
:1036300008D009E009F1070121F00702F2E802C110
:10364000914605E01FFA8CFC042A01D10CF0FF0C16
:103650004FF00008220728D5702806D0009B83F081
:10366000100353EA0A0305D00EE040228DF804202F
:10367000012208E05CEA010206D030228DF8042025
:103680008DF8050002229046009B83F0080353EA60
:103690000A030AD15CEA010201D1620705D5302292
:1036A0008DF804204FF001087F1E582804D034A064
:1036B00003900EA802900DE036A0F9E7534660464D
:1036C000009AFDF73CF884460398825C0298401EFD
:1036D000029002705CEA0100F0D1029806A9081A73
:1036E00000F1200A600702D524F4803400E00127AD
:1036F000574502DDA7EB0A0000E0002000EB0A01BD
:10370000009005984144401A0590E00306D45B46BA
:103710002146179A059800F0B3F90544002706E002
:1037200001A85A46C05D179990476D1C7F1C4745FC
:10373000F6DBE0030CD55B462146179A059800F0AE
:103740009FF9054404E030205A46179990476D1CB4
:103750000099481E00900029F5DC08E002980299C3
:103760005A460078491C0291179990476D1CBAF18E
:103770000001AAF1010AF1DC65E10000092801005D
:1037800030313233343536373839616263646566D7
:103790000000000030313233343536373839414299
:1037A000434445460000000000F058F90544761CEB
:1037B000307800287FF4ECAD19B02846BDE8F08FD2
:1037C000620700D4062709F1070222F0070CFCE883
:1037D0000223E14603F000485FEA080C02D00FF232
:1037E000702C0DE05FEA045C02D50FF2682C07E054
:1037F0005FEAC47C02D00FF2602C01E0AFF2700CE3
:103800004FF0FF3823F00043CDF850C065280CD0AE
:1038100006DC452809D046281DD047283DD13DE08B
:10382000662818D067287ED138E00021112F01DBEF
:10383000112000E0781CCDE9000106A90EA8FFF7D1
:10384000EDFCDDE90F010E9A03910021009207F1D2
:10385000010A04914DE04FF000400097CDE90110BE
:1038600006A90EA8FFF7DAFCDDE90F0203920E9B12
:1038700011990022DDF80CA00093049211B9791C73
:1038800000EB010AB7EB0A0004D4C0F1FF3007F1E6
:10389000010A0490AAEB0700019044E0012F00DA2E
:1038A00001270021112F01DD112000E03846CDE96C
:1038B000000106A90EA8FFF7B1FCDDE90F010E9A81
:1038C0000391002104910092BA4621070CD4039978
:1038D000514500DA8A46BAF1010F05DD009AAAF1D6
:1038E0000101515C302908D0B84202DA10F1040F0E
:1038F00006DA0121CDE9011015E0AAF10101E9E79D
:10390000002805DC049901440491AAEB000102E0BF
:10391000411C514500DD8A460499401A401C019023
:103920004FF000400290200704D40198504501DB7D
:10393000CDF8048000208DF84F0002980DF14F075C
:10394000B0F1004F25D02B200E9002984FF00208C6
:1039500000280CDA404202902D200E9007E00A2148
:103960000298FCF7D6FE3031029007F8011DB8F13D
:103970000001A8F10108F2DC02980028EFD1791EBD
:103980000E980870307800F0200040F0450007F8ED
:10399000020D12A8C01B00F107081498007800B1AE
:1039A000012000EB0A01019801EBE0710598414408
:1039B000401A401E0590E00306D45B462146179A44
:1039C000059800F05DF805441498007818B15A463F
:1039D000179990476D1CE00324D55B462146179A42
:1039E000059800F04DF805441CE00498002807DB1A
:1039F000DDE90301884203DD0098405C179901E08E
:103A0000179930205A469047049805F10105401C4B
:103A100004900198401E019004D12E205A46179917
:103A200090476D1CBAF10001AAF1010ADDDC05E046
:103A300017F8010B5A46179990476D1CB8F1000111
:103A4000A8F10108F4DC5B462146179A0598ABE61D
:103A50002D0000002B000000200000002DE9F041A7
:103A6000044600251E461746880404D405E039465E
:103A70002020B0476D1C641EF9D52846BDE8F081B2
:103A80002DE9F041044600251E469046C80301D5A5
:103A9000302700E02027880404D505E04146384659
:103AA000B0476D1C641EF9D52846BDE8F0810000C2
:103AB0002DE9FE4F07460E460025684600F04AFCF9
:103AC00000246FF00F0AE8464FF0010957F8240070
:103AD00056F82410401A00D54042FCF7DFFD51464D
:103AE000FCF748FC58F8241011F0FF4F0BD0FCF7FE
:103AF00003FC4FF07E51FCF7C7FB0A4920F0004061
:103B0000884205DC07E0084908440849884202D396
:103B100009FA04F00543641C032CD7DB2846BDE8F2
:103B2000FE8F0000295C0F3E666666C19A99D90037
:103B300010B50446FDF7CAFA0349B0FBF1F1614341
:103B4000491EFDD210BD000000093D0008B560B15E
:103B500020208DF8000028208DF8010030208DF8FD
:103B6000020038208DF8030004E0A32204216846F7
:103B7000FCF719FB6A46042140F69E2001F0EAFC9E
:103B800001F0A8F908BD00003EB5044602208DF8FA
:103B90000000CA208DF80100E3208DF80200092002
:103BA0008DF803006A460421682001F0D3FCA320AD
:103BB0008DF80000610609D5C0218DF80110C821DB
:103BC0008DF80210C2218DF8031005E08DF8010078
:103BD0008DF802008DF8030014F4C07F09D0C421D1
:103BE0008DF80410CC218DF80510C6218DF8061033
:103BF00005E08DF804008DF805008DF806008DF8BD
:103C000008008DF807008DF809006A460A2140F681
:103C1000A72001F09FFCA0074FF0D80503D020207B
:103C20008DF8000001E08DF800506A46012140F651
:103C3000B62001F08FFCA00601D5012000E0002095
:103C400000F08EF814F4C07F1ED0E0050AD5B22033
:103C50008DF800008B208DF80100B6208DF8020051
:103C60009B2009E0B0208DF8000080208DF8010035
:103C7000B4208DF8020090208DF803006A460421DC
:103C800040F6A22001F066FCE1074FF40B6022D061
:103C9000F8218DF800106A46012101F05BFCFA2141
:103CA000072000F097FA072000F062FA012000F0E8
:103CB0007FFA642000F022FB4FF4FA7000F02EFB34
:103CC000C821254800F01CFA282000F031FA0A200B
:103CD00000F03EFA05E08DF800506A46012101F03F
:103CE00039FCA00703D5D9208DF8000001E08DF83C
:103CF00000506A46012140F23D7001F02BFC600744
:103D000001D5012000E0002000F048F8E00601D5D0
:103D1000012000E00020FFF719FF104D44F00800DB
:103D2000688101F0D7F80020A873600601D506204D
:103D3000A87314F4C07F02D0A87B801DA87314F070
:103D4000140F02D0A87B1030A873A00702D0A87B64
:103D5000001DA87300203EBD09E3CA02180200201E
:103D60000EB54FF4976310B106A107C901E008A290
:103D700007CA8DE807006A460921184601F0EAFBE8
:103D80000EBD0000B8AAB38DB4980D355D000000DB
:103D9000B8AAAAAAB088C3C5C700000008B560B118
:103DA000C0208DF80000C2208DF80100C4208DF8DD
:103DB0000200C6208DF8030004E08B22042168462F
:103DC000FCF7F1F96A46042140F6982001F0C2FBA5
:103DD00001F080F808BD0000C8234FF4806202495A
:103DE00040F6F63000F0A0BFE85600082DE9FF418C
:103DF000044603A800F04EFEBDF80C00410CC303BE
:103E00002F48028902F00300550754F8200000D51E
:103E10004042C2F3C105960654F8255000D56D42C4
:103E2000C2F38116D20554F8264000D56442A0FBA7
:103E30000367C21702FB037200FB0120820042EA03
:103E40009670A5FB0367EA1702FB037205FB0122CC
:103E5000950045EA9672A4FB0367E51705FB03731B
:103E600004FB01318B0043EA9671030E8DF800309C
:103E7000030C8DF80130030A8DF802308DF8030031
:103E8000100E8DF80400100C8DF80500100A8DF846
:103E90000600080E8DF80800080C8DF80900080AC5
:103EA0008DF80A008DF807208DF80B106A460C215A
:103EB0004FF4257001F04EFB04B0BDE8F081000026
:103EC0001802002030B5044613A285B007CA8DE859
:103ED00007004FF0FF35C82C16D8C820B0FBF4F10E
:103EE000491E080A8DF80C008DF80D1003AA022156
:103EF00040F2162001F02EFB30B96A460C2140F644
:103F0000C12001F027FB10B1284605B030BD05489F
:103F100084810020F9E70000FEF2ABC4AAF1DFDFE4
:103F2000BBAFDFDF18020020F8B53049098901F086
:103F3000030250F822404A0700D56442C1F3C1028F
:103F40008B0650F8222000D55242C1F3811350F85D
:103F50002330C80500D55B42254984FB014085001C
:103F600045EA947082FB0142A40F44EA820483FB79
:103F70000121950F45EA8105010E8DF80010010C15
:103F80008DF80110010A8DF802108DF803006A46C1
:103F900004214FF4747001F0DDFA4FF0FF3688B958
:103FA000200E8DF80000200C8DF80100200A8DF8FD
:103FB00002008DF803406A4604214FF4757001F049
:103FC000C9FA08B13046F8BD280E8DF80000280C5B
:103FD0008DF80100280A8DF802008DF803506A461A
:103FE00004214FF4767001F0B5FAF8BD18020020F4
:103FF00009E3CA022DE9FF4104463CA004F0030393
:10400000006802903AA0006803903AA006683AA0BF
:10401000056802A8C15C8DF80010C4F3C101425CC0
:104020008DF80120C4F38112805C8DF8020003A892
:10403000C35C8DF80430415C8DF80510805C8DF810
:1040400006006A46032140F2264001F083FA4FF051
:10405000FF37E0BB01AA032140F22A4001F07AFABF
:10406000A8BBCDE9006560070BD59DF8000040F0C6
:1040700001008DF800009DF8040040F001008DF86B
:104080000400A0060BD59DF8010040F001008DF85A
:1040900001009DF8050040F001008DF80500E005E5
:1040A0000BD59DF8020040F001008DF802009DF84C
:1040B000060040F001008DF806006A4603214FF427
:1040C000886001F047FA10B901AA032100E004E07A
:1040D00040F2314001F03EFA18B1384604B0BDE874
:1040E000F081064804810020F8E700004CCD6C0008
:1040F0000CC92C00365676002646660018020020B1
:104100004FF47A7290FBF2F008B54843010E8DF837
:104110000010010C8DF80110010A8DF802108DF8C5
:1041200003006A4604214FF4AE7001F013FA08BD93
:104130000521B0FBF1F008B5010A8DF800108DF8EB
:1041400001006A4602214FF4AD7001F003FA08BD88
:104150000521B0FBF1F008B5010A8DF800108DF8CB
:1041600001006A4602214FF4AC7001F0F3F908BD7A
:1041700008B500218DF80010C10702D030218DF85C
:104180000010810705D59DF8001041F00C018DF855
:104190000010400705D59DF8000040F003008DF8A1
:1041A00000006A4601214FF4A47001F0D3F908BD64
:1041B00008B560B1042800D90420401E8DF8000025
:1041C0006A46012140F24F1001F0C4F908BD0120F8
:1041D000F3E700002DE9FC41054640074FF0FF36AC
:1041E0007CD0B1F5C86F79D80846FCF760FA3E4933
:1041F000FCF782F8074601A800F02EFC9DF80400A9
:10420000022806D004280DD008282ED0102865D109
:1042100034E00E213846FCF7ADF8FCF766FA84B2BC
:10422000324907E00D213846FCF7A4F8FCF75DFAA7
:104230002F4984B23846FCF72DF8FCF756FA210ACC
:104240008DF8001080B28DF80140010A8DF802103F
:104250008DF80300E8076C4620D0224602214FF477
:10426000EA7001F077F9C8BB11E00C213846FCF781
:1042700081F8FCF73AFA84B21E49DBE70B21384695
:10428000FCF778F8FCF731FA84B21B49D2E7A21C9C
:1042900002214FF4927001F05DF9F8B9A8070DD52D
:1042A0006A4602214FF4EC7001F054F9B0B9A21C37
:1042B00002214FF4947001F04DF978B9680710D5D8
:1042C0006A4602214FF4EE7001F044F930B9A21CA5
:1042D00002214FF4967001F03DF910B13046BDE86F
:1042E000FC810020FBE7000000004843000040463E
:1042F0000000C045000040450000C0440521B0FB5F
:10430000F1F008B5010A8DF800108DF801006A4639
:1043100002214FF4EF7001F01DF908BD0521B0FB3B
:10432000F1F008B5010A8DF800108DF801006A4619
:1043300002214FF4ED7001F00DF908BD13B54FF6F1
:10434000FF73012269460248FDF7DCFE00981CBDA0
:104350002C0100202DE9FE430646264801AB04222D
:1043600040680D210078FEF797F810B10720BDE8EE
:10437000FE839DF804101C2000EAD1029DF807106E
:10438000DFF87490C1F301131A438DF800209DF8F3
:104390000520C1F3810300EAD2021A438DF80120FF
:1043A0009DF8062001F0030100EAD2000843002432
:1043B000124F8DF80200A0466D46285D10B146F8F8
:1043C00024900AE046F824800DE000BF56F824004F
:1043D0003946FBF75FFF46F82400285D401E10F0C9
:1043E000FF002855F2D1641CE4B2032CE5D3002071
:1043F000BDE70000180000207B14AE3E1D5A843F2C
:104400002DE9FE4F05460120C14E8DF800004FF00A
:1044100000088DF8018030680C461746817C706872
:104420006B4602220078FEF7C4F84FF0FF3A0028EE
:104430007AD1C820FCF7FEFB8DF8008030686B460F
:104440000122C17B70680078FEF7B3F80028EFD135
:1044500030686B460122417970680078FEF7A9F850
:104460000028E5D130686B460122817C70680078B5
:10447000FEF79FF80028DBD130686B460122C17D32
:1044800070680078FEF795F80028D1D130686B4647
:104490000122017970680078FEF78BF80028C7D1F7
:1044A0004FF00C098DF8009030686B4601220179BD
:1044B00070680078FEF77DF8002835D10F20FCF7F2
:1044C000B9FBB06A6B460122407A8DF80000306873
:1044D000817870680078FEF76CF8002824D1B06A03
:1044E0006B460122007A8DF80000306841787068D0
:1044F0000078FEF75EF8002873D1B06A807A0FB1B9
:1045000040F0E0008DF8000030686B4601228179B0
:1045100070680078FEF74DF8002862D12FB1B06ABC
:10452000C07A40F0E00001E04AE018208DF8000079
:1045300030686B460122C17970680078FEF739F85F
:10454000F0BB17B1C820FCF775FB40208DF80000C8
:1045500030686B460122017970680078FEF729F80F
:1045600070BB78208DF8000030686B4601224179DD
:1045700070680078FEF71DF810BB3220FCF75AFB7C
:104580008DF80080306847466B464179706801229B
:104590000078FEF70EF898B931687068B046897AED
:1045A00000786B460222FDF777FF48B9BDF800009E
:1045B000AF6040BAB0FBF9F06F60C6B22F6000E0A8
:1045C0000FE0A76067602760002739E0D8F8001087
:1045D000D8F804006B46C97A00780C22FDF75CFF1E
:1045E00010B15046BDE8FE8FBDF80000236840BA08
:1045F00002B2BDF80200BDF804101A44226040BAAD
:10460000626800B21044606049BAA06809B2084408
:10461000A060BDF806002B6840BA02B2BDF80800E1
:104620001A4440BA01B2BDF80A002A606A6840BA6A
:1046300011446960A96800B208447F1CFFB2A860F9
:10464000B742C3D328688322C117090441EA104145
:1046500000040023FBF766FD32460023FBF762FDF2
:10466000286068688322C117090441EA10410004E8
:104670000023FBF757FD32460023FBF753FD68602C
:10468000A8688322C117090441EA104100040023ED
:10469000FBF748FD32460023FBF744FDA860206885
:1046A0004FF40065C117090441EA104100042A468D
:1046B0000023FBF737FD32460023FBF733FD206074
:1046C00060682A46C117090441EA1041000400232A
:1046D000FBF728FD32460023FBF724FD6060A0684D
:1046E0002A46C117090441EA104100040023FBF7E0
:1046F00019FD32460023FBF715FDA060002802DDFE
:10470000A0F5803001E000F58030A060002069E76E
:10471000180000202DE9F84F81462E4888460025D4
:1047200040686B46032200780D21FDF7B5FE10B1FD
:104730000720BDE8F88F9DF80000002400F01F005E
:104740008DF800009DF801006FF00F0B00F01F00C6
:104750008DF801009DF802006E4600F01F008DF8F4
:1047600002004FF0010A00BF59F8241058F8240045
:10477000081A00D54042FBF791FF5946FBF7FAFDB6
:104780000746305DC0B1144802E01449FBF782FDD2
:10479000315D491E11F0FF013155F6D10146384611
:1047A000FBF7AAFD4FF07E51FBF76EFD0C4920F0A0
:1047B0000040884205DC07E00A483844B0F1D97F60
:1047C00002D90AFA04F00543641C032CCCDB28460A
:1047D000AFE70000180000200000C84154E3853F07
:1047E000295C0F3E0000E0BE00B5024600F00DF867
:1047F0000346D01C00F009F843EAC003901D00F006
:1048000004F843EA801080B200BD90F9001000293E
:1048100002DD4FF00000704702DA4FF004007047ED
:1048200090F90110002902DD4FF00100704702DA13
:104830004FF00500704790F90200002802DD4FF0AC
:104840000200704702DA4FF0060070474FF0070091
:1048500070470000FCF710FBFEF700FAFDF7E8FEDA
:10486000FDF7D0FEFDF7FEFFFDF760FFFDF7B2FF9D
:10487000FEF738F8FEF7E0F91BA0FEF79FFCFEF705
:104880004FF81DA0FEF79AFC1FA0FEF797FCFEF75D
:1048900095F921A0FEF792FCFDF7A6FD22A0FEF7F8
:1048A0008DFC00F08BF824A0FEF788FC26A20421E2
:1048B0000220FEF74FF9FEF7E7F86420FCF7BAF99B
:1048C00011A0FEF77BFC234D4FF400544FF47A7691
:1048D00021462846FCF7B5FA1FA0FEF76FFC3046CC
:1048E000FCF7A8F9F4E700003131313131313131D1
:1048F00031310D0A000000003232323232323232AF
:1049000032320D0A00000000333333333333333394
:1049100033330D0A0000000034343434343434347A
:1049200034340D0A00000000353535353535353560
:1049300035350D0A00000000363636363636363646
:1049400036360D0A00000000537563636565642107
:10495000000000000010014048656C6C6F576F72DA
:104960006C640D0A000000002DE9F041124C20F0AB
:104970000101002594F8240010B10020BDE8F08169
:10498000A07A4FF0FF3668B10840277C2074884237
:1049900000D0354641B1012000F046FE00F09AFA01
:1049A00038B127743046E9E7207D00B1012000F0DE
:1049B0003BFE2846E2E700001800002010B5FDF796
:1049C00023FC00F0EDF808B10A2010BD782000F0BB
:1049D00065FD10F0FF0F01D0012010BD7820FFF71A
:1049E000C3FF10F0FF0F01D0022010BD642000F0C3
:1049F00015FD10F0FF0F01D0032010BDFFF7ECF9FB
:104A000010F0FF0F01D0042010BD1248FFF7ECFE9C
:104A1000FFF7F0FA10F0FF0F01D0052010BD40F2B3
:104A20007310FFF7B1F810F0FF0F01D0062010BD92
:104A30006420FFF747FA10F0FF0F01D0072010BDE8
:104A400000F0B2FD012000F00FFC10F0FF00F6D0E6
:104A5000092010BD440000200D494A7A42B1012AC4
:104A600008D0022A0FD0032A0FD04FF0FF30704732
:104A7000022200E004220270C97C11B11106C90DA6
:104A80000170002070470822F5E71022F3E70000CC
:104A9000180000200F494A7A42B1012A09D0022A9F
:104AA00011D0032A12D04FF0FF3070474FF48042EC
:104AB00001E041F69C720280C97C11B1C2F34E0143
:104AC0000180002070474FF48052F4E74FF40062F9
:104AD000F1E70000180000200B49097A39B10129DB
:104AE00007D002290AD003290BD0002103E0FA21C4
:104AF00001E04FF4FA710180002070474FF47A71A1
:104B0000F9E74FF4FA61F6E7180000200A49097A3C
:104B100041B1012908D002290AD003290AD04FF057
:104B2000FF307047054900E00549016000207047EB
:104B30000449FAE70449F8E718000020000003439D
:104B40000000834233330342333383410C49C97A33
:104B5000072913D2DFE801F01204060A0C0E100038
:104B6000BC2100E062210180002070472A21FAE781
:104B70001421F8E70A21F6E70521F4E70021F2E71E
:104B800018000020054991F8242012B14FF0FF30A1
:104B90007047C9890180002070470000180000207C
:104BA0002DE9FC414C4C80208DF8000020686B46BC
:104BB0000122817C60680078FDF7FBFC4FF0FF3735
:104BC000002832D16420FCF735F800258DF800501C
:104BD00020686B460122817C60680078FDF7E9FC63
:104BE000002870D120686B460622817D60680078BD
:104BF000FDF752FC002866D19DF805009DF80310D2
:104C0000C007400F01F0010140EA41019DF8010099
:104C10004FF0010600F00100014309D0012905D041
:104C2000022915D02DA0FEF7C9FA4CE0E67410E079
:104C300020686B460122C17860680078FDF72CFC83
:104C400040BB9DF8000010F00F0020D0042822D0B7
:104C5000E574FF2004F80A0F4FF6FF7104F8020C08
:104C600004F8010C6070A180A0712072A6702676F5
:104C70006576E572A572E56025616561A576E576E4
:104C8000A5834FF4FA6000F02BFB18B907E01D482C
:104C9000FEF794FA17E01CA0FEF790FAC6E7022090
:104CA00000F040FA78B92A2000F082FB58B932208F
:104CB00000F0B4FB38B90020FFF756FE18B9002009
:104CC00000F064FA10B13846BDE8FC81002000F025
:104CD000E5FB0020F8E7000018000020556E737512
:104CE00070706F7274656420736F6674776172653B
:104CF0002070726F64756374207265762025642E4F
:104D00000A000000D068000848616C662073656E78
:104D10007369746976697479207061727420666F42
:104D2000756E642E0A0000002DE9FF4FDFF89480B5
:104D3000064685B098F8250015460F464FF0FF3916
:104D4000B0BBAFB3002420E0301B102800DD1020E2
:104D500080B283463A1901469246204600F0FAFB9B
:104D600030BB6A465946204600F08AF800BB5046E0
:104D70005A466946FBF729FA20B16FF0010009B0E5
:104D8000BDE8F08F04EB0B0084B2B442DCD3280AF8
:104D90008DF810008DF81150D8F80000444604AB8F
:104DA000817ED8F8040002220078FDF702FC08B1E9
:104DB0004846E4E7012084F825000898E0840020B4
:104DC000DDE70000180000202DE9F84305464FF00C
:104DD000FF39282844D80727284C00267DB1012018
:104DE00000F0B4FA20208DF800004FF00108012DEA
:104DF00017D0052D18D88DF8018005201FE0002060
:104E000000F0A4FA8DF800608DF8017020686B4600
:104E10000222817C60680078FDF7CBFB00BB267521
:104E200029E08DF80160E8E7142D04D802208DF800
:104E300001000A2003E003208DF80100142000F097
:104E4000B7FA9DF801006B4607EB80108DF8010062
:104E500020680222817C60680078FDF7AAFB10B10F
:104E60004846BDE8F8830820A072267384F81480B1
:104E70000020FFF779FD0020F3E700001800002074
:104E8000F8B516000D464FF0FF371FD0104CA17A31
:104E9000E1B1010A8DF80010C0B28DF8010041198E
:104EA00060684289914211D8216800786B46097E7A
:104EB0000222FDF77EFB48B92068EAB23346417D05
:104EC00060680078FDF7E8FA002800D03846F8BDA1
:104ED00018000020F8B5564C4FF0FF36A07A002895
:104EE0007DD000258DF8005020686B460122C17BE3
:104EF00060680078FDF75DFB002870D120686B4684
:104F00000122417960680078FDF753FB002866D1E3
:104F100020686B460122017960680078FDF749FB43
:104F200000285CD194F82400E0B30C208DF8000038
:104F300020686B460122017960680078FDF739FB33
:104F4000002872D13220FBF775FEC0208DF80000DA
:104F5000A07AC00702D0E0208DF8000020686B46E0
:104F60000122017960680078FDF723FB00285CD1FD
:104F7000607C18B102208DF8000001E08DF800502F
:104F800020686B460122C17B60680078FDF711FB49
:104F900028BB8DF8005020686B460122417960687B
:104FA00000783EE0FFE704208DF8000020686B46A3
:104FB0000122017960680078FDF7FBFA78B9A07CDE
:104FC00090B9A07AC0070FD05FF060008DF80000A4
:104FD00020686B46012201796068007800E024E0D7
:104FE000FDF7E7FA08BB01E04020EFE73220FBF7CE
:104FF00021FE607C18B101208DF8000001E08DF8E1
:10500000005020686B460122C17B60680078FDF784
:10501000D0FA50B92068064B0122417960681033FC
:105020000078FDF7C6FA002800D03046F8BD000031
:10503000180000202DE9F047394C82468AB094F8D8
:1050400024000F4620B1002000F00EF9012600E0F8
:10505000002607A8FFF740FD06A8FFF7FDFC09A8FA
:10506000FFF774FD08A8FFF78DFD94F80A9094F8F7
:1050700010800025002239465046FFF7C1F910B1D3
:105080006D1C022DF6DB022D1AD00025012203A98A
:105090006846FFF7B5F910B16D1C022DF6DB022D45
:1050A0000ED003A93846FEF703FDC7B26946504645
:1050B000FFF730FB10F0FF0F4FF0000502D002E0C9
:1050C000002503E001250FB945F00205FF202072FD
:1050D0006072E0724FF6FF71E181A07220740120CE
:1050E0002073BDF81C0000F0FBF89DF8180000F0DC
:1050F00019F8BDF8240000F05BF9BDF8200000F0BD
:105100008DF9484600F0CAF94046FFF72DFC16B16C
:10511000012000F0A9F80AB02846BDE8F087000099
:105120001800002038B5184C4FF0FF35A17A19B39C
:10513000022806D0042806D008280ED010281BD13B
:105140000DE0002000E008208DF80000607A9DF856
:105150000010B0EBD10F04D005E01020F4E71820C8
:10516000F2E7002038BD20686B460122C1796068F3
:105170000078FDF71EFA08B1284638BD9DF80000FA
:10518000C0086072EDE7000018000020F8B5354C4B
:105190000546A07CA84201D10020F8BD31484FF05F
:1051A000FF366B46D0E900104FF001020979007814
:1051B00035B3FDF771F970BB9DF800006B4620F028
:1051C00020008DF8000020680122017960680078D5
:1051D000FDF7EFF9F8B90320FBF72CFD02208DF85D
:1051E000000094F8220078B382202BE020686B4600
:1051F0000122017D60680078FDF7DBF958B92EE0E7
:10520000FDF74AF938B9A07AC0079DF8000003D02D
:1052100040F0200002E00CE020F020008DF80000BB
:1052200020686B460122017960680078FDF7C1F9BA
:1052300008B13046F8BD0320FBF7FCFC94F82200CF
:1052400000B180208DF8000094F823000028CDD014
:105250009DF8000040F030008DF80000C6E7A5740E
:105260009AE700001800002038B51C4C94F8241070
:1052700081421DD0002500B394F82500D0B1002054
:1052800000F0D2F90020FFF781FFE08C00F0C6F8B3
:105290008DF8005060686B46012200782321FDF7ED
:1052A00088F9012084F8240000F0BEF9FFF712FE0F
:1052B000002038BD4FF0FF3038BD002000F0B4F9B9
:1052C000207C8DF8000060686B4601220078232165
:1052D000FDF76FF984F82450E8E70000180000207B
:1052E00038B5194C4FF0FF35A17A31B3FA2809D0FF
:1052F000B0F5FA7F08D0B0F57A7F0FD0B0F5FA6F2D
:105300001BD10DE0002000E008208DF80000207A7D
:105310009DF80010B0EBD10F04D005E01020F4E7A9
:105320001820F2E7002038BD20686B460122817901
:1053300060680078FDF73DF908B1284638BD9DF852
:105340000000C0082072EDE71800002038B5174CA7
:10535000054694F82300A84201D1002038BD0DB1C4
:10536000302000E000208DF80000A07C28B19DF8DE
:10537000000040F002008DF8000094F8220028B1EF
:105380009DF8000040F080008DF8000020686B461A
:105390000122017D60680078FDF70BF910B14FF034
:1053A000FF3038BD84F82350D7E7000018000020F4
:1053B00038B5194C4FF0FF35A17A31B3BC2801D371
:1053C000012010E0622801D302200CE02A2801D33A
:1053D000032008E0142801D3042004E00A2801D3A4
:1053E000052000E006208DF80000E07A9DF800100E
:1053F000884201D1002038BD20686B4601228178A7
:1054000060680078FDF7D5F808B1284638BD9DF8EA
:105410000000E072EEE7000018000020F8B51E4D15
:1054200004464FF0FF37A87A48B395F8240030BB04
:10543000287D4FF47A7648B164B1282C03D8E0B2C5
:10544000FFF7C2FC26E00020FFF7BEFC042C05D2CB
:10545000042406E00020FFF7B7FCF9E7B44200D9C6
:105460003446B6FBF4F0401E8DF8000028686B4609
:105470000122417868680078FDF79BF808B138464A
:10548000F8BD9DF80000401CB6FBF0F0E881400834
:10549000FFF78EFF0020F8BD18000020F8B5054684
:1054A00010F0700F4FF0000601D0012004E015B19C
:1054B0008DF8006002E040208DF80000244C6B461F
:1054C00001222068817C60680078FDF772F84FF057
:1054D000FF3760BB9DF8000020F0400020738DF87E
:1054E0000060680602D404208DF80000A80605D4E8
:1054F0009DF8000040F002008DF80000E80605D499
:105500009DF8000040F001008DF80000280705D448
:105510009DF8000040F038008DF8000020686B46D0
:105520000122C17C60680078FDF743F810B1A672D3
:105530003846F8BD25B1082D02D00020FFF706FF40
:10554000A57226753220FBF775FB0020F8BD000020
:1055500018000020F8B516000D464FF0FF371FD099
:10556000104CA17AE1B1010A8DF80010C0B28DF89B
:105570000100411960684289914211D82168007880
:105580006B46097E0222FDF714F848B92068EAB29A
:105590003346417D60680078FDF70BF8002800D0A5
:1055A0003846F8BD1800002010B588B0694604A838
:1055B000FFF740FD072802D0012008B010BD07A862
:1055C000FFF7A4FA0498FBF769F807990C46FAF775
:1055D00061FEFBF771F804900598FBF75FF8214630
:1055E000FAF758FEFBF768F805900698FBF756F8AF
:1055F0002146FAF74FFEFBF75FF8069004A8FEF786
:1056000093FC03A8FFF746FABDF80C00009941434C
:1056100000910199414301910299414368460291E9
:10562000FEF7E4FB0020C8E7F8B5144C014622461B
:1056300094F82460D2E9000200235D1E56B179B1CE
:10564000022111E0C17B10786B460122FCF7B1FF0B
:1056500068B90EE0A67A56B111B1617C61B902E079
:105660008DF80030EEE701218DF80010EAE72846BA
:10567000F8BD9DF8000060740020F8BD18000020FF
:1056800000000000000000000102030406070809F2
:10569000000000000102030475191A0C6A231B1C88
:1056A0001F207274433B4138393A6B6C376F0624C4
:1056B0006D6E70006800000476005401F7FD000173
:1056C00083000000000800000001001832000500FF
:1056D000000020410000D242295C0F3E9A99993E79
:1056E0003333733F295C0F3E00007000000000243C
:1056F000000000020003000000650054FFEF0000FE
:10570000FA80000B12820001030C30C30E8C8CE96E
:1057100014D5400213710F8E3883F8833000F8835C
:10572000258EF8833000F883FFFFFFFF0FFEA9D618
:10573000240004001A8279A10000003CFFFF000051
:105740000010000038836FA2003E033040000000CC
:1057500002CAE3093E8000002000000000000000B3
:105760004000000060000000000C0000000C186EFB
:10577000000006920A16C0DFFFFF0256FD8CD377A9
:10578000FFE1C496E0C5BEAA00000000FFFF0B2B9E
:1057900000001657000003594000000000001DFAE9
:1057A00000026C1D000000003FFFDFEB003EB3B6BF
:1057B000000D227800002F3C00000000001942B5C7
:1057C000000039A20000B365D90E9FC91DCF4C342B
:1057D00030000000500000003BB67AE80064000092
:1057E00000C8000000000000100000001000FA9245
:1057F0001000225E000D229F000100000032000018
:10580000FF46000063D400001000000004D6000032
:1058100004CC000004CC0000000010720000004026
:105820000000000000000000000600020005000764
:1058300000000000006400000000000000000005FF
:1058400000050064002000000000000000000000CF
:10585000000040000000030000000032F898000043
:10586000FF650000830F0000FF9BFC0000000000AC
:105870000000000000000000000000000000000028
:105880000000000000000000000000000000000018
:1058900000000000000010004000000000000006B2
:1058A0000000B26A000200000001FB8300680000F3
:1058B00000D9FC007CF1FF830000000000650000BF
:1058C000006403E8006400280000002500000000D8
:1058D00016A000000000100000001000002F0000C3
:1058E000000001F40000100000280000FFFF4581C7
:1058F000FFFFFA72000000000000000000440005F5
:105900000005BAC6004778A20000000100000000B0
:1059100000000600000000140000254D002F706DEF
:10592000000005AE000C02D00000000000000000E6
:105930000000000000000000001B0000000000004C
:1059400000000000000000000064000000080000EB
:105950000000000000000000000000000000000047
:105960000000000000000000000000000000000037
:105970000000000000000000000000000000000027
:105980000000000000000000000000000000000017
:105990000000000000000000000000000000000007
:1059A0000000000000000000001B000000000000DC
:1059B00000000000000E000E00000AC700040000F6
:1059C00000000032FFFFFF9C00000B2B00000002D4
:1059D0000000000100000064FFE50000000000007E
:1059E00000000000000000000000000100000000B6
:1059F00000010000000000000001800000018000A4
:105A000000018000002426D30000000000000000F8
:105A1000000600100096003C00000000000000009E
:105A200000000000000000000C0A4E68CDCF77098E
:105A300050166759C619CE82000000000000000011
:105A40000000000000000000000000000000000056
:105A500017D78400030000000000000000000000D1
:105A6000C7938F9D1E1B1C19000000000000000042
:105A70000000000000000000000000000000000026
:105A8000020318850000400000000003000000032E
:105A900000000000000000004000000000000000C6
:105AA00000000000000000000000000000000000F6
:105AB00000000000000000000000000000000000E6
:105AC000000000000000000000000000677DDF7E95
:105AD00072902E554CF6E688000000000000000091
