:020000040800F2
:10000000800500200101000877200008BF1D0008BE
:1000100075200008D7070008292900080000000003
:100020000000000000000000000000009B2000080D
:10003000F107000800000000992000089D2000083A
:100040001B0100081B0100081B0100081B01000820
:100050001B0100081B0100081B0100081B01000810
:100060001B0100081B0100081B0100081B01000800
:100070001B0100081B010008D9070008E50700085C
:100080001B0100081B0100081B0100081B010008E0
:100090001B0100081B0100081B0100081B010008D0
:1000A0005D210008812100087521000869210008F0
:1000B0001B0100081B0100081B0100081B010008B0
:1000C0001B0100081B0100081B0100081B010008A0
:1000D0001B0100081D2900081B0100081B01000866
:1000E0001B0100081B0100081B010008DFF80CD0F1
:1000F00000F03EFB00480047553300088005002013
:100100000648804706480047FEE7FEE7FEE7FEE7B1
:10011000FEE7FEE7FEE7FEE7FEE7FEE71521000843
:10012000ED000008202A04DB203A21FA02F0002129
:10013000704721FA02F3D040C2F1200291400843F7
:100140001946704780EA010210B502F000434000F2
:1001500022D04A001FD0010E01EB1261C0F35600FD
:10016000C2F3560240F4000042F40002A0FB022059
:1001700000047F39140400D0401C50EA124001D41E
:100180004000491EC2B20C0604EBD010401C4008CF
:10019000802A02D003E0002010BD20F001000029D9
:1001A00000DA0020184310BD2DE9F04D81EA030468
:1001B00004F0004B21F0004514464FF0000A23F0F4
:1001C000004150EA050220D054EA01021DD0C5F3D7
:1001D0000A570246C5F31303C1F31300C1F30A56CD
:1001E00040F4801543F48013A7EB0608101BD64695
:1001F00008F2FD3873EB050002D308F1010801E0B5
:1002000092185B41B8F1000F03DA00200146BDE807
:10021000F08D00204FF48011064684460EE0171B37
:1002200073EB050705D3121B63EB050306434CEA8A
:10023000010C49084FEA300092185B4150EA01076F
:10024000EDD152EA030012D082EA040083EA0501EC
:10025000084305D0101BAB4106D20122002306E063
:1002600000224FF0004302E06FF0010253101AEB3E
:1002700006004CEB085110EB0A0041EB0B01BDE806
:10028000F04D00F0CEB80EB540F23341029100219E
:10029000CDE900110A460B4600F0D2F803B000BDCC
:1002A00020F00040C10DC0F3160040F400007F298B
:1002B00001DA00207047962903DCC1F19601C8409D
:1002C000704796398840704700F0004230F0004097
:1002D0000AD0C10D01F56071C0F3160042EA015168
:1002E000C20840071143704700200146704701F0E3
:1002F000004330B421F0004150EA010206D00A0D5B
:10030000A2F56072C1F31301002A02DC30BC0020A8
:100310007047440F44EAC104C100E01830BC00EB50
:10032000C25000F047B830B50B46014600202022ED
:10033000012409E021FA02F59D4205D303FA02F5F2
:10034000491B04FA02F52844151EA2F10102F1DC52
:1003500030BD2DE9F05F0546002092469B46884659
:100360000646814640241BE0284641464746224631
:10037000FFF7D8FE53465A46C01A914110D3114692
:100380001846224600F006FA2D1A67EB01084F4680
:1003900022460120002100F0FDF917EB00094E4133
:1003A000201EA4F10104DFDC484631462A464346BC
:1003B000BDE8F09F0029A8BF7047401C490008BF56
:1003C00020F00100704710B4B0FA80FC00FA0CF085
:1003D00050EA010404BF10BC704749B1CCF12004BD
:1003E00021FA04F411FA0CF118BF0121214308434A
:1003F000A3EB0C01CB1D4FEA00614FEA102042BF76
:10040000002010BC704700EBC35010440029A4BF6B
:1004100010BC7047401C490008BF20F0010010BC10
:10042000704710B5141E73F1000408DA401C41F146
:10043000000192185B411A4301D120F0010010BD68
:100440002DE9F04D92469B4611B1B1FA81F202E0DE
:10045000B0FA80F22032904600F09CF904460F4634
:1004600040EA0A0041EA0B0153465A46084313D0BA
:10047000114653EA010019D0C8F140025046FFF777
:1004800051FE05460E4650465946424600F082F956
:10049000084305D0012004E020463946BDE8F08D30
:1004A0000020054346EAE0762C4337430A9863056B
:1004B000E40AA0EB08000022FD0A44EA47540A308F
:1004C00002D500200146E9E7010510196941DDE97F
:1004D000084500196941BDE8F04DA2E72DE9FE4F3E
:1004E000804681EA0300C00F0C46009021F00041D5
:1004F00023F00045B8EB0200A94105D24046214651
:1005000090461C460B46024623F00040104347D05D
:10051000270DC7F30A00C3F30A510290401A019055
:1005200040286BDAC3F3130040F4801B0098924616
:1005300020B10023D2EB030A63EB0B0B0198594661
:10054000C0F14002504600F025F906460D465046DF
:100550005946019A00F02DF910EB08006141002482
:1005600087EA115284EAE7731A4340D0009A62B3D3
:10057000019A012A4FEA075215DC001B61EB0201C8
:100580004FF0004202EA0752CDE90042001C41F55B
:10059000801132462B46FFF753FF03B0BDE8F08FC2
:1005A00040462146F9E7001B61EB0201001C41F5C2
:1005B000801300185B412018A2F5001747EB0301D8
:1005C00040EAD570B6196D4111E06D084FEA360664
:1005D00045EAC0754FEA0752001B61EB0201001C9F
:1005E00041F5801149084FEA300000195141324667
:1005F0002B4603B0BDE8F04FFFF713BF0098012270
:1006000040000023D0EB020263EBE0730098214628
:100610004FEAE074B8EB000061EB0401E9E783F016
:1006200000435BE781F0004158E72DE9FE4F81EA86
:10063000030404F0004421F0004100944FF0000B4B
:1006400023F0004350EA01045ED052EA03045BD079
:10065000C3F30A54C1F30A552C44A4F2F3340194B1
:10066000A0FB0254C1F3130141F48011C3F313033F
:1006700043F4801301FB024400FB034E840A970AF3
:1006800044EA815447EA8357A4FB076802958D0A20
:1006900005FB07854FEA932C04FB0C542705029DAC
:1006A0004FEA065847EA1637B5EB08056EEB070C1C
:1006B000870E920E47EA811742EA8312A7FB0201D6
:1006C000B6EB0B0164EB00042B0D43EA0C335E1810
:1006D00044EB1C50DA465146E7FB0201C5F3130414
:1006E0004FEA0B3343EA14534FEA0432019C43EAC6
:1006F0000603A4F10C040294009CCDE900B4FFF7BA
:100700009FFE03B0BDE8F08F00200146F9E7C1F37A
:100710000A52C1F3130140F2FF3341F480119A42AF
:1007200002DA00200146704740F233439A42A2F2B7
:10073000334202DC5242FFF7F5BC00F02BB8000058
:1007400030B5041E71F1000404DB4FF00044404258
:1007500064EB0101141E73F1000405DB1C464FF02D
:100760000043524263EB0403994208BF904230BDFC
:10077000064C074D06E0E06840F0010394E80700EE
:1007800098471034AC42F6D3FFF7B4FC9835000814
:10079000B8350008202A04DB203A00FA02F10020D4
:1007A00070479140C2F1200320FA03F319439040AF
:1007B0007047202A06DBCB17203A41FA02F043EAC1
:1007C000E07306E041FA02F3D040C2F1200291400A
:1007D000084319467047FEE7014800F057B800008B
:1007E0003C010020014800F051B80000F800002052
:1007F0007047000010B590F821100024022903D0A2
:100800000421816301243DE001680A6822F00E02A0
:100810000A6001680A6822F001020A601A4A016847
:10082000914201D1012121E0174A1432914201D1B4
:1008300010211BE0144A2832914201D1891515E09C
:10084000114A3C32914201D189140FE00E4A5032D4
:10085000914202D14FF4803108E00B4A6432914258
:1008600002D14FF4801101E04FF08071064A083A3E
:100870005160012180F82110002180F82010416B87
:1008800001B18847204610BD080002402DE9F05F05
:10089000C16B0C6801680B68D0F840C0042202FAF2
:1008A0000CF2494DDFF824A1494E4A4FDFF828B138
:1008B000DFF828E122422CD05A072AD50A6892068E
:1008C00003D40A6822F004020A600168A94201D137
:1008D000042219E0514501D1402215E0B14202D174
:1008E0004FF4806210E0B94202D14FF480420BE035
:1008F000594502D14FF4802206E0714502D14FF4F0
:10090000800201E04FF080622F4908394A60C16AD5
:100910003BE04FF0020808FA0CF818EA040F4FF019
:1009200000094FF0010235D05FEA837832D50B68B9
:100930009B0605D40B6823F00A030B6080F8212086
:100940000168A94201D1022219E0514501D12022BA
:1009500015E0B14202D14FF4007210E0B94202D169
:100960004FF400520BE0594502D14FF4003206E03B
:10097000714502D14FF4001201E04FF000721249AC
:1009800008394A6080F82090816A00291AD0BDE8B1
:10099000F05F0847082505FA0CF5254212D01B0721
:1009A00010D50B6823F00E030B6090F84010C36B5A
:1009B00002FA01F15960826380F8212080F82090CA
:1009C000016BE2E7BDE8F09F080002401C00024016
:1009D0003000024044000240580002406C000240D7
:1009E00030B548B308C8154914221944B1FBF2F1D7
:1009F0008900C16312498163022141771A6843F675
:100A0000F0718A43D0E900142143D0E902452C4318
:100A100021430469214344692143846921431143EB
:100A20001960002141628162C16201634163012258
:100A300042770177084630BD012030BDF8FFFDBF89
:100A40000000024070B5044600F0FAF80546601C4C
:100A500002D004480078044400F0F2F8401BA042A1
:100A6000FAD370BD180000202DE9F84FDFF890A1EF
:100A700000220AF1040B144601274FF00F090BF175
:100A8000040E00BF0B6807FA04F52B40AB4274D18B
:100A9000DFF870C14E68A6EB0C0866452BD00DDC64
:100AA000032E34D005DC36B3012E19D0022E2FD1FF
:100AB0001BE0112E16D0122E2AD119E0B8F5881F8E
:100AC00019D006DCB8F5803F15D0B8F5801F1FD1CE
:100AD00011E0B8F5001F0ED0B8F5041F18D10AE0D8
:100AE000CA6815E0CA68121D12E0CA6808320FE031
:100AF000CA680C320CE08A682AB1012A4FF0080259
:100B000003D0456104E0042202E0056100E0002218
:100B1000FF2B01D8064601E000F104064FEA8405E8
:100B200001D9A5F12005D6F800C009FA05F82CEA8C
:100B3000080C02FA05F54CEA050CC6F800C04D6831
:100B4000ED0057D5304DAE6946F00106AE61AD6996
:100B500024F0030605F0010500952C4D06EB050C6D
:100B6000DCF80850A6074FEA167809FA08F6B543EC
:100B7000274EB04202D1002610E03BE0254EB042A5
:100B800001D101260AE0244EB04201D1022605E03F
:100B9000224EB04201D1032600E0042606FA08F6F0
:100BA0002E43CCF808604D68DAF80060ED03554636
:100BB00001D51E4300E09E432E604D68DBF80060C7
:100BC000AD035D4601D51E4300E09E432E604D6897
:100BD000DEF80060ED02754601D51E4300E09E433D
:100BE0002E604D68AD020E4D2E6801D51E4300E00B
:100BF0009E432E60641C102CFFF444AFBDE8F88FB8
:100C000000040140000011100010024000000140EB
:100C100000080140000C0140001001400014014098
:100C20000C0401408068084000D001207047C26871
:100C30004A40C26070470AB1016170470904FBE78E
:100C40000148806870470000180000200248816851
:100C5000027811448160704718000020074810B5E1
:100C6000016841F010010160032000F09DF80020B0
:100C700000F006F800F024F8002010BD002002402B
:100C800070B50D4D04464FF47A712878B1FBF0F041
:100C90000A490968B1FBF0F000F02DFB48B9102CAF
:100CA00007D200222146501E00F05EF800206C6042
:100CB00070BD012070BD000018000020240000203D
:100CC000214808B5816941F001018161816901F024
:100CD00001010091C16941F08051C161C06900F01A
:100CE00080500090032000F05FF8002211466FF062
:100CF0000B0000F039F8002211466FF00A0000F0F6
:100D000033F8002211466FF0090000F02DF80022A0
:100D10001146501F00F028F800221146101F00F065
:100D200023F800221146901E00F01EF80022114602
:100D3000501E00F019F80548416821F0E06141F0CB
:100D40000071416008BD0000001002400000014039
:100D500000F01F02012191404009800000F1E020D5
:100D6000C0F8001170470000F0B40E4B1B680C4631
:100D7000C3F30223C3F10705042D00D90425191D6F
:100D8000072901D2002300E0DB1E012606FA05F147
:100D9000491E214099409E40761E16403143F0BCCA
:100DA00001F06AB90CED00E0064900F0070208689E
:100DB0004FF6FF03184040EA0220034A1043086040
:100DC000704700000CED00E00000FA052DE9F04747
:100DD000DFF83C8105460E46D8F8000000F0070019
:100DE000B0420CD2D8F8001021F007013143C8F806
:100DF0000010D8F8000000F00700B04263D1287856
:100E0000444C800705D56068A96820F0F0000843CD
:100E100060602878C00745D06868012816D021682E
:100E2000022816D0890700294DDA616821F00301F4
:100E300001436160FFF704FF6968074641F28830AB
:100E400001290FD00229814619D027E021688903A2
:100E5000E9E78901E7E700BFFFF7F2FEC11B49455B
:100E600001D918E081466068C0F381000128F3D100
:100E700018E000BFFFF7E4FEC11B49450BD86068CE
:100E8000C0F381000228F5D10CE000BFFFF7D8FEC7
:100E9000C11B494502D90320BDE8F087606810F006
:100EA0000C0FF3D1D8F80010404601F00701B14211
:100EB0000BD9016821F0070131430160006800F09F
:100EC0000700B04201D00120E6E72878400705D5A9
:100ED0006068E96820F4E0600843606028780007F3
:100EE00006D56068296920F4605040EAC10060605E
:100EF00000F03CF86168084AC1F30311515CC84036
:100F0000064908600020FFF7BBFE0020C4E7000090
:100F1000002002400010024080350008240000201C
:100F2000014800687047000024000020044805497B
:100F300000684968044AC1F30221515CC840704707
:100F400024000020001002409035000804480549A4
:100F500000684968044AC1F3C221515CC840704727
:100F600024000020001002409035000812A185B036
:100F70000FC98DE80F0014A0144A0068049051684E
:100F8000134801F00C03042B10D0082B0ED1C1F331
:100F90008343C9031DF803000AD5516804AAC1F3AD
:100FA0004041515C0A4A5043B0FBF1F005B0704734
:100FB00008494843FAE70000020304050607080948
:100FC0000A0B0C0D0E0F1010010200000010024061
:100FD00000127A0000093D002DE9F84F0446007820
:100FE000B94DC00748D06868C0F38100012807D018
:100FF0006868C0F38100022809D16868C00306D57B
:101000002868800338D5606800286FD034E06068B5
:10101000B0F5803F0BD010B1B0F5A02F11D02868EB
:1010200020F480302860286820F4802002E02868BE
:1010300040F480302860606888B1FFF701FE064602
:1010400009E0286840F480202860F0E7FFF7F8FD09
:10105000801B642875D828688003F7D50CE0FFF75B
:10106000EFFD064605E000BFFFF7EAFD801B6428A0
:10107000F0D828688003F7D42078944E80074FF08A
:1010800001094FF000083BD5686810F00C0F07D03D
:101090006868C0F38100022809D16868C00306D4DB
:1010A0002868800714D5206901281FD110E0206925
:1010B000B0B1C6F80090FFF7C3FD074605E000BFDA
:1010C000FFF7BEFDC01B0228C4D828688007F7D5EB
:1010D0002868616920F0F80040EAC10028600FE04C
:1010E000C6F80080FFF7ACFD074606E0E9E000BF68
:1010F000FFF7A6FDC01B022823D828688007F7D475
:10110000207800072CD57248A169D9B1C0F80090A9
:10111000FFF796FD074604E0FFF792FDC01B02288B
:101120000FD8686A8007F7D56A484FF4FA5100680B
:10113000B0FBF1F0009000BF0098411E0091FAD280
:101140000EE080E0C0F80080FFF77AFD074604E07B
:10115000FFF776FDC01B022875D8686A8007F7D4B0
:101160002078400760D5E8690027C00008D4E86906
:1011700040F08050E861E869012700F0805000905D
:1011800055480168C90513D40168834641F480714C
:101190000160FFF755FD824606E000BFFFF750FDF6
:1011A000A0EB0A0064284ED8DBF80000C005F5D596
:1011B000E06801280AD008B1052813D0286A20F079
:1011C00001002862286A20F0040002E0286A40F04A
:1011D00001002862E06841F2883B98B1FFF730FDDA
:1011E00082460BE0286A40F004002862EEE700BF68
:1011F000FFF726FDA0EB0A0159455AD8286A800757
:10120000F6D50CE0FFF71CFD824605E0FFF718FD60
:10121000A0EB0A0159454CD8286A8007F6D41FB1C3
:10122000E86920F08050E861E06988B36968C1F33B
:101230008101022945D00228C6F8608004D0FFF75A
:10124000FFFC044638E034E0FFF7FAFC074604E010
:10125000FFF7F6FCC01B02282BD828688001F7D4C2
:10126000206AB0F5803F05D16868A16820F400309D
:1012700008436860D4E908010843696821F47411DF
:1012800008436860C6F86090FFF7DAFC044606E0A1
:1012900015E000BFFFF7D4FC001B022809D828681E
:1012A0008001F7D50BE000BFFFF7CAFC001B022846
:1012B00002D90320BDE8F88F28688001F4D400200B
:1012C000F8E70120F6E7000000100240000042426B
:1012D0008004424224000020007000404FF0E021D2
:1012E0000428086903D020F004000861704740F02A
:1012F0000400FAE7704710B5401EB0F1807F01D3BB
:10130000012010BD4FF0E02460610F21601700F054
:10131000B3FE0020A06107202061002010BD10B5A1
:10132000FFF7E8FF10BD7047704730B590F83C20DC
:10133000012A20D0012280F83C20022380F83D3091
:1013400003685C6824F070045C6003685C680D6886
:101350002C435C6003689C6824F080049C600368F4
:101360009C6849680C439C6080F83D20002180F80F
:101370003C10084630BD022030BD10B5040003D03B
:1013800094F83D0010B107E0012010BD002084F862
:101390003C00204600F00CF8022084F83D00211D9E
:1013A000206800F0F3FE012084F83D00002010BD0D
:1013B00000B5224A0168224885B0914232D1816944
:1013C00041F4006181618069694600F40060049025
:1013D000901500900020019002901A48FFF744FBFE
:1013E000002211461820FFF7BFFC1820FFF7B0FCC1
:1013F000002211461920FFF7B7FC1920FFF7A8FCBF
:10140000002211461A20FFF7AFFC1A20FFF7A0FCBC
:10141000002211461B20FFF7A7FC1B20FFF798FCBA
:1014200005B000BD084A9142FAD1C16941F00201FC
:10143000C161C06900F002000490F1E7002C014096
:1014400000100240000801400004004070B504464E
:1014500090F83C00012817D0012584F83C50022068
:1014600084F83D002068826822F0770222F47F42EF
:1014700082600868502837D00DDC202859D005DC60
:1014800088B3102841D151E0022070BD302853D0DC
:1014900040283AD13FE060282ED070280BD0B0F51C
:1014A000805F03D0B0F5005F2FD110E02068816825
:1014B00021F0070115E0CB68D1E90121206800F097
:1014C000A6FE2168886840F0770088601DE0CB6840
:1014D000D1E90121206800F09AFE2068816841F47A
:1014E0008041816011E01EE0CA684968206800F010
:1014F00043FF5021206806E0CA684968206800F070
:1015000079FF6021206800F08CFE84F83D500020B7
:1015100084F83C0070BDCA684968206800F02CFF60
:1015200040212068EFE700212068ECE710212068C7
:10153000E9E720212068E6E730212068E3E70000A2
:1015400070B500680E49884212D10E4C0E4D2078BD
:1015500001280ED002280BD100210C4800F07DFAA2
:1015600068600021094800F0E2F82078401C2070F3
:1015700070BD0021054800F070FA2860F5E7000012
:10158000002C0140100000202C000020380000201A
:101590002DE9F041044690F83C000D4601283BD06F
:1015A000012684F83C60022084F83D009AB3042AA6
:1015B00044D02068082A53D0D5E90027E968036A97
:1015C00023F480530362D0F81CC0036A2CF4407CDF
:1015D0004CEA07274FF6FF7C27F470470CEA0131ED
:1015E0003943770323F4005307EA02321A43C161F7
:1015F00002622068C16921F44061C1612068C1694B
:10160000AA6841EA0221C16184F83D60002084F8A3
:101610003C00BDE8F08101E00220FAE7D5E90012C4
:10162000EB68206800F0BAFE2068816921F00C01A7
:10163000816120688169AA6811430FE0D5E9001231
:10164000EB68206800F0E8FE2068816921F44061C1
:10165000816120688169AA6841EA02218161D3E73A
:10166000D5E9002C2F7B016A21F480710162C169E8
:10167000036A21F0030141EA0C0121F0F00C390763
:101680004FF420674CEA116123F4206307EA022239
:101690001A43C16102622068C16921F00C01C16175
:1016A0002068C169AA681143ADE710B5040003D0F2
:1016B00094F83D0010B107E0012010BD002084F82F
:1016C0003C00204600F00CF8022084F83D00211D6B
:1016D000206800F05BFD012084F83D00002010BD73
:1016E000704710B50268044631B1042908D00829B2
:1016F00015D00C2908D116E0D06840F0020002E0B5
:10170000D06840F00400D0600122206800F074FD31
:101710002068016841F001010160002010BDD0681F
:1017200040F00800EFE7D06840F01000EBE710B59C
:101730000268044631B1042908D008291ED00C29BA
:1017400008D11FE0D06820F0020002E0D06820F04D
:101750000400D0600022206800F04EFD2068016A7D
:1017600041F21112114207D1016A9210114203D1C4
:10177000016821F001010160002010BDD06820F057
:101780000800E6E7D06820F01000E2E770B50446F4
:10179000006801694FF00005C943890715D4C16885
:1017A000C943890711D4E91E01610120207720680F
:1017B00080698007204602D0FFF7C2FE04E000F0F7
:1017C000ADF8204600F02FF9257720680169C9435C
:1017D000490717D4C168C943490713D46FF00401FE
:1017E0000161022020772068806910F4407F204644
:1017F00002D0FFF7A5FE04E000F090F8204600F0CC
:1018000012F9257720680169C943090716D4C16810
:10181000C943090712D46FF0080101610420207741
:101820002068C0698007204602D0FFF789FE04E0E7
:1018300000F074F8204600F0F6F82577206801697A
:10184000C943C90617D4C168C943C90613D46FF088
:1018500010010161082020772068C06910F4407FE2
:10186000204602D0FFF76CFE04E000F057F8204657
:1018700000F0D9F8257720680169C943C90708D164
:10188000C168C943C90704D1891E0161204600F01F
:10189000E3F820680169C943090609D4C168C9434E
:1018A000090605D46FF0800101612046FFF73BFD7A
:1018B00020680169C943490609D4C168C94349067A
:1018C00005D46FF040010161204600F0E8F820687F
:1018D0000169C94389060BD4C168C943890607D485
:1018E0006FF0200101612046BDE87040FFF71CBD8C
:1018F00070BD00001FB500680649884209D1C020AC
:101900000090022001900320039069460248FFF7EF
:10191000ABF81FBD0004004000080140704770B5DF
:10192000044690F83C000D4601280DD0012684F8AD
:101930003C60022084F83D0042B1042A18D0082AF5
:101940002AD00C2A4DD139E0022070BD206800F069
:1019500071FC2068816941F008018161206881691A
:1019600021F004018161206881692A69114311E035
:10197000206800F087FC2068816941F40061816182
:101980002068816921F480618161206881692A6908
:1019900041EA0221816124E0206800F09FFC206878
:1019A000C16941F00801C1612068C16921F00401E9
:1019B000C1612068C1692A69114311E0206800F003
:1019C000B9FC2068C16941F40061C1612068C16946
:1019D00021F48061C1612068C1692A6941EA02215C
:1019E000C16184F83D60002084F83C0070BD10B5F2
:1019F000040003D094F83D0010B107E0012010BDB1
:101A0000002084F83C00204600F00CF8022084F806
:101A10003D00211D206800F0B9FB012084F83D0045
:101A2000002010BD7047704710B5044600680122C1
:101A300000F0E2FB07492068884203D1416C41F481
:101A4000004141642068016841F00101016000200B
:101A500010BD0000002C0140704790F83C3000227F
:101A6000012B0AD0012380F83C3041B1042909D070
:101A700008290AD00C290DD10AE00220704701681C
:101A80004A6B07E001688A6B04E00168CA6B01E0F9
:101A900001680A6C002180F83C10104670477047BE
:101AA0007047000070B5026804461068D168536939
:101AB00010F00F0F50D003F0010501F4907635437C
:101AC0005DD0C20705D0CA0503D5E26B42F0010222
:101AD000E263420705D5DA0703D0E26B42F0020267
:101AE000E263820705D5DA0703D0E26B42F0040215
:101AF000E263020705D5DA0703D0E26B42F0080281
:101B0000E263E26B002A33D0800604D5880602D552
:101B1000204600F09BFD20684069E16BC0F3801017
:101B2000090700D428B3204600F082FD20684169EF
:101B300049061AD5416921F040014161606BA0B1AD
:101B40001B494163606BFEF755FE002810D0606BA7
:101B5000416BBDE870400847830610D58B060ED553
:101B60002046BDE8704000F071BD2046FFF798FFA9
:101B700070BD2046FFF794FF0020E06370BD0306B0
:101B800006D50B0604D52046BDE8704000F062BEC5
:101B90004006F3D54806F1D5D168204621F0400132
:101BA000D160202184F8391000F008F970BD0000E0
:101BB0002126000870B5040004D094F839000025EF
:101BC00010B106E0012070BD84F83850204600F0C6
:101BD00023F8242084F839002068C16821F40051DA
:101BE000C160204600F07EFD2068016921F490412B
:101BF00001612068416921F02A0141612068C168C2
:101C000041F40051C160E563202084F8390084F874
:101C10003A00002070BD00002DE9F0410646006842
:101C20002E4986B0884255D12D48816941F48041C2
:101C3000816180692B4D00F4804004904FF4007066
:101C40000090022001900320039069462846FEF789
:101C50000BFF00242815CDE90004694628460294AC
:101C6000FEF702FF214D20484FF08008C5E900042F
:101C7000C5E902482C614FF440576C61C5E906473D
:101C80002846FEF7ADFE18B1702119A000F04DFEF8
:101C900075636E62154D14484435143801C5102023
:101CA000A5E81101114845F8104944306C61C5E9B7
:101CB0000647FEF795FE18B180210DA000F035FE15
:101CC00035630022114625206E62FFF74DF825206E
:101CD000FFF73EF806B0BDE8F08100000038014093
:101CE000001002400008014058000240F8000020A7
:101CF0002E2E2F5372632F75736172742E63000042
:101D000070472DE9F843044690F839001F461646FF
:101D10000D46202850D1A5B19EB194F83800012875
:101D20004AD0012084F838004FF00008C4F83C8005
:101D3000212084F83900FEF783FFA6848146E684DB
:101D400026E00120BDE8F883E08C401EE084A06816
:101D50004B46B0F5805F4FF000024FF08001204607
:101D6000009703D000F0A7FDE8B90DE000F0A3FD57
:101D7000C8B928882168C0F308004860206908B104
:101D80006D1C05E0AD1C03E0216815F8010B4860EF
:101D9000E08C0028D8D14B460022402120460097F5
:101DA00000F089FD08B10320CCE7202084F8390039
:101DB00084F838800020C5E70220C3E77047FEE7BB
:101DC0000D4808B5416941F00101416140690022B7
:101DD00000F00100009011460E20FEF7C5FF0E2016
:101DE000FEF7B6FF002211460F20FEF7BDFFBDE84B
:101DF00008400F20FEF7ACBF001002402DE9F04371
:101E00002B4885B0816941F010018161816901F041
:101E100010010491816941F020018161816901F023
:101E200020010491816941F004018161816901F01F
:101E300004010491816941F00801816180691D4EAE
:101E400000F008004FF40054049000222146304670
:101E5000FEF7F1FEDFF8608001220C214046FEF71C
:101E6000EAFEDFF858904FF4707701223946484671
:101E7000FEF7E1FE00250220CDE902500094012486
:101E8000694601943046FEF7EFFD0C2003268DE8ED
:101E9000710069464046FEF7E7FD01AA009782E817
:101EA000700069464846FEF7DFFD05B0BDE8F083E7
:101EB000001002400010014000080140000C0140E9
:101EC00010B524488AB022490024C0E900144EF617
:101ED0006021C0E90241C0E9044180218161FFF72E
:101EE0004CFA18B144211CA000F01FFD4FF48050A3
:101EF000049004A91748FFF7A9FA18B14A2116A0BF
:101F000000F013FD1348FFF7D0FB18B14F2112A0CA
:101F100000F00BFD089408A90E480994FFF705FA94
:101F200018B156210CA000F000FD0120CDE90040C1
:101F300002940022694607480394FFF729FB002812
:101F400003D05F2104A000F0F0FC0AB010BD000037
:101F5000002C0140380000202E2E2F5372632F7466
:101F6000696D2E630000000010B52A488EB0284924
:101F70000024C0E9001440F20771C0E90241046185
:101F80008461FFF7FAF918B1722123A000F0CDFCAB
:101F90004FF48050079007A91E48FFF757FA18B171
:101FA00078211DA000F0C1FC1A48FFF720FD18B1F0
:101FB0007D2119A000F0B9FC0B940BA915480C94D5
:101FC000FFF7B3F918B1842113A000F0AEFC602034
:101FD00000904FF46170CDE90104002269460D487C
:101FE0000494FFF79CFC18B18D210BA000F09DFC20
:101FF000042269460748FFF792FC18B1922106A017
:1020000000F093FC0348FFF775FC0EB010BD000014
:1020100000040040780000202E2E2F5372632F748E
:10202000696D2E63000000000D4810B50B4901607A
:102030004FF4E1314160002181600C22C160C0E9B0
:1020400004128161C161FFF7B5FD002805D0BDE82C
:102050001040452103A000F068BC10BD00380140CD
:10206000B80000202E2E2F5372632F757361727487
:102070002E630000FEE770470907090E002806DA04
:1020800000F00F0000F1E02080F8141D704700F10F
:10209000E02080F8001470477047704710B5FEF7D5
:1020A000D5FDBDE81040FFF73AB930B58FB001213A
:1020B0000804CDE900100024029402250491CDE922
:1020C00007504FF4E01009906846FEF785FF00B115
:1020D000FEE70F20CDE90A054FF48060CDE90C4002
:1020E00002210AA80E94FEF771FE00B1FEE7FEF78A
:1020F00017FF4FF47A71B0FBF1F0FFF7FCF8042002
:10210000FFF7ECF800221146501EFEF72DFE0FB02F
:1021100030BD00000D48016841F0010101604168D7
:102120000B4A1140416001680A4A11400160016890
:1021300021F480210160416821F4FE0141604FF4E7
:102140001F0181600449C00308607047001002400D
:102150000000FFF8FFFFF6FE08ED00E00148FFF782
:1021600015BB0000380000200148FFF70FBB00003E
:10217000380000200148FFF709BB000038000020AC
:102180000148FFF703BB000038000020F0B50268EB
:10219000164B174C174D4FF08047984205D0B84268
:1021A00003D0A04201D0A84203D122F070064A68B1
:1021B0003243984205D0B84203D0A04201D0A84291
:1021C00003D122F44074CA68224322F080044A6991
:1021D000224302608A68C2620A688262984201D120
:1021E0000969016301214161F0BD0000002C01403B
:1021F000000400400008004010B50123046A8B4031
:102200009C430462036A8A401343036210BD10B505
:10221000846842EA032224F47F440A432243826012
:1022200010BD826822F070020A4342F0070181600B
:102230007047000030B5026A22F001020262026AB1
:102240004368846924F073050C682C4322F002056E
:102250008A682A430A4DA8420BD122F00805CA68B1
:1022600023F440732A434D6922F004021D438B6915
:102270002B434360846149684163026230BD0000C2
:10228000002C014030B5026A22F010020262026A9C
:10229000436884690D6824F4E64444EA05248D68A3
:1022A00022F0200242EA05120B4DA8420ED1CD6861
:1022B00022F0800242EA05124D6923F4406343EAAA
:1022C00085038D6922F0400243EA850343608461FF
:1022D00049688163026230BD002C014030B5026A5A
:1022E00022F480720262036A4268C46923F40073B4
:1022F00024F073050C682C438D6843EA05230C4DCC
:10230000A8420ED1CD6823F4006343EA05234D694A
:1023100022F4405242EA05128D6923F4806342EAB6
:1023200005124260C4614968C163036230BD0000A8
:10233000002C014030B5026A22F480520262046A25
:102340004268C3690D6823F4E64343EA05238D68B8
:1023500024F4005444EA0534064DA84204D14D69E2
:1023600022F4804242EA85124260C36149680164F6
:10237000046230BD002C014010B5036A046A24F0E9
:1023800001040462846924F0F00444EA021423F096
:102390000A020A438461026210BD000070B5046A3B
:1023A00024F0010404628469056A0F4EB04208D02B
:1023B000B0F1804F05D00D4EB04202D00C4EB0426D
:1023C00003D124F00304144301E044F001041A078C
:1023D00024F0F00444EA126225F00A0301F00A0135
:1023E00019438261016270BD002C0140000400406D
:1023F0000008004010B5036A23F0100303628369EC
:10240000046A23F4704343EA023224F0A00343EA4F
:1024100001118261016210BD30B5046A24F010041C
:1024200004628469056A24F4407444EA022222F4B6
:1024300070444FF6FF7202EA03322243A02425F0D3
:10244000A00304EA011119438261016230BD00005A
:1024500010B5104C002208212046FEF7ECFB0122AB
:1024600004212046FEF7E7FB052000F035F808219F
:102470002046FEF7D7FB0028F9D10122082120468B
:10248000FEF7D9FB022000F0F7FEBDE8104000F097
:1024900003B80000000801401FB50820009000208C
:1024A000019002900320039069460248FEF7DCFA8F
:1024B0001FBD0000000801401FB50820009001204A
:1024C0000190002002900320039069460148FEF726
:1024D000CBFA1FBD0008014000280CD000BF00BF90
:1024E00000BF00BF00BF00BF00BF00BF00BF00BFF4
:1024F00000BF401EF2D1704710B500F01DF840201B
:1025000000F064F800F03AF800F016F8C02000F08F
:102510005DF80024002000F059F8641C062CF9DB5B
:1025200000F02CF800F008F88F2000F04FF8BDE81C
:10253000104000F023B8000010B5FFF7BDFF0E4CAF
:10254000012208212046FEF776FB012204212046C5
:10255000FEF771FB022000F08FFE002204212046CE
:10256000FEF769FB012208212046FEF764FBBDE867
:102570001040022000F080BE0008014010B5FFF7B7
:102580009BFF114C002208212046FEF754FB02203D
:1025900000F072FE002204212046FEF74CFB0220D0
:1025A00000F06AFE012208212046FEF744FB0220CB
:1025B00000F062FE012204212046FEF73CFBBDE84C
:1025C0001040022000F058BE0008014070B50546DA
:1025D000FFF772FF114E0024002208213046FEF75B
:1025E0002AFBE80701D0012200E000220421304646
:1025F000FEF721FB032000F03FFE6D0801220821B9
:102600003046FEF718FB032000F036FE641CE4B2EF
:10261000082CE1D3BDE87040FFF71ABF0008014065
:1026200010B5406A0021C185C184FFF739FA10BD99
:102630000168CA6822F49072CA6001684A6922F08F
:1026400001024A61202180F83A10704710B590F8D5
:102650003A10222901D0022010BD8168B1F5805FB7
:1026600011D00169002901681FD0496801F07F037A
:10267000816A4A1C82620B70C18D491E0904090CD3
:10268000C18518D02BE00269816A002A026852686D
:1026900005D0D2B20A80816A491C8162ECE7C2F39C
:1026A00008020A80816A891CF7E74A68816A4B1C24
:1026B00083620A70E0E70168CA6822F02002CA60FB
:1026C0000168CA6822F48072CA6001684A6922F00F
:1026D00001024A61202180F83A10FFF711FB002027
:1026E00010BD00002DE9F041044600680169E26870
:1026F00021F44051114301612169A06808436169D7
:1027000008432168CA6841F20C639A430243CA60D5
:1027100020684169A26921F44071114341614C492B
:1027200020686425322688423CD1FEF70FFC00EB7E
:10273000C00101EB001061688900B0FBF1F7FEF702
:1027400005FC00EBC00101EB00106168B046890098
:10275000B0FBF1F0B0FBF5F06FF01801484307EB68
:10276000800106EB0110B0FBF5F000F0F006FEF77B
:10277000EDFB00EBC00101EB001061688900B0FBCC
:10278000F1F0B0FBF5F006EB0016FEF7DFFB00EB17
:10279000C00101EB001061688900B0FBF1F7FEF7A2
:1027A000D5FB3BE0FEF7C2FB00EBC00101EB0010E4
:1027B00061688900B0FBF1F7FEF7B8FB00EBC001E0
:1027C00001EB00106168B0468900B0FBF1F0B0FB8E
:1027D000F5F06FF01801484307EB800106EB01109C
:1027E000B0FBF5F000F0F006FEF7A0FB00EBC00137
:1027F00001EB001061688900B0FBF1F0B0FBF5F06F
:1028000006EB0016FEF792FB00EBC00101EB001097
:1028100061688900B0FBF1F7FEF788FB00EBC001AF
:1028200001EB001061688900B0FBF1F0B0FBF5F03E
:102830006FF01801484307EB800108EB0110B0FB73
:10284000F5F0216800F00F0030448860BDE8F081A9
:102850000038014090F83910212901D0022070473A
:102860008168B1F5805F016A0BD04A1C0262026880
:1028700009785160C18C491E0904090CC1840ED02D
:1028800017E009880268C1F3080151600169002955
:10289000016A02D0491C0162ECE7891CFBE7016870
:1028A000CA6822F08002CA600068C16841F0400135
:1028B000C160002070472DE9F041984617460E464A
:1028C0000446069D1DE0681C1BD02DB1FEF7B8F92B
:1028D000A0EB0800A84214D92068C16821F4D07187
:1028E000C1602068416921F001014161202084F824
:1028F000390084F83A00002084F838000320BDE84D
:10290000F0812068006836EA000004D00020B84258
:10291000D9D00020F3E70120F9E700000148FFF7D4
:10292000C1B80000B8000020FEE7FEE70FB4054B79
:1029300010B503A9044A029800F0DAF810BC5DF85B
:1029400014FB00003D3300082800002002E008C806
:10295000121F08C1002AFAD170477047002001E019
:1029600001C1121F002AFBD1704700002DE9FF5F53
:1029700082B00021DDE90430020DDDF840B00343F0
:1029800018D044F61050A2F2FF32424315141198A9
:1029900001281FD0A5EB0B00401C5FEA000A4FF096
:1029A00000064E4FDFF83891B046504615D5CAF1B3
:1029B000000413E0119801244AA3012801D16FEA11
:1029C0000B010298119AC0E90031C0E9024206B039
:1029D000BDE8F09FCBF10000DFE704460021404A4C
:1029E000491842EB0450CDE9001012E0E00707D08F
:1029F00032463B4640464946FDF717FE804689462B
:102A000032463B4610461946FDF70FFE06460F4676
:102A10006410002CEAD1DDE90401DDE90023BAF1FC
:102A2000000F06DAFDF701FE42464B46FDF7FDFDBD
:102A300005E0FDF7B9FB42464B46FDF7B5FB044602
:102A40000E460022284BFDF77BFE03D84FF0FF30E7
:102A5000014607E00022254B20463146FDF73EFDAA
:102A6000FDF755FE102409E0002C0ADB0A220023A2
:102A7000FDF76FFC039B30321A55641E50EA0102C9
:102A8000F2D1641C039AC4F111031444119A012A6F
:102A900003D0012208430DD10AE0084304D00020EE
:102AA0004FF0110B119072E7A3EB0B056D1E0DE0BB
:102AB0005B4504DD4FF0000205F1010504E003DA97
:102AC0004FF00002A5F10105002AECD002981199FF
:102AD000C0E90231C0E9004579E700000000144078
:102AE0000000F03F300000000000F0430000E03F35
:102AF0002DE9FF4F95B09B468946064600250FE21B
:102B0000252877D100242746F84A0121059400E0C2
:102B1000044316F8013F203B01FA03F01042F7D1BD
:102B200030782A2811D06FF02F033078A0F13002CE
:102B3000092A16D8059A44F0020402EB820203EB3C
:102B400042021044761C0590EFE759F8042B0592D9
:102B5000002A03DA504244F40054059044F0020481
:102B6000761C30782E2816D116F8010F44F0040494
:102B70002A280DD06FF02F023078A0F13003092BF6
:102B800009D807EB870302EB4303C718761CF3E76A
:102B900059F8047B761C30786C280FD006DC4C2862
:102BA00017D068280DD06A2814D104E0742810D0FA
:102BB0007A280FD10DE044F400140AE044F48014A4
:102BC00001E044F440147278824202D104F580148A
:102BD000761C761C307866280BD013DC582877D00A
:102BE00009DC002875D04528F6D04628F4D04728BF
:102BF0001AD19DE118E0632835D0642879D0652882
:102C000012D195E1702873D008DC6728F1D06928CB
:102C10006FD06E280DD06F2806D1B5E073282CD068
:102C2000752875D0782874D05A46179990476D1C2E
:102C300075E1C4F30250022809D003280DD0D9F859
:102C4000001004280DD00D6009F1040967E1D9F8DE
:102C50000010EA17C1E90052F6E7D9F800100D801C
:102C6000F2E70D70F0E719F8041B8DF80010002052
:102C70008DF80100EA46012003E059F804AB4FF05B
:102C8000FF3061074FF0000102D40DE008F10101AF
:102C90008846B9420FDA8045F8DB1AF80810002997
:102CA000F4D108E008F1010188468142FADB1AF804
:102CB00008100029F6D105985B46A0EB08072146CD
:102CC0003846179A00F094FA284400EB080507E00C
:102CD0004DE029E10DE01AF8010B5A46179990478B
:102CE000B8F10108F7D25B4621463846179A13E13E
:102CF00042E00A220092C4F302524FF0000A022A74
:102D000008D059F804CB032A4FEAEC710AD00DE041
:102D100029E02AE009F1070121F00702F2E802C1E7
:102D2000914609E00FFA8CFC4FEAEC71042A03D1BA
:102D30004FFA8CFC4FEAEC71002907DA0A460021B1
:102D4000DCF1000C61EB02012D2202E0220504D52A
:102D50002B228DF80420012203E0E20701D020227B
:102D6000F7E7904659E00A2102E010220DE0102119
:102D70004FF0000A00910BE010224FF0000A44F0DF
:102D800004040827009203E008224FF0000A009292
:102D9000C4F30252022A05D059F804CB0021032AB9
:102DA00008D009E009F1070121F00702F2E802C1A9
:102DB000914605E01FFA8CFC042A01D10CF0FF0CAF
:102DC0004FF00008220728D5702806D0009B83F01A
:102DD000100353EA0A0305D00EE040228DF80420C8
:102DE000012208E05CEA010206D030228DF80420BE
:102DF0008DF8050002229046009B83F0080353EAF9
:102E00000A030AD15CEA010201D1620705D530222A
:102E10008DF804204FF001087F1E582804D034A0FC
:102E200003900EA802900DE036A0F9E753466046E5
:102E3000009AFDF78EFA84460398825C0298401E41
:102E4000029002705CEA0100F0D1029806A9081A0B
:102E500000F1200A600702D524F4803400E0012745
:102E6000574502DDA7EB0A0000E0002000EB0A0155
:102E7000009005984144401A0590E00306D45B4653
:102E80002146179A059800F0B3F90544002706E09B
:102E900001A85A46C05D179990476D1C7F1C474595
:102EA000F6DBE0030CD55B462146179A059800F047
:102EB0009FF9054404E030205A46179990476D1C4D
:102EC0000099481E00900029F5DC08E0029802995C
:102ED0005A460078491C0291179990476D1CBAF127
:102EE0000001AAF1010AF1DC65E1000009280100F6
:102EF0003031323334353637383961626364656670
:102F00000000000030313233343536373839414231
:102F1000434445460000000000F058F90544761C83
:102F2000307800287FF4ECAD19B02846BDE8F08F6A
:102F3000620700D4062709F1070222F0070CFCE81B
:102F40000223E14603F000485FEA080C02D00FF2CA
:102F5000702C0DE05FEA045C02D50FF2682C07E0EC
:102F60005FEAC47C02D00FF2602C01E0AFF2700C7B
:102F70004FF0FF3823F00043CDF850C065280CD047
:102F800006DC452809D046281DD047283DD13DE024
:102F9000662818D067287ED138E00021112F01DB88
:102FA000112000E0781CCDE9000106A90EA8FFF76A
:102FB000DDFCDDE90F010E9A03910021009207F17B
:102FC000010A04914DE04FF000400097CDE9011057
:102FD00006A90EA8FFF7CAFCDDE90F0203920E9BBB
:102FE00011990022DDF80CA00093049211B9791C0C
:102FF00000EB010AB7EB0A0004D4C0F1FF3007F17F
:10300000010A0490AAEB0700019044E0012F00DAC6
:1030100001270021112F01DD112000E03846CDE904
:10302000000106A90EA8FFF7A1FCDDE90F010E9A29
:103030000391002104910092BA4621070CD4039910
:10304000514500DA8A46BAF1010F05DD009AAAF16E
:103050000101515C302908D0B84202DA10F1040FA6
:1030600006DA0121CDE9011015E0AAF10101E9E735
:10307000002805DC049901440491AAEB000102E058
:10308000411C514500DD8A460499401A401C0190BC
:103090004FF000400290200704D40198504501DB16
:1030A000CDF8048000208DF84F0002980DF14F07F5
:1030B000B0F1004F25D02B200E9002984FF002085F
:1030C00000280CDA404202902D200E9007E00A21E1
:1030D0000298FDF728F93031029007F8011DB8F188
:1030E0000001A8F10108F2DC02980028EFD1791E56
:1030F0000E980870307800F0200040F0450007F886
:10310000020D12A8C01B00F107081498007800B146
:10311000012000EB0A01019801EBE07105984144A0
:10312000401A401E0590E00306D45B462146179ADC
:10313000059800F05DF805441498007818B15A46D7
:10314000179990476D1CE00324D55B462146179ADA
:10315000059800F04DF805441CE00498002807DBB2
:10316000DDE90301884203DD0098405C179901E026
:10317000179930205A469047049805F10105401CE4
:1031800004900198401E019004D12E205A461799B0
:1031900090476D1CBAF10001AAF1010ADDDC05E0DF
:1031A00017F8010B5A46179990476D1CB8F10001AA
:1031B000A8F10108F4DC5B462146179A0598ABE6B6
:1031C0002D0000002B000000200000002DE9F04140
:1031D000044600251E461746880404D405E03946F7
:1031E0002020B0476D1C641EF9D52846BDE8F0814B
:1031F0002DE9F041044600251E469046C80301D53E
:10320000302700E02027880404D505E041463846F1
:10321000B0476D1C641EF9D52846BDE8F08100BF9B
:1032200000BF00BF00BF00BF00BF00BF00BF00BFA6
:1032300000BF00BF00BF00BF00BF00BF00BF00BF96
:1032400000BF00BF00BF00BF00BF00BF00BF00BF86
:1032500000BF00BF00BF00BF00BF00BF704710B578
:10326000034600224FF47A7403E0204600F004F88D
:10327000521C9A42F9D310BD00B5002103E000BFF3
:10328000FFF7CDFF491C8142FAD300BD01F0800257
:1032900001F07F01102902D21B4B595C31E04F290C
:1032A00026D00CDC4A2921D004DC202928D048294A
:1032B00027D113E04C290FD04E2922D112E05929F1
:1032C0001CD004DC50290FD055291AD108E06E29F2
:1032D00012D06F2915D10DE0382112E0762110E0CF
:1032E0003E210EE037210CE073210AE00E2108E0B8
:1032F0003F2106E05C2104E0542102E06E2100E061
:103300000021114300F002B80000002070B50D4606
:103310000446FFF711F94420FFF758F9FFF72EF99B
:10332000FFF70AF944F0C000FFF750F92846FFF70D
:103330004DF9BDE87040FFF721B9000013B50A232D
:10334000012269460248FEF7DCFC00981CBD000023
:10335000B800002008B54FF4FA70FFF780FFFDF7C2
:103360007DFCFEF7A2FEFEF749FDFEF729FDFEF704
:103370005BFEFEF7A5FDFEF7F7FD00216D48FEF7A9
:1033800053FB04216B48FEF74FFBFFF7B5F80F2105
:103390000020FFF77BFF00210120FFF777FF0021CE
:1033A0000220FFF773FF00210320FFF76FFF0021CA
:1033B0000420FFF76BFF00210520FFF767FF5E4F3A
:1033C0005E4C4FF400564FF47A7531463846FDF79F
:1033D0002EFC207810B1032810D110E058490120AC
:1033E00020700868026A4FF6F5731A400262086896
:1033F000016A016200215248FEF773F98EE05148DC
:103400004EF65F2203C8081A411E606091427DD2C9
:10341000FCF739FF02460B4600204B49FCF7C4FE7F
:10342000FCF765FF80466FF08041084447498842B9
:1034300059D24046FCF748FF02460B4644A0FFF72E
:1034400075FA48494046FCF77DFEFCF729FF42F239
:10345000107CB0FBFCF101F0FF08B0FBFCF10CFBB1
:103460001101B1FBF5F1C9B20091B0FBFCF10CFB0D
:103470001101B1FBF5F205FB12126421B2FBF1F26E
:1034800002F0FF0BB0FBFCF20CFB1202B2FBF5F3F7
:1034900005FB1322B2FBF1F301FB13230A22B3FB5A
:1034A000F2FAB0FBFCF30CFB1300B0FBF5F305FBE9
:1034B0001300B0FBF1F301FB1300B0FBF2F102FBD0
:1034C000110941460120FFF7E1FE02200099FFF7B4
:1034D000DDFE59460320FFF7D9FE51460420FFF7D1
:1034E000D5FE494610E000210120FFF7CFFE002164
:1034F0000220FFF7CBFE00210320FFF7C7FE0021CB
:103500000420FFF7C3FE0021052000E001E0FFF7E3
:10351000BDFEC820FDF796FA0020207060680028E4
:103520007FF453AF2846FDF78DFA0FA0FFF7FEF9A1
:103530004BE7000078000020001001401000002040
:10354000380000202C0000200094F140FFFFC7024B
:10355000686967685F74696D653D25302E33662044
:103560004B487A0000007A44C6B5C2CAB2E2CAD457
:10357000D6D0A3ACC7EBB5C8B4FDA3A10D0A00001B
:103580000000000000000000010203040607080913
:103590000000000001020304B8350008000000200C
:1035A0002C0000004C290008E43500082C00002005
:1035B000540500005C2900083F065B4F666D7D07DF
:1035C0007F6F777C395E7971000000000000000099
:1035D00001000000100000000000000000A24A04EA
:0435E00000000000E7
:04000005080000ED02
:00000001FF
