:020000040800F2
:10000000C804002001010008F31B0008F3150008D4
:10001000F11B0008DF0A0008791D0008000000003D
:10002000000000000000000000000000F71B0008B6
:10003000E10A000800000000F51B0008F91B000899
:100040001B0100081B0100081B0100081B01000820
:100050001B0100081B0100081B0100081B01000810
:100060001B0100081B0100081B0100081B01000800
:100070001B0100081B0100081B0100081B010008F0
:100080001B0100081B0100081B0100081B010008E0
:100090001B0100081B0100081B010008E30A0008FF
:1000A0001B0100081B0100081B0100081B010008C0
:1000B0001B0100081B0100081B0100081B010008B0
:1000C0001B0100081B0100081B0100081B010008A0
:1000D0001B0100081B0100081B0100081B01000890
:1000E0001B0100081B0100081B010008DFF80CD0F1
:1000F00000F092FC00480047513C0008C804002072
:100100000648804706480047FEE7FEE7FEE7FEE7B1
:10011000FEE7FEE7FEE7FEE7FEE7FEE75B1C000802
:10012000ED0000082DE9F0410024061B254671F181
:10013000000605DA01240027D0EB070067EB010178
:10014000161E73F1000605DA0027D2EB070201251F
:1001500067EB030300F033FB86460E4617469C46CA
:10016000AC4204D00025D0EB050E65EB010624B1AE
:100170000020D2EB000760EB030C704631463A4694
:100180006346BDE8F081202A04DB203A21FA02F020
:100190000021704721FA02F3D040C2F120029140C1
:1001A000084319467047D2B201E000F8012B491EFE
:1001B000FBD270470022F6E710B513460A46044604
:1001C0001946FFF7F0FF204610BD30B50446002069
:1001D000034600E05B1C934203D2E05CCD5C401B15
:1001E000F8D030BDF0B480EA0102D40F4200B2EB87
:1001F000410F02D20246084611464A0042D0C30DC2
:10020000DDB2C1F3C752AD1A202D35DAC1F31601A4
:1002100041F4000204B15242C5F1200602FA06F18F
:100220002A411044B3EBD05F23D0C4B1012DA0EB21
:10023000C35009DCF0BC4FF0004202EAC352DBB20B
:1002400000F5000000F016BB400000F1807000EBEC
:10025000C350A0F1807040EAD170490009E049081C
:1002600041EAC071A0EBC35000F50000400800EB6C
:10027000C350F0BC00F0F5BA6142012202EB41012B
:10028000001BF6E7F0BC704781F00041AAE780F060
:100290000040A7E780EA010210B502F000434000E9
:1002A00022D04A001FD0010E01EB1261C0F35600AC
:1002B000C2F3560240F4000042F40002A0FB022008
:1002C00000047F39140400D0401C50EA124001D4CD
:1002D0004000491EC2B20C0604EBD010401C40087E
:1002E000802A02D003E0002010BD20F00100002988
:1002F00000DA0020184310BD30B480EA010202F099
:10030000004530F0004221F0004013D090B1C30D01
:10031000D40DC2F31601C0F31600E41A41F4000133
:1003200040F400027D34914201D3641C00E0490096
:10033000002C02DA30BC002070474FF4000000238C
:10034000914201D3891A034340084FEA4101F7D192
:1003500051B1914202D14FF0004105E002D24FF07D
:10036000010101E06FF0010103EBC450284430BCEF
:1003700000F077BA420005D0C0F3C7525242914212
:1003800001DC0020704700EBC15070472DE9FE4FA3
:10039000804681EA0300C00F0C46009021F0004126
:1003A00023F00045B8EB0200A94105D240462146A2
:1003B00090461C460B46024623F00040104347D0AF
:1003C000270DC7F30A00C3F30A510290401A0190A7
:1003D00040286BDAC3F3130040F4801B0098924668
:1003E00020B10023D2EB030A63EB0B0B01985946B3
:1003F000C0F14002504600F013FA06460D46504642
:100400005946019A00F01BFA10EB080061410024E4
:1004100087EA115284EAE7731A4340D0009A62B324
:10042000019A012A4FEA075215DC001B61EB020119
:100430004FF0004202EA0752CDE90042001C41F5AC
:10044000801132462B4600F052FA03B0BDE8F08F1F
:1004500040462146F9E7001B61EB0201001C41F513
:10046000801300185B412018A2F5001747EB030129
:1004700040EAD570B6196D4111E06D084FEA3606B5
:1004800045EAC0754FEA0752001B61EB0201001CF0
:1004900041F5801149084FEA3000001951413246B8
:1004A0002B4603B0BDE8F04F00F012BA00980122CD
:1004B00040000023D0EB020263EBE073009821467A
:1004C0004FEAE074B8EB000061EB0401E9E783F068
:1004D00000435BE781F0004158E72DE9FE4F81EAD8
:1004E000030404F0004421F0004100944FF0000B9D
:1004F00023F0004350EA01045ED052EA03045BD0CB
:10050000C3F30A54C1F30A552C44A4F2F334019402
:10051000A0FB0254C1F3130141F48011C3F3130390
:1005200043F4801301FB024400FB034E840A970A44
:1005300044EA815447EA8357A4FB076802958D0A71
:1005400005FB07854FEA932C04FB0C542705029DFD
:100550004FEA065847EA1637B5EB08056EEB070C6D
:10056000870E920E47EA811742EA8312A7FB020127
:10057000B6EB0B0164EB00042B0D43EA0C335E1861
:1005800044EB1C50DA465146E7FB0201C5F3130465
:100590004FEA0B3343EA14534FEA0432019C43EA17
:1005A0000603A4F10C040294009CCDE900B400F011
:1005B0009EF903B0BDE8F08F00200146F9E72DE970
:1005C000F04D81EA030404F0004B21F0004514468D
:1005D0004FF0000A23F0004150EA050220D054EA0F
:1005E00001021DD0C5F30A570246C5F31303C1F338
:1005F0001300C1F30A5640F4801543F48013A7EBAF
:100600000608101BD64608F2FD3873EB050002D32E
:1006100008F1010801E092185B41B8F1000F03DA1C
:1006200000200146BDE8F08D00204FF48011064601
:1006300084460EE0171B73EB050705D3121B63EB13
:10064000050306434CEA010C49084FEA30009218B2
:100650005B4150EA0107EDD152EA030012D082EA71
:10066000040083EA0501084305D0101BAB4106D204
:100670000122002306E000224FF0004302E06FF069
:10068000010253101AEB06004CEB085110EB0A0064
:1006900041EB0B01BDE8F04D00F01AB9C10F80EA43
:1006A000E0700844CA079623002100F0E3B89623BF
:1006B0000022114600F0DEB80EB5C10F80EAE070EE
:1006C0000844CA07002140F233438DE80E000A4671
:1006D0000B4600F00CF903B000BD00F0004220F022
:1006E0000040C10DC0F3160040F400007F2901DA7C
:1006F00000207047962903DCC1F19601C84001E053
:1007000096398840002AF4D04042704720F00040DB
:10071000C10DC0F3160040F400007F2901DA00206B
:100720007047962903DCC1F19601C840704796399D
:100730008840704700F0004230F000400AD0C10D00
:1007400001F56071C0F3160042EA0151C20840078A
:100750001143704700200146704701F0004330B458
:1007600021F0004150EA010206D00A0DA2F56072A4
:10077000C1F31301002A02DC30BC00207047440F93
:1007800044EAC104C100E01830BC00EBC25000F0E4
:1007900068B830B50B46014600202022012409E04C
:1007A00021FA02F59D4205D303FA02F5491B04FA2A
:1007B00002F52844151EA2F10102F1DC30BD2DE93D
:1007C000F05F0546002092469B46884606468146D5
:1007D00040241BE02846414647462246FFF7D3FC0B
:1007E00053465A46C01A914110D311461846224624
:1007F00000F016F82D1A67EB01084F46224601203B
:10080000002100F00DF817EB00094E41201EA4F165
:100810000104DFDC484631462A464346BDE8F09FE6
:10082000202A04DB203A00FA02F1002070479140B0
:10083000C2F1200320FA03F3194390407047202AA5
:1008400006DBCB17203A41FA02F043EAE07306E0F8
:1008500041FA02F3D040C2F1200291400843194608
:1008600070470029A8BF7047401C490008BF20F00E
:100870000100704710B4B0FA80FC00FA0CF050EAA6
:10088000010404BF10BC704749B1CCF1200421FA27
:1008900004F411FA0CF118BF012121430843A3EB22
:1008A0000C01CB1D4FEA00614FEA102042BF00202F
:1008B00010BC704700EBC35010440029A4BF10BC0B
:1008C0007047401C490008BF20F0010010BC704771
:1008D00010B5141E73F1000408DA401C41F1000148
:1008E00092185B411A4301D120F0010010BD2DE99F
:1008F000F04D92469B4611B1B1FA81F202E0B0FA96
:1009000080F220329046FFF78BFF04460F4640EA04
:100910000A0041EA0B0153465A46084313D01146D8
:1009200053EA010019D0C8F140025046FFF72BFCF2
:1009300005460E46504659464246FFF771FF0843AA
:1009400005D0012004E020463946BDE8F08D0020A6
:10095000054346EAE0762C4337430A986305E40AE8
:10096000A0EB08000022FD0A44EA47540A3002D5F1
:1009700000200146E9E7010510196941DDE9084554
:1009800000196941BDE8F04DA2E770B521F00043C0
:1009900003430CD0C1F30A550024D5EB040564EBE6
:1009A0000403D617AD1AB34102DB0020014670BD27
:1009B000201841EB025170BDC1F30A52C1F313017B
:1009C00040F2FF3341F480119A4202DA00200146DE
:1009D000704740F233439A42A2F2334202DC524261
:1009E000FFF7D1BBFFF71CBF30B5041E71F1000447
:1009F00004DB4FF00044404264EB0101141E73F12C
:100A0000000405DB1C464FF00043524263EB040335
:100A1000994208BF904230BD064C074D06E0E068A1
:100A200040F0010394E8070098471034AC42F6D335
:100A3000FFF760FBD8590008F85900082DE9F04D80
:100A400000231A461B1A8A4103DB00200146BDE839
:100A5000F08DC1F30A52C1F3130141F480154FF038
:100A6000000BD10702D100186D41521E0027044629
:100A700040F2FF11384601EB620A3E4680460246CC
:100A800000204FF48011FFF77EFBC2197141BB18A3
:100A900046EB0100B4EB030C75EB000C04D3E41A35
:100AA00065EB000517460E46241908F101006D415B
:100AB00080463428E3DDF91946EB0600091BA841FE
:100AC00003D24FF0FF32134601E0002213461BEB26
:100AD000070046EB0A51BDE8F04DFFF7F9BEFEE70F
:100AE0007047202000F082B872B6FEE770B5044669
:100AF00000F08AF90546601C02D0044800780444DE
:100B000000F082F9401BA042FAD370BD2000002003
:100B10002DE9F04786B02021214800F063F9002834
:100B20003BD120A001F02AF9254C2078012834D1AE
:100B300004F11802111F081F03F0DEF8A21D911E18
:100B4000881E00F06DFE04F10C02911E881E00F05C
:100B500080FE1C49E069FFF7CFFBFFF7EBFD814604
:100B60008A46A069FFF7E6FD074688462069FFF739
:100B7000E1FD05460E466069FFF7DCFD8DE8E00704
:100B800002460B4610A001F0F9F806B04FF40051F0
:100B9000BDE8F047144800F02AB906B0BDE8F08778
:100BA000000C014068617320656E74657265642095
:100BB0007468652066756E6374696F6E0D0A000057
:100BC000000000200000C842583A252E3166205906
:100BD0003A252E3166205A3A252E316620543A2580
:100BE0002E3266200D0A000000100140044910B5A5
:100BF0000A68024202D00860FFF78AFF10BD0000B9
:100C0000140401402DE9F84FDFF8B891002409F1F0
:100C1000040A0AF1040B23460F270BF1040EC9E066
:100C20000125A5402A40AA427DD1674ED1F804C0D3
:100C3000ACEB0608B44532D014DCBCF1030F3AD05B
:100C400009DCBCF1000F2AD0BCF1010F1CD0BCF1B3
:100C5000020F31D11DE0BCF1110F17D0BCF1120F02
:100C60002AD119E0B8F5881F19D006DCB8F5803F05
:100C700015D0B8F5801F1FD111E0B8F5001F0ED0B8
:100C8000B8F5041F18D10AE0CB6815E0CB681B1D2E
:100C900012E0CB6808330FE0CB680C330CE08B68B4
:100CA0002BB1012B4FF0080303D0456104E004236E
:100CB00002E0056100E00023FF2A01D8064601E0BA
:100CC00000F104064FEA840501D9A5F12005D6F804
:100CD000008007FA05FC28EA0C0803FA05F548EA43
:100CE0000508C6F800804D68ED0062D5374DAE6945
:100CF00046F00106AE61AD6924F0030605F001057A
:100D00000095334D06EB050CDCF80850A607360FAE
:100D100007FA06F825EA0805DFF8B880404503D150
:100D20004FF0000817E044E0DFF8AC80404502D106
:100D30004FF001080FE0DFF8A480404502D14FF0EA
:100D4000020808E0DFF89880404502D14FF0030820
:100D500001E04FF0040808FA06F848EA0508CCF864
:100D600008804D68D9F80060ED034D4601D5164363
:100D700000E096432E604D68DAF80060AD035546FA
:100D800001D5164300E096432E604D68DBF8006005
:100D9000ED025D4601D5164300E096432E604D6896
:100DA000DEF80060AD02754601D5164300E09643BB
:100DB0002E60641C0D682A46E5407FF431AFBDE823
:100DC000F88F0000000401400000111000100240E4
:100DD0000000014000080140000C014000100140EB
:100DE000001401408068084000D001207047C268AC
:100DF00021EA02030A4043EA0241016170470AB155
:100E0000016170470904FBE70148806870470000F2
:100E100020000020024881680278114481607047F8
:100E200020000020074810B5016841F01001016062
:100E3000032000F079F8032000F006F800F024F811
:100E4000002010BD0020024070B50D4D04464FF447
:100E50007A712878B1FBF0F00A490968B1FBF0F02B
:100E600000F0F0FA48B9102C07D200222146501E9B
:100E700000F03AF800206C6070BD012070BD0000E9
:100E8000200000202C0000200E4808B5816941F0A8
:100E900001018161816901F001010091C16941F0A5
:100EA0008051C161C06900F080500090052000F0C1
:100EB0003BF80548416821F0E06141F00071416074
:100EC00008BD00000010024000000140002809DBBE
:100ED00000F01F02012191404009800000F1E02054
:100EE000C0F8001170470000F0B40E4B1B680C46B0
:100EF000C3F30223C3F10705042D00D90425191DEE
:100F0000072901D2002300E0DB1E012606FA05F1C5
:100F1000491E214099409E40761E16403143F0BC48
:100F200000F050BF0CED00E0064900F00702086831
:100F30004FF6FF03184040EA0220034A10430860BE
:100F4000704700000CED00E00000FA052DE9F047C5
:100F50000F46050061D0434E306800F00700B842EC
:100F600009D2306820F0070038433060306800F064
:100F70000700B84251D128683B4C810712D5400781
:100F800003D5606840F4E06060602878000703D50E
:100F9000606840F4605060606068A96820F0F0000C
:100FA000084360602878C00728D06868012810D0FE
:100FB0002168022810D0890700292EDA616821F003
:100FC000030101436160FFF71FFF804641F288394A
:100FD0000DE021688903EFE78901EDE7FFF714FFD2
:100FE000A0EB0801494502D90320BDE8F0876068FD
:100FF000696800F00C00B0EB810FEFD1306800F0B1
:101000000700B8420BD9306820F007003843306041
:10101000306800F00700B84201D00120E5E72878E9
:10102000400705D56068E96820F4E0600843606027
:101030002878000706D56068296920F4605040EAE6
:10104000C100606000F038F86168084AC1F303111C
:10105000515CC8400649086006480068FFF7F4FE86
:101060000020C2E70020024000100240344C00087B
:101070002C0000202400002004480549006849682D
:10108000044AC1F30221515CC84070472C00002083
:1010900000100240444C00080448054900684968B3
:1010A000044AC1F3C221515CC84070472C000020A3
:1010B00000100240444C000812A185B00FC98DE811
:1010C0000F0014A0144A006804905168134801F0FE
:1010D0000C03042B10D0082B0ED1C1F38343C9039A
:1010E0001DF803000AD5516804AAC1F34041515CC0
:1010F0000A4A5043B0FBF1F005B070470849484335
:10110000FAE7000002030405060708090A0B0C0DA4
:101110000E0F1010010200000010024000127A00B1
:1011200000093D002DE9F84F040070D02078C04D33
:10113000C00749D06868C0F38100012807D06868FB
:10114000C0F38100022809D16868C00306D5286869
:10115000800339D560680028E7D035E06068B0F5D5
:10116000803F0BD010B1B0F5A02F11D0286820F42B
:1011700080302860286820F4802002E0286840F44D
:1011800080302860606890B1FFF73EFE06460AE0B6
:10119000286840F480202860F0E700BFFFF734FEA5
:1011A000801B642873D828688003F7D50CE0FFF70C
:1011B0002BFE064605E000BFFFF726FE801B6428D5
:1011C000F0D828688003F7D420789A4E80074FF033
:1011D00001094FF0000839D5686810F00C0F07D0EE
:1011E0006868C0F38100022809D16868C00306D48A
:1011F0002868800714D52069012808D110E02069EB
:10120000B0B1C6F80090FFF7FFFD074605E00AE120
:10121000FFF7FAFDC01B0228C4D828688007F7D55D
:101220002868616920F0F80040EAC10028600DE0FC
:10123000C6F80080FFF7E8FD074604E0FFF7E4FD8D
:10124000C01B022823D828688007F7D4207800071D
:101250002CD57948A169D9B1C0F80090FFF7D4FD29
:10126000074604E0FFF7D0FDC01B02280FD8686ACC
:101270008007F7D571484FF4FA510068B0FBF1F0E0
:10128000009000BF0098411E0091FAD20EE080E06D
:10129000C0F80080FFF7B8FD074604E0FFF7B4FD93
:1012A000C01B022875D8686A8007F7D420784007E9
:1012B00060D5E8690027C00008D4E86940F0805094
:1012C000E861E869012700F0805000905C480168FF
:1012D000C90513D40168834641F480710160FFF7AA
:1012E00093FD824606E000BFFFF78EFDA0EB0A00EB
:1012F00064284ED8DBF80000C005F5D5E068012869
:101300000AD008B1052813D0286A20F0010028620D
:10131000286A20F0040002E0286A40F001002862F8
:10132000E06841F2883B98B1FFF76EFD82460BE022
:10133000286A40F004002862EEE700BFFFF764FD72
:10134000A0EB0A0159455AD8286A8007F6D50CE067
:10135000FFF75AFD824605E0FFF756FDA0EB0A01B4
:1013600059454CD8286A8007F6D41FB1E86920F0A7
:101370008050E861E06988B36968C1F3810102299E
:1013800044D00228C6F8608004D0FFF73DFD044633
:1013900038E034E0FFF738FD074604E0FFF734FD9E
:1013A000C01B02282BD828688001F7D4206AB0F52A
:1013B000803F05D16868A16820F400300843686068
:1013C000D4E908010843696821F47411084368608E
:1013D000C6F86090FFF718FD044606E025E000BF60
:1013E000FFF712FD001B022809D828688001F7D5F5
:1013F0001BE000BFFFF708FD001B022802D90320F5
:10140000BDE8F88F28688001F4D40EE00128F7D0F9
:101410006868226A00F48031914204D1616A00F464
:101420007010884201D00120EAE70020E8E70000C0
:101430000010024000004242800442422C00002082
:101440000070004010B5401EB0F1807F01D3012034
:1014500010BD4FF0E02460610F21601700F0B2FC76
:101460000020A06107202061002010BD70B504009D
:1014700004D094F83D00002510B106E0012070BDB5
:1014800084F83C50204600F023F8242084F83D00E6
:101490002068C16821F40051C160204600F0DEFBE5
:1014A0002068016921F4904101612068416921F0BF
:1014B0002A0141612068C16841F40051C16025647E
:1014C000202084F83D0084F83E00002070BD00001C
:1014D00030B585B000240094019402940394006810
:1014E0001449884224D11448816941F480418161C2
:1014F000816901F480410491816941F004018161B5
:1015000080690E4D00F0040004904FF400700090CC
:10151000022001900320039069462846FFF772FBE2
:101520002815CDE90004694628460294FFF76AFBB6
:1015300005B030BD003801400010024000080140F5
:101540002DE9F843044690F83D001F4616460D4627
:1015500020284CD1C5B1BEB194F83C00012846D03A
:10156000012084F83C004FF00008C4F8408021209E
:1015700084F83D00FFF748FCA6848146E684A06815
:10158000B0F5805F03D004E00120BDE8F883206956
:1015900028B12E465FF0000584F83C800EE000265E
:1015A000FAE78021204600F0B5FBA0B9AEB116F8ED
:1015B000010B21684860E08C401EE084E08C4B46C3
:1015C0004FF0000200970028EBD14FF04001204679
:1015D00000F0A0FB30B10320D7E735F8020BC0F3D1
:1015E0000800E6E7202084F83D000020CDE7022037
:1015F000CBE7FEE710B50E4C002220212046FFF776
:10160000FEFB00F017F8012210212046FFF7F7FB40
:1016100000F010F8002210212046FFF7F0FB00F048
:1016200009F820460122BDE810402021FFF7E7BB62
:10163000000801400020401CC0B20A28FBD37047BC
:101640000C4800B5816985B041F004018161806971
:10165000694600F0040004903020009003200390BD
:10166000112001900448FFF7CDFA00F09DF805B075
:1016700000BD0000001002400008014010B50C4CF5
:10168000012220212046FFF7BAFBFFF7D3FF0122FA
:1016900010212046FFF7B3FBFFF7CCFF00221021FB
:1016A0002046FFF7ACFBBDE81040FFF7C3BF0000CA
:1016B000000801402DE9F0410024134E074625465D
:1016C0006006040E012210213046FFF798FBFFF759
:1016D000B1FF20213046FFF785FB08B1641CE4B25E
:1016E000002210213046FFF78AFBFFF7A3FF6D1C95
:1016F000EDB2082DE4D327B1FFF77CFF2046BDE80B
:10170000F081FFF7BBFFF9E70008014070B5154E07
:1017100005460024280601D5012200E000222021F0
:101720003046FFF76CFBFFF785FF012210213046A2
:10173000FFF765FBFFF77EFF002210213046FFF721
:101740005EFB072C04D1012220213046FFF757FB16
:101750006806050EFFF76EFF641CE4B2082CD9D3AF
:1017600070BD00000008014010B50E4C0122202180
:101770002046FFF744FB012210212046FFF73FFBE4
:10178000FFF758FF002220212046FFF738FBFFF724
:1017900051FF002210212046FFF731FBBDE8104029
:1017A000FFF748BF0008014010B50A4C0022202175
:1017B0002046FFF724FB012210212046FFF71FFBE4
:1017C000FFF738FF20460122BDE810402021FFF737
:1017D00016BB00000008014070B5104D0122202109
:1017E0002846FFF70CFBFFF725FF012210212846B2
:1017F000FFF705FBFFF71EFF20212846FFF7F2FA4F
:1018000008B1012400E00024002210212846FFF73F
:10181000F6FAFFF70FFF204670BD000000080140F8
:101820007CB514460D4606466B4606223B216820D1
:1018300000F0A6F800280BD1BDF8001049BA31809D
:10184000BDF8021049BA2980BDF8041049BA2180B8
:101850007CBD7CB514460D4606466B4606224321E8
:10186000682000F08DF800280BD1BDF8001049BAAF
:101870003180BDF8021049BA2980BDF8041049BA78
:1018800021807CBD08B56B4602224121682000F012
:1018900077F8BDF8000040BA00B2FEF70DFF002255
:1018A000074BFEF78CFE074A074BFEF76FFDFEF76E
:1018B00054FF0649FEF7EEFCFEF70FFF00B208BD2D
:1018C00000407540A4703D0AD74342400000C84222
:1018D00010B5FFF7B5FE80216B2000F0C0F80520A1
:1018E000FFF704F900216B2000F0B9F8032000F0A5
:1018F00082F8002000F07AF8642000F099F80121C5
:10190000382000F0ACF800216A2000F0A8F800218F
:10191000232000F0A4F88021372000F0A0F87520E3
:1019200000F011F8682801D0012010BD01216B20C2
:1019300000F095F800216C2000F091F8642000F090
:1019400077F8002010BD10B50446FFF70DFFD0203A
:10195000FFF7DCFEFFF740FF2046FFF7D7FEFFF75B
:101960003BFFFFF701FFD120FFF7D0FEFFF734FF69
:101970000020FFF79FFE0446FFF716FF204610BD2C
:101980002DE9F0411D4614460F460646FFF7ECFED2
:101990007006000EFFF7BAFEFFF71EFF20B1FFF73B
:1019A00003FF0120BDE8F0813846FFF7AFFEFFF7E7
:1019B00013FFFFF7D9FE012000EB4600C0B2FFF78E
:1019C000A5FEFFF709FF09E0012C0DD05FF0010033
:1019D000FFF770FE641E05F8010BE4B2002CF3D192
:1019E000FFF7E2FE0020DDE70020F1E7C006010E70
:1019F0001C2000F034B8C006010E1B2000F02FB8E8
:101A0000BC2801D3012110E0622801D302210CE09F
:101A10002A2801D3032108E0142801D3042104E07B
:101A20000A2801D3052100E006211A2000F017B88A
:101A300010B504464FF47A70844201D9044602E09E
:101A4000042C00D20424B0FBF4F0401EC1B21920D3
:101A500000F005F86008BDE81040FFF7D1BF70B591
:101A60000C460546FFF780FED020FFF74FFEFFF73C
:101A7000B3FE50B92846FFF749FEFFF7ADFE2046FA
:101A8000FFF744FEFFF7A8FE18B1FFF78DFE012017
:101A900070BDFFF789FE002070BD2DE9F0411E46A4
:101AA00015460F460446FFF75FFE6006000EFFF77F
:101AB0002DFEFFF791FE60B93846FFF727FEFFF7CE
:101AC0008BFE00240CE0305DFFF720FEFFF784FE64
:101AD00020B1FFF769FE0120BDE8F081641CE4B28B
:101AE000AC42F0D3FFF760FE0020F5E7F0B585B01B
:101AF00000252C480095019502950395816941F0D8
:101B000010018161816901F010010491816941F046
:101B100020018161816901F020010491816941F016
:101B200004018161816901F004010491816941F03E
:101B3000080181618069012200F008001A4E5403F7
:101B4000049021463046FFF75AF9184F0022302101
:101B50003846FFF754F900940124CDE90145694660
:101B600030460394FFF74EF8302000901120CDE965
:101B70000104694638460394FFF744F8202000909A
:101B80000B48CDE9010469460A48FFF73BF80122FA
:101B900002211720FFF7A8F91720FFF797F905B0E2
:101BA000F0BD00000010024000100140000801409C
:101BB00000002110000C01400C4810B50A490160DA
:101BC0004FF4E1314160002181600C22C160C0E925
:101BD00004128161C161FFF749FC002803D0BDE810
:101BE0001040FEF781BF10BD00380140700000209A
:101BF000FEE7FEE770477047FFF70CB930B58FB0CE
:101C000028216846FEF7D6FA14210AA8FEF7D2FA70
:101C100001210804CDE9001000240294022504915A
:101C2000CDE907504FF4E01009906846FFF77AFAC3
:101C300008B172B6FEE70F20CDE90A054FF48060C7
:101C4000CDE90C4002210AA80E94FFF77FF9002885
:101C500001D072B6FEE70FB030BD704770B50446D4
:101C600000680169E26821F4405111430161216972
:101C7000A0680843616908432168CA6841F20C639F
:101C80009A430243CA6020684169A26921F4407105
:101C9000114341611E492068884202D1FFF7FCF9D7
:101CA00001E0FFF7E9F900EBC00101EB0012606809
:101CB00064218000B2FBF0F3B3FBF1F36FF0180680
:101CC0007343B2FBF0F5B2FBF0F605EB830532236C
:101CD00003EB0515B5FBF1F5B6FBF1F605F0F005E4
:101CE00005EB0615B2FBF0F6B2FBF0F0B0FBF1F03D
:101CF0006FF01802504306EB800003EB0010B0FBBE
:101D0000F1F0216800F00F002844886070BD0000E9
:101D1000003801402DE9F041984617460E4604462A
:101D2000069D1DE0681C1BD02DB1FFF76DF8A0EBE0
:101D30000800A84214D92068C16821F4D071C1609C
:101D40002068416921F001014161202084F83D00B3
:101D500084F83E00002084F83C000320BDE8F081B8
:101D60002068006836EA000004D00020B842D9D0CC
:101D70000020F3E70120F9E7FEE700000FB4054B70
:101D800010B503A9044A029800F05CF910BC5DF894
:101D900014FB00003937000868000020490050EAB1
:101DA000C12018BF04204A0D18BF40F0010040F2C6
:101DB000FF72B2EB515F08BF40F00200012808BF7C
:101DC000052070470907090E002804DB00F1E02018
:101DD00080F80014704700F00F0000F1E02080F858
:101DE000141D70472DE9F0414F1E00EBC70104465A
:101DF000D1E9000115461E4637F006020DD02A46ED
:101E00003346FEF76AFB7F1E04EBC703D3E90023CA
:101E1000FEF7BCFA37F00602F1D1022F25D0042FCD
:101E200013D0062F18BFBDE8F0812A463346FEF7CF
:101E300054FBD4E90A23FEF7A9FA2A463346FEF7F3
:101E40004CFBD4E90823FEF7A1FA2A463346FEF7F5
:101E500044FBD4E90623FEF799FA2A463346FEF7F7
:101E60003CFBD4E90423FEF791FA2A463346FEF7F9
:101E700034FBD4E90223FEF789FA2A463346FEF7FB
:101E80002CFBD4E90023BDE8F041FEF77FBA012224
:101E9000FEF77BBDFEF77ABA0022134610461146C4
:101EA000FEF78DBB024A00201107FEF76EBD000051
:101EB00001FDFFFF02E008C8121F08C1002AFAD185
:101EC00070477047002001E001C1121F002AFBD1BA
:101ED0007047000001490860704700006C00002056
:101EE0002DE9FF5FDDE90220010DDDF838B0024386
:101EF00018D044F61050A1F2FF3141430D140F9851
:101F0000012820D0A5EB0B00401C5FEA000A4FF02F
:101F10000004474EDFF81C91A046504616D5CAF182
:101F2000000728E00F98012443A2012808D00021CF
:101F300000980F9BC0E90021C0E90243BDE8FF9F64
:101F40006FEA0B01F4E7CBF10000DEE7074612E091
:101F5000F80707D02246334640464946FEF7BDFA09
:101F6000804689462246334610461946FEF7B5FAA2
:101F700004460E467F10002FEAD1DDE90201BAF1D6
:101F8000000F42464B4602DAFEF7A7FA01E0FEF7E1
:101F900016FB04460E460022284BFEF725FD03D80B
:101FA0004FF0FF30014607E00022254B2046314626
:101FB000FEF7ECF9FEF700FD102409E0002C0ADB27
:101FC0000A220023FEF7FBFB019B30321A55641EE8
:101FD00050EA0102F2D1641C019AC4F111031444C5
:101FE0000F9A012A03D0012208430DD10AE00843C9
:101FF00004D000204FF0110B0F9080E7A3EB0B05EE
:102000006D1E0DE05B4504DD4FF0000205F101059A
:1020100004E003DA4FF00002A5F10105002AECD03C
:1020200000980F99C0E90231C0E9004586E7000039
:10203000000024400000F03F300000000000F043AA
:102040000000E03F2DE9FF4F95B09B4689460646CC
:1020500000250FE2252877D100242746F84A0121E0
:10206000059400E0044316F8013F203B01FA03F019
:102070001042F7D130782A2811D06FF02F03307832
:10208000A0F13002092A16D8059A44F0020402EBA6
:10209000820203EB42021044761C0590EFE759F8E8
:1020A000042B0592002A03DA504244F400540590B0
:1020B00044F00204761C30782E2816D116F8010F51
:1020C00044F004042A280DD06FF02F023078A0F1DC
:1020D0003003092B09D807EB870302EB4303C7182A
:1020E000761CF3E759F8047B761C30786C280FD007
:1020F00006DC4C2817D068280DD06A2814D104E0DB
:10210000742810D07A280FD10DE044F400140AE0AE
:1021100044F4801401E044F440147278824202D105
:1021200004F58014761C761C307866280BD013DCFE
:10213000582877D009DC002875D04528F6D04628E5
:10214000F4D047281AD19DE118E0632835D06428DF
:1021500079D0652812D195E1702873D008DC672802
:10216000F1D069286FD06E280DD06F2806D1B5E068
:1021700073282CD0752875D0782874D05A461799B2
:1021800090476D1C75E1C4F30250022809D0032862
:102190000DD0D9F8001004280DD00D6009F1040904
:1021A00067E1D9F80010EA17C1E90052F6E7D9F85B
:1021B00000100D80F2E70D70F0E719F8041B8DF8A0
:1021C000001000208DF80100EA46012003E059F8D4
:1021D00004AB4FF0FF3061074FF0000102D40DE077
:1021E00008F101018846B9420FDA8045F8DB1AF898
:1021F00008100029F4D108E008F101018846814265
:10220000FADB1AF808100029F6D105985B46A0EB16
:10221000080721463846179A00F094FA284400EB44
:10222000080507E04DE029E10DE01AF8010B5A46D8
:1022300017999047B8F10108F7D25B462146384616
:10224000179A13E142E00A220092C4F302524FF0BF
:10225000000A022A08D059F804CB032A4FEAEC718D
:102260000AD00DE029E02AE009F1070121F0070278
:10227000F2E802C1914609E00FFA8CFC4FEAEC71DA
:10228000042A03D14FFA8CFC4FEAEC71002907DADB
:102290000A460021DCF1000C61EB02012D2202E074
:1022A000220504D52B228DF80420012203E0E20749
:1022B00001D02022F7E7904659E00A2102E01022DF
:1022C0000DE010214FF0000A00910BE010224FF0BA
:1022D000000A44F004040827009203E008224FF0AB
:1022E000000A0092C4F30252022A05D059F804CB26
:1022F0000021032A08D009E009F1070121F00702B3
:10230000F2E802C1914605E01FFA8CFC042A01D1D3
:102310000CF0FF0C4FF00008220728D5702806D0DB
:10232000009B83F0100353EA0A0305D00EE040221D
:102330008DF80420012208E05CEA010206D0302278
:102340008DF804208DF8050002229046009B83F052
:10235000080353EA0A030AD15CEA010201D16207C9
:1023600005D530228DF804204FF001087F1E582833
:1023700004D034A003900EA802900DE036A0F9E737
:1023800053466046009AFEF71AFA84460398825C28
:102390000298401E029002705CEA0100F0D102989F
:1023A00006A9081A00F1200A600702D524F4803437
:1023B00000E00127574502DDA7EB0A0000E00020FE
:1023C00000EB0A01009005984144401A0590E00393
:1023D00006D45B462146179A059800F0B3F90544E8
:1023E000002706E001A85A46C05D179990476D1C6A
:1023F0007F1C4745F6DBE0030CD55B462146179A68
:10240000059800F09FF9054404E030205A461799DA
:1024100090476D1C0099481E00900029F5DC08E0EB
:10242000029802995A460078491C029117999047E0
:102430006D1CBAF10001AAF1010AF1DC65E10000AE
:10244000092801003031323334353637383961628A
:10245000636465660000000030313233343536374E
:1024600038394142434445460000000000F058F925
:102470000544761C307800287FF4ECAD19B028466E
:10248000BDE8F08F620700D4062709F1070222F0A9
:10249000070CFCE80223E14603F000485FEA080C61
:1024A00002D00FF2702C0DE05FEA045C02D50FF24F
:1024B000682C07E05FEAC47C02D00FF2602C01E0D8
:1024C000AFF2700C4FF0FF3823F00043CDF850C04E
:1024D00065280CD006DC452809D046281DD04728A1
:1024E0003DD13DE0662818D067287ED138E0002134
:1024F000112F01DB112000E0781CCDE9000106A9B5
:102500000EA8FFF7EDFCDDE90F010E9A0391002103
:10251000009207F1010A04914DE04FF0004000974E
:10252000CDE9011006A90EA8FFF7DAFCDDE90F02DC
:1025300003920E9B11990022DDF80CA000930492E7
:1025400011B9791C00EB010AB7EB0A0004D4C0F101
:10255000FF3007F1010A0490AAEB0700019044E064
:10256000012F00DA01270021112F01DD112000E0E9
:102570003846CDE9000106A90EA8FFF7B1FCDDE958
:102580000F010E9A0391002104910092BA4621078F
:102590000CD40399514500DA8A46BAF1010F05DDE2
:1025A000009AAAF10101515C302908D0B84202DA40
:1025B00010F1040F06DA0121CDE9011015E0AAF1AE
:1025C0000101E9E7002805DC049901440491AAEB24
:1025D000000102E0411C514500DD8A460499401A81
:1025E000401C01904FF000400290200704D4019855
:1025F000504501DBCDF8048000208DF84F00029893
:102600000DF14F07B0F1004F25D02B200E9002980E
:102610004FF0020800280CDA404202902D200E9064
:1026200007E00A210298FEF7B4F83031029007F86B
:10263000011DB8F10001A8F10108F2DC02980028A0
:10264000EFD1791E0E980870307800F0200040F02D
:10265000450007F8020D12A8C01B00F107081498E6
:10266000007800B1012000EB0A01019801EBE07154
:1026700005984144401A401E0590E00306D45B468D
:102680002146179A059800F05DF8054414980078E3
:1026900018B15A46179990476D1CE00324D55B4644
:1026A0002146179A059800F04DF805441CE004985F
:1026B000002807DBDDE90301884203DD0098405C68
:1026C000179901E0179930205A469047049805F170
:1026D0000105401C04900198401E019004D12E2059
:1026E0005A46179990476D1CBAF10001AAF1010AE8
:1026F000DDDC05E017F8010B5A46179990476D1C71
:10270000B8F10001A8F10108F4DC5B462146179AF4
:102710000598ABE62D0000002B0000002000000013
:102720002DE9F041044600251E461746880404D4CE
:1027300005E039462020B0476D1C641EF9D52846B7
:10274000BDE8F0812DE9F041044600251E46904683
:10275000C80301D5302700E02027880404D505E010
:1027600041463846B0476D1C641EF9D52846BDE881
:10277000F08100002DE9FE4F07460E460025684611
:1027800000F0E6FF00246FF00F0AE8464FF0010961
:1027900057F8240056F82410401A00D54042FDF79F
:1027A0007DFF5146FDF7E6FD58F8241011F0FF4F6C
:1027B0000BD0FDF7A1FD4FF07E51FDF765FD0A49F5
:1027C00020F00040884205DC07E008490844084939
:1027D000884202D309FA04F00543641C032CD7DBBA
:1027E0002846BDE8FE8F0000295C0F3E666666C184
:1027F0009A99D9002DE9F04D8D4F21F0004A86B00D
:1028000005460C46BA452ADBAAEB070028430AD046
:102810008848824501DC1AD1CDB106B02846BDE812
:10282000F04DFFF734BB844A844B2846FDF755FE34
:1028300007460E46824A834B28462146FDF74DFE49
:1028400006B03A463346BDE8F04DFDF79FBD012086
:10285000FFF740FB06B0BDE8F04DFFF71DBB7A481F
:10286000824542DABAF1795F0BDA2846FFF796FA29
:10287000042808BFFFF716FB284606B02146BDE82E
:10288000F08D2A460B461046FDF727FE834602468A
:102890006E480E460B4606217844FFF7A3FA5A46C7
:1028A0003346FDF71AFE804669488A465A46334643
:1028B00004217844FFF796FA5A463346FDF70DFE99
:1028C00000223B46FDF762FD02460B46404651465C
:1028D000FDF775FE2A462346FDF7FFFD06B02A46A2
:1028E0002346BDE8F04DFDF751BD284624F00041D8
:1028F00000223D463B46FDF7EDFD4FF0FF32FEF76F
:1029000044F80646024653480F460B4606217844D3
:10291000FFF768FA32463B46FDF7DFFDCDE90001DF
:102920004D4832463B4604217844FFF75BFA324675
:102930003B46FDF7D2FD00222B46FDF727FD8346DF
:1029400002913046394602F04FF9804643480D4621
:10295000504517DCDDE900015A46029BFDF72FFECA
:1029600042462B46FDF7B9FD42462B46FDF70EFDCC
:102970000122FEF70AF8304A304BFDF7A8FD304A35
:10298000304B4CE04FF0000A52460B464046FDF7F4
:10299000FDFCCDE9031052462B4610461946FDF7C3
:1029A0009CFD32463B46FDF795FDDDE90332FDF720
:1029B00006FE06460F46DDE900015A46029BFDF77A
:1029C000FEFD83460091012230463946FDF7DDFFCA
:1029D000194A1A4BFDF77EFD06460F460122404676
:1029E0002946FDF7D2FF5A46009BFDF776FD324699
:1029F0003B46FDF76CFD06460F4601225046294630
:102A0000FDF7C3FF0E4DDFF858802A464346FDF719
:102A100061FD32463B46FDF75DFD2A464346FDF724
:102A200059FD002CD8BF81F0004106B0BDE8F08D03
:102A30000000F03F0000F07F075C143326A6913CB5
:102A4000182D4454FB21F93F0000E03FFC2F00000B
:102A500012300000862F00009C2F00003333EF3F20
:102A6000FB21E93F2DE9F84F04460D4621F00040D7
:102A700000917349814211DC7249884201DC06D120
:102A80002CB120462946BDE8F84FFFF700BA6E4842
:102A9000002DCCBF6D496E49BDE8F88F6D4981426C
:102AA00011DD6D498142D8BF4FF0FF366DDD204604
:102AB0002946FFF773F9042808BFFFF7F3F920460A
:102AC0002946BDE8F88F6549654F25F000458142EC
:102AD00033DD6449814219DD002632464FF08043E0
:102AE00020462946FDF752FC80468A4601222046B0
:102AF0002946FDF74AFF00223B46FDF7E8FC424627
:102B00005346FDF75CFD04460D463EE001260022DB
:102B1000BA463B4620462946FDF738FC80460F461C
:102B20000022534620462946FDF7D1FC42463B464B
:102B3000FDF745FD04460D4627E04B4981421BDD6C
:102B4000DFF828A102260022534620462946FDF739
:102B5000C4FC00223B46FDF719FC80460F460022CC
:102B6000534620462946FDF7B2FC42463B46FDF758
:102B700026FD04460D4608E0032622462B4600208B
:102B80003B49FDF71CFD04460D4622462B461046E8
:102B90001946FDF7A2FC8B46824602460B46FDF71E
:102BA0009CFC07460246334888460B46062178447B
:102BB000FFF718F952465B46FDF78FFC82462E4818
:102BC0008B463A46434605217844FFF70BF93A46CF
:102BD0004346FDF782FC02460B46002E50465946FE
:102BE0000CDAFDF7D3FB22462B46FDF776FC01B04D
:102BF00022462B46BDE8F04FFDF76CBCFDF7C6FB47
:102C000022462B46FDF769FC1C4A7A4402EBC603B8
:102C1000D3E90023FDF75BFC22462B46FDF757FC6A
:102C2000174A7A4402EBC603D3E90023FDF752FCAE
:102C3000009A002AB8BF81F00041BDE8F88F00007B
:102C4000000010440000F07F182D4454FB21F93F90
:102C5000FB21F9BF0000DC3F0000203E0000F33FF5
:102C60000000F03F0000E63F008003400000F83F16
:102C70000000F0BF9E2D00005C2D0000FA2C00002B
:102C8000C22C00002DE9F04D9446CCF1000423F055
:102C900000464CEA0404524F46EAD4749A468846E9
:102CA00021F00042BC4206D8454240EA050442EA0F
:102CB000D474BC4204D9BDE8F04D6246FFF7EAB8CF
:102CC000AAF14055A5F17F6555EA0C040BD002240A
:102CD00004EAAA74434DDFF810E144EAD87452EADA
:102CE000000B04D00CE0BDE8F04DFFF7BBBE002C9C
:102CF00014BF012CBDE8F08D022C30D0032C32D053
:102D000056EA0C0B0AD0BE4220D1BA4209D126F0B5
:102D1000804622F080423346114617E000291ADB34
:102D200025E0DFF8C8B0FB44002C04BFDBE900015C
:102D3000BDE8F08D012C02BFDBE9000181F000410C
:102D4000BDE8F08D022C0AD0032C0CD0BA4212D16F
:102D5000B8F1000F0BDA23482549BDE8F08D28466D
:102D60002449BDE8F08D28467146BDE8F08D1D4828
:102D70002149BDE8F08D921B12153C2AC4BF1948A9
:102D80001D490EDCBAF1000FBEBF12F13C0F00204E
:102D9000014606DB6246FDF712FC21F00041FFF719
:102DA00061FE002C08BFBDE8F08D012C04BF81F04E
:102DB0000041BDE8F08D114A114B022C07D0FDF700
:102DC00086FB2A46BDE8F04D0A4BFDF780BBFDF7B8
:102DD0007EFB2A46BDE8F04D064BFDF77BBB0000AD
:102DE0000000F07F182D4454FB2109C0562C000030
:102DF000FB21F9BFFB210940FB21F93F075C14339C
:102E000026A6A13C08B560B120208DF8000028203E
:102E10008DF8010030208DF8020038208DF8030075
:102E200004E0A32204216846FDF7BDF96A460421A7
:102E300040F69E2001F042FE01F000FB08BD0000BC
:102E40003EB5044602208DF80000CA208DF801002E
:102E5000E3208DF8020009208DF803006A46042162
:102E6000682001F02BFEA3208DF80000610609D533
:102E7000C0218DF80110C8218DF80210C2218DF8F3
:102E8000031005E08DF801008DF802008DF80300B5
:102E900014F4C07F09D0C4218DF80410CC218DF822
:102EA0000510C6218DF8061005E08DF804008DF898
:102EB00005008DF806008DF808008DF807008DF8E4
:102EC00009006A460A2140F6A72001F0F7FDA00795
:102ED0004FF0D80503D020208DF8000001E08DF8D8
:102EE00000506A46012140F6B62001F0E7FDA00639
:102EF00001D5012000E0002000F08EF814F4C07F1E
:102F00001ED0E0050AD5B2208DF800008B208DF888
:102F10000100B6208DF802009B2009E0B0208DF85A
:102F2000000080208DF80100B4208DF80200902070
:102F30008DF803006A46042140F6A22001F0BEFD90
:102F4000E1074FF40B6022D0F8218DF800106A469B
:102F5000012101F0B3FDFA21072000F039FB072021
:102F600000F004FB012000F021FB642000F0C4FB12
:102F70004FF4FA7000F0D0FBC821254800F0BEFAEB
:102F8000282000F0D3FA0A2000F0E0FA05E08DF8DE
:102F900000506A46012101F091FDA00703D5D92018
:102FA0008DF8000001E08DF800506A46012140F2E2
:102FB0003D7001F083FD600701D5012000E0002095
:102FC00000F048F8E00601D5012000E00020FFF7FE
:102FD00019FF104D44F00800688101F02FFA00201D
:102FE000A873600601D50620A87314F4C07F02D030
:102FF000A87B801DA87314F0140F02D0A87B10309A
:10300000A873A00702D0A87B001DA87300203EBDB6
:1030100009E3CA02B40000200EB54FF4976310B163
:1030200006A107C901E008A207CA8DE807006A46A1
:103030000921184601F042FD0EBD0000B8AAB38D6B
:10304000B4980D355D000000B8AAAAAAB088C3C51F
:10305000C700000008B560B1C0208DF80000C22094
:103060008DF80100C4208DF80200C6208DF8030001
:1030700004E08B2204216846FDF795F86A46042196
:1030800040F6982001F01AFD01F0D8F908BD0000C3
:10309000C8234FF48062024940F6F63001F0B0B820
:1030A0009C4C00082DE9FF4F89B01746DDE9165208
:1030B00000244C4E884681462C80A246B07B69464F
:1030C00001F04AF94FF0FF3B18B158460DB0BDE88A
:1030D000F08F708910F0140F3CD0009909BA21F0DC
:1030E000FF039DF803100B433B6001991B1409BAC1
:1030F00021F0FF029DF807105B430A437A600299B2
:103100009DF80B4009BA21F0FF012143B960039CEF
:10311000091424BA24F0FF0C9DF80F4012144CEA55
:10312000040CC7F80CC04FEA2C47494302FB02329B
:1031300007FB071111441024A1F17061B1F1007F68
:1031400004D901F07BF9A5F800A0BEE7298841F475
:10315000807129804206694611D50A19A41D138879
:103160005BBAA8F8003053885BBAA8F8023092889E
:1031700052BAA8F804202A8842F008022A8010F4E3
:10318000C07F11D00A19A41D13885BBAA9F80030BA
:1031900053885BBAA9F80230928852BAA9F8042081
:1031A0002A8842F070022A80800716D00C44E0780A
:1031B00000F0C00500F03F016078C00706D0C808E5
:1031C00001F007013268491C02B19047607800079E
:1031D00003D5716809B1A80988470C9800F060FD13
:1031E000002073E7B40000202DE9FF41044603A846
:1031F00000F0BCFEBDF80C00410CC3032F4802894F
:1032000002F00300550754F8200000D54042C2F3F5
:10321000C105960654F8255000D56D42C2F38116BB
:10322000D20554F8264000D56442A0FB0367C217BC
:1032300002FB037200FB0120820042EA9670A5FBAC
:103240000367EA1702FB037205FB0122950045EABA
:103250009672A4FB0367E51705FB037304FB0131BA
:103260008B0043EA9671030E8DF80030030C8DF845
:103270000130030A8DF802308DF80300100E8DF82E
:103280000400100C8DF80500100A8DF80600080ED9
:103290008DF80800080C8DF80900080A8DF80A005E
:1032A0008DF807208DF80B106A460C214FF425701D
:1032B00001F004FC04B0BDE8F0810000B40000207F
:1032C00030B5044613A285B007CA8DE807004FF059
:1032D000FF35C82C16D8C820B0FBF4F1491E080AE7
:1032E0008DF80C008DF80D1003AA022140F2162073
:1032F00001F0E4FB30B96A460C2140F6C12001F030
:10330000DDFB10B1284605B030BD054884810020A2
:10331000F9E70000FEF2ABC4AAF1DFDFBBAFDFDFED
:10332000B4000020F8B53049098901F0030250F8D3
:1033300022404A0700D56442C1F3C1028B0650F80F
:10334000222000D55242C1F3811350F82330C80522
:1033500000D55B42254984FB0140850045EA947015
:1033600082FB0142A40F44EA820483FB0121950FF2
:1033700045EA8105010E8DF80010010C8DF8011051
:10338000010A8DF802108DF803006A4604214FF4FB
:10339000747001F093FB4FF0FF3688B9200E8DF862
:1033A0000000200C8DF80100200A8DF802008DF835
:1033B00003406A4604214FF4757001F07FFB08B1A9
:1033C0003046F8BD280E8DF80000280C8DF801005D
:1033D000280A8DF802008DF803506A4604214FF444
:1033E000767001F06BFBF8BDB400002009E3CA025F
:1033F0002DE9FF4104463CA004F00303006802905D
:103400003AA0006803903AA006683AA0056802A8AE
:10341000C15C8DF80010C4F3C101425C8DF801203D
:10342000C4F38112805C8DF8020003A8C35C8DF8A0
:103430000430415C8DF80510805C8DF806006A460A
:10344000032140F2264001F039FB4FF0FF37E0BB8B
:1034500001AA032140F22A4001F030FBA8BBCDE9CC
:10346000006560070BD59DF8000040F001008DF865
:1034700000009DF8040040F001008DF80400A00653
:103480000BD59DF8010040F001008DF801009DF87A
:10349000050040F001008DF80500E0050BD59DF812
:1034A000020040F001008DF802009DF8060040F097
:1034B00001008DF806006A4603214FF4886001F090
:1034C000FDFA10B901AA032100E004E040F2314006
:1034D00001F0F4FA18B1384604B0BDE8F0810648AE
:1034E00004810020F8E700004CCD6C000CC92C00D2
:1034F0003656760026466600B40000204FF47A72F5
:1035000090FBF2F008B54843010E8DF80010010C55
:103510008DF80110010A8DF802108DF803006A463B
:1035200004214FF4AE7001F0C9FA08BD0521B0FBCB
:10353000F1F008B5010A8DF800108DF801006A4617
:1035400002214FF4AD7001F0B9FA08BD0521B0FBBE
:10355000F1F008B5010A8DF800108DF801006A46F7
:1035600002214FF4AC7001F0A9FA08BD08B50021A2
:103570008DF80010C10702D030218DF800108107AE
:1035800005D59DF8001041F00C018DF800104007A2
:1035900005D59DF8000040F003008DF800006A4654
:1035A00001214FF4A47001F089FA08BD08B560B19B
:1035B000042800D90420401E8DF800006A4601212D
:1035C00040F24F1001F07AFA08BD0120F3E7000045
:1035D0002DE9FC41054640074FF0FF367CD0B1F5A0
:1035E000C86F79D80846FDF762F83E49FCF784FEBB
:1035F000074601A800F09CFC9DF80400022806D0B4
:1036000004280DD008282ED0102865D134E00E21D2
:103610003846FCF7AFFEFDF779F884B2324907E08F
:103620000D213846FCF7A6FEFDF770F82F4984B24D
:103630003846FCF72FFEFDF769F8210A8DF80010D7
:1036400080B28DF80140010A8DF802108DF8030058
:10365000E8076C4620D0224602214FF4EA7001F0C0
:103660002DFAC8BB11E00C213846FCF783FEFDF7AC
:103670004DF884B21E49DBE70B213846FCF77AFE91
:10368000FDF744F884B21B49D2E7A21C02214FF493
:10369000927001F013FAF8B9A8070DD56A46022115
:1036A0004FF4EC7001F00AFAB0B9A21C02214FF4F9
:1036B000947001F003FA78B9680710D56A460221C0
:1036C0004FF4EE7001F0FAF930B9A21C02214FF468
:1036D000967001F0F3F910B13046BDE8FC8100208E
:1036E000FBE7000000004843000040460000C045E2
:1036F000000040450000C0440521B0FBF1F008B5D2
:10370000010A8DF800108DF801006A4602214FF47D
:10371000EF7001F0D3F908BD0521B0FBF1F008B559
:10372000010A8DF800108DF801006A4602214FF45D
:10373000ED7001F0C3F908BD13B54FF0FF3301225E
:1037400069460248FDF7FCFE00981CBD7000002091
:103750002DE9FE430646264801AB042240680D21B0
:103760000078FEF70DF910B10720BDE8FE839DF843
:1037700004101C2000EAD1029DF80710DFF87490B5
:10378000C1F301131A438DF800209DF80520C1F301
:10379000810300EAD2021A438DF801209DF8062029
:1037A00001F0030100EAD20008430024124F8DF813
:1037B0000200A0466D46285D10B146F824900AE04C
:1037C00046F824800DE000BF56F824003946FCF787
:1037D00061FD46F82400285D401E10F0FF002855CA
:1037E000F2D1641CE4B2032CE5D30020BDE7000055
:1037F000300000207B14AE3E1D5A843F2DE9FE4F61
:1038000005460120C14E8DF800004FF000088DF8EC
:10381000018030680C461746817C70686B46022236
:103820000078FEF73AF94FF0FF3A00287AD1C82025
:10383000FDF75CF98DF8008030686B460122C17B92
:1038400070680078FEF729F90028EFD130686B46E0
:103850000122417970680078FEF71FF90028E5D150
:1038600030686B460122817C70680078FEF715F99C
:103870000028DBD130686B460122C17D706800787A
:10388000FEF70BF90028D1D130686B46012201798F
:1038900070680078FEF701F90028C7D14FF00C09D5
:1038A0008DF8009030686B460122017970680078CD
:1038B000FEF7F3F8002835D10F20FDF717F9B06AAD
:1038C0006B460122407A8DF800003068817870687C
:1038D0000078FEF7E2F8002824D1B06A6B46012296
:1038E000007A8DF800003068417870680078FEF743
:1038F000D4F8002873D1B06A807A0FB140F0E000AC
:103900008DF8000030686B4601228179706800787C
:10391000FEF7C3F8002862D12FB1B06AC07A40F038
:10392000E00001E04AE018208DF8000030686B46A6
:103930000122C17970680078FEF7AFF8F0BB17B1CB
:10394000C820FDF7D3F840208DF8000030686B46A2
:103950000122017970680078FEF79FF870BB78202B
:103960008DF8000030686B4601224179706800785C
:10397000FEF793F810BB3220FDF7B8F88DF8008001
:10398000306847466B464179706801220078FEF73F
:1039900084F898B931687068B046897A00786B46C7
:1039A0000222FDF7EDFF48B9BDF80000AF6040BA54
:1039B000B0FBF9F06F60C6B22F6000E00FE0A760C7
:1039C00067602760002739E0D8F80010D8F80400B5
:1039D0006B46C97A00780C22FDF7D2FF10B1504631
:1039E000BDE8FE8FBDF80000236840BA02B2BDF802
:1039F0000200BDF804101A44226040BA626800B2A6
:103A00001044606049BAA06809B20844A060BDF8DB
:103A100006002B6840BA02B2BDF808001A4440BA4A
:103A200001B2BDF80A002A606A6840BA11446960B0
:103A3000A96800B208447F1CFFB2A860B742C3D394
:103A400028688322C117090441EA104100040023B9
:103A5000FCF768FB32460023FCF764FB28606868CB
:103A60008322C117090441EA104100040023FCF736
:103A700059FB32460023FCF755FB6860A868832297
:103A8000C117090441EA104100040023FCF74AFB76
:103A900032460023FCF746FBA86020684FF400651F
:103AA000C117090441EA104100042A460023FCF72B
:103AB00039FB32460023FCF735FB206060682A465C
:103AC000C117090441EA104100040023FCF72AFB56
:103AD00032460023FCF726FB6060A0682A46C11727
:103AE000090441EA104100040023FCF71BFB3246A5
:103AF0000023FCF717FBA060002802DDA0F5803052
:103B000001E000F58030A060002069E7300000206F
:103B10002DE9F84F81462E488846002540686B46BF
:103B2000032200780D21FDF72BFF10B10720BDE81F
:103B3000F88F9DF80000002400F01F008DF80000B1
:103B40009DF801006FF00F0B00F01F008DF80100D1
:103B50009DF802006E4600F01F008DF802004FF045
:103B6000010A00BF59F8241058F82400081A00D59B
:103B70004042FCF793FD5946FCF7FCFB0746305DDD
:103B8000C0B1144802E01449FCF784FB315D491EC2
:103B900011F0FF013155F6D101463846FCF7ACFB78
:103BA0004FF07E51FCF770FB0C4920F0004088423A
:103BB00005DC07E00A483844B0F1D97F02D90AFA97
:103BC00004F00543641C032CCCDB2846AFE700005F
:103BD000300000200000C84154E3853F295C0F3EBF
:103BE0000000E0BE00B5024600F00DF80346D01C10
:103BF00000F009F843EAC003901D00F004F843EA1E
:103C0000801080B200BD90F90010002902DD4FF055
:103C10000000704702DA4FF00400704790F901107D
:103C2000002902DD4FF00100704702DA4FF0050075
:103C3000704790F90200002802DD4FF00200704743
:103C400002DA4FF0060070474FF00700704700009F
:103C5000FDF7E8F8FDF7D2FFFDF748FFFDF7ACFFF1
:103C6000FDF736FE00F016F908A0FEF787F80B4CBA
:103C700001254FF4FA7625703046FCF737FFFDF743
:103C800001FEFCF70BFDE061F5E70000B3F5CABCEF
:103C9000BBAFB3C9B9A6A3A10D0A00000000002064
:103CA000704700002DE9F041124C20F00101002581
:103CB00094F8240010B10020BDE8F081A07A4FF004
:103CC000FF3668B10840277C2074884200D0354612
:103CD00041B1012000F05CFF00F0B0FB38B1277467
:103CE0003046E9E7207D00B1012000F051FF284671
:103CF000E2E70000300000202DE9F74F8EB00CA95C
:103D000002A8CDE900010BAB03AA09A907A8FFF798
:103D1000C9F918B1012011B0BDE8F08FBDF8080055
:103D2000C0057DD50398FCF7B9FC6FF01D04214652
:103D3000FCF720FB82460498FCF7B0FC2146FCF718
:103D400019FB81460598FCF7A9FC2146FCF712FBFC
:103D500080460698FCF7A2FC2146FCF70BFB0546C3
:103D600001215046FCF706FB06464146FCF792FA55
:103D700004464FF040414846FCF78CFA0746294676
:103D8000FCF788FA2146FCF72DFAFCF7D3FCFEF786
:103D900031FD4FF0663B5A463D4BFCF79EFBFCF76E
:103DA000DCFC0E99086001214046FCF7E3FA41462D
:103DB0000090FCF76FFA044638464946FCF76AFA69
:103DC0002146FCF761FA4FF07E51FCF70BFAFCF745
:103DD000B1FC07460C4630464946FCF75BFA0646FE
:103DE00029460098FCF756FA3146FCF7FBF9FCF738
:103DF000A1FC3A462346FEF745FF5A46244BFCF702
:103E00006CFBFCF7AAFC0F99086029460846FCF7F2
:103E100041FA074641460846FCF73CFA064600E0F0
:103E200034E049460846FCF735FA04465146084650
:103E3000FCF730FA2146FCF7D5F93146FCF724FAB5
:103E40003946FCF721FAFCF775FC06460C46294674
:103E50005046FCF71FFA054641464846FCF71AFA59
:103E60002946FCF7BFF90121FCF784FAFCF762FC54
:103E700032462346FEF706FF5A46054BFCF72DFB5C
:103E8000FCF76BFC10990860002044E7022042E731
:103E900066A64C4010B5FDF7D3FB00F0EDF808B175
:103EA0000A2010BD782000F0ADFD10F0FF0F01D00A
:103EB000012010BD7820FFF7F5FE10F0FF0F01D0B4
:103EC000022010BD642000F05DFD10F0FF0F01D056
:103ED000032010BDFFF7DCF810F0FF0F01D0042025
:103EE00010BD1248FFF77EFEFFF782FA10F0FF0FB9
:103EF00001D0052010BD40F27310FEF7A1FF10F0B5
:103F0000FF0F01D0062010BD6420FFF7D9F910F093
:103F1000FF0F01D0072010BD00F0FAFD012000F0D6
:103F200057FC10F0FF00F6D0092010BD5C00002007
:103F30000D494A7A42B1012A08D0022A0FD0032A39
:103F40000FD04FF0FF307047022200E004220270D1
:103F5000C97C11B11106C90D0170002070470822FB
:103F6000F5E71022F3E70000300000200F494A7AFD
:103F700042B1012A09D0022A11D0032A12D04FF0EF
:103F8000FF3070474FF4804201E041F69C7202809E
:103F9000C97C11B1C2F34E010180002070474FF47B
:103FA0008052F4E74FF40062F1E700003000002097
:103FB0000B49097A39B1012907D002290AD003290E
:103FC0000BD0002103E0FA2101E04FF4FA710180E7
:103FD000002070474FF47A71F9E74FF4FA61F6E781
:103FE000300000200A49097A41B1012908D002298C
:103FF0000AD003290AD04FF0FF307047054900E08E
:1040000005490160002070470449FAE70449F8E7D0
:10401000300000200000034300008342333303429A
:10402000333383410C49C97A072913D2DFE801F001
:104030001204060A0C0E1000BC2100E0622101806F
:10404000002070472A21FAE71421F8E70A21F6E751
:104050000521F4E70021F2E730000020054991F83E
:10406000242012B14FF0FF307047C9890180002031
:1040700070470000300000202DE9FC414C4C8020AE
:104080008DF8000020686B460122817C6068007812
:10409000FDF703FD4FF0FF37002832D16420FCF715
:1040A00025FD00258DF8005020686B460122817C9B
:1040B00060680078FDF7F1FC002870D120686B463D
:1040C0000622817D60680078FDF75AFC002866D1E1
:1040D0009DF805009DF80310C007400F01F0010195
:1040E00040EA41019DF801004FF0010600F0010097
:1040F000014309D0012905D0022915D02DA0FDF7D3
:104100003DFE4CE0E67410E020686B460122C17869
:1041100060680078FDF734FC40BB9DF8000010F0AB
:104120000F0020D0042822D0E574FF2004F80A0FE5
:104130004FF6FF7104F8020C04F8010C6070A180C6
:10414000A0712072A67026766576E572A572E5608C
:1041500025616561A576E576A5834FF4FA6000F0E8
:1041600073FB18B907E01D48FDF708FE17E01CA017
:10417000FDF704FEC6E7022000F088FA78B92A208D
:1041800000F0CAFB58B9322000F0FCFB38B900201F
:10419000FFF788FD18B9002000F0ACFA10B13846DE
:1041A000BDE8FC81002000F02DFC0020F8E70000B5
:1041B00030000020556E737570706F7274656420E6
:1041C000736F6674776172652070726F6475637463
:1041D000207265762025642E0A00000088590008A8
:1041E00048616C662073656E736974697669747969
:1041F000207061727420666F756E642E0A00000074
:104200002DE9FF4FDFF89480064685B098F8250029
:1042100015460F464FF0FF39B0BBAFB3002420E086
:10422000301B102800DD102080B283463A19014669
:104230009246204600F042FC30BB6A465946204672
:1042400000F0D2F800BB50465A466946FBF7BDFF66
:1042500020B16FF0010009B0BDE8F08F04EB0B0056
:1042600084B2B442DCD3280A8DF810008DF81150C6
:10427000D8F80000444604AB817ED8F8040002223E
:104280000078FDF70AFC08B14846E4E7012084F80D
:1042900025000898E0840020DDE7000030000020C1
:1042A0002DE9F84305464FF0FF39282844D8072761
:1042B000284C00267DB1012000F0FCFA20208DF86A
:1042C00000004FF00108012D17D0052D18D88DF8EA
:1042D000018005201FE0002000F0ECFA8DF800605E
:1042E0008DF8017020686B460222817C606800783E
:1042F000FDF7D3FB00BB267529E08DF80160E8E7E8
:10430000142D04D802208DF801000A2003E00320B8
:104310008DF80100142000F0FFFA9DF801006B46B3
:1043200007EB80108DF8010020680222817C606814
:104330000078FDF7B2FB10B14846BDE8F8830820CD
:10434000A072267384F814800020FFF7ABFC0020D5
:10435000F3E70000300000202DE9F843214C064629
:10436000174694F8240089464FF0FF3890B3A07A9E
:1043700080B320686B460222817A60680078FDF77E
:10438000FFFA38BBBDF8000045BAB54202D20020A2
:1043900038701FE060684188B5EB510F11D9216872
:1043A00000786B46497C0122FDF7EAFA90B99DF846
:1043B0000000C00605D500F041F86FF00100BDE82F
:1043C000F8832068F2B24B46C17A60680078FDF746
:1043D000D7FA08B14046F2E7B5FBF6F0401E387058
:1043E0000020ECE730000020F8B516000D464FF035
:1043F000FF371FD0104CA17AE1B1010A8DF80010EF
:10440000C0B28DF80100411960684289914211D80B
:10441000216800786B46097E0222FDF73EFB48B911
:104420002068EAB23346417D60680078FDF7A8FA5B
:10443000002800D03846F8BD30000020F8B5564CB2
:104440004FF0FF36A07A00287DD000258DF800506F
:1044500020686B460122C17B60680078FDF71DFB78
:10446000002870D120686B4601224179606800788D
:10447000FDF713FB002866D120686B460122017905
:1044800060680078FDF709FB00285CD194F82400EF
:10449000E0B30C208DF8000020686B460122017902
:1044A00060680078FDF7F9FA002872D13220FCF735
:1044B0001DFBC0208DF80000A07AC00702D0E020CC
:1044C0008DF8000020686B46012201796068007851
:1044D000FDF7E3FA00285CD1607C18B102208DF86A
:1044E000000001E08DF8005020686B460122C17B7E
:1044F00060680078FDF7D1FA28BB8DF8005020687D
:104500006B4601224179606800783EE0FFE70420B5
:104510008DF8000020686B46012201796068007800
:10452000FDF7BBFA78B9A07C90B9A07AC0070FD08C
:104530005FF060008DF8000020686B460122017971
:104540006068007800E024E0FDF7A7FA08BB01E00E
:104550004020EFE73220FCF7C9FA607C18B1012057
:104560008DF8000001E08DF8005020686B460122B4
:10457000C17B60680078FDF790FA50B92068064B5F
:1045800001224179606810330078FDF786FA00282F
:1045900000D03046F8BD0000300000202DE9F04783
:1045A000394C82468AB094F824000F4620B100208E
:1045B00000F00EF9012600E0002607A8FFF7F8FC3E
:1045C00006A8FFF7B5FC09A8FFF72CFD08A8FFF720
:1045D00045FD94F80A9094F8108000250022394691
:1045E0005046FFF70BF910B16D1C022DF6DB022DC2
:1045F0001AD00025012203A96846FFF7FFF810B181
:104600006D1C022DF6DB022D0ED003A93846FEF7F5
:10461000B1F8C7B269465046FFF77AFA10F0FF0FBB
:104620004FF0000502D002E0002503E001250FB99C
:1046300045F00205FF2020726072E0724FF6FF71B4
:10464000E181A072207401202073BDF81C0000F0ED
:10465000FBF89DF8180000F019F8BDF8240000F0F0
:104660005BF9BDF8200000F08DF9484600F0CAF96A
:104670004046FFF717FB16B1012000F0A9F80AB079
:104680002846BDE8F08700003000002038B5184CFF
:104690004FF0FF35A17A19B3022806D0042806D0BE
:1046A00008280ED010281BD10DE0002000E00820C3
:1046B0008DF80000607A9DF80010B0EBD10F04D0A7
:1046C00005E01020F4E71820F2E7002038BD20684C
:1046D0006B460122C17960680078FDF7DEF908B108
:1046E000284638BD9DF80000C0086072EDE7000064
:1046F00030000020F8B5354C0546A07CA84201D119
:104700000020F8BD31484FF0FF366B46D0E900106D
:104710004FF001020979007835B3FDF731F970BB2C
:104720009DF800006B4620F020008DF80000206806
:104730000122017960680078FDF7AFF9F8B903202C
:10474000FCF7D4F902208DF8000094F8220078B329
:1047500082202BE020686B460122017D6068007892
:10476000FDF79BF958B92EE0FDF70AF938B9A07AA0
:10477000C0079DF8000003D040F0200002E00CE0EC
:1047800020F020008DF8000020686B46012201799E
:1047900060680078FDF781F908B13046F8BD032064
:1047A000FCF7A4F994F8220000B180208DF80000F5
:1047B00094F823000028CDD09DF8000040F0300090
:1047C0008DF80000C6E7A5749AE7000030000020CD
:1047D00038B51C4C94F8241081421DD0002500B33C
:1047E00094F82500D0B1002000F0D2F90020FFF7A6
:1047F00081FFE08C00F0C6F88DF8005060686B46D1
:10480000012200782321FDF748F9012084F82400D3
:1048100000F0BEF9FFF712FE002038BD4FF0FF3068
:1048200038BD002000F0B4F9207C8DF800006068ED
:104830006B46012200782321FDF72FF984F82450DC
:10484000E8E700003000002038B5194C4FF0FF3584
:10485000A17A31B3FA2809D0B0F5FA7F08D0B0F5C3
:104860007A7F0FD0B0F5FA6F1BD10DE0002000E089
:1048700008208DF80000207A9DF80010B0EBD10FD1
:1048800004D005E01020F4E71820F2E7002038BD3E
:1048900020686B460122817960680078FDF7FDF899
:1048A00008B1284638BD9DF80000C0082072EDE729
:1048B0003000002038B5174C054694F82300A84274
:1048C00001D1002038BD0DB1302000E000208DF86E
:1048D0000000A07C28B19DF8000040F002008DF897
:1048E000000094F8220028B19DF8000040F08000FC
:1048F0008DF8000020686B460122017D6068007819
:10490000FDF7CBF810B14FF0FF3038BD84F82350DD
:10491000D7E700003000002038B5194C4FF0FF35C4
:10492000A17A31B3BC2801D3012010E0622801D361
:1049300002200CE02A2801D3032008E0142801D328
:10494000042004E00A2801D3052000E006208DF8A9
:104950000000E07A9DF80010884201D1002038BDA7
:1049600020686B460122817860680078FDF795F831
:1049700008B1284638BD9DF80000E072EEE700005F
:1049800030000020F8B51E4D04464FF0FF37A87ADE
:1049900048B395F8240030BB287D4FF47A7648B1AF
:1049A00064B1282C03D8E0B2FFF77AFC26E000209F
:1049B000FFF776FC042C05D2042406E00020FFF764
:1049C0006FFCF9E7B44200D93446B6FBF4F0401E60
:1049D0008DF8000028686B460122417868680078ED
:1049E000FDF75BF808B13846F8BD9DF80000401CA3
:1049F000B6FBF0F0E8814008FFF78EFF0020F8BD1D
:104A000030000020F8B5054610F0700F4FF000069A
:104A100001D0012004E015B18DF8006002E04020D3
:104A20008DF80000244C6B4601222068817C606870
:104A30000078FDF732F84FF0FF3760BB9DF80000BB
:104A400020F0400020738DF80060680602D4042036
:104A50008DF80000A80605D49DF8000040F0020083
:104A60008DF80000E80605D49DF8000040F0010034
:104A70008DF80000280705D49DF8000040F03800AC
:104A80008DF8000020686B460122C17C60680078C8
:104A9000FDF703F810B1A6723846F8BD25B1082D10
:104AA00002D00020FFF706FFA57226753220FCF722
:104AB0001DF80020F8BD000030000020F8B51600F9
:104AC0000D464FF0FF371FD0104CA17AE1B1010A1B
:104AD0008DF80010C0B28DF801004119606842895C
:104AE000914211D8216800786B46097E0222FCF7BA
:104AF000D4FF48B92068EAB23346417D6068007847
:104B0000FCF7CBFF002800D03846F8BD300000206D
:104B100010B588B0694604A8FFF740FD072802D009
:104B2000012008B010BD07A8FFF75CFA0498FBF756
:104B3000B5FD07990C46FBF7ADFBFBF7CEFD0490E6
:104B40000598FBF7ABFD2146FBF7A4FBFBF7C5FD82
:104B500005900698FBF7A2FD2146FBF79BFBFBF7B0
:104B6000BCFD069004A8FEF7DDFB03A8FFF7FEF9E5
:104B7000BDF80C0000994143009101994143019116
:104B80000299414368460291FEF72EFB0020C8E7D8
:104B9000F8B5144C0146224694F82460D2E900028C
:104BA00000235D1E56B179B1022111E0C17B10785E
:104BB0006B460122FCF771FF68B90EE0A67A56B188
:104BC00011B1617C61B902E08DF80030EEE701219E
:104BD0008DF80010EAE72846F8BD9DF800006074E3
:104BE0000020F8BD300000202DE9F04106460F46B8
:104BF000FBF724FF04000D4618BF0120284320F0D6
:104C00000040C0F17F6000F1E040C00F0ED0301CCA
:104C100018BF0120384320F00040C0F17F6000F150
:104C2000E040C00F04BF0120FDF754F9204629469B
:104C3000BDE8F08100000000000000000102030454
:104C400006070809000000000102030475191A0C88
:104C50006A231B1C1F207274433B4138393A6B6C2A
:104C6000376F06246D6E70006800000476005401F2
:104C7000F7FD00018300000000080000000100189B
:104C800032000500000020410000D242295C0F3EA6
:104C90009A99993E3333733F295C0F3E00007000B0
:104CA0000000002400000002000300000065005422
:104CB000FFEF0000FA80000B12820001030C30C3EA
:104CC0000E8C8CE914D5400213710F8E3883F88353
:104CD0003000F883258EF8833000F883FFFFFFFF54
:104CE0000FFEA9D6240004001A8279A10000003C1E
:104CF000FFFF00000010000038836FA2003E033069
:104D00004000000002CAE3093E80000020000000CD
:104D1000000000004000000060000000000C0000E7
:104D2000000C186E000006920A16C0DFFFFF025644
:104D3000FD8CD377FFE1C496E0C5BEAA0000000059
:104D4000FFFF0B2B00001657000003594000000026
:104D500000001DFA00026C1D000000003FFFDFEBA9
:104D6000003EB3B6000D227800002F3C000000008A
:104D7000001942B5000039A20000B365D90E9FC9E1
:104D80001DCF4C3430000000500000003BB67AE8E4
:104D90000064000000C800000000000010000000D7
:104DA0001000FA921000225E000D229F0001000008
:104DB00000320000FF46000063D400001000000035
:104DC00004D6000004CC000004CC000000001072E7
:104DD000000000400000000000000000000600028B
:104DE0000005000700000000006400000000000053
:104DF0000000000500050064002000000000000025
:104E0000000000000000400000000300000000322D
:104E1000F8980000FF650000830F0000FF9BFC0076
:104E20000000000000000000000000000000000082
:104E30000000000000000000000000000000000072
:104E40000000000000000000000010004000000012
:104E5000000000060000B26A000200000001FB83AF
:104E60000068000000D9FC007CF1FF830000000016
:104E700000650000006403E80064002800000025CD
:104E80000000000016A0000000001000000010004C
:104E9000002F0000000001F40000100000280000B6
:104EA000FFFF4581FFFFFA720000000000000000D4
:104EB000004400050005BAC6004778A200000001C2
:104EC0000000000000000600000000140000254D56
:104ED000002F706D000005AE000C02D00000000035
:104EE000000000000000000000000000001B0000A7
:104EF000000000000000000000000000006400004E
:104F00000008000000000000000000000000000099
:104F10000000000000000000000000000000000091
:104F20000000000000000000000000000000000081
:104F30000000000000000000000000000000000071
:104F40000000000000000000000000000000000061
:104F5000000000000000000000000000001B000036
:104F60000000000000000000000E000E00000AC754
:104F70000004000000000032FFFFFF9C00000B2B2C
:104F8000000000020000000100000064FFE50000D6
:104F90000000000000000000000000000000000110
:104FA000000000000001000000000000000180007F
:104FB0000001800000018000002426D300000000D2
:104FC00000000000000600100096003C00000000F9
:104FD0000000000000000000000000000C0A4E6805
:104FE000CDCF770950166759C619CE820000000050
:104FF00000000000000000000000000000000000B1
:105000000000000017D7840003000000000000002B
:1050100000000000C7938F9D1E1B1C19000000009C
:105020000000000000000000000000000000000080
:10503000000000000203188500004000000000038B
:10504000000000030000000000000000400000001D
:105050000000000000000000000000000000000050
:105060000000000000000000000000000000000040
:105070000000000000000000000000000000000030
:10508000677DDF7E72902E554CF6E68800000000AA
:10509000000000000000000000000000D8DCB4B8F0
:1050A000B0D8B9ABF3F8FAB3B7BB8E9EAEF132F518
:1050B0001BF1B4B8B08097F1A9DFDFDFAADFDFDF33
:1050C000F2AAC5CDC7A90CC92C97F1A989264666B5
:1050D000B28999A92D557DB0B08AA896365676F139
:1050E000BAA3B4B280C0B8A89711B28398BAA3F09B
:1050F000240844106418B2B9B49883F1A329557DEB
:10510000BAB5B1A38393F0002850F5B2B6AA839341
:1051100028547CF1B9A3829361BAA2DADEDFDB8185
:105120009AB9AEF5606870F1DABAA2DFD9BAA2FA1C
:10513000B9A38292DB31BAA2D9BAA2F8DF85A4D092
:10514000C1BBAD83C2C5C7B8A2DFDFDFBAA0DFDF56
:10515000DFD8D8F1B8AAB38DB4980D355DB2B6BA20
:10516000AF8C96198F9FA70E161EB49AB8AA872CDB
:10517000547CBAA4B08AB691325676B28494A4C84C
:1051800008CDD8B8B4B0F19982A82D557D98A80E55
:10519000161EA22C547C92A4F02C5078F184A8986E
:1051A000C4CDFCD80DDBA8FC2DF3D9BAA6F8DABA29
:1051B000A6DED8BAB2B68696A6D0F3C841DAA6C89B
:1051C000F8D8B0B4B882A892F52C548898F135D9A3
:1051D000F418D8F1A2D0F8F9A884D9C7DFF8F88379
:1051E000C5DADF69DF83C1D8F40114F1A8824EA8C3
:1051F00084F311D182F5D992289788F109F41C1C07
:10520000D884A8F3C0F9D1D99782F129F40DD8F345
:10521000F9F9D1D982F4C203D8DEDF1AD8F1A2FAA3
:10522000F9A88498D9C7DFF8F8F883C7DADF69DF0F
:10523000F883C3D8F40114F198A8822EA884F3113E
:10524000D182F5D992509788F109F41CD884A8F33B
:10525000C0F8F9D1D99782F149F40DD8F3F9F9D111
:10526000D982F4C403D8DEDFD8F1AD8898CCA80980
:10527000F9D98292A8F57CF1883ACF944A6E98DBEE
:105280006931DAADF2DEF9D88795A8F221D1DAA535
:10529000F9F417D9F1AE8ED0C0C3AE82C684C3A8CC
:1052A0008595C8A588F2C0F1F4010EF18E9EA8C6BE
:1052B0003E56F554F18872F40115F19845856EF566
:1052C0008E9E0488F142985A8E9E068869F4011CCD
:1052D000F1981E1108D0F504F11E970202983625A8
:1052E000DBF9D985A5F3C1DA85A5F3DFD88595A8C3
:1052F000F309DAA5FAD88292A8F578F1881A849F82
:1053000026889821DAF41DF3D8879F39D1AFD9DFE9
:10531000DFFBF9F40CF3D8FAD0F8DAF9F9D0DFD9D9
:10532000F9D8F40BD8F3879F39D1AFD9DFDFF41D5B
:10533000F3D8FAFCA869F9F9AFD0DADEFAD9F88F18
:105340009FA8F1CCF398DB45D9AFDFD0F8D8F18F27
:105350009FA8CAF38809DAAF8FCBF8D8F2AD978D42
:105360000CD9A5DFF9BAA6F3FAF412F2D8950DD14B
:10537000D9BAA6F3FADAA5F2C1BAA6F3DFD8F1BA20
:10538000B2B68696A6D0CAF349DAA6CBF8D8B0B49E
:10539000B8D8AD84F2C0DFF18FCBC3A8B2B6869681
:1053A000C8C1CBC3F3B0B48898A821DB718D9D71BF
:1053B000859521D9ADF2FAD88597A828D9F408D8CF
:1053C000F28D29DAF405D9F285A4C2F2D8A88D9419
:1053D00001D1D9F411F2D88721D8F40AD8F28498EF
:1053E000A8C801D1D9F411D8F3A4C8BBAFD0F2DE5C
:1053F000F8F8F8F8F8F8F8F8D8F1B8F6B5B9B08ACE
:1054000095A3DE3CA3D9F8D85CA3D9F8D87CA3D95E
:10541000F8D8F8F9D1A5D9DFDAFAD8B18530F7D9BB
:10542000DED8F830ADDADED8F2B48C99A32D557DF4
:10543000A083DFDFDFB591A0F629D9FBD8A0FC2936
:10544000D9FAD8A0D051D9F8D8FC51D9F9D879D9FE
:10545000FBD8A0D0FC79D9FAD8A1F9F9F9F9F9A0CB
:10546000DADFDFDFD8A1F8F8F8F8F8ACDEF8ADDE67
:105470008393AC2C547CF1A8DFDFDFF69D2CDAA0FF
:10548000DFD9FADB2DF8D8A850DAA0D0DED9D0F8D1
:10549000F8F8DB55F8D8A878DAA0D0DFD9D0FAF838
:1054A000F8F8F8DB7DF8D89CA88CF530DB38D9D03B
:1054B000DEDFA0D0DEDFD8A848DB58D9DFD0DEA001
:1054C000DFD0DED8A868DB70D9DFDFA0DFDFD8F15E
:1054D000A888902C547C98A8D05C38D1DAF2AE8C95
:1054E000DFF9D8B087A8C1C1B188A8C6F9F9DA3602
:1054F000D8A8F9DA36D8A8F9DA36D8A8F9DA36D839
:10550000A8F9DA36D8F78D9DADF818DAF2AEDFD803
:10551000F7ADFA30D9A4DEF9D8F2AEDEFAF983A7F6
:10552000D9C3C5C7F1889BA77AADF7DEDFA4F8849D
:105530009408A797F300AEF29819A488C6A394889C
:10554000F632DFF28393DB09D9F2AADFD8D8AEF8BE
:10555000F9D1DAF3A4DEA7F1889B7AD8F38494AE6C
:1055600019F9DAAAF1DFD8A881C0C3C5C7A392830D
:10557000F628ADDED9F8D8A350ADD9F8D8A378ADC8
:10558000D9F8D8F8F9D1A1DADEC3C5C7D8A181947A
:10559000F818F2B089ACC3C5C7F1D8B8B4B09786D3
:1055A000A8319B069907AB9728889BF00C201440E4
:1055B000B0B4B8F0A88A9A285078B79BA829517936
:1055C000247059446938644831F1BBAB88002C54CD
:1055D0007CF0B38BB8A804285078F1B088B4972633
:1055E000A85998BBABB38B02264666B0B8F08A9C2C
:1055F000A82951798B2951798A2470598B205871A7
:105600008A4469388B3940688A6448318B304960F4
:1056100088F1AC002C547CF08CA804285078F188D8
:105620009726A85998AC8C02264666F0899CA82932
:105630005179247059446938644831A9880920593E
:1056400070AB11384069A8193148608CA83C415CA6
:10565000207C00F187981986A86E767EA999882DFE
:10566000557DD8B1B5B9A3DFDFDFAED0DFAAD0DE7C
:10567000F2ABF8F9D9B087C4AAF1DFDFBBAFDFDF47
:10568000B9D8B1F1A3978E60DFB084F2C8F8F9D928
:10569000DED89385F14AB183A308B5839A0810B781
:1056A0009F10D8F1B0BAAEB08AC2B2B68E9EF1FBEE
:1056B000D9F41DD8F9D90CF1D8F8F8AD61D9AEFB01
:1056C000D8F40CF1D8F8F8AD19D9AEFBDFD8F41640
:1056D000F1D8F8AD8D61D9F4F4ACF59C9C8DDF2B3D
:1056E000BAB6AEFAF8F40BD8F1AED0F8AD51DAAEE6
:1056F000FAF8F1D8B9B1B6A3839C08B9B1839AB5C9
:10570000AAC0FD3083B79F10B58B93F20202D1ABD4
:10571000DADED8F1B080BAABC0C3B284C1C3D8B1AD
:10572000B9F38BA391B609B4D9ABDEB0879CB9A30A
:10573000DDF1B38B8B8B8B8BB087A3A3A3A3B28B31
:10574000B69BF2A3A3A3A3A3A3A3A3A3A3F1B08790
:10575000B59AA3F39BA3A3DCBAACDFB9A3A3A3A31D
:10576000A3A3A3A3A3A3A3A3A3A3A3A3D8D8D8BB52
:10577000B3B7F1AAF9DAFFD9809AAA28B48098A71A
:1057800020B79787A86688F07951F1902C870CA7ED
:1057900081976293F071716085940129517990A588
:1057A000F1284C6C870C95188578A38390284C6C55
:1057B000886CD8F3A28200F210A8921980A2F2D9C4
:1057C00026D8F188A84DD948D896A83980D93CD890
:1057D0009580A839A68698D92CDA87A72CD8A889CD
:1057E0009519A980D938D8A88939A980DA3CD8A8D0
:1057F0002EA83990D90CD8A8953198D90CD8A809D9
:10580000D9FFD801DAFFD89539A9DA26FFD890A8B0
:105810000D8999A810809821DA2ED88999A831800D
:10582000DA2ED8A886963180DA2ED8A8873180DA89
:105830002ED8A88292F34180F1D92ED8A882F319EC
:1058400080F1D92ED882ACF3C0A28022F1A62EA777
:105850002EA92298A829DAACDEFFD8A2F22AF1A953
:105860002E8292A8F23180A696F1D900AC8C9C0CC5
:1058700030ACDED0DEFFD88C9CACD010ACDE809299
:10588000A2F24C82A8F1CAF235F19688A6D900D8C6
:10589000F1FF000000000000555555555555C53F16
:1058A0007D6FEB0312D6D4BF5544880E55C1C93F56
:1058B0003B8F68B52882A4BF88B20175E0EF493FED
:1058C00009F7FD0DE13D023F4B2D8A1C273A03C02D
:1058D000C88A599CE52A004059018D1B6C06E6BF19
:1058E00082922EB1C5B8B33F4FBB610567ACDD3FB7
:1058F000182D4454FB21E93F9BF681D20B73EF3FF7
:10590000182D4454FB21F93FE2652F227F2B7A3C6E
:10591000075C143326A6813CBDCBF07A8807703C27
:10592000075C143326A6913CC4EB98999999C9BF9A
:10593000711623FEC671BCBF6D9A74AFF2B0B3BFCF
:105940009AFDDE522DDEADBF2F6C6A2C44B4A2BF8F
:105950000D5555555555D53FFF8300922449C23FFB
:105960006E204CC5CD45B73F513DD0A0660DB13F2F
:10597000EB0D76244B7BA93F11DA22E33AAD903F41
:10598000000000000000000050726F647563742016
:1059900049442072656164206173203020696E641F
:1059A00069636174657320646576696365206973F2
:1059B0002065697468657220696E636F6D706174CB
:1059C00069626C65206F7220616E204D50553330D6
:1059D00035302E0A00000000F859000800000020B1
:1059E00070000000B41E0008685A00087000002013
:1059F00058040000C41E0008000000000000000061
:105A00000000000000000000000000000000000096
:105A10000000000000000000010000001000000075
:105A2000000000000024F4004C4C0008684C000802
:105A30000000000000000000000000000000000066
:105A40000000000000000000000000000000000056
:105A5000744C00080100000001000000010000007B
:085A600000000000000000003E
:04000005080000ED02
:00000001FF
