:020000040800F2
:10000000A80400200101000813130008E5110008EE
:10001000111300086D010008A1170008000000007E
:10002000000000000000000000000000171300089E
:100030006F010008000000001513000819130008E4
:100040001B0100081B0100081B0100081B01000820
:100050001B0100081B0100081B0100081B01000810
:100060001B0100081B0100081B0100081B01000800
:100070001B0100081B0100081B0100081B010008F0
:100080001B0100081B0100081B0100081B010008E0
:100090001B0100081B0100081B0100081B010008D0
:1000A0001B0100081B0100081B0100081B010008C0
:1000B0001B0100081B0100081B0100081B010008B0
:1000C0001B0100081B0100081B0100081B010008A0
:1000D0001B010008951700081B0100081B01000800
:1000E0001B0100081B0100081B010008DFF80CD0F1
:1000F00000F02AF800480047F1180008A804002082
:100100000648804706480047FEE7FEE7FEE7FEE7B1
:10011000FEE7FEE7FEE7FEE7FEE7FEE77B130008EB
:10012000ED000008D2B201E000F8012B491EFBD21D
:1001300070470022F6E710B513460A4604461946F2
:10014000FFF7F0FF204610BD064C074D06E0E068C3
:1001500040F0010394E8070098471034AC42F6D30E
:10016000FFF7C8FF5019000870190008FEE7704734
:1001700072B6FEE710B590F821100022022905D0D2
:100180000421816380F82020012010BD01680B68E4
:1001900023F00E030B6001680B6823F001030B6072
:1001A00090F84030C46B012101FA03F3636080F8DA
:1001B000211080F82020104610BD000010B590F8E6
:1001C00021100024022903D00421816301243DE091
:1001D00001680A6822F00E020A6001680A6822F0CB
:1001E00001020A601A4A0168914201D1012121E00D
:1001F000174A1432914201D110211BE0144A2832CF
:10020000914201D1891515E0114A3C32914201D148
:1002100089140FE00E4A5032914202D14FF48031DE
:1002200008E00B4A6432914202D14FF4801101E0A0
:100230004FF08071064A083A5160012180F8211080
:10024000002180F82010416B01B18847204610BD85
:100250000800024070B5044600F00CF90546601C29
:1002600002D004480078044400F004F9401BA04286
:10027000FAD370BD080000202DE9F84FDFF8B891DF
:10028000002409F1040A0AF1040B23460F270BF19D
:10029000040EC9E00125A5402A40AA427DD1674E3F
:1002A000D1F804C0ACEB0608B44532D014DCBCF184
:1002B000030F3AD009DCBCF1000F2AD0BCF1010FCA
:1002C0001CD0BCF1020F31D11DE0BCF1110F17D0D1
:1002D000BCF1120F2AD119E0B8F5881F19D006DC3D
:1002E000B8F5803F15D0B8F5801F1FD111E0B8F5E3
:1002F000001F0ED0B8F5041F18D10AE0CB6815E036
:10030000CB681B1D12E0CB6808330FE0CB680C33C1
:100310000CE08B682BB1012B4FF0080303D0456133
:1003200004E0042302E0056100E00023FF2A01D875
:10033000064601E000F104064FEA840501D9A5F163
:100340002005D6F8008007FA05FC28EA0C0803FA15
:1003500005F548EA0508C6F800804D68ED0062D54D
:10036000374DAE6946F00106AE61AD6924F0030673
:1003700005F001050095334D06EB050CDCF808503F
:10038000A607360F07FA06F825EA0805DFF8B88051
:10039000404503D14FF0000817E044E0DFF8AC809F
:1003A000404502D14FF001080FE0DFF8A48040453E
:1003B00002D14FF0020808E0DFF89880404502D1F2
:1003C0004FF0030801E04FF0040808FA06F848EA85
:1003D0000508CCF808804D68D9F80060ED034D465B
:1003E00001D5164300E096432E604D68DAF80060B0
:1003F000AD03554601D5164300E096432E604D6887
:10040000DBF80060ED025D4601D5164300E096433F
:100410002E604D68DEF80060AD02754601D51643CA
:1004200000E096432E60641C0D682A46E5407FF488
:1004300031AFBDE8F88F000000040140000011104A
:10044000001002400000014000080140000C014083
:100450000010014000140140C26821EA02030A4072
:1004600043EA0241016170470AB101617047090422
:10047000FBE700000148806870470000080000208A
:1004800002488168027811448160704708000020AA
:10049000074810B5016841F010010160032000F029
:1004A00079F8002000F006F800F024F8002010BDD4
:1004B0000020024070B50D4D04464FF47A71287843
:1004C000B1FBF0F00A490968B1FBF0F000F0F0FA76
:1004D00048B9102C07D200222146501E00F03AF8ED
:1004E00000206C6070BD012070BD0000080000207D
:1004F000140000200E4808B5816941F001018161B6
:10050000816901F001010091C16941F08051C1612F
:10051000C06900F080500090052000F03BF80548CD
:10052000416821F0E06141F00071416008BD0000C8
:100530000010024000000140002809DB00F01F020B
:10054000012191404009800000F1E020C0F8001135
:1005500070470000F0B40E4B1B680C46C3F3022337
:10056000C3F10705042D00D90425191D072901D25F
:10057000002300E0DB1E012606FA05F1491E21409A
:1005800099409E40761E16403143F0BC01F01AB9E6
:100590000CED00E0064900F0070208684FF6FF0383
:1005A000184040EA0220034A1043086070470000E8
:1005B0000CED00E00000FA052DE9F0470F460500BC
:1005C00061D0434E306800F00700B84209D230686D
:1005D00020F0070038433060306800F00700B84270
:1005E00051D128683B4C810712D5400703D560687C
:1005F00040F4E06060602878000703D5606840F44C
:10060000605060606068A96820F0F0000843606096
:100610002878C00728D06868012810D021680228EF
:1006200010D0890700292EDA616821F00301014307
:100630006160FFF71FFF804641F288390DE02168B5
:100640008903EFE78901EDE7FFF714FFA0EB08014D
:10065000494502D90320BDE8F0876068696800F069
:100660000C00B0EB810FEFD1306800F00700B8420A
:100670000BD9306820F0070038433060306800F054
:100680000700B84201D00120E5E72878400705D5EA
:100690006068E96820F4E06008436060287800073B
:1006A00006D56068296920F4605040EAC1006060A6
:1006B00000F038F86168084AC1F30311515CC84082
:1006C0000649086006480068FFF7F4FE0020C2E70C
:1006D00000200240001002403819000814000020D9
:1006E0000C0000200448054900684968044AC1F329
:1006F0000221515CC84070471400002000100240E5
:10070000481900080448054900684968044AC1F3CB
:10071000C221515CC8407047140000200010024004
:100720004819000812A185B00FC98DE80F0014A068
:10073000144A006804905168134801F00C03042B1C
:1007400010D0082B0ED1C1F38343C9031DF8030059
:100750000AD5516804AAC1F34041515C0A4A50438A
:10076000B0FBF1F005B0704708494843FAE70000D4
:1007700002030405060708090A0B0C0D0E0F1010E2
:10078000010200000010024000127A0000093D0042
:100790002DE9F84F040070D02078C04DC00749D033
:1007A0006868C0F38100012807D06868C0F3810041
:1007B000022809D16868C00306D52868800339D5A6
:1007C00060680028E7D035E06068B0F5803F0BD066
:1007D00010B1B0F5A02F11D0286820F48030286027
:1007E000286820F4802002E0286840F480302860E7
:1007F000606890B1FFF73EFE06460AE0286840F4C4
:1008000080202860F0E700BFFFF734FE801B6428DB
:1008100073D828688003F7D50CE0FFF72BFE064657
:1008200005E000BFFFF726FE801B6428F0D828688B
:100830008003F7D420789A4E80074FF001094FF0DB
:10084000000839D5686810F00C0F07D06868C0F34D
:100850008100022809D16868C00306D4286880078F
:1008600014D52069012808D110E02069B0B1C6F87C
:100870000090FFF7FFFD074605E00AE1FFF7FAFDEC
:10088000C01B0228C4D828688007F7D5286861698A
:1008900020F0F80040EAC10028600DE0C6F80080B2
:1008A000FFF7E8FD074604E0FFF7E4FDC01B022860
:1008B00023D828688007F7D4207800072CD57948FA
:1008C000A169D9B1C0F80090FFF7D4FD074604E054
:1008D000FFF7D0FDC01B02280FD8686A8007F7D544
:1008E00071484FF4FA510068B0FBF1F0009000BF7E
:1008F0000098411E0091FAD20EE080E0C0F800801E
:10090000FFF7B8FD074604E0FFF7B4FDC01B02285F
:1009100075D8686A8007F7D42078400760D5E86901
:100920000027C00008D4E86940F08050E861E86919
:10093000012700F0805000905C480168C90513D47D
:100940000168834641F480710160FFF793FD8246A0
:1009500006E000BFFFF78EFDA0EB0A0064284ED82A
:10096000DBF80000C005F5D5E06801280AD008B121
:10097000052813D0286A20F001002862286A20F098
:10098000040002E0286A40F001002862E06841F2B9
:10099000883B98B1FFF76EFD82460BE0286A40F075
:1009A00004002862EEE700BFFFF764FDA0EB0A0138
:1009B00059455AD8286A8007F6D50CE0FFF75AFD4A
:1009C000824605E0FFF756FDA0EB0A0159454CD8D9
:1009D000286A8007F6D41FB1E86920F08050E861EA
:1009E000E06988B36968C1F38101022944D0022813
:1009F000C6F8608004D0FFF73DFD044638E034E0DF
:100A0000FFF738FD074604E0FFF734FDC01B02285E
:100A10002BD828688001F7D4206AB0F5803F05D133
:100A20006868A16820F4003008436860D4E90801D0
:100A30000843696821F4741108436860C6F860903F
:100A4000FFF718FD044606E025E000BFFFF712FDA2
:100A5000001B022809D828688001F7D51BE000BFD9
:100A6000FFF708FD001B022802D90320BDE8F88F1C
:100A700028688001F4D40EE00128F7D06868226A63
:100A800000F48031914204D1616A00F47010884210
:100A900001D00120EAE70020E8E700000010024052
:100AA00000004242800442421400002000700040D6
:100AB00010B5401EB0F1807F01D3012010BD4FF072
:100AC000E02460610F21601700F07CFE0020A0612F
:100AD00007202061002010BD70B590F83C20012A4D
:100AE00026D0012480F83C40022280F83D20036893
:100AF0005A689D6822F070060A6832435A600D4BAE
:100B000002689A4208D0B2F1804F05D00A4B9A424F
:100B100002D00A4B9A4204D1496825F08003194358
:100B2000916080F83D40002180F83C10084670BD7F
:100B3000022070BD002C014000040040000800406D
:100B400000B585B0002100910191029103910068E8
:100B50000B49884212D10B48816941F0080181613B
:100B60008069694600F0080004904FF4007000901E
:100B70000220019003900448FFF77EFB05B000BD02
:100B80000008004000100240000C014070B504460F
:100B900090F83C000D4601280AD0012084F83C0062
:100BA00042B1042A18D0082A2AD00C2A4DD139E0A3
:100BB000022070BD206800F025FC2068816941F0AA
:100BC000080181612068816921F004018161206848
:100BD00081692A69114311E0206800F03BFC20681C
:100BE000816941F4006181612068816921F480613B
:100BF0008161206881692A6941EA0221816124E0DA
:100C0000206800F053FC2068C16941F00801C1610F
:100C10002068C16921F00401C1612068C1692A69A5
:100C2000114311E0206800F06DFC2068C16941F4B7
:100C30000061C1612068C16921F48061C1612068DF
:100C4000C1692A6941EA0221C161002084F83C009F
:100C500070BD10B5040003D094F83D0010B107E05A
:100C6000012010BD002084F83C00204600F01EF852
:100C7000022084F83D00211D206800F07FFB012048
:100C800084F8460084F83E0084F83F0084F8400071
:100C900084F8410084F8420084F8430084F844005A
:100CA00084F8450084F83D00002010BD08B50068B8
:100CB0000649884208D10648C16941F00401C16172
:100CC000C06900F00400009008BD0000000800406A
:100CD0000010024010B50446022249B104290ED08A
:100CE000082913D094F84100012816D0012010BD26
:100CF00094F83E000128F9D184F83E200FE094F8E2
:100D00003F000128F2D184F83F2008E094F8400029
:100D10000128EBD184F8402001E084F84120012231
:100D2000206800F061FB0F492068884203D1426CC3
:100D300042F4004242642068884208D0B0F1804FFB
:100D400005D00949884202D00849884204D1816807
:100D500001F00701062903D0016841F0010101609B
:100D6000002010BD002C014000040040000800409D
:100D700070477047F8B5026804461068D168536937
:100D800010F00F0F4FF0000554D003F0010601F4EE
:100D9000907737435FD0C20705D0CA0503D5226CD0
:100DA00042F001022264420705D5DA0703D0226C23
:100DB00042F002022264820705D5DA0703D0226CD2
:100DC00042F004022264020707D501F020023243F8
:100DD00003D0226C42F008022264226C002A35D033
:100DE000800604D5880602D5204600F0CDFB206899
:100DF0004069216CC0F3801001F0080101432046D6
:100E000025D000F0A9FB2068416949061BD541693E
:100E100021F040014161A06BA8B158494163A06B2A
:100E2000FFF7CCF9002811D0A06B416B01B0BDE8F1
:100E3000F040084783060ED58B060CD52046BDE84A
:100E4000F84000F0A1BB2046FFF793FFF8BDFFF785
:100E500090FF2564F8BD266B2023012E52D1C606D3
:100E600050D5CE064ED510685068009050694006A7
:100E70002AD5A16B086840680004000CEAD0A68D52
:100E80008642E7D9E0858869202818D0D06820F408
:100E90008070D0602068416921F0010141612068C3
:100EA000416921F04001416184F83E3025632068AA
:100EB000C16821F01001C160A06BFFF75BF9A08D44
:100EC000E18D401A81B219E0A08DE18D401A81B206
:100ED000E08D0028BED00029BCD0D06820F49070EE
:100EE000D0602068426922F00102426184F83E30FD
:100EF00025632068C26822F01002C2602046FFF716
:100F000037FFF8BD05062BD50D0629D594F83D0011
:100F10002128F6D1A068B0F5805F01D12069B0B179
:100F2000206A411C2162216800784860E08C401EE4
:100F30000004000CE084E4D12068C16821F0800145
:100F4000C1602068C16841F04001C160F8BD206AFD
:100F50000088C0F308005060206A801C2062E5E72A
:100F60004006F3D54806F1D5D168204621F040016E
:100F7000D16084F83D3000F034F9F8BD491500081F
:100F800070B5040004D094F83D00002510B106E0CF
:100F9000012070BD84F83C50204600F023F8242046
:100FA00084F83D002068C16821F40051C1602046EA
:100FB00000F046FB2068016921F49041016120683E
:100FC000416921F02A0141612068C16841F4005162
:100FD000C1602564202084F83D0084F83E00002094
:100FE00070BD000030B585B00024009401940294D7
:100FF00003940068184988422CD11848816941F44B
:1010000080418161816901F480410491816941F0ED
:10101000040181618069124D00F0040004904FF4D6
:10102000007000900220019003200390694628463A
:10103000FFF722F92815CDE90004694628460294F5
:10104000FFF71AF9002211462520FFF783FA252021
:10105000FFF772FA05B030BD0038014000100240C1
:101060000008014090F83E30202B0ED159B152B10A
:1010700090F83C30012B08D0012380F83C3000234D
:10108000036300F039BB0120704702207047000065
:1010900010B500681549884221D141141448FFF762
:1010A000DBF914490120486008460178827830391C
:1010B00001EBC10303EB011102EB810140780E4A01
:1010C00000EB800002EB400008440C49096808640A
:1010D00008490BA000F066FB0EA000F063FBBDE822
:1010E0001040032203491148FFF7BCBF00380140FC
:1010F0000010014000000020F0FDFFFF1C00002058
:101100007265636569766564202D3E2025730D0A3E
:101110000000000068617320736574746564207456
:1011200068652050574D0D0A000000006400002043
:101130002DE9F843044690F83D001F4616460D463B
:1011400020284CD1C5B1BEB194F83C00012846D04E
:10115000012084F83C004FF00008C4F840802120B2
:1011600084F83D00FFF786F9A6848146E684A068EE
:10117000B0F5805F03D004E00120BDE8F88320696A
:1011800028B12E465FF0000584F83C800EE0002672
:10119000FAE78021204600F0CAFAA0B9AEB116F8ED
:1011A000010B21684860E08C401EE084E08C4B46D7
:1011B0004FF0000200970028EBD14FF0400120468D
:1011C00000F0B5FA30B10320D7E735F8020BC0F3D1
:1011D0000800E6E7202084F83D000020CDE702204B
:1011E000CBE77047FEE7000070B586B000241B48CF
:1011F0000094019402940394816941F0100181618B
:10120000816901F010010491816941F0200181613F
:10121000816901F020010491816941F0040181613B
:10122000816901F004010491816941F00801816143
:101230008069012200F00800094E550304902946F8
:101240003046FFF711F901210095CDE90114039112
:1012500069463046FFF710F806B070BD0010024036
:101260000010014010B58AB0002407941C21684684
:101270000894FEF75EFF17481549016040F2CF2140
:10128000C0E9011440F2CF71C0E9031480218161EB
:10129000FFF7DFFC08B1FEF76BFF079407A90D48C5
:1012A0000894FFF719FC08B1FEF762FF6020CDE952
:1012B000000402940C22694606480494FFF766FC79
:1012C00008B1FEF755FF0348FFF73AFC0AB010BD1E
:1012D000000800401C0000200C4810B50A490160BD
:1012E0004FF416514160002181600C22C160C0E9B9
:1012F00004128161C161FFF743FE002803D0BDE8FD
:101300001040FEF735BF10BD0038014064000020DA
:10131000FEE7FEE770477047FFF7B2B830B58FB011
:1013200028216846FEF705FF14210AA8FEF701FFF1
:1013300001210804CDE90010002402940225049143
:10134000CDE907504FF4E01009906846FFF720FA06
:1013500008B172B6FEE70F20CDE90A054FF48060B0
:10136000CDE90C4002210AA80E94FFF725F90028C8
:1013700001D072B6FEE70FB030BD7047F0B502681D
:10138000164B174C174D4FF08047984205D0B84286
:1013900003D0A04201D0A84203D122F070064A68CF
:1013A0003243984205D0B84203D0A04201D0A842AF
:1013B00003D122F44074CA6822434C6922F08002AF
:1013C000224302608A68C2620A688262984201D13E
:1013D0000969016301214161F0BD0000002C014059
:1013E000000400400008004010B501F01F03012177
:1013F000046A99408C430462016A9A401143016275
:1014000010BD000030B5026A22F001020262026AD9
:101410004368846924F073050C682C4322F00205AC
:101420008A682A430A4DA8420BD122F00805CA68EF
:1014300023F440732A434D6922F004021D438B6953
:101440002B434360846149684163026230BD000000
:10145000002C014030B5026A22F010020262026ADA
:10146000436884690D6824F4E64444EA05248D68E1
:1014700022F0200242EA05120B4DA8420ED1CD689F
:1014800022F0800242EA05124D6923F4406343EAE8
:1014900085038D6922F0400243EA8503436084613D
:1014A00049688163026230BD002C014030B5026A98
:1014B00022F480720262036A4268C46923F40073F2
:1014C00024F073050C682C438D6843EA05230C4D0A
:1014D000A8420ED1CD6823F4006343EA05234D6989
:1014E00022F4405242EA05128D6923F4806342EAF5
:1014F00005124260C4614968C163036230BD0000E7
:10150000002C014030B5026A22F480520262046A63
:101510004268C3690D6823F4E64343EA05238D68F6
:1015200024F4005444EA0534064DA84204D14D6920
:1015300022F4804242EA85124260C3614968016434
:10154000046230BD002C014010B5406A0021C18505
:10155000C184FFF70EFC10BD0168CA6822F49072C6
:10156000CA6001684A6922F001024A61016B0129DF
:1015700004D10168CA6822F01002CA60202180F8F4
:101580003E1000210163704708B590F83E102229F3
:1015900001D0022008BD82684FF480539A4201D1E5
:1015A000016921B1816A9A421BD04AB10AE00268FE
:1015B000816A5268C2F308020A80816A891C08E0C5
:1015C000026972B10268526802F07F020A70816A91
:1015D000491C8162C18D491E0904090CC18503D0D3
:1015E00019E002685268F1E70168CA6822F0200237
:1015F000CA600168CA6822F48072CA6001684A69D8
:1016000022F001024A61202180F83E10016B01297D
:1016100003D0FFF73DFD002008BD002101630168F4
:10162000CA6822F01002CA6001680A68D20602D5B0
:101630000A6849680091818DFFF79AFBEBE700008B
:1016400070B5044600680169E26821F44051114315
:1016500001612169A0680843616908432168CA687B
:1016600041F20C639A430243CA6020684169A2694F
:1016700021F44071114341611E492068884202D122
:10168000FFF740F801E0FFF72DF800EBC00101EB98
:101690000012606864218000B2FBF0F3B3FBF1F349
:1016A0006FF018067343B2FBF0F5B2FBF0F605EBF2
:1016B0008305322303EB0515B5FBF1F5B6FBF1F617
:1016C00005F0F00505EB0615B2FBF0F6B2FBF0F005
:1016D000B0FBF1F06FF01802504306EB800003EB13
:1016E0000010B0FBF1F0216800F00F002844886082
:1016F00070BD00000038014081628285C2850021F2
:101700000164222280F83E2080F83C100168CA68FB
:1017100042F48072CA6001684A6942F001024A617B
:101720000068C16841F02001C160002070472DE9C8
:10173000F041984617460E460446069D1DE0681C7B
:101740001BD02DB1FEF796FEA0EB0800A84214D9DD
:101750002068C16821F4D071C1602068416921F01E
:1017600001014161202084F83D0084F83E00002002
:1017700084F83C000320BDE8F0812068006836EA68
:10178000000004D00020B842D9D00020F3E70120A7
:10179000F9E700000148FFF7EDBA000064000020FF
:1017A000FEE700000FB4054B10B503A9044A0298E8
:1017B00000F027F810BC5DF814FB0000D9180008F1
:1017C000180000200907090E002804DB00F1E020C2
:1017D00080F80014704700F00F0000F1E02080F85E
:1017E000141D704702E008C8121F08C1002AFAD170
:1017F00070477047002001E001C1121F002AFBD191
:1018000070472DE9F84F99469246884605460027CD
:1018100006E025280AD051464A4690476D1C7F1C99
:1018200028780028F5D13846BDE8F88F002315F850
:10183000011F18462E2915D115F8011F04232A2946
:101840000DD06FF02F022978A1F13004092C09D8AE
:1018500000EB800002EB400008446D1CF3E758F8F1
:10186000040B6D1C2A78002ADDD0632A07D0732A66
:101870000FD0104651464A4690477F1C2AE018F880
:10188000042B8DF8002000218DF801106E460121F7
:1018900003E058F8046B4FF0FF315A074FF0000493
:1018A00001D409E0641C84420BDA8C42FADB325D1D
:1018B000002AF7D105E0641C8C42FCDB305D002877
:1018C000F9D1274404E016F8010B51464A469047E7
:1018D000641EF8D26D1CA3E713B54FF6FF73012207
:1018E00069460248FFF724FC00981CBD64000020F4
:1018F000FEF7CEFDFFF712FDFFF776FCFFF7ECFCDD
:10190000FFF7B0FC0C210948FFF7E4F9032208496E
:101910000848FFF7A7FB064C00264FF47A7560686D
:1019200000B166602846FEF795FCF8E71C00002031
:101930000000002064000020000000000000000003
:101940000102030406070809000000000102030465
:1019500070190008000000201C000000E4170008B7
:101960008C1900081C0000208C040000F4170008EB
:101970000000000000000000010000001000000056
:0C198000000000000024F4000000000043
:04000005080000ED02
:00000001FF
