:020000040800F2
:10000000F0050020010100088F1300084D120008C0
:100010008D130008A9010008511800080000000015
:100020000000000000000000000000009313000822
:10003000E301000800000000911300089513000878
:100040001B0100081B0100081B0100081B01000820
:100050001B0100081B0100081B0100081B01000810
:100060001B0100081B0100081B0100081B01000800
:100070001B010008AD0100081B0100081B0100085E
:100080001B0100081B0100081B0100081B010008E0
:100090001B0100081B0100081B0100081B010008D0
:1000A0001B0100081B0100081B0100081B010008C0
:1000B0001B0100081B0100081B0100081B010008B0
:1000C0001B0100081B0100081B0100081B010008A0
:1000D0001B0100081B0100081B010008E5170008B0
:1000E0001B0100081B0100081B010008DFF80CD0F1
:1000F00000F048F800480047851A0008F005002085
:100100000648804706480047FEE7FEE7FEE7FEE7B1
:10011000FEE7FEE7FEE7FEE7FEE7FEE7F71300086F
:10012000ED000008D2B201E000F8012B491EFBD21D
:1001300070470022F6E710B513460A4604461946F2
:10014000FFF7F0FF204610BD421C10F8011B0029EC
:10015000FBD1801A704730B50B46014600202022A3
:10016000012409E021FA02F59D4205D303FA02F5C4
:10017000491B04FA02F52844151EA2F10102F1DC24
:1001800030BD0000064C074D06E0E06840F001037A
:1001900094E8070098471034AC42F6D3FFF7AAFF63
:1001A000681B0008881B0008FEE70000014800F0FB
:1001B0008BB80000A801002030B590F84050012411
:1001C000AC40C56B6C60046863604368102B0368C7
:1001D00003D099600068C26030BD9A600068C16059
:1001E00030BD704772B6FEE710B590F821100022BE
:1001F000022905D00421816380F82020012010BD50
:1002000001680B6823F00E030B6001680B6823F094
:1002100001030B6090F84030C46B012101FA03F335
:10022000636080F8211080F82020104610BD000087
:1002300010B590F821100024022903D00421816315
:1002400001243DE001680A6822F00E020A6001689C
:100250000A6822F001020A601A4A0168914201D13B
:10026000012121E0174A1432914201D110211BE0F3
:10027000144A2832914201D1891515E0114A3C32C5
:10028000914201D189140FE00E4A5032914202D1BD
:100290004FF4803108E00B4A6432914202D14FF4AE
:1002A000801101E04FF08071064A083A5160012147
:1002B00080F82110002180F82010416B01B188479F
:1002C000204610BD080002402DE9F05FC16B0C68AC
:1002D00001680B68D0F840C0042202FA0CF2494DC4
:1002E000DFF824A1494E4A4FDFF828B1DFF828E1B2
:1002F00022422CD05A072AD50A68920603D40A68EB
:1003000022F004020A600168A94201D1042219E026
:10031000514501D1402215E0B14202D14FF4806233
:1003200010E0B94202D14FF480420BE0594502D1AE
:100330004FF4802206E0714502D14FF4800201E0C3
:100340004FF080622F4908394A60C16A3BE04FF0A4
:10035000020808FA0CF818EA040F4FF000094FF0F1
:10036000010235D05FEA837832D50B689B0605D44D
:100370000B6823F00A030B6080F821200168A94272
:1003800001D1022219E0514501D1202215E0B142EC
:1003900002D14FF4007210E0B94202D14FF4005282
:1003A0000BE0594502D14FF4003206E0714502D10D
:1003B0004FF4001201E04FF00072124908394A6010
:1003C00080F82090816A00291AD0BDE8F05F0847C4
:1003D000082505FA0CF5254212D01B0710D50B682D
:1003E00023F00E030B6090F84010C36B02FA01F18A
:1003F0005960826380F8212080F82090016BE2E749
:10040000BDE8F09F080002401C000240300002409E
:1004100044000240580002406C00024030B528B34E
:1004200008C8134914221944B1FBF2F18900C163D1
:1004300010498163022141771A6843F6F0718A43BB
:10044000D0E900142143D0E902452C43214304693B
:1004500021434469214384692143114319600021E8
:100460004163012242770177084630BD012030BD4B
:10047000F8FFFDBF0000024070B5044690F8200070
:10048000002501280CD0012084F8200094F8216078
:100490000020012E06D084F820000225284670BDD9
:1004A000022070BD022684F82160A06320680668DF
:1004B00026F0010606602046FFF77EFEE06A00286F
:1004C0002068016802D041F00E0106E021F004012D
:1004D00001602068016841F00A010160206801683C
:1004E00041F001010160D9E770B5044600F00CF954
:1004F0000546601C02D004480078044400F004F96A
:10050000401BA042FAD370BD040000202DE9F84F33
:10051000DFF8B8910024A9F1040B23460F2709F155
:10052000040AABF1040EC9E00125A5402A40AA4205
:100530007DD1674ED1F804C0ACEB0608B44532D08B
:1005400014DCBCF1030F3AD009DCBCF1000F2AD057
:10055000BCF1010F1CD0BCF1020F31D11DE0BCF188
:10056000110F17D0BCF1120F2AD119E0B8F5881F6E
:1005700019D006DCB8F5803F15D0B8F5801F1FD123
:1005800011E0B8F5001F0ED0B8F5041F18D10AE02D
:10059000CB6815E0CB681B1D12E0CB6808330FE079
:1005A000CB680C330CE08B682BB1012B4FF00803A8
:1005B00003D0456104E0042302E0056100E000236C
:1005C000FF2A01D8064601E000F104064FEA84053F
:1005D00001D9A5F12005D6F8008007FA05FC28EA24
:1005E0000C0803FA05F548EA0508C6F800804D68CE
:1005F000ED0062D5374DAE6946F00106AE61AD69DA
:1006000024F0030605F001050095334D06EB050CBB
:10061000DCF80850A607360F07FA06F825EA0805A1
:10062000DFF8B880404503D14FF0000817E044E000
:10063000DFF8AC80404502D14FF001080FE0DFF851
:10064000A480404502D14FF0020808E0DFF898800E
:10065000404502D14FF0030801E04FF0040808FACA
:1006600006F848EA0508CCF808804D68D9F800601B
:10067000ED024D4601D5164300E096432E604D68CD
:10068000DAF80060AD02554601D5164300E0964306
:100690002E604D68DBF80060AD035D4601D5164362
:1006A00000E096432E604D68DEF80060ED0375466D
:1006B00001D5164300E096432E60641C0D682A465F
:1006C000E5407FF431AFBDE8F88F00000804014039
:1006D000000011100010024000000140000801401D
:1006E000000C01400010014000140140C26821EAE2
:1006F00002030A4043EA0241016170470AB1016105
:1007000070470904FBE7000001488068704700005B
:10071000040000200248816802781144816070471B
:1007200004000020074810B5016841F01001016085
:10073000032000F079F8032000F006F800F024F818
:10074000002010BD0020024070B50D4D04464FF44E
:100750007A712878B1FBF0F00A490968B1FBF0F032
:1007600000F0E0FA48B9102C07D200222146501EB2
:1007700000F03AF800206C6070BD012070BD0000F0
:1007800004000020100000200E4808B5816941F0E7
:1007900001018161816901F001010091C16941F0AC
:1007A0008051C161C06900F080500090052000F0C8
:1007B0003BF80548416821F0E06141F0007141607B
:1007C00008BD00000010024000000140002809DBC5
:1007D00000F01F02012191404009800000F1E0205B
:1007E000C0F8001170470000F0B40E4B1B680C46B7
:1007F000C3F30223C3F10705042D00D90425191DF5
:10080000072901D2002300E0DB1E012606FA05F1CC
:10081000491E214099409E40761E16403143F0BC4F
:1008200001F028B80CED00E0064900F00702086866
:100830004FF6FF03184040EA0220034A10430860C5
:10084000704700000CED00E00000FA052DE9F047CC
:100850000F46050061D0434E306800F00700B842F3
:1008600009D2306820F0070038433060306800F06B
:100870000700B84251D128683B4C810712D5400788
:1008800003D5606840F4E06060602878000703D515
:10089000606840F4605060606068A96820F0F00013
:1008A000084360602878C00728D06868012810D005
:1008B0002168022810D0890700292EDA616821F00A
:1008C000030101436160FFF71FFF804641F2883951
:1008D0000DE021688903EFE78901EDE7FFF714FFD9
:1008E000A0EB0801494502D90320BDE8F087606804
:1008F000696800F00C00B0EB810FEFD1306800F0B8
:100900000700B8420BD9306820F007003843306048
:10091000306800F00700B84201D00120E5E72878F0
:10092000400705D56068E96820F4E060084360602E
:100930002878000706D56068296920F4605040EAED
:10094000C100606000F038F86168084AC1F3031123
:10095000515CC8400649086006480068FFF7F4FE8D
:100960000020C2E700200240001002404E1B000899
:10097000100000200800002004480549006849686C
:10098000044AC1F30221515CC840704710000020A6
:10099000001002405E1B00080448054900684968D1
:1009A000044AC1F3C221515CC840704710000020C6
:1009B000001002405E1B00080E4A51680E4801F00C
:1009C0000C03042B11D0082B0FD10C48C1F3834327
:1009D000C903C05C0AD55168084AC1F34041921E60
:1009E000515C054A5043B0FBF1F07047044948435D
:1009F000704700000010024000127A003E1B000801
:100A000000093D002DE9F84F040070D02078C04D5A
:100A1000C00749D06868C0F38100012807D0686822
:100A2000C0F38100022809D16868C00306D5286890
:100A3000800339D560680028E7D035E06068B0F5FC
:100A4000803F0BD010B1B0F5A02F11D0286820F452
:100A500080302860286820F4802002E0286840F474
:100A600080302860606890B1FFF74EFE06460AE0CD
:100A7000286840F480202860F0E700BFFFF744FEBC
:100A8000801B642873D828688003F7D50CE0FFF733
:100A90003BFE064605E000BFFFF736FE801B6428DC
:100AA000F0D828688003F7D420789A4E80074FF05A
:100AB00001094FF0000839D5686810F00C0F07D015
:100AC0006868C0F38100022809D16868C00306D4B1
:100AD0002868800714D52069012808D110E0206912
:100AE000B0B1C6F80090FFF70FFE074605E00AE137
:100AF000FFF70AFEC01B0228C4D828688007F7D574
:100B00002868616920F0F80040EAC10028600DE023
:100B1000C6F80080FFF7F8FD074604E0FFF7F4FD94
:100B2000C01B022823D828688007F7D42078000744
:100B30002CD57948A169D9B1C0F80090FFF7E4FD40
:100B4000074604E0FFF7E0FDC01B02280FD8686AE3
:100B50008007F7D571484FF4FA510068B0FBF1F007
:100B6000009000BF0098411E0091FAD20EE080E094
:100B7000C0F80080FFF7C8FD074604E0FFF7C4FD9A
:100B8000C01B022875D8686A8007F7D42078400710
:100B900060D5E8690027C00008D4E86940F08050BB
:100BA000E861E869012700F0805000905C48016826
:100BB000C90513D40168834641F480710160FFF7D1
:100BC000A3FD824606E000BFFFF79EFDA0EB0A00F2
:100BD00064284ED8DBF80000C005F5D5E068012890
:100BE0000AD008B1052813D0286A20F00100286235
:100BF000286A20F0040002E0286A40F00100286220
:100C0000E06841F2883B98B1FFF77EFD82460BE039
:100C1000286A40F004002862EEE700BFFFF774FD89
:100C2000A0EB0A0159455AD8286A8007F6D50CE08E
:100C3000FFF76AFD824605E0FFF766FDA0EB0A01BB
:100C400059454CD8286A8007F6D41FB1E86920F0CE
:100C50008050E861E06988B36968C1F381010229C5
:100C600044D00228C6F8608004D0FFF74DFD04464A
:100C700038E034E0FFF748FD074604E0FFF744FDA5
:100C8000C01B02282BD828688001F7D4206AB0F551
:100C9000803F05D16868A16820F40030084368608F
:100CA000D4E908010843696821F4741108436860B5
:100CB000C6F86090FFF728FD044606E025E000BF77
:100CC000FFF722FD001B022809D828688001F7D50C
:100CD0001BE000BFFFF718FD001B022802D903200C
:100CE000BDE8F88F28688001F4D40EE00128F7D021
:100CF0006868226A00F48031914204D1616A00F48C
:100D00007010884201D00120EAE70020E8E70000E7
:100D100000100240000042428004424210000020C5
:100D20000070004010B5401EB0F1807F01D301205B
:100D300010BD4FF0E02460610F21601700F09AFDB4
:100D40000020A06107202061002010BD704710B571
:100D500004460068406994F84110C0F3C01021298E
:100D600011D180B12068143050E8001F21F08001BB
:100D700040E80012002AF5D1A06B08B1FFF734FA61
:100D8000204600F0DFFB2068406994F84210C0F371
:100D90008010222911D180B12068143050E8001F42
:100DA00021F0400140E80012002AF5D1E06B08B1C3
:100DB000FFF71AFA204600F09EFB002010BD704796
:100DC000F8B5016804460868CA684B6910F00F0F4F
:100DD0004FF000055AD003F0010602F49077374334
:100DE00065D0C10705D0D10503D5616C41F0010183
:100DF0006164410705D5D90703D0616C41F0020158
:100E00006164810705D5D90703D0616C41F0040105
:100E10006164010707D502F02001314303D0616C02
:100E200041F008016164616C00293BD0800604D563
:100E3000900602D5204600F093FB20684069616C63
:100E4000C0F3801001F00801014320462BD000F0D0
:100E500052FB20684069400621D52068143050E8D4
:100E6000001F21F0400140E80012002AF5D1E06B9C
:100E7000A8B16D494163E06BFFF7DAF9002811D0A2
:100E8000E06B416B01B0BDE8F040084783060ED52A
:100E900093060CD52046BDE8F84000F061BB204623
:100EA000FFF78DFFF8BDFFF78AFF6564F8BD266B7D
:100EB0002023012E7CD1C6067AD5D60678D50868BF
:100EC0004868009048694FF00206400640D5E16B43
:100ED000086840680004000CE8D0A28D8242E5D981
:100EE000E085886920282DD020680C3050E8001F4C
:100EF00021F4807140E80012002AF5D121681431F4
:100F000051E8000F20F0010041E80002002AF5D16D
:100F10002068143050E8001F21F0400140E8001222
:100F2000002AF5D184F84230256320680C3050E85F
:100F3000001F21F0100140E80012002AF5D1E06BFB
:100F4000FFF752F96663A08DE18D401A81B22AE065
:100F5000A08DE18D401A81B2E08D0028A6D0002935
:100F6000A4D022680C3252E8000F20F4907042E8BE
:100F70000007002FF5D12068143050E8002F22F030
:100F8000010240E80027002FF5D184F842302563A4
:100F900020680C3050E8002F22F0100240E80023B7
:100FA000002BF5D166632046FFF7D0FEF8BDFFE7C2
:100FB00005062BD5150629D594F841002128F5D131
:100FC000A068B0F5805F01D12069B0B1206A411CF2
:100FD0002162216800784860E08C401E0004000C0B
:100FE000E084E3D12068C16821F08001C1602068FD
:100FF000C16841F04001C160D8E7206A0088C0F3B1
:1010000008004860206A801C2062E5E74006CDD5D4
:101010005006CBD5CA68204622F04002CA6084F848
:10102000413000F012F9C1E7F913000870B504006F
:1010300004D094F84100002510B106E0012070BDF5
:1010400084F84050204600F023F8242084F8410022
:101050002068C16821F40051C160204600F0E2FA26
:101060002068016921F4904101612068416921F003
:101070002A0141612068C16841F40051C160656482
:10108000202084F8410084F842006563002070BD90
:10109000F0B585B0002400940194029403940646B0
:1010A0000368344F0220344903224502BB4221D158
:1010B0008B6943F480438B618B6903F48043049311
:1010C0008B6943F004038B6189692C4E01F00401A4
:1010D00004910102CDE90010039269463046FFF702
:1010E00015FACDE90054694630460294FFF70EFA2E
:1010F00005B0F0BD224FBB42FAD1CB6943F4802347
:10110000CB61CB6903F4802304938B6943F008031C
:101110008B61896901F00801CDE90321CDE9005017
:10112000184D69462846FFF7F1F9E814CDE90004A7
:10113000694628460294FFF7E9F9144D1248C5E9BB
:1011400000048020C5E902402C616C61AC61284636
:10115000EC61FFF763F908B1FFF744F8F56301228A
:10116000032127206E62FFF73FFB2720FFF72EFBAE
:10117000BEE70000003801400010024000080140B6
:1011800000480040000C014030000240A80100204F
:1011900090F84230202B01D00220704721B11AB1C3
:1011A0000023036300F09ABA01207047704770472C
:1011B0002DE9F843044690F841001F4616460D46B7
:1011C000202802D00220BDE8F8837DB176B100204E
:1011D0006064212084F84100FFF796FAA6848046D7
:1011E000E684A068B0F5805F02D003E00120EAE762
:1011F000206910B12E4600250EE000260CE080216B
:10120000204600F0B3FAA0B9AEB116F8010B216880
:101210004860E08C401EE084E08C43464FF00002C2
:1012200000970028EBD14FF04001204600F09EFAD5
:1012300030B10320C7E735F8020BC0F30800E6E73A
:10124000202084F841000020BDE77047FEE7000041
:10125000094808B5416941F0010141614069012235
:1012600000F00100009002210D20FFF7BDFABDE85B
:1012700008400D20FFF7AABA00100240F0B585B073
:10128000002523480095019502950395816941F059
:1012900010018161816901F010010491816941F0BF
:1012A00020018161816901F020010491816941F08F
:1012B00004018161816901F004010491816941F0B7
:1012C000080181618069012200F00800114E540379
:1012D000049021463046FFF711FA0F4F00223021CB
:1012E0003846FFF70BFA00940124CDE90145694621
:1012F00030460394FFF70AF9302000901120CDE921
:101300000104694638460394FFF700F905B0F0BDC3
:101310000010024000100140000801400C4810B5C8
:101320000A4901604FF416414160002181600C229E
:10133000C160C0E904128161C161FFF777FE002836
:1013400003D0BDE81040FEF74DBF10BD003801408E
:10135000180100200C4810B50A4901604FF4E13132
:101360004160002181600C22C160C0E904128161EA
:10137000C161FFF75BFE002803D0BDE81040FEF717
:1013800031BF10BD0048004060010020FEE7FEE7CD
:1013900070477047FFF7BEB930B58FB02821684657
:1013A000FEF7C7FE14210AA8FEF7C3FE01210804B8
:1013B000CDE900100024029402250491CDE90750E4
:1013C0004FF4E01009906846FFF71CFB08B172B6B5
:1013D000FEE70F20CDE90A054FF48060CDE90C400F
:1013E00002210AA80E94FFF731FA002801D072B644
:1013F000FEE70FB030BD704710B5406A0021C185CF
:10140000C184FFF7DCFC10BD70B5446A20684069F8
:1014100094F84110C0F3C0100025212904D118B15F
:10142000E584204600F08EF82068406994F8421068
:10143000C0F38010222904D118B1E585204600F0C0
:101440005AF8606C40F0100060642046FFF7B7FC6B
:1014500070BD10B50146406A096809684FF0000286
:1014600089062ED4C28501680C3151E8003F23F46F
:10147000807341E80034002CF5D10168143151E843
:10148000003F23F0010341E80034002CF5D101684E
:10149000143151E8003F23F0400341E80034002CB0
:1014A000F5D1202180F84210016B012909D1016892
:1014B0000C3151E8003F23F0100341E80034002CC8
:1014C000F5D14263016B012902D0FFF76FFE10BD19
:1014D000818DFFF73BFC10BD10B5406A01214163CF
:1014E000016B012902D0FFF762FE10BD818D490812
:1014F000FFF72CFC10BD01680C3151E8002F22F4DD
:10150000907241E80023002BF5D10168143151E8B5
:10151000002F22F0010241E80023002BF5D1016BDE
:10152000012909D101680C3151E8002F22F0100285
:1015300041E80023002BF5D1202180F84210002142
:101540000163704701680C3151E8002F22F0C0029E
:1015500041E80023002BF5D1202180F8411070478D
:1015600008B590F84210222901D0022008BD8268F7
:101570004FF480539A4201D1016921B1816A9A42A4
:101580001BD04AB10AE00268816A5268C2F30802BD
:101590000A80816A891C08E0026972B10268526897
:1015A00002F07F020A70816A491C8162C18D491E66
:1015B0000904090CC18503D01BE002685268F1E7F9
:1015C0000168CA6822F02002CA600168CA6822F471
:1015D0008072CA6001684A6922F001024A612021D2
:1015E00080F8421000214163026B012A03D0FFF70B
:1015F000DDFD002008BD016301680C3151E8002FBA
:1016000022F0100241E80023002BF5D101680A689E
:10161000D20602D50A6849680091818DFFF796FBD2
:10162000E7E7000070B5044600680169E26821F44C
:101630004051114301612169A06808436169084371
:101640002168CA6841F20C639A430243CA60206869
:101650004169A26921F44071114341611E4920682A
:10166000884202D1FFF798F901E0FFF785F900EB16
:10167000C00101EB0012606864218000B2FBF0F34E
:10168000B3FBF1F36FF018067343B2FBF0F5B2FB56
:10169000F0F605EB8305322303EB0515B5FBF1F5F9
:1016A000B6FBF1F605F0F00505EB0615B2FBF0F61A
:1016B000B2FBF0F0B0FBF1F06FF01802504306EB14
:1016C000800003EB0010B0FBF1F0216800F00F0088
:1016D0002844886070BD00000038014038B5816240
:1016E00004468285002013466064222284F842204A
:1016F000E56B1B4AAA62E56B1A4AEA62E56B1A4A75
:101700002A63E26B50630A462168E06B091DFEF70D
:10171000B3FE2068016840680090206948B12068E5
:101720000C3050E8001F41F4807140E80012002A9C
:10173000F5D12068143050E8001F41F0010140E865
:101740000012002AF5D12068143050E8001F41F043
:10175000400140E80012002AF5D1002038BD000009
:1017600053140008D9140008091400082DE9F041A9
:10177000984617460E460446069D27E0681C25D06D
:101780002DB1FEF7C1FFA0EB0800A8421ED92068CA
:101790000C3050E8001F21F4D07140E80012002AFC
:1017A000F5D12068143050E8001F21F0010140E815
:1017B0000012002AF5D1202084F8410084F842006C
:1017C000002084F840000320BDE8F0812068006814
:1017D00036EA000004D00020B842CFD00020F3E762
:1017E0000120F9E710B500F00FF80548FFF7E8FA17
:1017F000BDE81040FF2203490148FFF7C9BC0000C3
:10180000600100201800002038B50D4C20680168E8
:10181000C943C90613D401680025406800902046DA
:10182000FFF795FA20680168064940680648006895
:101830004068C0F1FF00086004490844056038BDF5
:101840006001002000000020A801002018000020F6
:10185000FEE700000FB4054B10B503A9044A029837
:1018600000F028F810BC5DF814FB00006D1A0008A9
:10187000140000200907090E002804DB00F1E02015
:1018800080F80014704700F00F0000F1E02080F8AD
:10189000141D704702E008C8121F08C1002AFAD1BF
:1018A00070477047002001E001C1121F002AFBD1E0
:1018B000704700002DE9FF4F8BB09A460F46054652
:1018C000002606E025280BD052460D9990476D1C46
:1018D000761C28780028F5D10FB03046BDE8F08F8F
:1018E0000024A0460122604900E0044315F8013FAE
:1018F000203B02FA03F00842F7D128782E2817D1AE
:1019000015F8010F44F004042A280ED06FF02F02BE
:101910002878A0F1300109290AD808EB880102EBE8
:10192000410100EB01086D1CF2E757F8048B6D1CB8
:10193000287869283ED006DC0028CDD063280BD05B
:10194000642804D136E0732810D075284BD0524655
:101950000D999047761C85E017F8040B8DF8000070
:1019600000208DF80100E946012003E057F8049BB0
:101970004FF0FF3061074FF0000401D40AE0641C0F
:1019800044450DDA8442FADB19F804100029F6D137
:1019900006E0641C8442FCDB19F804100029F8D12D
:1019A000264404E019F8010B52460D999047641E35
:1019B000F8D257E001CF4FF00A0B002802DA40427C
:1019C0002D2102E0210504D52B218DF824100121C1
:1019D00003E0E10705D02021F7E70DF12009089188
:1019E0000CE00021F9E701CF4FF00A0BF9E7594667
:1019F000FEF7B1FB01F1300209F8012D0028F6D104
:101A0000ADEB090000F1200B600701D44FF0010895
:101A1000D84502DDA8EB0B0000E000208046002442
:101A200006E009A85246005D0D999047641C761C9B
:101A300008988442F5DB04E0302052460D99904727
:101A4000761CB8F10001A8F10108F5DC05E019F8F1
:101A5000010B52460D999047761CBBF10001ABF18A
:101A6000010BF4DC6D1C34E70928010013B54FF6B7
:101A7000FF73012269460248FFF79AFB00981CBDDC
:101A80001801002008B5FEF74DFEFFF785FCFFF7B3
:101A9000F5FBFFF7DDFBFFF741FCFFF75BFC1848A8
:101AA0000168CA6842F02002CA600168CA6842F050
:101AB0001002CA600068016840680090FF22114966
:101AC0000F48FFF765FB104D4FF400544FF4FA76C2
:101AD00021462846FEF70AFE0A48FEF735FB40B1CC
:101AE0000848FEF731FB0246064908A0FFF7B2FEA0
:101AF00002E00BA0FFF7AEFE3046FEF7F5FCE7E78D
:101B0000600100201800002000100140726563652C
:101B10006976653A2573206C656E3A25640D0A0076
:101B20004E6F206D6573736167652066726F6D20FF
:101B30004F70656E4D56200D0A0000000102020331
:101B40000405060708090A0B0C0D0E0F1010000003
:101B5000000000000000010203040607080900005D
:101B60000000010203040000881B000800000020A0
:101B70001800000094180008A01B0008180000209E
:101B8000D8050000A41800080000000001000000B3
:101B900010000000000000000024F400000000001D
:04000005080000ED02
:00000001FF
