:020000040800F2
:10000000D004002001010008BB120008C71000083E
:10001000B9120008870600088518000800000000D3
:100020000000000000000000000000002B16000887
:1000300089060008000000002916000805170008BE
:100040001B0100081B0100081B0100081B01000820
:100050001B0100081B0100081B0100081B01000810
:100060001B0100081B0100081B0100081B01000800
:100070001B0100081B0100081B0100081B010008F0
:100080001B0100081B0100081B0100081B010008E0
:100090001B0100081B0100081B0100081B010008D0
:1000A0001B0100081B0100081B0100081B010008C0
:1000B0001B0100081B0100081B0100081B010008B0
:1000C0001B0100081B0100081B0100081B010008A0
:1000D0001B0100081B0100081B0100081B01000890
:1000E0001B0100081B0100081B010008DFF80CD0F1
:1000F00000F096FA00480047D1210008D004002003
:100100000648804706480047FEE7FEE7FEE7FEE7B1
:10011000FEE7FEE7FEE7FEE7FEE7FEE767170008FB
:10012000ED000008202A04DB203A21FA02F0002129
:10013000704721FA02F3D040C2F1200291400843F7
:1001400019467047D2B201E000F8012B491EFBD2DC
:1001500070470022F6E710B513460A4604461946D2
:10016000FFF7F0FF204610BD2DE9F04D81EA0304B2
:1001700004F0004B21F0004514464FF0000A23F034
:10018000004150EA050220D054EA01021DD0C5F317
:100190000A570246C5F31303C1F31300C1F30A560D
:1001A00040F4801543F48013A7EB0608101BD646D5
:1001B00008F2FD3873EB050002D308F1010801E0F5
:1001C00092185B41B8F1000F03DA00200146BDE848
:1001D000F08D00204FF48011064684460EE0171B78
:1001E00073EB050705D3121B63EB050306434CEACB
:1001F000010C49084FEA300092185B4150EA0107B0
:10020000EDD152EA030012D082EA040083EA05012C
:10021000084305D0101BAB4106D20122002306E0A3
:1002200000224FF0004302E06FF0010253101AEB7E
:1002300006004CEB085110EB0A0041EB0B01BDE846
:10024000F04D00F047B830B50B46014600202022A3
:10025000012409E021FA02F59D4205D303FA02F5D3
:10026000491B04FA02F52844151EA2F10102F1DC33
:1002700030BD2DE9F05F0546002092469B4688463A
:100280000646814640241BE0284641464746224612
:10029000FFF748FF53465A46C01A914110D3114602
:1002A0001846224600F0CEF92D1A67EB01084F469A
:1002B00022460120002100F0C5F917EB00094E414C
:1002C000201EA4F10104DFDC484631462A4643469D
:1002D000BDE8F09F10B5141E73F1000408DA401C4D
:1002E00041F1000192185B411A4301D120F0010055
:1002F00010BD2DE9F04D92469B4611B1B1FA81F245
:1003000002E0B0FA80F22032904600F09BF90446F9
:100310000F4640EA0A0041EA0B0153465A46084399
:1003200013D0114653EA010019D0C8F140025046DB
:10033000FFF7F8FE05460E4650465946424600F085
:1003400081F9084305D0012004E020463946BDE884
:10035000F08D0020054346EAE0762C4337430A98A7
:100360006305E40AA0EB08000022FD0A44EA4754B2
:100370000A3002D500200146E9E70105101969415C
:10038000DDE9084500196941BDE8F04DA2E72DE916
:10039000FE4F804681EA0300C00F0C46009021F01A
:1003A000004123F00045B8EB0200A94105D24046C8
:1003B000214690461C460B46024623F0004010435F
:1003C00047D0270DC7F30A00C3F30A510290401A21
:1003D000019040286BDAC3F3130040F4801B0098AF
:1003E000924620B10023D2EB030A63EB0B0B01987A
:1003F0005946C0F14002504600F024F906460D4629
:1004000050465946019A00F02CF910EB0800614162
:10041000002487EA115284EAE7731A4340D0009A15
:1004200062B3019A012A4FEA075215DC001B61EB07
:1004300002014FF0004202EA0752CDE90042001CDF
:1004400041F5801132462B46FFF753FF03B0BDE85C
:10045000F08F40462146F9E7001B61EB0201001CCA
:1004600041F5801300185B412018A2F5001747EBF7
:10047000030140EAD570B6196D4111E06D084FEAED
:10048000360645EAC0754FEA0752001B61EB0201D0
:10049000001C41F5801149084FEA30000019514114
:1004A00032462B4603B0BDE8F04FFFF713BF00986C
:1004B000012240000023D0EB020263EBE0730098BE
:1004C00021464FEAE074B8EB000061EB0401E9E774
:1004D00083F000435BE781F0004158E72DE9FE4FD0
:1004E00081EA030404F0004421F0004100944FF03D
:1004F000000B23F0004350EA01045ED052EA0304EB
:100500005BD0C3F30A54C1F30A552C44A4F2F3346C
:100510000194A0FB0254C1F3130141F48011C3F311
:10052000130343F4801301FB024400FB034E840ACF
:10053000970A44EA815447EA8357A4FB0768029567
:100540008D0A05FB07854FEA932C04FB0C54270505
:10055000029D4FEA065847EA1637B5EB08056EEBE1
:10056000070C870E920E47EA811742EA8312A7FB17
:100570000201B6EB0B0164EB00042B0D43EA0C33D4
:100580005E1844EB1C50DA465146E7FB0201C5F306
:1005900013044FEA0B3343EA14534FEA0432019C2D
:1005A00043EA0603A4F10C040294009CCDE900B4D4
:1005B000FFF79FFE03B0BDE8F08F00200146F9E78A
:1005C000C1F30A52C1F3130140F2FF3341F4801129
:1005D0009A4202DA00200146704740F233439A42C1
:1005E000A2F2334202DC5242FFF79CBD00F02AB86F
:1005F00030B5041E71F1000404DB4FF000444042AA
:1006000064EB0101141E73F1000405DB1C464FF07E
:100610000043524263EB0403994208BF904230BD4D
:10062000064C074D06E0E06840F0010394E807003F
:1006300098471034AC42F6D3FFF75CFDD42800088D
:10064000F4280008202A04DB203A00FA02F10020F6
:1006500070479140C2F1200320FA03F31943904000
:100660007047202A06DBCB17203A41FA02F043EA12
:10067000E07306E041FA02F3D040C2F1200291405B
:10068000084319467047FEE7704772B6FEE7000060
:1006900070B5044600F008F90546601C02D0044815
:1006A0000078044400F000F9401BA042FAD370BD6A
:1006B000040000202DE9F84FDFF8B891002409F17B
:1006C000040A0AF1040B23460F270BF1040EC9E0BC
:1006D0000125A5402A40AA427DD1674ED1F804C029
:1006E000ACEB0608B44532D014DCBCF1030F3AD0B1
:1006F00009DCBCF1000F2AD0BCF1010F1CD0BCF109
:10070000020F31D11DE0BCF1110F17D0BCF1120F57
:100710002AD119E0B8F5881F19D006DCB8F5803F5A
:1007200015D0B8F5801F1FD111E0B8F5001F0ED00D
:10073000B8F5041F18D10AE0CB6815E0CB681B1D83
:1007400012E0CB6808330FE0CB680C330CE08B6809
:100750002BB1012B4FF0080303D0456104E00423C3
:1007600002E0056100E00023FF2A01D8064601E00F
:1007700000F104064FEA840501D9A5F12005D6F859
:10078000008007FA05FC28EA0C0803FA05F548EA98
:100790000508C6F800804D68ED0062D5374DAE699A
:1007A00046F00106AE61AD6924F0030605F00105CF
:1007B0000095334D06EB050CDCF80850A607360F04
:1007C00007FA06F825EA0805DFF8B880404503D1A6
:1007D0004FF0000817E044E0DFF8AC80404502D15C
:1007E0004FF001080FE0DFF8A480404502D14FF040
:1007F000020808E0DFF89880404502D14FF0030876
:1008000001E04FF0040808FA06F848EA0508CCF8B9
:1008100008804D68D9F80060ED034D4601D51643B8
:1008200000E096432E604D68DAF80060AD0355464F
:1008300001D5164300E096432E604D68DBF800605A
:10084000ED025D4601D5164300E096432E604D68EB
:10085000DEF80060AD02754601D5164300E0964310
:100860002E60641C0D682A46E5407FF431AFBDE878
:10087000F88F000000040140000011100010024039
:100880000000014000080140000C01400010014040
:10089000001401408068084000D0012070470AB170
:1008A000016170470904FBE7014880687047000058
:1008B000040000200248816802781144816070477A
:1008C00004000020074810B5016841F010010160E4
:1008D000032000F067F80F2000F006F800F024F87D
:1008E000002010BD0020024070B50D4D04464FF4AD
:1008F0007A712878B1FBF0F00A490968B1FBF0F091
:1009000000F0E4FA48B9102C07D200222146501E0C
:1009100000F028F800206C6070BD012070BD000060
:1009200004000020100000200C4808B5816941F047
:1009300001018161816901F001010091C16941F00A
:100940008051C161C06900F0805000900448416846
:1009500021F0E06141F00071416008BD00100240EB
:1009600000000140F0B40E4B1B680C46C3F3022399
:10097000C3F10705042D00D90425191D072901D24B
:10098000002300E0DB1E012606FA05F1491E214086
:1009900099409E40761E16403143F0BC00F084BF63
:1009A0000CED00E0064900F0070208684FF6FF036F
:1009B000184040EA0220034A1043086070470000D4
:1009C0000CED00E00000FA052DE9F0470F460500A8
:1009D00061D0434E306800F00700B84209D2306859
:1009E00020F0070038433060306800F00700B8425C
:1009F00051D128683B4C810712D5400703D5606868
:100A000040F4E06060602878000703D5606840F437
:100A1000605060606068A96820F0F0000843606082
:100A20002878C00728D06868012810D021680228DB
:100A300010D0890700292EDA616821F003010143F3
:100A40006160FFF731FF804641F288390DE021688F
:100A50008903EFE78901EDE7FFF726FFA0EB080127
:100A6000494502D90320BDE8F0876068696800F055
:100A70000C00B0EB810FEFD1306800F00700B842F6
:100A80000BD9306820F0070038433060306800F040
:100A90000700B84201D00120E5E72878400705D5D6
:100AA0006068E96820F4E060084360602878000727
:100AB00006D56068296920F4605040EAC100606092
:100AC00000F03EF86168084AC1F30311515CC84068
:100AD0000649086006480068FFF706FF0020C2E7E5
:100AE0000020024000100240CC220008100000202C
:100AF0000800002001480068704700001000002036
:100B00000448054900684968044AC1F30221515C60
:100B1000C84070471000002000100240DC2200088E
:100B20000448054900684968044AC1F3C221515C80
:100B3000C84070471000002000100240DC2200086E
:100B400012A185B00FC98DE80F0014A0144A0068E7
:100B500004905168134801F00C03042B10D0082BAB
:100B60000ED1C1F38343C9031DF803000AD55168B0
:100B700004AAC1F34041515C0A4A5043B0FBF1F072
:100B800005B0704708494843FAE70000020304052E
:100B9000060708090A0B0C0D0E0F101001020000C9
:100BA0000010024000127A0000093D002DE9F84FC4
:100BB000040070D02078C04DC00749D06868C0F3E9
:100BC0008100012807D06868C0F38100022809D19C
:100BD0006868C00306D52868800339D56068002896
:100BE000E7D035E06068B0F5803F0BD010B1B0F5CC
:100BF000A02F11D0286820F480302860286820F4C5
:100C0000802002E0286840F480302860606890B15D
:100C1000FFF74AFE06460AE0286840F48020286074
:100C2000F0E700BFFFF740FE801B642873D82868F8
:100C30008003F7D50CE0FFF737FE064605E000BF5E
:100C4000FFF732FE801B6428F0D828688003F7D4B1
:100C500020789A4E80074FF001094FF0000839D5EF
:100C6000686810F00C0F07D06868C0F38100022894
:100C700009D16868C00306D42868800714D52069A4
:100C8000012808D110E02069B0B1C6F80090FFF744
:100C90000BFE074605E00AE1FFF706FEC01B02282F
:100CA000C4D828688007F7D52868616920F0F80063
:100CB00040EAC10028600DE0C6F80080FFF7F4FDAF
:100CC000074604E0FFF7F0FDC01B022823D8286880
:100CD0008007F7D4207800072CD57948A169D9B1CD
:100CE000C0F80090FFF7E0FD074604E0FFF7DCFDE9
:100CF000C01B02280FD8686A8007F7D571484FF4E7
:100D0000FA510068B0FBF1F0009000BF0098411E5E
:100D10000091FAD20EE080E0C0F80080FFF7C4FD39
:100D2000074604E0FFF7C0FDC01B022875D8686ABB
:100D30008007F7D42078400760D5E8690027C00015
:100D400008D4E86940F08050E861E869012700F0C4
:100D5000805000905C480168C90513D4016883463F
:100D600041F480710160FFF79FFD824606E000BFFD
:100D7000FFF79AFDA0EB0A0064284ED8DBF80000CC
:100D8000C005F5D5E06801280AD008B1052813D0C0
:100D9000286A20F001002862286A20F0040002E09E
:100DA000286A40F001002862E06841F2883B98B16F
:100DB000FFF77AFD82460BE0286A40F004002862C3
:100DC000EEE700BFFFF770FDA0EB0A0159455AD8C6
:100DD000286A8007F6D50CE0FFF766FD824605E03D
:100DE000FFF762FDA0EB0A0159454CD8286A80073D
:100DF000F6D41FB1E86920F08050E861E06988B35B
:100E00006968C1F38101022944D00228C6F86080D4
:100E100004D0FFF749FD044638E034E0FFF744FD15
:100E2000074604E0FFF740FDC01B02282BD82868C6
:100E30008001F7D4206AB0F5803F05D16868A168C9
:100E400020F4003008436860D4E908010843696869
:100E500021F4741108436860C6F86090FFF724FD20
:100E6000044606E025E000BFFFF71EFD001B022838
:100E700009D828688001F7D51BE000BFFFF714FDF3
:100E8000001B022802D90320BDE8F88F28688001E2
:100E9000F4D40EE00128F7D06868226A00F48031AB
:100EA000914204D1616A00F47010884201D001209F
:100EB000EAE70020E8E7000000100240000042429C
:100EC00080044242100000200070004010B5401E17
:100ED000B0F1807F01D3012010BD4FF0E0246061AC
:100EE0000F21601700F0E0FC0020A06107202061C6
:100EF000002010BD70B5040004D094F83D0000251A
:100F000010B106E0012070BD84F83C50204600F08E
:100F100023F8242084F83D002068C16821F40051A2
:100F2000C160204600F020FC2068016921F4904156
:100F300001612068416921F02A0141612068C1688E
:100F400041F40051C1602564202084F83D0084F8FC
:100F50003E00002070BD000070B586B000240094F3
:100F600001940294039403682648254E022103222B
:100F70000515B3421ED1836943F4804383618369BD
:100F800003F480430493836943F00403836180691D
:100F90001D4E00F0040004900802CDE90001039208
:100FA00069463046FFF786FBCDE900546946304676
:100FB000029420E0154EB3421FD1C36943F480234D
:100FC000C361C36903F480230493836943F0080376
:100FD00083618069CDE9005100F00800CDE903206C
:100FE0000B4D69462846FFF765FBE814CDE9000480
:100FF000694628460294FFF75DFB06B070BD00000D
:101000000038014000100240000801400048004044
:10101000000C01402DE9F843044690F83D001F46BE
:1010200016460D4620284CD1C5B1BEB194F83C00FF
:10103000012846D0012084F83C004FF00008C4F895
:101040004080212084F83D00FFF72EFCA6848146D5
:10105000E684A068B0F5805F03D004E00120BDE81D
:10106000F883206928B12E465FF0000584F83C80A3
:101070000EE00026FAE78021204600F0D1FBA0B95F
:10108000AEB116F8010B21684860E08C401EE08488
:10109000E08C4B464FF0000200970028EBD14FF058
:1010A0004001204600F0BCFB30B10320D7E735F803
:1010B000020BC0F30800E6E7202084F83D00002082
:1010C000CDE70220CBE7FEE770B5074D074E0024C1
:1010D000002235F8240081B23046FFF7E0FB641CA3
:1010E000E4B2042CF4D370BD14000020000C0140C5
:1010F0002DE9F05F0025DFF864A0194FDFF864B038
:10110000FFF7E2FF164801221038564630F8250056
:1011100081B25046FFF7C3FB0024B2464FF00108EE
:10112000A1460BEB850600BF37F8240081B250467C
:10113000FFF7B0FB01280BD006F80490641CE4B262
:10114000042CF1D36D1CEDB2042DD9D3BDE8F09F72
:101150003220FFF79DFA06F80480EFE7000C01400B
:1011600024000020C00000202DE9F04385B00025B8
:1011700031480095019502950395816941F0100170
:101180008161816901F010010491816941F02001C0
:101190008161816901F020010491816941F00401BC
:1011A0008161816901F004010491816941F00801C4
:1011B00081618069012200F00800204F54030490EF
:1011C00021463846FFF76BFBDFF8748000223021A0
:1011D0004046FFF764FBDFF86C904FF47046002246
:1011E00031464846FFF75BFB00940124CDE90145F9
:1011F000694638460394FFF75DFA302000901120CD
:10120000CDE90104694640460394FFF753FA00967E
:10121000CDE901450224694648460394FFF74AFA9E
:101220007820CDE90005694602944846FFF742FA66
:1012300005B0BDE8F083000000100240001001403E
:1012400000080140000C01400C4810B50A4901603B
:101250004FF416414160002181600C22C160C0E959
:1012600004128161C161FFF745FE002803D0BDE88B
:101270001040FFF70ABA10BD0038014038000020C6
:101280000C4810B50A4901604FF4E131416000217A
:1012900081600C22C160C0E904128161C161FFF765
:1012A00029FE002803D0BDE81040FFF7EEB910BDBD
:1012B000004800407C000020FEE7FEE770B50024F7
:1012C0000021204600F00DF90025002000F09BF9D8
:1012D0006D1CEDB2802DF8D3641CE4B2082CEFD362
:1012E00070BD0000114810B5816986B041F0080159
:1012F00081618069694600F0080004903020009008
:10130000112001900120029003900948FFF7D2F9C3
:10131000084C012220212046FFF7C1FA01221021AA
:101320002046FFF7BCFA06B010BD000000100240D6
:10133000000C0140000801402DE9F0410024174E47
:101340000746802525FA04F0384201D0012200E04A
:10135000002210213046FFF7A2FA01222021304658
:10136000FFF79DFA012000F009FF002220213046FE
:10137000FFF795FA641CE4B2082CE3D30122202184
:101380003046FFF78CFA012000F0F8FE3046BDE849
:10139000F04100222021FFF782BA0000000801403E
:1013A00010B5104C012210212046FFF778FA0122D7
:1013B00020212046FFF773FA012000F0DFFE002213
:1013C00010212046FFF76BFA012000F0D7FE002223
:1013D00020212046FFF763FABDE81040012000F00D
:1013E000CDBE00000008014010B50E4C00221021B7
:1013F0002046FFF754FA002220212046FFF74FFA3B
:10140000012220212046FFF74AFA012000F0B6FE13
:10141000012210212046FFF742FABDE810400120CA
:1014200000F0ACBE0008014010B500204FF47A7205
:101430000021491C9142FCD3401C9042F8D3FFF795
:1014400051FFAE2000F0CEF8D52000F0CBF8802080
:1014500000F0C8F8A82000F0C5F83F2000F0C2F85E
:10146000D32000F0BFF8002000F0BCF8402000F0CE
:10147000B9F8A12000F0B6F8C82000F0B3F8DA20DF
:1014800000F0B0F8122000F0ADF8812000F0AAF8CA
:10149000CF2000F0A7F8D92000F0A4F8F12000F048
:1014A000A1F8DB2000F09EF8302000F09BF8A4208B
:1014B00000F098F8A62000F095F88D2000F092F842
:1014C000142000F08FF8AF2000F08CF8BDE8104039
:1014D000FFF7F4BE0246012000E05043491EFCD253
:1014E000704710B50C4640F0B00000F07BF81020BB
:1014F00040EA141000F076F804F00F00BDE8104048
:1015000000F070B82DE9F0410746CE004000083EDB
:10151000801E15464FF0FF38F1B2C0B2FFF7E1FF71
:101520001148002400EB05152819A0F5805090F80B
:10153000000E00F068F8641CE4B2082CF4D308EB49
:101540004700F1B2C0B2FFF7CCFF00242819A0F584
:10155000805090F8080E00F056F8641CE4B2082C95
:10156000F4D3BDE8F0810000E42200082DE9F04743
:10157000814600268846154610460A2703E090FB60
:10158000F7F0761CF6B20028F9D1002413E0311BE5
:101590000A20491EFFF79EFFB5FBF0F0B0FBF7F104
:1015A00007FB110208EB0400C1B248463032FFF7D6
:1015B000A9FF641CE4B2B442E9D3BDE8F0872DE989
:1015C000F04115460E460746002406E03019C1B228
:1015D0003846FFF797FF641CE4B22A5D002AF5D174
:1015E000BDE8F08110B50446FFF7DAFE7820FFF77A
:1015F000A3FE0020FFF7A0FE2046FFF79DFEBDE8FA
:101600001040FFF7F1BE10B50446FFF7C9FE782081
:10161000FFF792FE4020FFF78FFE2046FFF78CFE7B
:10162000BDE81040FFF7E0BE704770472DE9F0417C
:1016300029A206210120FFF7C2FF29A208210220CA
:10164000FFF7BDFF27A204210320FFF7B8FF284DB5
:10165000284C4FF4805800BFFFF736FD0122414669
:101660002846FFF71CF940212846FFF713F90646E4
:1016700020212846FFF70EF9074610212846FFF7DC
:1016800009F9012E19D0012FE6D13220FFF700F819
:1016900020212846FFF7FEF80128DDD12070FFF752
:1016A0000DFE2078012813D0032813D112A2BDE823
:1016B000F04104210120FFF782BF3220FEF7E8FF4E
:1016C00040212846FFF7E6F80128C5D10320E5E7C9
:1016D00004A2ECE7BDE8F08153657269616C00001B
:1016E0004F520000426C7565546F6F7468000000C3
:1016F000000C01400000002053657269616C506F5E
:1017000072740000FFF7D6B830B58FB02821684654
:10171000FEF71FFD14210AA8FEF71BFD0121080496
:10172000CDE900100024029402250491CDE9075070
:101730004FF4E01009906846FFF738FA08B172B626
:10174000FEE70F20CDE90A054FF48060CDE90C409B
:1017500002210AA80E94FFF737F9002801D072B6CB
:10176000FEE70FB030BD704770B5044600680169F0
:10177000E26821F44051114301612169A0680843E6
:10178000616908432168CA6841F20C639A430243C5
:10179000CA6020684169A26921F440711143416126
:1017A0001E492068884202D1FFF7BAF901E0FFF72D
:1017B000A7F900EBC00101EB001260686421800012
:1017C000B2FBF0F3B3FBF1F36FF018067343B2FB17
:1017D000F0F5B2FBF0F605EB8305322303EB0515BC
:1017E000B5FBF1F5B6FBF1F605F0F00505EB0615D6
:1017F000B2FBF0F6B2FBF0F0B0FBF1F06FF01802C4
:10180000504306EB800003EB0010B0FBF1F02168C1
:1018100000F00F002844886070BD000000380140CF
:101820002DE9F041984617460E460446069D1DE0F8
:10183000681C1BD02DB1FFF737F8A0EB0800A842B9
:1018400014D92068C16821F4D071C1602068416951
:1018500021F001014161202084F83D0084F83E0020
:10186000002084F83C000320BDE8F0812068006877
:1018700036EA000004D00020B842D9D00020F3E7B7
:101880000120F9E7FEE700000FB4054B10B503A9EE
:10189000044A029800F0DAF810BC5DF814FB00006E
:1018A00099210008340000200907090E002804DBF4
:1018B00000F1E02080F80014704700F00F0000F104
:1018C000E02080F8141D704702E008C8121F08C10C
:1018D000002AFAD170477047002001E001C1121FB1
:1018E000002AFBD1704700002DE9FF5FDDE90220EF
:1018F000010DDDF838B0024318D044F61050A1F2C3
:10190000FF3141430D140F98012820D0A5EB0B00A7
:10191000401C5FEA000A4FF00004474EDFF81C91BC
:10192000A046504616D5CAF1000728E00F980124BA
:1019300043A2012808D0002100980F9BC0E9002194
:10194000C0E90243BDE8FF9F6FEA0B01F4E7CBF16A
:101950000000DEE7074612E0F80707D022463346CC
:1019600040464946FEF7BAFD804689462246334640
:1019700010461946FEF7B2FD04460E467F10002FB2
:10198000EAD1DDE90201BAF1000F42464B4602DA24
:10199000FEF7A4FD01E0FEF7E7FB04460E46002239
:1019A000284BFEF725FE03D84FF0FF30014607E035
:1019B0000022254B20463146FEF7E9FCFEF700FEEB
:1019C000102409E0002C0ADB0A220023FEF751FC58
:1019D000019B30321A55641E50EA0102F2D1641C98
:1019E000019AC4F1110314440F9A012A03D0012271
:1019F00008430DD10AE0084304D000204FF0110B3A
:101A00000F9080E7A3EB0B056D1E0DE05B4504DD39
:101A10004FF0000205F1010504E003DA4FF0000287
:101A2000A5F10105002AECD000980F99C0E9023118
:101A3000C0E9004586E70000000024400000F03FB8
:101A4000300000000000F0430000E03F2DE9FF4FB0
:101A500095B09B468946064600250FE2252877D19A
:101A600000242746F84A0121059400E0044316F8B3
:101A7000013F203B01FA03F01042F7D130782A28C9
:101A800011D06FF02F033078A0F13002092A16D858
:101A9000059A44F0020402EB820203EB4202104476
:101AA000761C0590EFE759F8042B0592002A03DA1B
:101AB000504244F40054059044F00204761C3078FF
:101AC0002E2816D116F8010F44F004042A280DD050
:101AD0006FF02F023078A0F13003092B09D807EB03
:101AE000870302EB4303C718761CF3E759F8047B1E
:101AF000761C30786C280FD006DC4C2817D068286C
:101B00000DD06A2814D104E0742810D07A280FD19F
:101B10000DE044F400140AE044F4801401E044F4BD
:101B200040147278824202D104F58014761C761C2F
:101B3000307866280BD013DC582877D009DC0028D1
:101B400075D04528F6D04628F4D047281AD19DE113
:101B500018E0632835D0642879D0652812D195E142
:101B6000702873D008DC6728F1D069286FD06E2800
:101B70000DD06F2806D1B5E073282CD0752875D00C
:101B8000782874D05A46179990476D1C75E1C4F3B4
:101B90000250022809D003280DD0D9F800100428DB
:101BA0000DD00D6009F1040967E1D9F80010EA17BA
:101BB000C1E90052F6E7D9F800100D80F2E70D7088
:101BC000F0E719F8041B8DF8001000208DF80100D3
:101BD000EA46012003E059F804AB4FF0FF306107FB
:101BE0004FF0000102D40DE008F101018846B9422E
:101BF0000FDA8045F8DB1AF808100029F4D108E064
:101C000008F1010188468142FADB1AF80810002920
:101C1000F6D105985B46A0EB080721463846179A8F
:101C200000F094FA284400EB080507E04DE029E1B4
:101C30000DE01AF8010B5A4617999047B8F10108C0
:101C4000F7D25B4621463846179A13E142E00A2252
:101C50000092C4F302524FF0000A022A08D059F849
:101C600004CB032A4FEAEC710AD00DE029E02AE008
:101C700009F1070121F00702F2E802C1914609E0EB
:101C80000FFA8CFC4FEAEC71042A03D14FFA8CFC5A
:101C90004FEAEC71002907DA0A460021DCF1000C5A
:101CA00061EB02012D2202E0220504D52B228DF8E2
:101CB0000420012203E0E20701D02022F7E790464A
:101CC00059E00A2102E010220DE010214FF0000A35
:101CD00000910BE010224FF0000A44F004040827A2
:101CE000009203E008224FF0000A0092C4F302526F
:101CF000022A05D059F804CB0021032A08D009E0B4
:101D000009F1070121F00702F2E802C1914605E05E
:101D10001FFA8CFC042A01D10CF0FF0C4FF00008D4
:101D2000220728D5702806D0009B83F0100353EAC1
:101D30000A0305D00EE040228DF80420012208E0BD
:101D40005CEA010206D030228DF804208DF80500EF
:101D500002229046009B83F0080353EA0A030AD14B
:101D60005CEA010201D1620705D530228DF804201A
:101D70004FF001087F1E582804D034A003900EA80D
:101D800002900DE036A0F9E753466046009AFEF750
:101D900070FA84460398825C0298401E029002709A
:101DA0005CEA0100F0D1029806A9081A00F1200AA5
:101DB000600702D524F4803400E00127574502DD96
:101DC000A7EB0A0000E0002000EB0A010090059854
:101DD0004144401A0590E00306D45B462146179A19
:101DE000059800F0B3F90544002706E001A85A461B
:101DF000C05D179990476D1C7F1C4745F6DBE003DB
:101E00000CD55B462146179A059800F09FF90544CA
:101E100004E030205A46179990476D1C0099481EDF
:101E200000900029F5DC08E0029802995A460078F3
:101E3000491C0291179990476D1CBAF10001AAF153
:101E4000010AF1DC65E1000009280100303132337C
:101E500034353637383961626364656600000000E6
:101E600030313233343536373839414243444546D0
:101E70000000000000F058F90544761C3078002876
:101E80007FF4ECAD19B02846BDE8F08F620700D4AE
:101E9000062709F1070222F0070CFCE80223E146BD
:101EA00003F000485FEA080C02D00FF2702C0DE03E
:101EB0005FEA045C02D50FF2682C07E05FEAC47C9D
:101EC00002D00FF2602C01E0AFF2700C4FF0FF383F
:101ED00023F00043CDF850C065280CD006DC45281F
:101EE00009D046281DD047283DD13DE0662818D0AE
:101EF00067287ED138E00021112F01DB112000E09E
:101F0000781CCDE9000106A90EA8FFF7EDFCDDE97C
:101F10000F010E9A03910021009207F1010A04912A
:101F20004DE04FF000400097CDE9011006A90EA842
:101F3000FFF7DAFCDDE90F0203920E9B11990022F4
:101F4000DDF80CA00093049211B9791C00EB010A92
:101F5000B7EB0A0004D4C0F1FF3007F1010A049086
:101F6000AAEB0700019044E0012F00DA01270021CD
:101F7000112F01DD112000E03846CDE9000106A94E
:101F80000EA8FFF7B1FCDDE90F010E9A03910021C5
:101F900004910092BA4621070CD40399514500DA06
:101FA0008A46BAF1010F05DD009AAAF10101515CE0
:101FB000302908D0B84202DA10F1040F06DA012104
:101FC000CDE9011015E0AAF10101E9E7002805DCDF
:101FD000049901440491AAEB000102E0411C51451F
:101FE00000DD8A460499401A401C01904FF00040E1
:101FF0000290200704D40198504501DBCDF80480FD
:1020000000208DF84F0002980DF14F07B0F1004FFE
:1020100025D02B200E9002984FF0020800280CDAF1
:10202000404202902D200E9007E00A210298FEF710
:102030000AF93031029007F8011DB8F10001A8F14A
:102040000108F2DC02980028EFD1791E0E98087082
:10205000307800F0200040F0450007F8020D12A88B
:10206000C01B00F107081498007800B1012000EBB4
:102070000A01019801EBE07105984144401A401EA5
:102080000590E00306D45B462146179A059800F0B8
:102090005DF805441498007818B15A46179990478E
:1020A0006D1CE00324D55B462146179A059800F085
:1020B0004DF805441CE00498002807DBDDE9030126
:1020C000884203DD0098405C179901E017993020A1
:1020D0005A469047049805F10105401C0490019868
:1020E000401E019004D12E205A46179990476D1C2E
:1020F000BAF10001AAF1010ADDDC05E017F8010BD5
:102100005A46179990476D1CB8F10001A8F10108D3
:10211000F4DC5B462146179A0598ABE62D000000DB
:102120002B000000200000002DE9F04104460025AE
:102130001E461746880404D405E039462020B047DF
:102140006D1C641EF9D52846BDE8F0812DE9F041EB
:10215000044600251E469046C80301D5302700E0FE
:102160002027880404D505E041463846B0476D1C59
:10217000641EF9D52846BDE8F081000010B504467C
:10218000FEF7B8FC0349B0FBF1F16143491EFDD2F3
:1021900010BD000000127A0013B50A484FF6FF7315
:1021A0000078032802D0012804D008E00122694603
:1021B000054802E0012269460448FEF72BFF00981B
:1021C0001CBD0000000000207C0000203800002022
:1021D000FEF778FBFFF798FAFEF7C6FFFFF734F833
:1021E000FFF74EF8FFF720F9FEF76EFF6420FEF7C9
:1021F0004FFA26A203210220FFF7E1F94FF4FA7407
:102200002046FEF745FAFFF759F8FFF70FFA204688
:10221000FEF73EFADFF884804FF4005ADFF8809032
:10222000FEF766FF0025002408EB8507385D0128CE
:102230001BD1002251464846FEF731FB04EB8500D6
:10224000401CC6B2314617A0FFF71EFB1CA2052199
:102250000220FFF7B4F91CA209210220FFF7AFF911
:10226000324609210220FFF781F9012251464846F2
:10227000FEF715FB641CE4B2042CD7D36D1CEDB241
:10228000042DD0D33220FEF703FAC9E7496E6974F2
:10229000205375636365656400000000C000002082
:1022A00000100140546865204B65793A2564206927
:1022B000732070756C6C20646F776E0D0A000000DF
:1022C0004B65793A0000000020202000000000004B
:1022D00000000000010203040607080900000000D6
:1022E00001020304000000000000000000000000E4
:1022F00000000000000000F80000000000000033B3
:102300003000000000100C06100C06000000000059
:102310000000000040C07840C0784000043F040442
:102320003F040400007088FC08300000001820FF03
:10233000211E0000F008F000E018000000211C033E
:102340001E211E0000F00888700000001E212324BA
:102350001927211010160E000000000000000000D8
:1023600000000000000000E0180402000000000768
:102370001820400000020418E0000000004020186F
:1023800007000000404080F0804040000202010F42
:1023900001020200000000F0000000000101011F26
:1023A00001010100000000000000000080B070008A
:1023B000000000000000000000000000000101011A
:1023C00001010101000000000000000000303000A9
:1023D0000000000000000000806018040060180683
:1023E0000100000000E010080810E000000F1020BD
:1023F00020100F00001010F8000000000020203F07
:102400002020000000700808088870000030282490
:102410002221300000300888884830000018202031
:1024200020110E000000C02010F800000007042456
:10243000243F240000F8088888080800001921209B
:1024400020110E0000E0108888180000000F1120F5
:1024500020110E0000380808C83808000000003FAE
:10246000000000000070880808887000001C22210D
:1024700021221C0000E010080810E00000003122BA
:1024800022110F00000000C0C0000000000000305A
:1024900030000000000000800000000000008060AC
:1024A000000000000000804020100800000102042D
:1024B0000810200040404040404040000404040414
:1024C00004040400000810204080000000201008D0
:1024D00004020100007048080808F0000000003005
:1024E00036010000C030C828E810E0000718272493
:1024F00023140B000000C038E0000000203C230241
:102500000227382008F8888888700000203F2020A3
:1025100020110E00C03008080808380007182020D5
:102520002010080008F808080810E000203F2020CC
:1025300020100F0008F88888E8081000203F2020AD
:102540002320180008F88888E8081000203F2000A1
:1025500003000000C03008080838000007182020D9
:10256000221E020008F808000008F808203F210198
:1025700001213F20000808F8080800000020203F43
:102580002020000000000808F8080800C0808080B3
:102590007F00000008F888C028180800203F2001AC
:1025A0002638200008F8080000000000203F202006
:1025B0002020300008F8F800F8F80800203F003F1D
:1025C000003F200008F830C00008F808203F200035
:1025D00007183F00E01008080810E0000F10202046
:1025E00020100F0008F808080808F000203F21011B
:1025F00001010000E01008080810E0000F18242472
:1026000038504F0008F8888888887000203F2000E4
:10261000030C30200070880808083800003820219A
:1026200021221C00180808F8080818000000203FA4
:102630002000000008F808000008F808001F20200B
:1026400020201F000878880000C8380800000738DC
:102650000E010000F80800F80008F800033C07002D
:10266000073C0300081868808068180820302C0395
:10267000032C30200838C800C83808000000203F6C
:102680002000000010080808C8380800203826215B
:1026900020201800000000FE020202000000007F5F
:1026A00040404000000C30C000000000000000016D
:1026B0000638C00000020202FE0000000040404058
:1026C0007F0000000000040202020400000000007D
:1026D00000000000000000000000000080808080FA
:1026E00080808080000202040000000000000000E2
:1026F000000000000000808080800000001924227B
:1027000022223F2008F8008080000000003F1120B6
:1027100020110E000000008080800000000E1120BB
:1027200020201100000000808088F800000E112099
:1027300020103F200000808080800000001F2222A7
:1027400022221300008080F0888888180020203F13
:10275000202000000000808080808000006B949426
:102760009493600008F8008080800000203F2100E2
:1027700000203F2000809898000000000020203FAB
:1027800020200000000000809898000000C0808099
:10279000807F000008F8000080808000203F240235
:1027A0002D302000000808F8000000000020203F25
:1027B000202000008080808080808000203F2000DA
:1027C0003F20003F8080008080800000203F21006B
:1027D00000203F200000808080800000001F20201B
:1027E00020201F00808000808000000080FFA1204A
:1027F00020110E000000008080808000000E11205B
:1028000020A0FF80808080008080800020203F21E9
:10281000200001000000808080808000003324249C
:1028200024241900008080E0808000000000001F48
:10283000202000008080000000808000001F2020F9
:1028400020103F20808080000080808000010E30BA
:102850000806010080800080008080800F300C031B
:102860000C300F0000808000808080000020312E1E
:102870000E312000808080000080808080818E70FA
:102880001806010000808080808080000021302CAC
:102890002221300000000000807C020200000000C5
:1028A000003F404000000000FF000000000000006A
:1028B000FF0000000002027C800000000040403F5A
:1028C00000000000000601010202040400000000F4
:1028D00000000000F428000800000020380000007C
:1028E000C81800082C2900083800002098040000AF
:1028F000D8180008000000000100000010000000CF
:10290000000000000024F40000100000002000007F
:102910000040000000800000400000002000000097
:0C29200010000000080000000000000093
:04000005080000ED02
:00000001FF
