:020000040800F2
:10000000A005002001010008A3120008BD1100088E
:10001000A112000899010008C9160008000000009C
:10002000000000000000000000000000A71200080F
:10003000D301000800000000A5120008A912000862
:100040001B0100081B0100081B0100081B01000820
:100050001B0100081B0100081B0100081B01000810
:100060001B0100081B0100081B0100081B01000800
:100070001B0100081B0100081B0100089D0100086E
:100080001B0100081B0100081B0100081B010008E0
:100090001B0100081B0100081B0100081B010008D0
:1000A0001B0100081B0100081B0100081B010008C0
:1000B0001B0100081B0100081B0100081B010008B0
:1000C0001B0100081B0100081B0100081B010008A0
:1000D0001B010008611600081B0100081B01000835
:1000E0001B0100081B0100081B010008DFF80CD0F1
:1000F00000F040F800480047FD180008A005002067
:100100000648804706480047FEE7FEE7FEE7FEE7B1
:10011000FEE7FEE7FEE7FEE7FEE7FEE70B1300085B
:10012000ED000008D2B201E000F8012B491EFBD21D
:1001300070470022F6E710B513460A4604461946F2
:10014000FFF7F0FF204610BD30B50B4601460020FA
:100150002022012409E021FA02F59D4205D303FA89
:1001600002F5491B04FA02F52844151EA2F101020A
:10017000F1DC30BD064C074D06E0E06840F00103BD
:1001800094E8070098471034AC42F6D3FFF7B2FF6B
:10019000B4190008D4190008FEE70000014800F077
:1001A0008BB800005C01002030B590F8405001246D
:1001B000AC40C56B6C60046863604368102B0368D7
:1001C00003D099600068C26030BD9A600068C16069
:1001D00030BD704772B6FEE710B590F821100022CE
:1001E000022905D00421816380F82020012010BD60
:1001F00001680B6823F00E030B6001680B6823F0A5
:1002000001030B6090F84030C46B012101FA03F345
:10021000636080F8211080F82020104610BD000097
:1002200010B590F821100024022903D00421816325
:1002300001243DE001680A6822F00E020A600168AC
:100240000A6822F001020A601A4A0168914201D14B
:10025000012121E0174A1432914201D110211BE003
:10026000144A2832914201D1891515E0114A3C32D5
:10027000914201D189140FE00E4A5032914202D1CD
:100280004FF4803108E00B4A6432914202D14FF4BE
:10029000801101E04FF08071064A083A5160012157
:1002A00080F82110002180F82010416B01B18847AF
:1002B000204610BD080002402DE9F05FC16B0C68BC
:1002C00001680B68D0F840C0042202FA0CF2494DD4
:1002D000DFF824A1494E4A4FDFF828B1DFF828E1C2
:1002E00022422CD05A072AD50A68920603D40A68FB
:1002F00022F004020A600168A94201D1042219E037
:10030000514501D1402215E0B14202D14FF4806243
:1003100010E0B94202D14FF480420BE0594502D1BE
:100320004FF4802206E0714502D14FF4800201E0D3
:100330004FF080622F4908394A60C16A3BE04FF0B4
:10034000020808FA0CF818EA040F4FF000094FF001
:10035000010235D05FEA837832D50B689B0605D45D
:100360000B6823F00A030B6080F821200168A94282
:1003700001D1022219E0514501D1202215E0B142FC
:1003800002D14FF4007210E0B94202D14FF4005292
:100390000BE0594502D14FF4003206E0714502D11D
:1003A0004FF4001201E04FF00072124908394A6020
:1003B00080F82090816A00291AD0BDE8F05F0847D4
:1003C000082505FA0CF5254212D01B0710D50B683D
:1003D00023F00E030B6090F84010C36B02FA01F19A
:1003E0005960826380F8212080F82090016BE2E759
:1003F000BDE8F09F080002401C00024030000240AF
:1004000044000240580002406C00024030B528B35E
:1004100008C8134914221944B1FBF2F18900C163E1
:1004200010498163022141771A6843F6F0718A43CB
:10043000D0E900142143D0E902452C43214304694B
:1004400021434469214384692143114319600021F8
:100450004163012242770177084630BD012030BD5B
:10046000F8FFFDBF0000024070B5044690F8200080
:10047000002501280CD0012084F8200094F8216088
:100480000020012E06D084F820000225284670BDE9
:10049000022070BD022684F82160A06320680668EF
:1004A00026F0010606602046FFF77EFEE06A00287F
:1004B0002068016802D041F00E0106E021F004013D
:1004C00001602068016841F00A010160206801684C
:1004D00041F001010160D9E770B5044600F004F96C
:1004E0000546601C02D004480078044400F0FCF883
:1004F000401BA042FAD370BD040000202DE9F84F44
:10050000DFF8B891002409F1040A0AF1040B23462C
:100510000F270BF1040EC9E00125A5402A40AA428D
:100520007DD1674ED1F804C0ACEB0608B44532D09B
:1005300014DCBCF1030F3AD009DCBCF1000F2AD067
:10054000BCF1010F1CD0BCF1020F31D11DE0BCF198
:10055000110F17D0BCF1120F2AD119E0B8F5881F7E
:1005600019D006DCB8F5803F15D0B8F5801F1FD133
:1005700011E0B8F5001F0ED0B8F5041F18D10AE03D
:10058000CB6815E0CB681B1D12E0CB6808330FE089
:10059000CB680C330CE08B682BB1012B4FF00803B8
:1005A00003D0456104E0042302E0056100E000237C
:1005B000FF2A01D8064601E000F104064FEA84054F
:1005C00001D9A5F12005D6F8008007FA05FC28EA34
:1005D0000C0803FA05F548EA0508C6F800804D68DE
:1005E000ED0062D5374DAE6946F00106AE61AD69EA
:1005F00024F0030605F001050095334D06EB050CCC
:10060000DCF80850A607360F07FA06F825EA0805B1
:10061000DFF8B880404503D14FF0000817E044E010
:10062000DFF8AC80404502D14FF001080FE0DFF861
:10063000A480404502D14FF0020808E0DFF898801E
:10064000404502D14FF0030801E04FF0040808FADA
:1006500006F848EA0508CCF808804D68D9F800602B
:10066000ED034D4601D5164300E096432E604D68DC
:10067000DAF80060AD03554601D5164300E0964315
:100680002E604D68DBF80060ED025D4601D5164333
:1006900000E096432E604D68DEF80060AD027546BE
:1006A00001D5164300E096432E60641C0D682A466F
:1006B000E5407FF431AFBDE8F88F00000004014051
:1006C000000011100010024000000140000801402D
:1006D000000C014000100140001401400AB101610A
:1006E00070470904FBE7000001488068704700007C
:1006F000040000200248816802781144816070473C
:1007000004000020074810B5016841F010010160A5
:10071000032000F079F8002000F006F800F024F83B
:10072000002010BD0020024070B50D4D04464FF46E
:100730007A712878B1FBF0F00A490968B1FBF0F052
:1007400000F0F0FA48B9102C07D200222146501EC2
:1007500000F03AF800206C6070BD012070BD000010
:1007600004000020100000200E4808B5816941F007
:1007700001018161816901F001010091C16941F0CC
:100780008051C161C06900F080500090052000F0E8
:100790003BF80548416821F0E06141F0007141609B
:1007A00008BD00000010024000000140002809DBE5
:1007B00000F01F02012191404009800000F1E0207B
:1007C000C0F8001170470000F0B40E4B1B680C46D7
:1007D000C3F30223C3F10705042D00D90425191D15
:1007E000072901D2002300E0DB1E012606FA05F1ED
:1007F000491E214099409E40761E16403143F0BC70
:1008000000F074BF0CED00E0064900F00702086834
:100810004FF6FF03184040EA0220034A10430860E5
:10082000704700000CED00E00000FA052DE9F047EC
:100830000F46050061D0434E306800F00700B84213
:1008400009D2306820F0070038433060306800F08B
:100850000700B84251D128683B4C810712D54007A8
:1008600003D5606840F4E06060602878000703D535
:10087000606840F4605060606068A96820F0F00033
:10088000084360602878C00728D06868012810D025
:100890002168022810D0890700292EDA616821F02A
:1008A000030101436160FFF71FFF804641F2883971
:1008B0000DE021688903EFE78901EDE7FFF714FFF9
:1008C000A0EB0801494502D90320BDE8F087606824
:1008D000696800F00C00B0EB810FEFD1306800F0D8
:1008E0000700B8420BD9306820F007003843306069
:1008F000306800F00700B84201D00120E5E7287811
:10090000400705D56068E96820F4E060084360604E
:100910002878000706D56068296920F4605040EA0D
:10092000C100606000F038F86168084AC1F3031143
:10093000515CC8400649086006480068FFF7F4FEAD
:100940000020C2E700200240001002409C1900086D
:10095000100000200800002004480549006849688C
:10096000044AC1F30221515CC840704710000020C6
:1009700000100240AC1900080448054900684968A5
:10098000044AC1F3C221515CC840704710000020E6
:1009900000100240AC19000812A185B00FC98DE803
:1009A0000F0014A0144A006804905168134801F025
:1009B0000C03042B10D0082B0ED1C1F38343C903C1
:1009C0001DF803000AD5516804AAC1F34041515CE7
:1009D0000A4A5043B0FBF1F005B07047084948435C
:1009E000FAE7000002030405060708090A0B0C0DCC
:1009F0000E0F1010010200000010024000127A00D9
:100A000000093D002DE9F84F040070D02078C04D5A
:100A1000C00749D06868C0F38100012807D0686822
:100A2000C0F38100022809D16868C00306D5286890
:100A3000800339D560680028E7D035E06068B0F5FC
:100A4000803F0BD010B1B0F5A02F11D0286820F452
:100A500080302860286820F4802002E0286840F474
:100A600080302860606890B1FFF73EFE06460AE0DD
:100A7000286840F480202860F0E700BFFFF734FECC
:100A8000801B642873D828688003F7D50CE0FFF733
:100A90002BFE064605E000BFFFF726FE801B6428FC
:100AA000F0D828688003F7D420789A4E80074FF05A
:100AB00001094FF0000839D5686810F00C0F07D015
:100AC0006868C0F38100022809D16868C00306D4B1
:100AD0002868800714D52069012808D110E0206912
:100AE000B0B1C6F80090FFF7FFFD074605E00AE148
:100AF000FFF7FAFDC01B0228C4D828688007F7D585
:100B00002868616920F0F80040EAC10028600DE023
:100B1000C6F80080FFF7E8FD074604E0FFF7E4FDB4
:100B2000C01B022823D828688007F7D42078000744
:100B30002CD57948A169D9B1C0F80090FFF7D4FD50
:100B4000074604E0FFF7D0FDC01B02280FD8686AF3
:100B50008007F7D571484FF4FA510068B0FBF1F007
:100B6000009000BF0098411E0091FAD20EE080E094
:100B7000C0F80080FFF7B8FD074604E0FFF7B4FDBA
:100B8000C01B022875D8686A8007F7D42078400710
:100B900060D5E8690027C00008D4E86940F08050BB
:100BA000E861E869012700F0805000905C48016826
:100BB000C90513D40168834641F480710160FFF7D1
:100BC00093FD824606E000BFFFF78EFDA0EB0A0012
:100BD00064284ED8DBF80000C005F5D5E068012890
:100BE0000AD008B1052813D0286A20F00100286235
:100BF000286A20F0040002E0286A40F00100286220
:100C0000E06841F2883B98B1FFF76EFD82460BE049
:100C1000286A40F004002862EEE700BFFFF764FD99
:100C2000A0EB0A0159455AD8286A8007F6D50CE08E
:100C3000FFF75AFD824605E0FFF756FDA0EB0A01DB
:100C400059454CD8286A8007F6D41FB1E86920F0CE
:100C50008050E861E06988B36968C1F381010229C5
:100C600044D00228C6F8608004D0FFF73DFD04465A
:100C700038E034E0FFF738FD074604E0FFF734FDC5
:100C8000C01B02282BD828688001F7D4206AB0F551
:100C9000803F05D16868A16820F40030084368608F
:100CA000D4E908010843696821F4741108436860B5
:100CB000C6F86090FFF718FD044606E025E000BF87
:100CC000FFF712FD001B022809D828688001F7D51C
:100CD0001BE000BFFFF708FD001B022802D903201C
:100CE000BDE8F88F28688001F4D40EE00128F7D021
:100CF0006868226A00F48031914204D1616A00F48C
:100D00007010884201D00120EAE70020E8E70000E7
:100D100000100240000042428004424210000020C5
:100D20000070004010B5401EB0F1807F01D301205B
:100D300010BD4FF0E02460610F21601700F0D6FC79
:100D40000020A06107202061002010BD704710B571
:100D500004460068416994F83D20C1F3C011212A7E
:100D60000BD151B1416921F080014161606B08B143
:100D7000FFF732FA204600F048FB2068416994F8FA
:100D80003E20C1F38011222A0BD151B1416921F0DB
:100D900040014161A06B08B1FFF71EFA204600F048
:100DA0001CFB002010BD7047F8B5026804461068AF
:100DB000D168536910F00F0F4FF0000554D003F0C5
:100DC000010601F4907737435FD0C20705D0CA050A
:100DD00003D5226C42F001022264420705D5DA07EE
:100DE00003D0226C42F002022264820705D5DA07A2
:100DF00003D0226C42F004022264020707D501F0FE
:100E00002002324303D0226C42F008022264226C9A
:100E1000002A35D0800604D5880602D5204600F089
:100E2000FDFA20684069216CC0F3801001F00801D0
:100E30000143204625D000F0D0FA206841694906D8
:100E40001BD5416921F040014161A06BA8B158490F
:100E50004163A06BFFF7E4F9002811D0A06B416B50
:100E600001B0BDE8F040084783060ED58B060CD5CF
:100E70002046BDE8F84000F0D1BA2046FFF793FFC6
:100E8000F8BDFFF790FF2564F8BD266B2023012EE7
:100E900052D1C60650D5CE064ED510685068009087
:100EA000506940062AD5A16B086840680004000C10
:100EB000EAD0A68D8642E7D9E0858869202818D037
:100EC000D06820F48070D0602068416921F0010171
:100ED00041612068416921F04001416184F83E3060
:100EE00025632068C16821F01001C160A06BFFF785
:100EF00073F9A08DE18D401A81B219E0A08DE18DCA
:100F0000401A81B2E08D0028BED00029BCD0D06844
:100F100020F49070D0602068426922F001024261A2
:100F200084F83E3025632068C26822F01002C26057
:100F30002046FFF70BFFF8BD05062BD50D0629D57A
:100F400094F83D002128F6D1A068B0F5805F01D16A
:100F50002069B0B1206A411C216221680078486094
:100F6000E08C401E0004000CE084E4D12068C168DD
:100F700021F08001C1602068C16841F04001C1607A
:100F8000F8BD206A0088C0F308005060206A801C09
:100F90002062E5E74006F3D54806F1D5D168204642
:100FA00021F04001D16084F83D3000F006F9F8BD31
:100FB0000D13000870B5040004D094F83D0000251E
:100FC00010B106E0012070BD84F83C50204600F0CE
:100FD00023F8242084F83D002068C16821F40051E2
:100FE000C160204600F076FA2068016921F4904142
:100FF00001612068416921F02A0141612068C168CE
:1010000041F40051C1602564202084F83D0084F83B
:101010003E00002070BD0000F0B585B000250646FA
:10102000009501950295039500682549884244D1B1
:101030002448816941F480418161816901F48041E2
:101040000491816941F00801816180691E4C00F0C2
:10105000080004904020009002200190032003909B
:1010600069462046FFF74AFA8027CDE900756946B0
:1010700020460295FFF742FA1448416841F0E061CA
:1010800041F004014160134C1148C4E90005C4E972
:10109000025725616561A5612046E561FFF7B6F954
:1010A00008B1FFF797F8B463012211462520666264
:1010B000FFF78AFB2520FFF779FB05B0F0BD0000A4
:1010C0000038014000100240000C014000000140C7
:1010D000580002405C01002090F83E30202B0ED1D9
:1010E00059B152B190F83C30012B08D0012380F85F
:1010F0003C300023036300F049BA0120704702200E
:1011000070477047704700002DE9F843044690F897
:101110003D001F4616460D4620284CD1C5B1BEB134
:1011200094F83C00012846D0012084F83C004FF0A0
:101130000008C4F84080212084F83D00FFF7D4FA6D
:10114000A6848146E684A068B0F5805F03D004E001
:101150000120BDE8F883206928B12E465FF0000524
:1011600084F83C800EE00026FAE78021204600F05B
:1011700045FAA0B9AEB116F8010B21684860E08CC1
:10118000401EE084E08C4B464FF0000200970028A0
:10119000EBD14FF04001204600F030FA30B103208F
:1011A000D7E735F8020BC0F30800E6E7202084F803
:1011B0003D000020CDE70220CBE77047FEE70000AE
:1011C000094808B5416941F00101416140690022C7
:1011D00000F00100009011460F20FFF7F5FABDE87E
:1011E00008400F20FFF7E2BA0010024070B586B049
:1011F00000241B480094019402940394816941F0F7
:1012000010018161816901F010010491816941F04F
:1012100020018161816901F020010491816941F01F
:1012200004018161816901F004010491816941F047
:10123000080181618069012200F00800094E550310
:10124000049029463046FFF749FA01210095CDE97F
:101250000114039169463046FFF750F906B070BD9E
:1012600000100240001001400C4810B50A4901600E
:101270004FF416414160002181600C22C160C0E939
:1012800004128161C161FFF795FE002803D0BDE81B
:101290001040FEF79FBF10BD00380140180100202C
:1012A000FEE7FEE770477047FFF724BA30B58FB00E
:1012B00028216846FEF73DFF14210AA8FEF739FFF2
:1012C00001210804CDE900100024029402250491B4
:1012D000CDE907504FF4E01009906846FFF792FB04
:1012E00008B172B6FEE70F20CDE90A054FF4806021
:1012F000CDE90C4002210AA80E94FFF797FA0028C6
:1013000001D072B6FEE70FB030BD704710B5406A2D
:101310000021C185C184FFF746FD10BD70B5446A48
:101320002068406994F83D10C0F3C01000252129C1
:1013300004D118B1E584204600F067F820684069C0
:1013400094F83E10C0F38010222904D118B1E5852D
:10135000204600F042F8206C40F010002064204647
:10136000FFF721FD70BD10B50146406A09680968A4
:1013700089061BD40021C1850168CA6822F48072E5
:10138000CA6001684A6922F001024A6101684A693B
:1013900022F040024A61202180F83E10016B0129B1
:1013A00004D10168CA6822F01002CA60016B0129E9
:1013B00002D0FFF7A6FE10BD818DFFF7C7FC10BD60
:1013C00010B5406A016B012902D0FFF79BFE10BDEA
:1013D000818D4908FFF7BAFC10BD0168CA6822F484
:1013E0009072CA6001684A6922F001024A61016B89
:1013F000012904D10168CA6822F01002CA602021C4
:1014000080F83E100021016370470168CA6822F02D
:10141000C002CA60202180F83D10704708B590F8DE
:101420003E10222901D0022008BD82684FF480536B
:101430009A4201D1016921B1816A9A421BD04AB115
:101440000AE00268816A5268C2F308020A80816A6F
:10145000891C08E0026972B10268526802F07F02DA
:101460000A70816A491C8162C18D491E0904090CF8
:10147000C18503D019E002685268F1E70168CA68C3
:1014800022F02002CA600168CA6822F48072CA6031
:1014900001684A6922F001024A61202180F83E1069
:1014A000016B012903D0FFF72CFE002008BD0021AD
:1014B00001630168CA6822F01002CA6001680A6804
:1014C000D20602D50A6849680091818DFFF73EFC7B
:1014D000EBE7000070B5044600680169E26821F49A
:1014E0004051114301612169A068084361690843C3
:1014F0002168CA6841F20C639A430243CA602068BB
:101500004169A26921F44071114341611E4920687B
:10151000884202D1FFF730FA01E0FFF71DFA00EB35
:10152000C00101EB0012606864218000B2FBF0F39F
:10153000B3FBF1F36FF018067343B2FBF0F5B2FBA7
:10154000F0F605EB8305322303EB0515B5FBF1F54A
:10155000B6FBF1F605F0F00505EB0615B2FBF0F66B
:10156000B2FBF0F0B0FBF1F06FF01802504306EB65
:10157000800003EB0010B0FBF1F0216800F00F00D9
:101580002844886070BD00000038014038B5816291
:1015900082850025134604460564222084F83E0017
:1015A000A26B13489062A26B1248D062A26B1248E1
:1015B0001063A06B0A4645632168A06B091DFEF706
:1015C00053FF206801684168009184F83C50C1686D
:1015D00041F48071C1602068416941F001014161BD
:1015E0002068416941F040014161002038BD0000A0
:1015F00067130008C11300081D1300082DE9F0410E
:10160000984617460E460446069D1DE0681C1BD0F2
:101610002DB1FFF769F8A0EB0800A84214D92068A3
:10162000C16821F4D071C1602068416921F00101D5
:101630004161202084F83D0084F83E00002084F8B9
:101640003C000320BDE8F0812068006836EA000015
:1016500004D00020B842D9D00020F3E70120F9E7F8
:1016600038B51449144C0120087020680168C9433A
:10167000C90614D401680025406800902046FFF791
:1016800066FB206801680D4940680D4800684068A5
:10169000C0F1FF00C0B208700A4908440560FF228B
:1016A00008490548FFF718FDBDE838400248FFF734
:1016B0007BBB00000100002018010020000000207A
:1016C0005C01002018000020FEE700000FB4054B6D
:1016D00010B503A9044A029800F028F810BC5DF880
:1016E00014FB0000E5180008140000200907090E8B
:1016F000002804DB00F1E02080F80014704700F0BF
:101700000F0000F1E02080F8141D704702E008C8C7
:10171000121F08C1002AFAD170477047002001E06B
:1017200001C1121F002AFBD1704700002DE9FF4FB5
:101730008BB09A460F460546002606E025280BD0BA
:1017400052460D9990476D1C761C28780028F5D1DB
:101750000FB03046BDE8F08F0024A046012260495A
:1017600000E0044315F8013F203B02FA03F0084271
:10177000F7D128782E2817D115F8010F44F004046A
:101780002A280ED06FF02F022878A0F13001092905
:101790000AD808EB880102EB410100EB01086D1C3F
:1017A000F2E757F8048B6D1C287869283ED006DCD8
:1017B0000028CDD063280BD0642804D136E07328EC
:1017C00010D075284BD052460D999047761C85E075
:1017D00017F8040B8DF8000000208DF80100E94691
:1017E000012003E057F8049B4FF0FF3061074FF0F2
:1017F000000401D40AE0641C44450DDA8442FADB9B
:1018000019F804100029F6D106E0641C8442FCDBC0
:1018100019F804100029F8D1264404E019F8010B46
:1018200052460D999047641EF8D257E001CF4FF011
:101830000A0B002802DA40422D2102E0210504D5DE
:101840002B218DF82410012103E0E10705D0202190
:10185000F7E70DF1200908910CE00021F9E701CF2D
:101860004FF00A0BF9E75946FEF76EFC01F1300222
:1018700009F8012D0028F6D1ADEB090000F1200B8D
:10188000600701D44FF00108D84502DDA8EB0B003A
:1018900000E000208046002406E009A85246005DD2
:1018A0000D999047641C761C08988442F5DB04E08F
:1018B000302052460D999047761CB8F10001A8F1EE
:1018C0000108F5DC05E019F8010B52460D99904727
:1018D000761CBBF10001ABF1010BF4DC6D1C34E7AD
:1018E0000928010013B54FF6FF730122694602482B
:1018F000FFF70AFC00981CBD18010020FEF702FF4C
:10190000FFF7D4FCFFF772FCFFF75AFCFFF7ACFCC3
:1019100010480068C16841F01001C160FF220E4903
:101920000C48FFF7D9FB0D4C00254FF47A76607810
:10193000012808D165700AA0FFF7C8FE2278064981
:101940000DA0FFF7C3FE11A0FFF7C0FE3046FEF763
:10195000C3FDECE718010020180000200000002063
:101960006861732072656365697665642074686573
:1019700020646174610D0A00646174613A2573200A
:101980006C656E6774683A25640D0A0048656C6C76
:101990006F576F726C640D0A0000000000000000B9
:1019A000000000000102030406070809000000000F
:1019B00001020304D41900080000002018000000F0
:1019C0000C170008EC19000818000020880500001A
:1019D0001C170008000000000100000010000000BB
:0C19E000000000000024F40000000000E3
:04000005080000ED02
:00000001FF
