:020000040800F2
:10000000A0040020010100081B13000827120008AB
:1000100019130008FD070008A114000800000000E3
:100020000000000000000000000000001F13000896
:10003000FF070008000000001D130008211300083E
:100040001B0100081B0100081B0100081B01000820
:100050001B0100081B0100081B0100081B01000810
:100060001B0100081B0100081B0100081B01000800
:100070001B0100081B0100081B0100081B010008F0
:100080001B0100081B0100081B0100081B010008E0
:100090001B0100081B0100081B0100081B010008D0
:1000A0001B0100081B0100081B0100081B010008C0
:1000B0001B0100081B0100081B0100081B010008B0
:1000C0001B0100081B0100081B0100081B010008A0
:1000D0001B0100081B0100081B0100081B01000890
:1000E0001B0100081B0100081B010008DFF80CD0F1
:1000F00000F00AFB004800473D270008A00400204C
:100100000648804706480047FEE7FEE7FEE7FEE7B1
:10011000FEE7FEE7FEE7FEE7FEE7FEE783130008E3
:10012000ED000008202A04DB203A21FA02F0002129
:10013000704721FA02F3D040C2F1200291400843F7
:1001400019467047D2B201E000F8012B491EFBD2DC
:1001500070470022F6E710B513460A4604461946D2
:10016000FFF7F0FF204610BD2DE9FE4F81EA0304A2
:1001700004F0004421F0004100944FF0000B23F004
:10018000004350EA01045ED052EA03045BD0C3F39B
:100190000A54C1F30A552C44A4F2F3340194A0FB91
:1001A0000254C1F3130141F48011C3F3130343F468
:1001B000801301FB024400FB034E840A970A44EAC1
:1001C000815447EA8357A4FB076802958D0A05FB13
:1001D00007854FEA932C04FB0C542705029D4FEA38
:1001E000065847EA1637B5EB08056EEB070C870E85
:1001F000920E47EA811742EA8312A7FB0201B6EB8F
:100200000B0164EB00042B0D43EA0C335E1844EB46
:100210001C50DA465146E7FB0201C5F313044FEACE
:100220000B3343EA14534FEA0432019C43EA0603BA
:10023000A4F10C040294009CCDE900B400F0CFF8C6
:1002400003B0BDE8F08F00200146F9E70EB540F29B
:10025000334102910021CDE900110A460B4600F01E
:10026000BEF803B000BD00F0004230F000400AD0FC
:10027000C10D01F56071C0F3160042EA0151C208D8
:1002800040071143704700200146704701F00043CA
:1002900030B421F0004150EA010206D00A0DA2F567
:1002A0006072C1F31301002A02DC30BC00207047E9
:1002B000440F44EAC104C100E01830BC00EBC25056
:1002C00000F047B830B50B4601460020202201243B
:1002D00009E021FA02F59D4205D303FA02F5491B14
:1002E00004FA02F52844151EA2F10102F1DC30BD2A
:1002F0002DE9F05F0546002092469B46884606465B
:10030000814640241BE02846414647462246FFF7E7
:1003100009FF53465A46C01A914110D31146184658
:10032000224600F003FA2D1A67EB01084F462246D9
:100330000120002100F0FAF917EB00094E41201EC0
:10034000A4F10104DFDC484631462A464346BDE8B5
:10035000F09F0029A8BF7047401C490008BF20F04B
:100360000100704710B4B0FA80FC00FA0CF050EABB
:10037000010404BF10BC704749B1CCF1200421FA3C
:1003800004F411FA0CF118BF012121430843A3EB37
:100390000C01CB1D4FEA00614FEA102042BF002044
:1003A00010BC704700EBC35010440029A4BF10BC20
:1003B0007047401C490008BF20F0010010BC704786
:1003C00010B5141E73F1000408DA401C41F100015D
:1003D00092185B411A4301D120F0010010BD2DE9B4
:1003E000F04D92469B4611B1B1FA81F202E0B0FAAB
:1003F00080F22032904600F099F904460F4640EA18
:100400000A0041EA0B0153465A46084313D01146ED
:1004100053EA010019D0C8F140025046FFF782FEAE
:1004200005460E4650465946424600F07FF90843BD
:1004300005D0012004E020463946BDE8F08D0020BB
:10044000054346EAE0762C4337430A986305E40AFD
:10045000A0EB08000022FD0A44EA47540A3002D506
:1004600000200146E9E7010510196941DDE9084569
:1004700000196941BDE8F04DA2E72DE9FE4F804625
:1004800081EA0300C00F0C46009021F0004123F0E8
:100490000045B8EB0200A94105D2404621469046EE
:1004A0001C460B46024623F00040104347D0270D60
:1004B000C7F30A00C3F30A510290401A0190402882
:1004C0006BDAC3F3130040F4801B0098924620B10E
:1004D0000023D2EB030A63EB0B0B01985946C0F1E2
:1004E0004002504600F022F906460D465046594655
:1004F000019A00F02AF910EB08006141002487EA14
:10050000115284EAE7731A4340D0009A62B3019A09
:10051000012A4FEA075215DC001B61EB02014FF084
:10052000004202EA0752CDE90042001C41F5801169
:1005300032462B46FFF753FF03B0BDE8F08F40462D
:100540002146F9E7001B61EB0201001C41F5801315
:1005500000185B412018A2F5001747EB030140EAA1
:10056000D570B6196D4111E06D084FEA360645EABF
:10057000C0754FEA0752001B61EB0201001C41F5F8
:10058000801149084FEA30000019514132462B468C
:1005900003B0BDE8F04FFFF713BF00980122400001
:1005A0000023D0EB020263EBE073009821464FEA90
:1005B000E074B8EB000061EB0401E9E783F000436D
:1005C0005BE781F0004158E72DE9F04D81EA030433
:1005D00004F0004B21F0004514464FF0000A23F0D0
:1005E000004150EA050220D054EA01021DD0C5F3B3
:1005F0000A570246C5F31303C1F31300C1F30A56A9
:1006000040F4801543F48013A7EB0608101BD64670
:1006100008F2FD3873EB050002D308F1010801E090
:1006200092185B41B8F1000F03DA00200146BDE8E3
:10063000F08D00204FF48011064684460EE0171B13
:1006400073EB050705D3121B63EB050306434CEA66
:10065000010C49084FEA300092185B4150EA01074B
:10066000EDD152EA030012D082EA040083EA0501C8
:10067000084305D0101BAB4106D20122002306E03F
:1006800000224FF0004302E06FF0010253101AEB1A
:1006900006004CEB085110EB0A0041EB0B01BDE8E2
:1006A000F04DFFF78DBEC1F30A52C1F3130140F2C2
:1006B000FF3341F480119A4202DA0020014670476C
:1006C00040F233439A42A2F2334202DC5242FFF735
:1006D00029BD00F02BB8000030B5041E71F10004F4
:1006E00004DB4FF00044404264EB0101141E73F13F
:1006F000000405DB1C464FF00043524263EB040349
:10070000994208BF904230BD064C074D06E0E068B4
:1007100040F0010394E8070098471034AC42F6D348
:10072000FFF7E8FC982A0008B82A0008202A04DB12
:10073000203A00FA02F1002070479140C2F12003F4
:1007400020FA03F3194390407047202A06DBCB17A9
:10075000203A41FA02F043EAE07306E041FA02F37C
:10076000D040C2F12002914008431946704770B54D
:1007700021F0004303430CD0C1F30A550024D5EB0C
:10078000040564EB0403D617AD1AB34102DB002065
:10079000014670BD201841EB025170BD0EB5C10F6E
:1007A00080EAE0700844CA07002140F233438DE834
:1007B0000E000A460B46FFF712FE03B000BD70B5EF
:1007C000C1F30A5201F000450024C1F3130140F2C5
:1007D000FF3341F480119A4201DA002070BD40F2EB
:1007E00033439A42A2F2334203DC5242FFF79AFCAF
:1007F00000E090402C43F1D0404270BDFEE77047CE
:1008000072B6FEE770B5044600F004F90546601CB8
:1008100002D004480078044400F0FCF8401BA042D9
:10082000FAD370BD000000202DE9F84FDFF8B89131
:10083000002409F1040A0AF1040B23460F270BF1E7
:10084000040EC9E00125A5402A40AA427DD1674E89
:10085000D1F804C0ACEB0608B44532D014DCBCF1CE
:10086000030F3AD009DCBCF1000F2AD0BCF1010F14
:100870001CD0BCF1020F31D11DE0BCF1110F17D01B
:10088000BCF1120F2AD119E0B8F5881F19D006DC87
:10089000B8F5803F15D0B8F5801F1FD111E0B8F52D
:1008A000001F0ED0B8F5041F18D10AE0CB6815E080
:1008B000CB681B1D12E0CB6808330FE0CB680C330C
:1008C0000CE08B682BB1012B4FF0080303D045617E
:1008D00004E0042302E0056100E00023FF2A01D8C0
:1008E000064601E000F104064FEA840501D9A5F1AE
:1008F0002005D6F8008007FA05FC28EA0C0803FA60
:1009000005F548EA0508C6F800804D68ED0062D597
:10091000374DAE6946F00106AE61AD6924F00306BD
:1009200005F001050095334D06EB050CDCF8085089
:10093000A607360F07FA06F825EA0805DFF8B8809B
:10094000404503D14FF0000817E044E0DFF8AC80E9
:10095000404502D14FF001080FE0DFF8A480404588
:1009600002D14FF0020808E0DFF89880404502D13C
:100970004FF0030801E04FF0040808FA06F848EACF
:100980000508CCF808804D68D9F80060ED034D46A5
:1009900001D5164300E096432E604D68DAF80060FA
:1009A000AD03554601D5164300E096432E604D68D1
:1009B000DBF80060ED025D4601D5164300E096438A
:1009C0002E604D68DEF80060AD02754601D5164315
:1009D00000E096432E60641C0D682A46E5407FF4D3
:1009E00031AFBDE8F88F0000000401400000111095
:1009F000001002400000014000080140000C0140CE
:100A000000100140001401400AB10161704709045F
:100A1000FBE70000014880687047000000000020EC
:100A2000024881680278114481607047000000200C
:100A3000074810B5016841F010010160032000F083
:100A400067F80F2000F006F800F024F8002010BD31
:100A50000020024070B50D4D04464FF47A7128789D
:100A6000B1FBF0F00A490968B1FBF0F000F0DEFAE2
:100A700048B9102C07D200222146501E00F028F859
:100A800000206C6070BD012070BD000000000020DF
:100A90000C0000200C4808B5816941F0010181611A
:100AA000816901F001010091C16941F08051C1618A
:100AB000C06900F0805000900448416821F0E06176
:100AC00041F00071416008BD00100240000001408B
:100AD000F0B40E4B1B680C46C3F30223C3F10705A9
:100AE000042D00D90425191D072901D2002300E097
:100AF000DB1E012606FA05F1491E214099409E4061
:100B0000761E16403143F0BC00F0F0BC0CED00E066
:100B1000064900F0070208684FF6FF03184040EA54
:100B20000220034A10430860704700000CED00E00B
:100B30000000FA052DE9F0470F46050061D0434E4D
:100B4000306800F00700B84209D2306820F0070092
:100B500038433060306800F00700B84251D128684F
:100B60003B4C810712D5400703D5606840F4E06034
:100B700060602878000703D5606840F460506060CA
:100B80006068A96820F0F000084360602878C0071A
:100B900028D06868012810D02168022810D0890761
:100BA00000292EDA616821F0030101436160FFF73B
:100BB00031FF804641F288390DE021688903EFE773
:100BC0008901EDE7FFF726FFA0EB0801494502D9AF
:100BD0000320BDE8F0876068696800F00C00B0EBA6
:100BE000810FEFD1306800F00700B8420BD93068B0
:100BF00020F0070038433060306800F00700B8424A
:100C000001D00120E5E72878400705D56068E9684C
:100C100020F4E060084360602878000706D560682B
:100C2000296920F4605040EAC100606000F038F8A3
:100C30006168084AC1F30311515CC8400649086065
:100C400006480068FFF706FF0020C2E700200240C8
:100C500000100240FC2800080C00002004000020C6
:100C60000448054900684968044AC1F30221515CFF
:100C7000C84070470C000020001002400C290008FA
:100C80000448054900684968044AC1F3C221515C1F
:100C9000C84070470C000020001002400C290008DA
:100CA00012A185B00FC98DE80F0014A0144A006886
:100CB00004905168134801F00C03042B10D0082B4A
:100CC0000ED1C1F38343C9031DF803000AD551684F
:100CD00004AAC1F34041515C0A4A5043B0FBF1F011
:100CE00005B0704708494843FAE7000002030405CD
:100CF000060708090A0B0C0D0E0F10100102000068
:100D00000010024000127A0000093D002DE9F84F62
:100D1000040070D02078C04DC00749D06868C0F387
:100D20008100012807D06868C0F38100022809D13A
:100D30006868C00306D52868800339D56068002834
:100D4000E7D035E06068B0F5803F0BD010B1B0F56A
:100D5000A02F11D0286820F480302860286820F463
:100D6000802002E0286840F480302860606890B1FC
:100D7000FFF750FE06460AE0286840F4802028600D
:100D8000F0E700BFFFF746FE801B642873D8286891
:100D90008003F7D50CE0FFF73DFE064605E000BFF7
:100DA000FFF738FE801B6428F0D828688003F7D44A
:100DB00020789A4E80074FF001094FF0000839D58E
:100DC000686810F00C0F07D06868C0F38100022833
:100DD00009D16868C00306D42868800714D5206943
:100DE000012808D110E02069B0B1C6F80090FFF7E3
:100DF00011FE074605E00AE1FFF70CFEC01B0228C2
:100E0000C4D828688007F7D52868616920F0F80001
:100E100040EAC10028600DE0C6F80080FFF7FAFD47
:100E2000074604E0FFF7F6FDC01B022823D8286818
:100E30008007F7D4207800072CD57948A169D9B16B
:100E4000C0F80090FFF7E6FD074604E0FFF7E2FD7B
:100E5000C01B02280FD8686A8007F7D571484FF485
:100E6000FA510068B0FBF1F0009000BF0098411EFD
:100E70000091FAD20EE080E0C0F80080FFF7CAFDD2
:100E8000074604E0FFF7C6FDC01B022875D8686A54
:100E90008007F7D42078400760D5E8690027C000B4
:100EA00008D4E86940F08050E861E869012700F063
:100EB000805000905C480168C90513D401688346DE
:100EC00041F480710160FFF7A5FD824606E000BF96
:100ED000FFF7A0FDA0EB0A0064284ED8DBF8000065
:100EE000C005F5D5E06801280AD008B1052813D05F
:100EF000286A20F001002862286A20F0040002E03D
:100F0000286A40F001002862E06841F2883B98B10D
:100F1000FFF780FD82460BE0286A40F0040028625B
:100F2000EEE700BFFFF776FDA0EB0A0159455AD85E
:100F3000286A8007F6D50CE0FFF76CFD824605E0D5
:100F4000FFF768FDA0EB0A0159454CD8286A8007D5
:100F5000F6D41FB1E86920F08050E861E06988B3F9
:100F60006968C1F38101022944D00228C6F8608073
:100F700004D0FFF74FFD044638E034E0FFF74AFDA8
:100F8000074604E0FFF746FDC01B02282BD828685F
:100F90008001F7D4206AB0F5803F05D16868A16868
:100FA00020F4003008436860D4E908010843696808
:100FB00021F4741108436860C6F86090FFF72AFDB9
:100FC000044606E025E000BFFFF724FD001B0228D1
:100FD00009D828688001F7D51BE000BFFFF71AFD8C
:100FE000001B022802D90320BDE8F88F2868800181
:100FF000F4D40EE00128F7D06868226A00F480314A
:10100000914204D1616A00F47010884201D001203D
:10101000EAE70020E8E7000000100240000042423A
:10102000800442420C0000200070004010B5401EB9
:10103000B0F1807F01D3012010BD4FF0E02460614A
:101040000F21601700F052FA0020A06107202061F4
:10105000002010BD70B5040004D094F83D000025B8
:1010600010B106E0012070BD84F83C50204600F02D
:1010700023F8242084F83D002068C16821F4005141
:10108000C160204600F07EF92068016921F490419A
:1010900001612068416921F02A0141612068C1682D
:1010A00041F40051C1602564202084F83D0084F89B
:1010B0003E00002070BD000070B586B00024009492
:1010C00001940294039403682648254E02210322CA
:1010D0000515B3421ED1836943F48043836183695C
:1010E00003F480430493836943F0040383618069BC
:1010F0001D4E00F0040004900802CDE900010392A7
:1011000069463046FFF790FBCDE90054694630460A
:10111000029420E0154EB3421FD1C36943F48023EB
:10112000C361C36903F480230493836943F0080314
:1011300083618069CDE9005100F00800CDE903200A
:101140000B4D69462846FFF76FFBE814CDE9000414
:10115000694628460294FFF767FB06B070BD0000A1
:1011600000380140001002400008014000480040E3
:10117000000C01402DE9F843044690F83D001F465D
:1011800016460D4620284CD1C5B1BEB194F83C009E
:10119000012846D0012084F83C004FF00008C4F834
:1011A0004080212084F83D00FFF734FCA68481466E
:1011B000E684A068B0F5805F03D004E00120BDE8BC
:1011C000F883206928B12E465FF0000584F83C8042
:1011D0000EE00026FAE78021204600F02FF9A0B9A2
:1011E000AEB116F8010B21684860E08C401EE08427
:1011F000E08C4B464FF0000200970028EBD14FF0F7
:101200004001204600F01AF930B10320D7E735F845
:10121000020BC0F30800E6E7202084F83D00002020
:10122000CDE70220CBE7FEE770B586B000241C486E
:101230000094019402940394816941F0100181614A
:10124000816901F010010491816941F020018161FF
:10125000816901F020010491816941F008018161F7
:10126000816901F008010491816941F00401816103
:101270008069012200F004000A4E550304902946BB
:101280003046FFF7C1FB01200095CDE901040220A3
:10129000039069463046FFF7C7FA06B070BD0000FC
:1012A00000100240001001400C4810B50A490160CE
:1012B0004FF416514160002181600C22C160C0E9E9
:1012C00004128161C161FFF7C5FE002803D0BDE8AB
:1012D0001040FFF795BA10BD0038014018000020FB
:1012E0000C4810B50A4901604FF4E131416000211A
:1012F00081600C22C160C0E904128161C161FFF705
:10130000A9FE002803D0BDE81040FFF779BA10BD50
:10131000004800405C000020FEE7FEE77047704791
:10132000FFF77EBB30B58FB028216846FEF711FF6E
:1013300014210AA8FEF70DFF01210804CDE90010D1
:101340000024029402250491CDE907504FF4E010E7
:1013500009906846FFF7DAFC08B172B6FEE70F2085
:10136000CDE90A054FF48060CDE90C4002210AA8BE
:101370000E94FFF7DFFB002801D072B6FEE70FB036
:1013800030BD704770B5044600680169E26821F419
:101390004051114301612169A06808436169084314
:1013A0002168CA6841F20C639A430243CA6020680C
:1013B0004169A26921F44071114341611E492068CD
:1013C000884202D1FFF75CFC01E0FFF749FC00EB2B
:1013D000C00101EB0012606864218000B2FBF0F3F1
:1013E000B3FBF1F36FF018067343B2FBF0F5B2FBF9
:1013F000F0F605EB8305322303EB0515B5FBF1F59C
:10140000B6FBF1F605F0F00505EB0615B2FBF0F6BC
:10141000B2FBF0F0B0FBF1F06FF01802504306EBB6
:10142000800003EB0010B0FBF1F0216800F00F002A
:101430002844886070BD0000003801402DE9F0416B
:10144000984617460E460446069D1DE0681C1BD0B4
:101450002DB1FFF7DFFAA0EB0800A84214D92068ED
:10146000C16821F4D071C1602068416921F0010197
:101470004161202084F83D0084F83E00002084F87B
:101480003C000320BDE8F0812068006836EA0000D7
:1014900004D00020B842D9D00020F3E70120F9E7BA
:1014A000FEE700000FB4054B10B503A9044A0298EB
:1014B00000F052FD10BC5DF814FB00002527000869
:1014C00010000020490050EAC12018BF04204A0D36
:1014D00018BF40F0010040F2FF72B2EB515F08BF4D
:1014E00040F00200012808BF052070470907090ED7
:1014F000002804DB00F1E02080F80014704700F0C1
:101500000F0000F1E02080F8141D70472DE9F74F1F
:10151000144694B00021C4E902111599079121F0F5
:101520000045C9498D4206DC1599C4E9000117B090
:101530000020BDE8F08FC549DFF814A3A9423CDDC7
:101540000799C44E0029C44FC44A1599534619DD62
:10155000FFF734F8554506D0C14AC24BFFF72EF8C5
:10156000C4E900010AE04FF0D352BE4BFFF726F862
:1015700032463B46FFF722F8C4E9000117B00120CC
:10158000BDE8F08FFEF779FF554506D0B44AB54B5C
:10159000FEF773FFC4E900010AE04FF0D352B14BEC
:1015A000FEF76BFF32463B46FEF767FFC4E90001DA
:1015B00017B04FF0FF30BDE8F08FAB49A942159945
:1015C00078DB21F0004183468846A84AA84BFEF705
:1015D000CBFD0022A74BFEF750FFFFF7F0F8099074
:1015E000FFF7DCF806460F469C4A5346FEF7BCFD63
:1015F00043465A46FEF7E5FF80468A46984A994B8D
:1016000030463946FEF7B0FD2A0D01250B924246C1
:101610005346FEF7D6FF032DC4E9000139D00B98DD
:10162000C1F30A51401A05EB45111139814230DAF4
:101630009148C346784400EB0510CDF80CA00C90FF
:10164000D0E9002330463946FEF78EFD02460B46B0
:101650000491069058460399FEF7B0FF80468A46EB
:1016600002460B4658460399FEF7A8FF049B069ACC
:10167000FEF7A4FF83460C9803913946D0E9022374
:101680003046FEF771FD5A46039BFEF797FF6D1C2F
:10169000BDE707980028A2BF099817B0BDE8F08FF2
:1016A000616881F000416160099817B04042BDE86F
:1016B000F08FFFE784461598C1F31301C0F30A5079
:1016C000A0F2F5304FEA601800F01F06C6F12000C6
:1016D000139000200690079041F4801E05206D466F
:1016E00076B1664A08EB00017A4452F8213002EBE9
:1016F0008101B3404A68139922FA01F1194305E0C8
:101700005F4908EB0002794451F82210A1FB0E2733
:10171000A1FB0C131A449A4234BF0123002303EBAC
:10172000070A05EB8003D3E901B70F448F4234BFAA
:101730000121002193448B4411B1934502D903E068
:10174000934501D2012100E00021C3E901B75144D2
:1017500045F82010011EA0F10100C1DC0298059F90
:1017600000F10050800F12900298DDE903568000CE
:10177000FFF714F8834628460D91FEF767FD6FF0DA
:101780001D02FEF7F4FFCDE90E013046FEF75EFDC7
:101790006FF03D02FEF7EBFF80468A463846FEF7C3
:1017A00055FD6FF05D02FEF7E2FF074642465346E5
:1017B0001191FEF762FEDDE90E23FEF75EFE5A464A
:1017C0000D9BFEF75AFE00250E465A4628460D9BF5
:1017D000FEF7F4FEDDE90E23FEF7F0FE4246534627
:1017E000FEF7ECFE3A46119BFEF7EBFEDFF898A001
:1017F000244A5346FEF7B8FC07468846234A244B42
:1018000031462846FEF7B0FC3A464346FEF735FE21
:10181000074688464FF0A842534631462846FEF711
:10182000A3FC3A464346FEF728FE159A12F0004FF5
:1018300004D0129A81F0004152421292C4E9000190
:10184000129817B0BDE8F08FFB21E93F7CD9024028
:10185000FB21F93F7370032E8A19A33B000040540B
:101860003163621A61B4D03DFB21394183C8C96D2F
:10187000305FE43F0000E03F101300008C120000D6
:101880006E120000182D4454FB21F93D3326A61199
:10189000460B113C2DE9FF4D21F0004807460C4650
:1018A000B8F1795F08DAFEF78AFF002801BF00204F
:1018B000324904B0BDE8F08D3A4623461046194639
:1018C000FEF752FC054602462D480E460B46062101
:1018D000784400F05DF82A463346FEF745FCDDE922
:1018E000022382468B4638462146FEF73DFC0446DD
:1018F0000F4652465B4628463146FEF735FC2246E7
:101900003B46FEF75BFE07468A464FF0FF3228460D
:101910003146FEF72CFF1B4A90450ADA3A465346F9
:10192000FEF74CFE04B00022BDE8F04D134BFEF76D
:1019300048BE154A4245A8BFA8F500154FF000045F
:10194000B8BF124D22462B46FEF738FE06468846A3
:1019500022462B4600200949FEF730FE04460D467C
:101960003A46534630464146FEF728FE04B022462A
:101970002B46BDE8F04DFEF724BE00000000F03F0E
:10198000441000003333D33F0000E93F0000D23F52
:101990002DE9F0414F1E00EBC7010446D1E90001DB
:1019A00015461E4637F006020DD02A463346FEF78E
:1019B000DBFB7F1E04EBC703D3E90023FEF75DFDCD
:1019C00037F00602F1D1022F25D0042F13D0062FB5
:1019D00018BFBDE8F0812A463346FEF7C5FBD4E9BF
:1019E0000A23FEF74AFD2A463346FEF7BDFBD4E93B
:1019F0000823FEF742FD2A463346FEF7B5FBD4E93D
:101A00000623FEF73AFD2A463346FEF7ADFBD4E93E
:101A10000423FEF732FD2A463346FEF7A5FBD4E940
:101A20000223FEF72AFD2A463346FEF79DFBD4E942
:101A30000023BDE8F041FEF720BD00002DE9FF4D79
:101A4000054621F0004084B00C46B0F1795F0BDA16
:101A50002846FFF737FD042808BF00F0ADF92846F7
:101A600008B02146BDE8F08D2A460B461046FEF729
:101A70007BFB06460F462A462346FEF775FB80464B
:101A800026488A4632463B4605217844FFF780FFC8
:101A900083461098029160B3214A224B404651463A
:101AA000FEF762FBCDE900015A4640465146029BD3
:101AB000FEF75AFB82468846DDE906014FF0FF3209
:101AC000FEF755FE52464346FEF778FD32463B464A
:101AD000FEF74AFBDDE90623FEF770FDDDE9002392
:101AE000FEF76CFD08B02A462346BDE8F04DFEF730
:101AF00068BD0B465A4630463946FEF735FB084A64
:101B0000084BFEF7BAFC42465346FEF72DFB08B0E1
:101B10002A462346BDE8F04DFEF7AFBC820F000019
:101B2000495555555555C5BF2DE9F04D04468CB066
:101B3000904821F00047164698460D460991874285
:101B400006DA20462946FEF73AFE002800F0AE806D
:101B50008948B8421CDC09980028BCBF85F00045C4
:101B600088F00048854A864B20462946FEF729FD25
:101B700004460D463246434682488349FEF71EFD21
:101B800022462B46FEF779FC002604460D46B04659
:101B900022462B4610461946FEF7E6FA8B46824649
:101BA00002460B46FEF7E0FA0246089077480B46DD
:101BB000009106217844FFF7EBFECDE9031074484D
:101BC00006217844009B089AFFF7E2FE52465B46E6
:101BD000FEF7CAFACDE9051052465B462046294673
:101BE000FEF7C2FA07910090DDE90310DDE9053246
:101BF000FEF743FC079B009AFEF7B6FA32464346CF
:101C0000FEF73BFC52465B46FEF7AEFA32464346D1
:101C1000FEF733FC80460E465E4A5F4B07990098FC
:101C2000FEF7A2FA42463346FEF727FC82468B4671
:101C300022462B46FEF721FC80464F480E46B8420E
:101C400014985BDCFEF7AAFD074642463346059131
:101C5000FEF713FCCDE90110424633461046194603
:101C6000FEF782FADDE90132FEF7AEFC52465B4632
:101C7000FEF7A4FC22462B46FEF7A3FC0122FEF74A
:101C800076FD3A46059BFEF79CFC04460D460998F6
:101C9000022101EAA070C0F10100FEF77FFD0CB047
:101CA00022462B46BDE8F04DFEF75EBA1498401C64
:101CB000384320430BD01498012812D00CB0224690
:101CC0002B46BDE8F04D00203449FEF77DBC0CB03A
:101CD00025F000432246BDE8F04D00203049FEF7D4
:101CE00073BC20462946FFF7EDFB042808BF00F02F
:101CF00063F820460CB02946BDE8F08D012802BFEC
:101D000040460CB0BDE8F08D00270B463A46204611
:101D10002946FEF756FC52465B46FEF752FC044647
:101D20000D464246334600201C49FEF74DFC8346D3
:101D30003A46884633461046FEF716FA0022184BFC
:101D4000FEF79BFB06468A4622462B46384641460E
:101D5000FEF70AFA32465346FEF78FFB5A464346D1
:101D6000FEF702FA0CB03A464346BDE8F04DFEF7E6
:101D700084BB00000000303E2894E53F182D4454F9
:101D8000FB21E93F075C143326A6813C800E00004E
:101D9000A20E0000635555555555D53F0000F0BFC4
:101DA0000000F03F0122FEF7E2BC0022134610467D
:101DB0001146FEF709BC0000024A00201107FEF799
:101DC000D6BC000001FDFFFF02E008C8121F08C1D9
:101DD000002AFAD170477047002001E001C1121FAC
:101DE000002AFBD1704700000149086070470000DD
:101DF000140000202DE9FF5FDDE90220010DDDF870
:101E000038B0024318D044F61050A1F2FF314143DC
:101E10000D140F98012820D0A5EB0B00401C5FEAA1
:101E2000000A4FF00004474EDFF81C91A0465046D0
:101E300016D5CAF1000728E00F98012443A2012813
:101E400008D0002100980F9BC0E90021C0E902439F
:101E5000BDE8FF9F6FEA0B01F4E7CBF10000DEE77E
:101E6000074612E0F80707D0224633464046494667
:101E7000FEF77AF9804689462246334610461946CF
:101E8000FEF772F904460E467F10002FEAD1DDE915
:101E90000201BAF1000F42464B4602DAFEF764F93E
:101EA00001E0FEF791FB04460E460022284BFEF7A8
:101EB00013FC03D84FF0FF30014607E00022254B0A
:101EC00020463146FEF7D9FAFEF7EDFB102409E073
:101ED000002C0ADB0A220023FEF70AFA019B3032AB
:101EE0001A55641E50EA0102F2D1641C019AC4F131
:101EF000110314440F9A012A03D0012208430DD183
:101F00000AE0084304D000204FF0110B0F9080E747
:101F1000A3EB0B056D1E0DE05B4504DD4FF00002E9
:101F200005F1010504E003DA4FF00002A5F1010517
:101F3000002AECD000980F99C0E90231C0E90045B1
:101F400086E70000000024400000F03F3000000061
:101F50000000F0430000E03F2DE9FF4F95B09B46A5
:101F60008946064600250FE2252877D1002427461A
:101F7000F84A0121059400E0044316F8013F203B94
:101F800001FA03F01042F7D130782A2811D06FF00F
:101F90002F033078A0F13002092A16D8059A44F0B0
:101FA000020402EB820203EB42021044761C05900D
:101FB000EFE759F8042B0592002A03DA504244F463
:101FC0000054059044F00204761C30782E2816D177
:101FD00016F8010F44F004042A280DD06FF02F02E8
:101FE0003078A0F13003092B09D807EB870302EB07
:101FF0004303C718761CF3E759F8047B761C307846
:102000006C280FD006DC4C2817D068280DD06A2821
:1020100014D104E0742810D07A280FD10DE044F4D4
:1020200000140AE044F4801401E044F4401472788F
:10203000824202D104F58014761C761C3078662822
:102040000BD013DC582877D009DC002875D0452840
:10205000F6D04628F4D047281AD19DE118E063282D
:1020600035D0642879D0652812D195E1702873D0D5
:1020700008DC6728F1D069286FD06E280DD06F2852
:1020800006D1B5E073282CD0752875D0782874D087
:102090005A46179990476D1C75E1C4F30250022807
:1020A00009D003280DD0D9F8001004280DD00D60F8
:1020B00009F1040967E1D9F80010EA17C1E90052F3
:1020C000F6E7D9F800100D80F2E70D70F0E719F887
:1020D000041B8DF8001000208DF80100EA46012055
:1020E00003E059F804AB4FF0FF3061074FF00001F7
:1020F00002D40DE008F101018846B9420FDA8045AB
:10210000F8DB1AF808100029F4D108E008F1010101
:1021100088468142FADB1AF808100029F6D10598A2
:102120005B46A0EB080721463846179A00F094FA60
:10213000284400EB080507E04DE029E10DE01AF81E
:10214000010B5A4617999047B8F10108F7D25B4640
:1021500021463846179A13E142E00A220092C4F35E
:1021600002524FF0000A022A08D059F804CB032A81
:102170004FEAEC710AD00DE029E02AE009F10701ED
:1021800021F00702F2E802C1914609E00FFA8CFC47
:102190004FEAEC71042A03D14FFA8CFC4FEAEC7140
:1021A000002907DA0A460021DCF1000C61EB02018C
:1021B0002D2202E0220504D52B228DF804200122D5
:1021C00003E0E20701D02022F7E7904659E00A2118
:1021D00002E010220DE010214FF0000A00910BE008
:1021E00010224FF0000A44F004040827009203E094
:1021F00008224FF0000A0092C4F30252022A05D0CE
:1022000059F804CB0021032A08D009E009F107019D
:1022100021F00702F2E802C1914605E01FFA8CFCAA
:10222000042A01D10CF0FF0C4FF00008220728D53A
:10223000702806D0009B83F0100353EA0A0305D0F0
:102240000EE040228DF80420012208E05CEA010241
:1022500006D030228DF804208DF805000222904629
:10226000009B83F0080353EA0A030AD15CEA0102E7
:1022700001D1620705D530228DF804204FF0010806
:102280007F1E582804D034A003900EA802900DE0C1
:1022900036A0F9E753466046009AFEF729F88446CF
:1022A0000398825C0298401E029002705CEA010072
:1022B000F0D1029806A9081A00F1200A600702D599
:1022C00024F4803400E00127574502DDA7EB0A0023
:1022D00000E0002000EB0A01009005984144401AFC
:1022E0000590E00306D45B462146179A059800F056
:1022F000B3F90544002706E001A85A46C05D1799C6
:1023000090476D1C7F1C4745F6DBE0030CD55B4610
:102310002146179A059800F09FF9054404E0302003
:102320005A46179990476D1C0099481E0090002945
:10233000F5DC08E0029802995A460078491C02919F
:10234000179990476D1CBAF10001AAF1010AF1DC5E
:1023500065E1000009280100303132333435363769
:1023600038396162636465660000000030313233E1
:102370003435363738394142434445460000000081
:1023800000F058F90544761C307800287FF4ECAD55
:1023900019B02846BDE8F08F620700D4062709F17E
:1023A000070222F0070CFCE80223E14603F0004894
:1023B0005FEA080C02D00FF2702C0DE05FEA045CBB
:1023C00002D50FF2682C07E05FEAC47C02D00FF25E
:1023D000602C01E0AFF2700C4FF0FF3823F00043A7
:1023E000CDF850C065280CD006DC452809D0462819
:1023F0001DD047283DD13DE0662818D067287ED102
:1024000038E00021112F01DB112000E0781CCDE91C
:10241000000106A90EA8FFF7EDFCDDE90F010E9AF9
:1024200003910021009207F1010A04914DE04FF061
:1024300000400097CDE9011006A90EA8FFF7DAFCCD
:10244000DDE90F0203920E9B11990022DDF80CA02A
:102450000093049211B9791C00EB010AB7EB0A0052
:1024600004D4C0F1FF3007F1010A0490AAEB070081
:10247000019044E0012F00DA01270021112F01DD36
:10248000112000E03846CDE9000106A90EA8FFF7AB
:10249000B1FCDDE90F010E9A039100210491009235
:1024A000BA4621070CD40399514500DA8A46BAF19D
:1024B000010F05DD009AAAF10101515C302908D015
:1024C000B84202DA10F1040F06DA0121CDE9011059
:1024D00015E0AAF10101E9E7002805DC04990144AF
:1024E0000491AAEB000102E0411C514500DD8A463F
:1024F0000499401A401C01904FF0004002902007C0
:1025000004D40198504501DBCDF8048000208DF8FB
:102510004F0002980DF14F07B0F1004F25D02B204E
:102520000E9002984FF0020800280CDA4042029008
:102530002D200E9007E00A210298FDF7C3FE3031EE
:10254000029007F8011DB8F10001A8F10108F2DCC2
:1025500002980028EFD1791E0E980870307800F0AC
:10256000200040F0450007F8020D12A8C01B00F142
:1025700007081498007800B1012000EB0A010198C7
:1025800001EBE07105984144401A401E0590E003BC
:1025900006D45B462146179A059800F05DF805447D
:1025A0001498007818B15A46179990476D1CE003AB
:1025B00024D55B462146179A059800F04DF805444E
:1025C0001CE00498002807DBDDE90301884203DDF5
:1025D0000098405C179901E0179930205A469047BF
:1025E000049805F10105401C04900198401E0190DB
:1025F00004D12E205A46179990476D1CBAF100015C
:10260000AAF1010ADDDC05E017F8010B5A4617991B
:1026100090476D1CB8F10001A8F10108F4DC5B469D
:102620002146179A0598ABE62D0000002B0000000C
:10263000200000002DE9F041044600251E46174603
:10264000880404D405E039462020B0476D1C641E80
:10265000F9D52846BDE8F0812DE9F0410446002572
:102660001E469046C80301D5302700E02027880485
:1026700004D505E041463846B0476D1C641EF9D5C7
:102680002846BDE8F081000000B5244B21F000424F
:1026900087B09A42DCBF0022134629DD204B9A42C4
:1026A00008D140B94FF00100FFF79EFBFFF77DFB1B
:1026B00007B000BD03DBFFF775FB07B000BD02AA42
:1026C000FEF724FF10F0030104BF0DF1080C9CE895
:1026D0000F000DD0012001290ED0022914D00DF1D8
:1026E000080C00909CE80F00FFF7A8F907B000BDA8
:1026F000FFF7D0F807B000BD0DF1080C00909CE882
:102700000F00FFF79BF905E00DF1080C9CE80F00A6
:10271000FFF7C0F807B081F0004100BDFB21E93FA1
:102720000000F07F13B54FF6FF730122694602489F
:10273000FEF720FD00981CBD5C0000201FB5FEF7D1
:1027400077F9FEF7EFFDFEF76FFDFEF7ADFDFEF743
:10275000C7FDDFF884A0DFF884B000263046FDF71F
:1027600075FD52465B46FDF7FFFCFDF78FFDFDF75B
:102770007AFD0D46044600F03FF8FDF787FD8146DF
:1027800020462946FFF780FFFDF780FD07462046DB
:10279000294600F081F8FDF779FDFDF764FD044658
:1027A00088463846FDF75FFD05460F464846FDF76B
:1027B0005AFDCDF80C800095CDE9017402460B4618
:1027C00007A0FEF76FFE0A20FEF71CF8761CF6B293
:1027D000642EC3D3C1E70000AA8FF259BF15B03FE2
:1027E000795F706F696E74206973203A25662C25B5
:1027F000662C25660A00000000B5254B21F000423A
:1028000087B09A4203DC0022134600922BE0214B52
:102810009A4208D140B94FF00100FFF7E5FAFFF7FF
:10282000C4FA07B000BD03DBFFF7BCFA07B000BD78
:1028300002AAFEF76BFE10F003014FF001000DD06D
:10284000012914D002291AD00DF1080C9CE80F00C0
:10285000FFF720F807B081F0004100BD0DF1080C32
:1028600000909CE80F00FFF7E9F807B000BD0DF1FC
:10287000080C9CE80F00FFF70DF807B000BD0DF144
:10288000080C00909CE80F00FFF7D8F8E2E7000082
:10289000FB21E93F0000F07F10B5164B21F000420C
:1028A000012486B09A4203DC0022134600941CE007
:1028B000114B9A4208D140B94FF00100FFF794FA4A
:1028C000FFF773FA06B010BD03DBFFF76BFA06B033
:1028D00010BD02AAFEF71AFE00F00100A4EB4000B2
:1028E0000DF1080C00909CE80F00FFF71DF906B0F1
:1028F00010BD0000FB21E93F0000F07F0000000058
:10290000000000000102030406070809000000009F
:1029100001020304000000004C5555555555A53FD4
:102920007751C1166CC156BF9015CB19A001FA3E64
:10293000AD529C804F7E92BEC4B1B4BD9EEE213E8E
:10294000D43888BEE9FAA8BD00004054FB21F93F05
:102950003163621A61B4D03D0000601A61B4D03DA9
:102960007370032E8A19A33B0000002E8A19A33B23
:10297000C14920259A837B39000000000000000037
:102980006E83F9A22915444ED15727FCC0DD34F5DA
:10299000999562DB4190433CAB6351FE61C5BBDE60
:1029A0003A6E24B7E0D24D42EA2E49061C92D10974
:1029B0001CEB1DFE3EA729B1F53582E88444BB2EF1
:1029C00026709CE9417E5FB439D69139F43953833E
:1029D0008B5F849C3B28F9BDFF97F81F0F9805DE9D
:1029E0008B112FEF1F6D0A5ACF7E366DB709CB279B
:1029F000663F464F2DEA5F9EC7BA27757BF1E5EB30
:102A0000F739073DEA92528AB15FFB6B085D8D1F73
:102A1000A6F810111111813FD561C119A0012ABF7B
:102A20007DFEB157E31DC73EEB9C2B8AE6E55ABEFF
:102A30007CD5CF5A3AD9E53D7AFE10111111C13F2C
:102A400037D60684F464963F280356C9226D6D3F3D
:102A50000165F2F2D844433FA69237A0887E143F26
:102A6000735360DBCB75F3BEFE41B31BBAA1AB3F22
:102A700093846EE9E326823F1583E0FEC8DB573F6F
:102A800068108D1AF726303FE9A7F0320FB8123FD1
:102A9000D47ABF74702AFB3EB82A000800000020D8
:102AA00018000000C81D0008D02A000818000020E7
:102AB00088040000D81D000801000000100000007C
:102AC000000000000024F4000000000000000000EE
:04000005080000ED02
:00000001FF
