:020000040800F2
:10000000A8040020010100081F140008CB120008FA
:100010001D140008AD050008E717000800000000E7
:100020000000000000000000000000002314000891
:10003000AF05000800000000211400085D1400084E
:100040001B0100081B0100081B0100081B01000820
:100050001B0100081B0100081B0100081B01000810
:100060001B0100081B0100081B0100081B01000800
:100070001B0100081B0100081B0100081B010008F0
:100080001B0100081B0100081B0100081B010008E0
:100090001B0100081B0100081B0100081B010008D0
:1000A0001B0100081B0100081B0100081B010008C0
:1000B0001B0100081B0100081B0100081B010008B0
:1000C0001B0100081B0100081B0100081B010008A0
:1000D0001B0100081B0100081B0100081B01000890
:1000E0001B0100081B0100081B010008DFF80CD0F1
:1000F00000F04AFA0048004729180008A804002028
:100100000648804706480047FEE7FEE7FEE7FEE7B1
:10011000FEE7FEE7FEE7FEE7FEE7FEE7BF140008A6
:10012000ED000008202A04DB203A21FA02F0002129
:10013000704721FA02F3D040C2F1200291400843F7
:1001400019467047D2B201E000F8012B491EFBD2DC
:1001500070470022F6E710B513460A4604461946D2
:10016000FFF7F0FF204610BD2DE9FE4F804681EAE3
:100170000300C00F0C46009021F0004123F0004521
:10018000B8EB0200A94105D24046214690461C46E4
:100190000B46024623F00040104347D0270DC7F31B
:1001A0000A00C3F30A510290401A019040286BDA0A
:1001B000C3F3130040F4801B0098924620B1002343
:1001C000D2EB030A63EB0B0B01985946C0F14002D6
:1001D000504600F023F906460D4650465946019A0E
:1001E00000F02BF910EB08006141002487EA11525E
:1001F00084EAE7731A4340D0009A62B3019A012A55
:100200004FEA075215DC001B61EB02014FF0004280
:1002100002EA0752CDE90042001C41F58011324646
:100220002B4600F062F903B0BDE8F08F404621464E
:10023000F9E7001B61EB0201001C41F58013001877
:100240005B412018A2F5001747EB030140EAD57087
:10025000B6196D4111E06D084FEA360645EAC075E2
:100260004FEA0752001B61EB0201001C41F58011AF
:1002700049084FEA30000019514132462B4603B07D
:10028000BDE8F04F00F022B90098012240000023A1
:10029000D0EB020263EBE073009821464FEAE07472
:1002A000B8EB000061EB0401E9E783F000435BE792
:1002B00081F0004158E72DE9FE4F81EA030404F084
:1002C000004421F0004100944FF0000B23F0004364
:1002D00050EA01045ED052EA03045BD0C3F30A542F
:1002E000C1F30A552C44A4F2F3340194A0FB025448
:1002F000C1F3130141F48011C3F3130343F48013DA
:1003000001FB024400FB034E840A970A44EA81542D
:1003100047EA8357A4FB076802958D0A05FB07850A
:100320004FEA932C04FB0C542705029D4FEA065814
:1003300047EA1637B5EB08056EEB070C870E920EF1
:1003400047EA811742EA8312A7FB0201B6EB0B01D1
:1003500064EB00042B0D43EA0C335E1844EB1C5095
:10036000DA465146E7FB0201C5F313044FEA0B33AB
:1003700043EA14534FEA0432019C43EA0603A4F112
:100380000C040294009CCDE900B400F0AEF803B078
:10039000BDE8F08F00200146F9E70EB5C10F80EAF5
:1003A000E0700844CA07002140F233438DE80E0094
:1003B0000A460B4600F099F803B000BD20F000405B
:1003C000C10DC0F3160040F400007F2901DA0020BF
:1003D0007047962903DCC1F19601C84070479639F1
:1003E0008840704701F0004330B421F0004150EAEA
:1003F000010206D00A0DA2F56072C1F31301002AB2
:1004000002DC30BC00207047440F44EAC104C10044
:10041000E01830BC00EBC25000F021B8202A04DB09
:10042000203A00FA02F1002070479140C2F1200307
:1004300020FA03F3194390407047202A06DBCB17BC
:10044000203A41FA02F043EAE07306E041FA02F38F
:10045000D040C2F12002914008431946704700295C
:10046000A8BF7047401C490008BF20F0010070473A
:1004700010B4B0FA80FC00FA0CF050EA010404BF9A
:1004800010BC704749B1CCF1200421FA04F411FAF0
:100490000CF118BF012121430843A3EB0C01CB1D34
:1004A0004FEA00614FEA102042BF002010BC7047A5
:1004B00000EBC35010440029A4BF10BC7047401C7F
:1004C000490008BF20F0010010BC704710B5141E91
:1004D00073F1000408DA401C41F1000192185B41FD
:1004E0001A4301D120F0010010BD2DE9F04D9246D4
:1004F0009B4611B1B1FA81F202E0B0FA80F22032EB
:100500009046FFF78BFF04460F4640EA0A0041EA97
:100510000B0153465A46084313D0114653EA0100D3
:1005200019D0C8F140025046FFF7FCFD05460E46C3
:10053000504659464246FFF771FF084305D0012057
:1005400004E020463946BDE8F08D0020054346EA28
:10055000E0762C4337430A986305E40AA0EB0800D1
:100560000022FD0A44EA47540A3002D50020014621
:10057000E9E7010510196941DDE9084500196941FC
:10058000BDE8F04DA2E70000064C074D06E0E0682C
:1005900040F0010394E8070098471034AC42F6D3CA
:1005A000FFF7A8FD90180008B0180008FEE7704794
:1005B00072B6FEE770B5044600F004F90546601C0B
:1005C00002D004480078044400F0FCF8401BA0422C
:1005D000FAD370BD080000202DE9F84FDFF8B8917C
:1005E000002409F1040A0AF1040B23460F270BF13A
:1005F000040EC9E00125A5402A40AA427DD1674EDC
:10060000D1F804C0ACEB0608B44532D014DCBCF120
:10061000030F3AD009DCBCF1000F2AD0BCF1010F66
:100620001CD0BCF1020F31D11DE0BCF1110F17D06D
:10063000BCF1120F2AD119E0B8F5881F19D006DCD9
:10064000B8F5803F15D0B8F5801F1FD111E0B8F57F
:10065000001F0ED0B8F5041F18D10AE0CB6815E0D2
:10066000CB681B1D12E0CB6808330FE0CB680C335E
:100670000CE08B682BB1012B4FF0080303D04561D0
:1006800004E0042302E0056100E00023FF2A01D812
:10069000064601E000F104064FEA840501D9A5F100
:1006A0002005D6F8008007FA05FC28EA0C0803FAB2
:1006B00005F548EA0508C6F800804D68ED0062D5EA
:1006C000374DAE6946F00106AE61AD6924F0030610
:1006D00005F001050095334D06EB050CDCF80850DC
:1006E000A607360F07FA06F825EA0805DFF8B880EE
:1006F000404503D14FF0000817E044E0DFF8AC803C
:10070000404502D14FF001080FE0DFF8A4804045DA
:1007100002D14FF0020808E0DFF89880404502D18E
:100720004FF0030801E04FF0040808FA06F848EA21
:100730000508CCF808804D68D9F80060ED034D46F7
:1007400001D5164300E096432E604D68DAF800604C
:10075000AD03554601D5164300E096432E604D6823
:10076000DBF80060ED025D4601D5164300E09643DC
:100770002E604D68DEF80060AD02754601D5164367
:1007800000E096432E60641C0D682A46E5407FF425
:1007900031AFBDE8F88F00000004014000001110E7
:1007A000001002400000014000080140000C014020
:1007B00000100140001401400AB1016170470904B2
:1007C000FBE7000001488068704700000800002037
:1007D0000248816802781144816070470800002057
:1007E000074810B5016841F010010160032000F0D6
:1007F00067F80F2000F006F800F024F8002010BD84
:100800000020024070B50D4D04464FF47A712878EF
:10081000B1FBF0F00A490968B1FBF0F000F0DEFA34
:1008200048B9102C07D200222146501E00F028F8AB
:1008300000206C6070BD012070BD00000800002029
:10084000140000200C4808B5816941F00101816164
:10085000816901F001010091C16941F08051C161DC
:10086000C06900F0805000900448416821F0E061C8
:1008700041F00071416008BD0010024000000140DD
:10088000F0B40E4B1B680C46C3F30223C3F10705FB
:10089000042D00D90425191D072901D2002300E0E9
:1008A000DB1E012606FA05F1491E214099409E40B3
:1008B000761E16403143F0BC00F096BF0CED00E010
:1008C000064900F0070208684FF6FF03184040EAA7
:1008D0000220034A10430860704700000CED00E05E
:1008E0000000FA052DE9F0470F46050061D0434EA0
:1008F000306800F00700B84209D2306820F00700E5
:1009000038433060306800F00700B84251D12868A1
:100910003B4C810712D5400703D5606840F4E06086
:1009200060602878000703D5606840F4605060601C
:100930006068A96820F0F000084360602878C0076C
:1009400028D06868012810D02168022810D08907B3
:1009500000292EDA616821F0030101436160FFF78D
:1009600031FF804641F288390DE021688903EFE7C5
:100970008901EDE7FFF726FFA0EB0801494502D901
:100980000320BDE8F0876068696800F00C00B0EBF8
:10099000810FEFD1306800F00700B8420BD9306802
:1009A00020F0070038433060306800F00700B8429C
:1009B00001D00120E5E72878400705D56068E9689F
:1009C00020F4E060084360602878000706D560687E
:1009D000296920F4605040EAC100606000F038F8F6
:1009E0006168084AC1F30311515CC84006490860B8
:1009F00006480068FFF706FF0020C2E7002002401B
:100A00000010024078180008140000200C0000209C
:100A10000448054900684968044AC1F30221515C51
:100A2000C8407047140000200010024088180008D9
:100A30000448054900684968044AC1F3C221515C71
:100A4000C8407047140000200010024088180008B9
:100A500012A185B00FC98DE80F0014A0144A0068D8
:100A600004905168134801F00C03042B10D0082B9C
:100A70000ED1C1F38343C9031DF803000AD55168A1
:100A800004AAC1F34041515C0A4A5043B0FBF1F063
:100A900005B0704708494843FAE70000020304051F
:100AA000060708090A0B0C0D0E0F101001020000BA
:100AB0000010024000127A0000093D002DE9F84FB5
:100AC000040070D02078C04DC00749D06868C0F3DA
:100AD0008100012807D06868C0F38100022809D18D
:100AE0006868C00306D52868800339D56068002887
:100AF000E7D035E06068B0F5803F0BD010B1B0F5BD
:100B0000A02F11D0286820F480302860286820F4B5
:100B1000802002E0286840F480302860606890B14E
:100B2000FFF750FE06460AE0286840F4802028605F
:100B3000F0E700BFFFF746FE801B642873D82868E3
:100B40008003F7D50CE0FFF73DFE064605E000BF49
:100B5000FFF738FE801B6428F0D828688003F7D49C
:100B600020789A4E80074FF001094FF0000839D5E0
:100B7000686810F00C0F07D06868C0F38100022885
:100B800009D16868C00306D42868800714D5206995
:100B9000012808D110E02069B0B1C6F80090FFF735
:100BA00011FE074605E00AE1FFF70CFEC01B022814
:100BB000C4D828688007F7D52868616920F0F80054
:100BC00040EAC10028600DE0C6F80080FFF7FAFD9A
:100BD000074604E0FFF7F6FDC01B022823D828686B
:100BE0008007F7D4207800072CD57948A169D9B1BE
:100BF000C0F80090FFF7E6FD074604E0FFF7E2FDCE
:100C0000C01B02280FD8686A8007F7D571484FF4D7
:100C1000FA510068B0FBF1F0009000BF0098411E4F
:100C20000091FAD20EE080E0C0F80080FFF7CAFD24
:100C3000074604E0FFF7C6FDC01B022875D8686AA6
:100C40008007F7D42078400760D5E8690027C00006
:100C500008D4E86940F08050E861E869012700F0B5
:100C6000805000905C480168C90513D40168834630
:100C700041F480710160FFF7A5FD824606E000BFE8
:100C8000FFF7A0FDA0EB0A0064284ED8DBF80000B7
:100C9000C005F5D5E06801280AD008B1052813D0B1
:100CA000286A20F001002862286A20F0040002E08F
:100CB000286A40F001002862E06841F2883B98B160
:100CC000FFF780FD82460BE0286A40F004002862AE
:100CD000EEE700BFFFF776FDA0EB0A0159455AD8B1
:100CE000286A8007F6D50CE0FFF76CFD824605E028
:100CF000FFF768FDA0EB0A0159454CD8286A800728
:100D0000F6D41FB1E86920F08050E861E06988B34B
:100D10006968C1F38101022944D00228C6F86080C5
:100D200004D0FFF74FFD044638E034E0FFF74AFDFA
:100D3000074604E0FFF746FDC01B02282BD82868B1
:100D40008001F7D4206AB0F5803F05D16868A168BA
:100D500020F4003008436860D4E90801084369685A
:100D600021F4741108436860C6F86090FFF72AFD0B
:100D7000044606E025E000BFFFF724FD001B022823
:100D800009D828688001F7D51BE000BFFFF71AFDDE
:100D9000001B022802D90320BDE8F88F28688001D3
:100DA000F4D40EE00128F7D06868226A00F480319C
:100DB000914204D1616A00F47010884201D0012090
:100DC000EAE70020E8E7000000100240000042428D
:100DD00080044242140000200070004010B5401E04
:100DE000B0F1807F01D3012010BD4FF0E02460619D
:100DF0000F21601700F0F8FC0020A061072020619F
:100E0000002010BD70B590F83C20012A26D00124A6
:100E100080F83C40022280F83D2003685A689D68B3
:100E200022F070060A6832435A600D4B02689A42FB
:100E300008D0B2F1804F05D00A4B9A4202D00A4B3B
:100E40009A4204D1496825F080031943916080F8E3
:100E50003D40002180F83C10084670BD022070BD66
:100E6000002C0140000400400008004010B50400C0
:100E700003D094F83D0010B107E0012010BD002020
:100E800084F83C00204600F01FF8022084F83D0062
:100E9000211D206800F014FB012084F8460084F82E
:100EA0003E0084F83F0084F8400084F8410084F854
:100EB000420084F8430084F8440084F8450084F834
:100EC0003D00002010BD000008B50068B0F1804F63
:100ED00008D10548C16941F00101C161C06900F054
:100EE0000100009008BD00000010024070B50446EB
:100EF00090F83C00012817D0012584F83C500220CE
:100F000084F83D002068826822F0770222F47F4254
:100F100082600868502830D00DDC20284DD005DCD8
:100F200098B310283BD148E0022070BD302844D04F
:100F3000402834D139E0602828D0702806D0B0F598
:100F4000805F2CD0B0F5005F29D10AE0CB68D1E9F1
:100F50000121206800F0F7FA2068816841F07701EC
:100F600009E0CB68D1E90121206800F0ECFA2068A3
:100F7000816841F48041816011E0CA684968206855
:100F800000F096FB5021206807E016E0CA68496827
:100F9000206800F09EFB6021206800F0DEFA84F8F3
:100FA0003D50002084F83C0070BDCA684968206844
:100FB00000F07EFB40212068EFE7226801461046E2
:100FC000EBE7000000B585B000210091019102918E
:100FD00003910068B0F1804F11D10A48816941F056
:100FE000040181618069694600F0040004900620D4
:100FF00000900220019003900348FFF7EDFA05B03E
:1010000000BD0000001002400008014070B5044619
:1010100090F83C000D4601280AD0012084F83C00DD
:1010200042B1042A18D0082A2AD00C2A4DD139E01E
:10103000022070BD206800F099FA2068816941F0B3
:10104000080181612068816921F0040181612068C3
:1010500081692A69114311E0206800F0AFFA206825
:10106000816941F4006181612068816921F48061B6
:101070008161206881692A6941EA0221816124E055
:10108000206800F0C7FA2068C16941F00801C16119
:101090002068C16921F00401C1612068C1692A6921
:1010A000114311E0206800F0E1FA2068C16941F4C1
:1010B0000061C1612068C16921F48061C16120685B
:1010C000C1692A6941EA0221C161002084F83C001B
:1010D00070BD10B5040003D094F83D0010B107E0D6
:1010E000012010BD002084F83C00204600F01EF8CE
:1010F000022084F83D00211D206800F0E1F9012064
:1011000084F8460084F83E0084F83F0084F84000EC
:1011100084F8410084F8420084F8430084F84400D5
:1011200084F8450084F83D00002010BD70470000A1
:1011300010B50446022249B104290ED0082913D063
:1011400094F84100012816D0012010BD94F83E000B
:101150000128F9D184F83E200FE094F83F000128DF
:10116000F2D184F83F2008E094F840000128EBD148
:1011700084F8402001E084F841200122206800F03A
:10118000D5F90F492068884203D1426C42F40042ED
:1011900042642068884208D0B0F1804F05D00949E8
:1011A000884202D00849884204D1816801F00701D1
:1011B000062903D0016841F001010160002010BD43
:1011C000002C0140000400400008004070B50400FD
:1011D00004D094F83D00002510B106E0012070BD58
:1011E00084F83C50204600F023F8242084F83D0089
:1011F0002068C16821F40051C160204600F07CFAEB
:101200002068016921F4904101612068416921F061
:101210002A0141612068C16841F40051C160256420
:10122000202084F83D0084F83E00002070BD0000BE
:1012300030B585B0002400940194029403940068B2
:101240001449884224D11448816941F48041816164
:10125000816901F480410491816941F00401816157
:1012600080690E4D00F0040004904FF4007000906F
:10127000022001900320039069462846FFF7ACF94D
:101280002815CDE90004694628460294FFF7A4F921
:1012900005B030BD00380140001002400008014098
:1012A00090F83E30202B0ED159B152B190F83C301D
:1012B000012B08D0012380F83C300023036300F0A9
:1012C00077BA0120704702207047FEE770B586B0FC
:1012D000002418480094019402940394816941F019
:1012E00010018161816901F010010491816941F06F
:1012F00020018161816901F020010491816941F03F
:10130000040181618069012200F004000A4E550346
:10131000049029463046FFF74FFA01200095CDE9A9
:1013200001040220039069463046FFF755F906B0E4
:1013300070BD0000001002400010014010B58EB0DA
:1013400000240794089409940A940B941C2168467D
:101350000C94FEF7FEFE22484FF0804101604721C9
:10136000C0E901146421C0E903148461FFF77EFD24
:1013700008B1FFF71DF94FF48050079007A91848EE
:10138000FFF7B4FD08B1FFF713F91548FFF7A1FE09
:1013900008B1FFF70DF90B940BA911480C94FFF756
:1013A00031FD08B1FFF704F9602000903220CDE94B
:1013B0000104042269460A480494FFF727FE08B195
:1013C000FFF7F6F8082269460548FFF71FFE08B147
:1013D000FFF7EEF80248FFF7F5FD0EB010BD000074
:1013E000180000200C4810B50A4901604FF416514E
:1013F0004160002181600C22C160C0E9041281615A
:10140000C161FFF7E3FE002803D0BDE81040FFF7FD
:10141000CFB810BD0038014060000020FEE7FEE7B5
:101420007047704710B5FEF7B8FF084A084BFEF743
:1014300042FF0022074BFEF797FEFEF7D3FFFEF7B1
:10144000BDFF05490968886310BD0000721CC771A3
:101450001CC7F13F0000494018000020FFF7B8B951
:1014600030B58FB028216846FEF773FE14210AA814
:10147000FEF76FFE01210804CDE90010002402945C
:1014800002250491CDE907504FF4E0100990684619
:10149000FFF714FB08B172B6FEE70F20CDE90A058D
:1014A0004FF48060CDE90C4002210AA80E94FFF7AA
:1014B00019FA002801D072B6FEE70FB030BD7047B0
:1014C000F0B50268164B174C174D4FF08047984205
:1014D00005D0B84203D0A04201D0A84203D122F0E7
:1014E00070064A683243984205D0B84203D0A04201
:1014F00001D0A84203D122F44074CA6822434C6947
:1015000022F08002224302608A68C2620A68826214
:10151000984201D10969016301214161F0BD0000D8
:10152000002C0140000400400008004010B501F00C
:101530001F030121046A99408C430462016A9A40A6
:101540001143016210BD10B5846842EA032224F4FD
:101550007F440A432243826010BD826822F07002F9
:101560000A4342F0070181607047000030B5026A0B
:1015700022F001020262026A4368846924F0730562
:101580000C682C4322F002058A682A430A4DA842BF
:101590000BD122F00805CA6823F440732A434D6931
:1015A00022F004021D438B692B4343608461496828
:1015B0004163026230BD0000002C014030B5026A78
:1015C00022F010020262026A436884690D6824F402
:1015D000E64444EA05248D6822F0200242EA05121E
:1015E0000B4DA8420ED1CD6822F0800242EA0512CE
:1015F0004D6923F4406343EA85038D6922F040027C
:1016000043EA85034360846149688163026230BDB7
:10161000002C014030B5026A22F480720262036A33
:101620004268C46923F4007324F073050C682C43EA
:101630008D6843EA05230C4DA8420ED1CD6823F4F2
:10164000006343EA05234D6922F4405242EA051241
:101650008D6923F4806342EA05124260C4614968DF
:10166000C163036230BD0000002C014030B5026A46
:1016700022F480520262046A4268C3690D6823F44E
:10168000E64343EA05238D6824F4005444EA053414
:10169000064DA84204D14D6922F4804242EA8512E7
:1016A0004260C36149680164046230BD002C01409E
:1016B00010B5036A046A24F001040462846924F00A
:1016C000F00444EA021423F00A020A43846102622D
:1016D00010BD10B5036A23F0100303628369046A26
:1016E00023F4704343EA023224F0A00343EA0111D9
:1016F0008261016210BD000070B504460068016996
:10170000E26821F44051114301612169A068084356
:10171000616908432168CA6841F20C639A43024335
:10172000CA6020684169A26921F440711143416196
:101730001E492068884202D1FFF77AF901E0FFF7DD
:1017400067F900EBC00101EB0012606864218000C2
:10175000B2FBF0F3B3FBF1F36FF018067343B2FB87
:10176000F0F5B2FBF0F605EB8305322303EB05152C
:10177000B5FBF1F5B6FBF1F605F0F00505EB061546
:10178000B2FBF0F6B2FBF0F0B0FBF1F06FF0180234
:10179000504306EB800003EB0010B0FBF1F0216832
:1017A00000F00F002844886070BD00000038014040
:1017B00081628285C28500210164222280F83E2058
:1017C00080F83C100168CA6842F48072CA600168FF
:1017D0004A6942F001024A610068C16841F0200193
:1017E000C16000207047FEE70907090E002804DBEE
:1017F00000F1E02080F80014704700F00F0000F1C5
:10180000E02080F8141D704702E008C8121F08C1CC
:10181000002AFAD170477047002001E001C1121F71
:10182000002AFBD170470000FEF7DAFFFFF718FE31
:10183000FFF74CFDFFF7D6FDFFF780FD0C210A48AE
:10184000FFF776FC032209490948FFF729FD012229
:1018500051030848FEF7B0FF5A20FFF7E3FD4FF4AD
:10186000FA60FEF7A7FEFEE7180000200000002047
:101870006000002000100140000000000000000097
:101880000102030406070809000000000102030426
:10189000B018000800000020180000000818000818
:1018A000C81800081800002090040000181800084C
:1018B0000000000000000000010000001000000017
:0818C000000000000024F40008
:04000005080000ED02
:00000001FF
