:020000040800F2
:1000000048040020010100085B0F0008710E000881
:10001000590F000849010008EF1300080000000014
:100020000000000000000000000000006112000855
:100030004B010008000000005F1200086312000876
:100040001B0100081B0100081B0100081B01000820
:100050001B0100081B0100081B0100081B01000810
:100060001B0100081B0100081B0100081B01000800
:100070001B0100081B0100081B0100081B010008F0
:100080001B0100081B0100081B0100081B010008E0
:100090001B0100081B0100081B0100081B010008D0
:1000A0001B0100081B0100081B0100081B010008C0
:1000B0001B0100081B0100081B0100081B010008B0
:1000C0001B0100081B0100081B0100081B010008A0
:1000D0001B0100081B0100081B0100081B01000890
:1000E0001B0100081B0100081B010008DFF80CD0F1
:1000F00000F018F8004800471114000848040020D8
:100100000648804706480047FEE7FEE7FEE7FEE7B1
:10011000FEE7FEE7FEE7FEE7FEE7FEE7D91200088E
:10012000ED000008064C074D06E0E06840F00103D2
:1001300094E8070098471034AC42F6D3FFF7DAFF93
:10014000381D0008581D0008FEE7704770B54FF6CF
:10015000FA75281A84B2084800F0EEFD06480168D6
:100160004C62006801E0416A8CB2AC42FBD3BDE84E
:100170007040014800F0EDBD08000020FEE731B5F9
:1001800000F0ECF8044600F0E9F80099001B884202
:10019000F9D338BD2DE9F84FDFF890A100220AF11C
:1001A000040B144601274FF00F090BF1040E00BF9A
:1001B0000B6807FA04F52B40AB4274D1DFF870C12D
:1001C0004E68A6EB0C0866452BD00DDC032E34D010
:1001D00005DC36B3012E19D0022E2FD11BE0112ED3
:1001E00016D0122E2AD119E0B8F5881F19D006DCD6
:1001F000B8F5803F15D0B8F5801F1FD111E0B8F5D4
:10020000001F0ED0B8F5041F18D10AE0CA6815E027
:10021000CA68121D12E0CA6808320FE0CA680C32C0
:100220000CE08A682AB1012A4FF0080203D0456128
:1002300004E0042202E0056100E00022FF2B01D867
:10024000064601E000F104064FEA840501D9A5F154
:100250002005D6F800C009FA05F82CEA080C02FAC5
:1002600005F54CEA050CC6F800C04D68ED0057D501
:10027000304DAE6946F00106AE61AD6924F003066B
:1002800005F0010500952C4D06EB050CDCF8085037
:10029000A6074FEA167809FA08F6B543274EB0428A
:1002A00002D1002610E03BE0254EB04201D10126EC
:1002B0000AE0244EB04201D1022605E0224EB042AF
:1002C00001D1032600E0042606FA08F62E43CCF8F6
:1002D00008604D68DAF80060ED03554601D51E430D
:1002E00000E09E432E604D68DBF80060AD035D4684
:1002F00001D51E4300E09E432E604D68DEF800608D
:10030000ED02754601D51E4300E09E432E604D6808
:10031000AD020E4D2E6801D51E4300E09E432E60B7
:10032000641C102CFFF444AFBDE8F88F00040140BA
:1003300000001110001002400000014000080140C0
:10034000000C014000100140001401400C04014069
:100350000AB1016170470904FBE700000148006829
:10036000704700000000002002480168491C01603D
:100370007047000000000020074810B5016841F0F8
:1003800010010160032000F07BF8002000F006F867
:1003900000F016F8002010BD0020024010B5044601
:1003A00000F044F94FF47A71B0FBF1F000F054FC26
:1003B00000222146501E00F043F8002010BD00002E
:1003C0001D4808B5816941F001018161806900F033
:1003D00001000090032000F053F8002211466FF056
:1003E0000B0000F02DF8002211466FF00A0000F01B
:1003F00027F8002211466FF0090000F021F80022D2
:100400001146501F00F01CF800221146101F00F08A
:1004100017F800221146901E00F012F80022114633
:10042000501E00F00DF80548416821F0E06141F0F0
:100430000071416008BD0000001002400000014052
:10044000F0B40E4B1B680C46C3F30223C3F107053F
:10045000042D00D90425191D072901D2002300E02D
:10046000DB1E012606FA05F1491E214099409E40F7
:10047000761E16403143F0BC00F070BD0CED00E07C
:10048000064900F0070208684FF6FF03184040EAEB
:100490000220034A10430860704700000CED00E0A2
:1004A0000000FA052DE9F047DFF8708105460E4699
:1004B000D8F8000000F00700B0420CD2D8F80010C5
:1004C00021F007013143C8F80010D8F8000000F00F
:1004D0000700B04277D12878514C800705D5606875
:1004E000A96820F0F000084360602878C00759D060
:1004F0006968012001290DD0022929D05FF002038B
:1005000093FAA3F2B2FA82F242F02002520904D026
:10051000226803E04FF40033F2E7626A93FAA3F330
:10052000B3FA83F303F01F03984002424BD0606894
:1005300020F0030008436060FFF710FF696807467A
:1005400041F2883001290DD00229814617D025E0DB
:100550004FF00073D4E700BFFFF700FFC11B494510
:1005600001D918E081466068C0F381000128F3D109
:1005700018E000BFFFF7F2FEC11B49450BD86068C9
:10058000C0F381000228F5D10CE000BFFFF7E6FEC2
:10059000C11B494502D90320BDE8F087606810F00F
:1005A0000C0FF3D1D8F80010404601F00701B1421A
:1005B0000BD9016821F0070131430160006800F0A8
:1005C0000700B04201D00120E6E72878400705D5B2
:1005D0006068E96820F4E0600843606028780007FC
:1005E00006D56068296920F4605040EAC100606067
:1005F00000F022F86168F02292FAA2F201F0F00114
:10060000B2FA82F2D140074A515CC84006490860FC
:100610000020FFF7C3FE0020BEE7000000200240DC
:100620000010024074140008040000200148006813
:10063000704700000400002010B519A385B00FCB4F
:100640008DE80F001AA01B4B006804905A681A48E6
:1006500002F00C0104291DD008291BD14FF470149D
:1006600094FAA4F402F47011B4FA84F4E140D203D1
:100670001DF8011010D55A684FF4003393FAA3F314
:1006800002F40032B3FA83F3DA4004AB9A5CB0FBB5
:10069000F2F0484305B010BD08484843FAE70000AF
:1006A00002030405060708090A0B0C0D0E0F1010B3
:1006B000010200000010024000127A0000093D0013
:1006C0002DE9F84F04460078F74DC0074FF00106BA
:1006D00025D068687704C0F38100012807D06868D6
:1006E000C0F3810002281BD16868C00318D597FAAF
:1006F000A7F0B0FA80F040F02000400901D028684F
:1007000000E0686A97FAA7F1B1FA81F101F01F01E0
:1007100006FA01F108425ED0606800287CD05AE0F9
:100720006068B0F5803F0BD010B1B0F5A02F11D0AC
:10073000286820F480302860286820F4802002E0B7
:10074000286840F480302860606828B3FFF706FE10
:1007500080460BE0286840F480202860F0E700BF66
:10076000FFF7FCFDA0EB0800642871D897FAA7F00A
:10077000B0FA80F040F02000400901D0286800E085
:10078000686A97FAA7F1B1FA81F101F01F0106FA40
:1007900001F10842E4D01EE0FFF7E0FD804605E0ED
:1007A000FFF7DCFDA0EB08006428DED897FAA7F07D
:1007B000B0FA80F040F02000400901D0286800E045
:1007C000686A97FAA7F1B1FA81F101F01F0106FA00
:1007D00001F10842E4D12078DFF8D08280074FF0A1
:1007E00000094FF002075BD568684FF0F80B10F076
:1007F0000C0F07D06868C0F3810002281CD168681C
:10080000C00319D497FAA7F0B0FA80F040F02000A6
:10081000400902D0286801E08BE0686A97FAA7F1E6
:10082000B1FA81F101F01F0106FA01F108422CD062
:10083000206901287DD128E0206990B396FAA6F0BE
:10084000B0FA80F048F82060FFF788FD824607E0A4
:1008500011E100BFFFF782FDA0EB0A00022884D857
:1008600097FAA7F0B0FA80F040F02000400901D0DC
:10087000286800E0686A97FAA7F1B1FA81F101F0FF
:100880001F0106FA01F10842E4D028689BFAABF296
:100890006169B2FA82F220F0F800914008432860C2
:1008A00025E0FFE796FAA6F1B1FA81F148F8219028
:1008B000FFF754FD824605E0FFF750FDA0EB0A006C
:1008C0000228CCD897FAA7F0B0FA80F040F02000C8
:1008D000400901D0286800E0686A97FAA7F1B1FAE8
:1008E00081F101F01F0106FA01F10842E4D12078FC
:1008F00000076ED5A069B8B396FAA6F0B0FA80F0FA
:1009000008EB8000C0F88064FFF728FD824605E010
:10091000FFF724FDA0EB0A000228A0D897FAA7F061
:10092000B0FA80F040F06000B6EB501F02D12868AA
:100930000CE062E197FAA7F0B0FA80F040F06000B6
:10094000B7EB501F01D1286A00E0686A97FAA7F157
:10095000B1FA81F101F01F0106FA01F21042D7D07D
:100960000120FFF70CFC34E0FFE796FAA6F1B1FA9C
:1009700081F108EB8101C1F88094FFF7EFFC82461A
:1009800006E000BFFFF7EAFCA0EB0A00022872D8DD
:1009900097FAA7F0B0FA80F040F06000B6EB501F75
:1009A00001D128680BE097FAA7F0B0FA80F040F088
:1009B0006000B7EB501F01D1286A00E0686A97FA1F
:1009C000A7F1B1FA81F101F01F0106FA01F210421C
:1009D000D8D12078400765D5E86940F08050E861BB
:1009E000E869DFF8CCB000F080500090DBF8001030
:1009F00041F48071CBF80010FFF7B0FC824605E0AF
:100A0000FFF7ACFCA0EB0A00642834D8DBF8000048
:100A1000C005F5D5E06801280AD008B1052813D033
:100A2000286A20F001002862286A20F0040002E011
:100A3000286A40F001002862E06841F2883B90B3E8
:100A4000FFF78CFC82460BE0286A40F00400286225
:100A5000EEE700BFFFF782FCA0EB0A0159450AD878
:100A600097FAA7F0B0FA80F040F04000B6EB501FC4
:100A700002D128680CE0A3E097FAA7F0B0FA80F062
:100A800040F04000B7EB501F01D1286A00E0686ACF
:100A900097FAA7F1B1FA81F101F01F0206FA02F10B
:100AA0000842D7D031E005E0001002400000424289
:100AB00000700040FFF752FC824605E0FFF74EFC55
:100AC000A0EB0A0159457BD897FAA7F0B0FA80F05D
:100AD00040F04000B6EB501F01D128680BE097FAB8
:100AE000A7F0B0FA80F040F04000B7EB501F01D102
:100AF000286A00E0686A97FAA7F1B1FA81F101F07B
:100B00001F0206FA02F10842D8D1E06980B3696891
:100B1000C1F38101022970D04FF080714F0002288B
:100B2000484609D091FAA1F1B1FA81F148F82100C3
:100B3000FFF714FC044669E08A4691FAA1F1B1FA84
:100B400081F1C14648F82100FFF708FC804605E026
:100B5000FFF704FCA0EB0800022854D897FAA7F08E
:100B6000B0FA80F040F02000400902D0286801E08F
:100B700061E0686A97FAA7F1B1FA81F101F01F010B
:100B800006FA01F10842E3D1206AB0F5803F05D1B1
:100B90006868A16820F4003008436860D4E908015F
:100BA0000843696821F47411084368609AFAAAF04E
:100BB000B0FA80F049F82060FFF7D0FB044606E069
:100BC00021E000BFFFF7CAFB001B02281BD897FAE1
:100BD000A7F0B0FA80F040F02000400901D028686A
:100BE00000E0686A97FAA7F1B1FA81F101F01F01FC
:100BF00006FA01F10842E5D01DE01EE0FFF7AEFB6A
:100C0000001B022802D90320BDE8F88F97FAA7F04D
:100C1000B0FA80F040F02000400901D0286800E0E0
:100C2000686A97FAA7F1B1FA81F101F01F0106FA9B
:100C300001F10842E2D10020E6E70120E4E74FF0AD
:100C4000E0210428086903D020F0040008617047FF
:100C500040F00400FAE7704710B5401EB0F1807F05
:100C600001D3012010BD4FF0E02460610F21601717
:100C700000F074F90020A06107202061002010BD61
:100C800010B5FFF7E8FF10BD30B590F83820012A05
:100C900020D0012280F83820022380F83930036800
:100CA0005C6824F070045C6003685C680D682C4329
:100CB0005C6003689C6824F080049C6003689C6806
:100CC00049680C439C6080F83920002180F8381076
:100CD000084630BD022030BD10B5040003D094F8A2
:100CE000390010B107E0012010BD002084F8380061
:100CF000204600F00DF8022084F83900211D2068FC
:100D000000F00EFB012084F83900002010BD000027
:100D100008B500680649884208D10648C16941F013
:100D20000201C161C06900F00200009008BD00002E
:100D30000004004000100240022180F839100168D0
:100D40000A6842F001020A60012180F8391000208F
:100D50007047022180F8391001680A6A41F21113C4
:100D60001A4207D10A6A9B101A4203D10A6822F07C
:100D700001020A60012180F839100020704770B527
:100D8000044690F83800012817D0012584F838501F
:100D9000022084F839002068826822F0770222F469
:100DA0007F4282600868502837D00DDC202859D057
:100DB00005DC88B3102841D151E0022070BD3028F5
:100DC00053D040283AD13FE060282ED070280BD075
:100DD000B0F5805F03D0B0F5005F2FD110E0206840
:100DE000816821F0070115E0CB68D1E90121206875
:100DF00000F0C8FA2168886840F0770088601DE03C
:100E0000CB68D1E90121206800F0BCFA2068816834
:100E100041F48041816011E01EE0CA6849682068A1
:100E200000F0C2FA5021206806E0CA6849682068CC
:100E300000F0CBFA6021206800F0AEFA84F8395057
:100E4000002084F8380070BDCA684968206800F046
:100E5000ABFA40212068EFE700212068ECE7102181
:100E60002068E9E720212068E6E730212068E3E7F1
:100E7000FEE700001E4810B5816986B041F0100100
:100E80008161816901F010010491816941F02001C3
:100E90008161816901F020010491816941F00401BF
:100EA0008161816901F004010491816941F00801C7
:100EB00081618069032400F0080004904FF46040D1
:100EC000CDE9000469460B48FFF764F949F6FF7065
:100ED000CDE9000469460848FFF75CF94FF6FF705A
:100EE000CDE9000469460548FFF754F906B010BD86
:100EF000001002400010014000080140000C0140B9
:100F000010B5144886B01249016047210024C0E999
:100F100001140121C0E90314FFF7DEFE08B1FFF759
:100F20002DF94FF48050009069460A48FFF727FFDB
:100F300008B1FFF723F9049404A906480594FFF7C4
:100F4000A3FE002801D0FFF719F906B010BD00007C
:100F50000004004008000020FEE770470907090E62
:100F6000002806DA00F00F0000F1E02080F8141DE0
:100F7000704700F1E02080F80014704770B500243D
:100F8000204600F068F9002000F058F90025002004
:100F900000F046F96D1CEDB2802DF8D3641CE4B26C
:100FA000082CEDD370BD00002DE9F04115460F4629
:100FB000064600F050F9384600F040F90C4800248D
:100FC00000EB4515285D00F02BF9641C102CF9DBB3
:100FD000761CF0B200F03FF9384600F02FF91024EB
:100FE000285D00F01DF9641C202CF9DBBDE8F081C0
:100FF000B51C00082DE9F04115460F46064600F0E5
:101000002AF9384600F01AF90C48002400EB0515BF
:10101000285D00F005F9641C082CF9DB761CF0B2A1
:1010200000F019F9384600F009F90824285D00F0AD
:10103000F7F8641C102CF9DBBDE8F081C516000838
:1010400070B515460C4600F006F9204600F0F6F89B
:10105000064905EB4500002401EB4005285D00F042
:10106000DFF8641C062CF9DB70BD00009D1400083D
:10107000124810B5816986B041F00801816180692C
:101080000F4C00F0080004904FF4405000900120F5
:101090000190002002900320039069462046FFF74C
:1010A00079F8002261142046FFF752F9012211035A
:1010B0002046FFF74DF906B010BD000000100240B9
:1010C000000C014070B50122114D54032146284601
:1010D000FFF73EF90120FFF739F8012216033146E8
:1010E0002846FFF735F90120FFF730F800222146A6
:1010F0002846FFF72DF90320FFF728F80022314694
:101100002846FFF725F9BDE87040782000F020B8A8
:10111000000C014070B50D4D4FF4005400222146E3
:101120002846FFF715F90120FFF710F801221103F7
:101130002846FFF70DF90320FFF708F82146284657
:10114000BDE870400122FFF703B90000000C014028
:101150002DE9F041234F044600254FF400584FF489
:101160008056002231463846FFF7F2F8200601D4B7
:10117000002200E0012241463846FFF7E9F8600608
:10118000040E0120FEF7E2FF012231463846FFF748
:10119000DFF80120FEF7DAFF6D1CEDB2082DE0D379
:1011A000002231463846FFF7D3F80120FEF7CEFF84
:1011B000012241463846FFF7CBF80120FEF7C6FF73
:1011C000012231463846FFF7C3F80120FEF7BEFF83
:1011D000002231463846FFF7BBF8BDE8F041012058
:1011E000FEF7B4BF000C014070B5054D0024285D2A
:1011F00000F008F8641CE4B2192CF8D370BD0000AC
:101200008414000810B50446FFF75CFF0020FFF7C8
:101210009FFF2046FFF79CFFBDE81040FFF77ABF15
:1012200010B50446FFF74EFF4020FFF791FF204620
:10123000FFF78EFFBDE81040FFF76CBF10B5044606
:10124000102040EA1410FFF7DDFF04F00F00BDE8A6
:101250001040FFF7D7BFB030C0B2FFF7D3BF704721
:10126000704710B5FFF780F8BDE81040FFF708BDE4
:1012700030B58FB001210804CDE90010002402949C
:1012800002250491CDE907504FF4E010099068461B
:10129000FFF716FA00B1FEE70F20CDE90A054FF47B
:1012A0008060CDE90C4002210AA80E94FFF7FAF8FD
:1012B00000B1FEE7FFF7BAF94FF47A71B0FBF1F035
:1012C000FFF7CAFC0420FFF7BAFC00221146501EAB
:1012D000FFF7B6F80FB030BD0D48016841F00101CD
:1012E000016041680B4A1140416001680A4A11409F
:1012F0000160016821F480210160416821F4FE0150
:1013000041604FF41F0181600449C00308607047C9
:10131000001002400000FFF8FFFFF6FE08ED00E0BD
:10132000F0B50268144B154C154D4FF080479842AC
:1013300005D0B84203D0A04201D0A84203D122F088
:1013400070064A683243984205D0B84203D0A042A2
:1013500001D0A84203D122F44074CA68224302603B
:101360008A68C2620A688262984201D1096901638F
:1013700001214161F0BD0000002C0140000400404B
:101380000008004010B5846842EA032224F47F4438
:101390000A432243826010BD826822F070020A4331
:1013A00042F007018160704710B5036A046A24F0B7
:1013B00001040462846924F0F00444EA021423F076
:1013C0000A020A438461026210BD10B5036A23F069
:1013D000100303628369046A23F4704343EA023210
:1013E00024F0A00343EA01118261016210BDFEE70F
:1013F00002E008C8121F08C1002AFAD170477047DE
:10140000002001E001C1121F002AFBD1704700003B
:10141000FEF7B2FFFFF72CFFFFF72CFDFFF770FD83
:10142000FFF726FEFFF7E0FEFFF7A8FD00242007E8
:10143000010E22460020FFF7B7FD641C042CF6DBEA
:101440005FF0000404EB44004006010E04F11002BA
:101450000220FFF7F5FD641C0A2CF3DB0024E006F4
:10146000010E04F110020320FFF7C4FD641C0A2CD6
:10147000F5DBFEE7000000000000000001020304AD
:1014800006070809AED580A83FD300408D1420027E
:10149000A1C8DA1281EFD9F1DB30A4A6AF000000B9
:1014A0000000000000002F000000000700070000FF
:1014B000147F147F1400242A7F2A12006264081308
:1014C0002300364955225000000503000000001C8F
:1014D000224100000041221C000014083E081400B4
:1014E00008083E0808000000A06000080808080876
:1014F00008000060600000002010080402003E5157
:1015000049453E0000427F4000004261514946008B
:101510002141454B31001814127F100027454545E5
:1015200039003C4A49493000017109050300364938
:1015300049493600064949291E0000363600000098
:101540000056360000081C2A490808141414141404
:10155000140808492A1C08000201510906003249F2
:1015600059513E007C1211127C007F4949493600D6
:101570003E41414122007F4141221C007F494949AF
:1015800041007F09090901003E4149497A007F086D
:1015900008087F0000417F4100002040413F0100DA
:1015A0007F08142241007F40404040007F020C022F
:1015B0007F007F0408107F003E4141413E007F09CB
:1015C000090906003E4151215E007F0919294600A4
:1015D00046494949310001017F0101003F40404037
:1015E0003F001F2040201F003F4038403F00631451
:1015F000081463000708700807006151494543005B
:10160000007F41410000552A552A55000041417F85
:10161000000402FF020400002040FF4020000001FF
:10162000020400002054545478007F484444380099
:10163000384444442000384444487F0038545454CB
:101640001800087E0901020018A4A4A47C007F08E9
:101650000404780000447D4000004080847D000048
:101660007F102844000000417F4000007C041804E3
:1016700078007C0804047800384444443800FC2492
:101680002424180018242418FC007C0804040800F2
:10169000485454542000043F444020003C40402023
:1016A0007C001C2040201C003C4030403C00442872
:1016B000102844001CA0A0A07C004464544C4400AA
:1016C000000000000000000000000000000000001A
:1016D0000000000000000000F80000000000000012
:1016E000333000000000100C06100C060000000053
:1016F000000000000040C07840C0784000043F0473
:10170000043F040400007088FC083000000018202A
:10171000FF211E0000F008F000E018000000211C6E
:10172000031E211E0000F00888700000001E212307
:10173000241927211010160E0000000000000000E0
:101740000000000000000000E0180402000000009B
:10175000071820400000020418E0000000004020AC
:101760001807000000404080F08040400002020165
:101770000F01020200000000F00000000001010162
:101780001F01010100000000000000000080B07097
:101790000000000000000000000000000000010147
:1017A00001010101010000000000000000003030D4
:1017B00000000000000000000080601804006018B5
:1017C000060100000000E010080810E000000F1003
:1017D0002020100F00001010F80000000000202052
:1017E0003F202000000070080808887000003028A2
:1017F000242221300000300888884830000018205A
:101800002020110E000000C02010F8000000070486
:1018100024243F240000F8088888080800001921C3
:101820002020110E0000E0108888180000000F1121
:101830002020110E0000380808C8380800000000F9
:101840003F000000000070880808887000001C221B
:101850002121221C0000E010080810E000000031E7
:101860002222110F00000000C0C000000000000094
:101870003030000000000000800000000000008008
:1018800060000000000000804020100800000102FD
:101890000408102000404040404040400004040440
:1018A0000404040400000810204080000000201000
:1018B0000804020100007048080808F00000000059
:1018C0003036010000C030C828E810E000071827B3
:1018D0002423140B000000C038E0000000203C234B
:1018E000020227382008F8888888700000203F20EE
:1018F0002020110E00C03008080808380007182002
:10190000202010080008F808080810E000203F20F8
:101910002020100F0008F88888E8081000203F20D9
:10192000202320180008F88888E8081000203F20AD
:101930000003000000C03008080838000007182025
:1019400020221E020008F808000008F808203F21A5
:101950000101213F20000808F808080000002020AD
:101960003F2020000000000808F8080800C0808020
:10197000807F00000008F888C028180800203F2059
:10198000012638200008F8080000000000203F2051
:10199000202020300008F8F800F8F80800203F0068
:1019A0003F003F200008F830C00008F808203F2022
:1019B0000007183F00E01008080810E0000F102092
:1019C0002020100F0008F808080808F000203F2128
:1019D0000101010000E01008080810E0000F1824C1
:1019E0002438504F0008F8888888887000203F20ED
:1019F00000030C30200070880808083800003820E8
:101A00002121221C00180808F808081800000020EE
:101A10003F2000000008F808000008F808001F2018
:101A20002020201F000878880000C8380800000720
:101A3000380E010000F80800F80008F800033C0721
:101A400000073C0300081868808068180820302CC4
:101A500003032C30200838C800C8380800000020D4
:101A60003F2000000010080808C838080020382669
:101A70002120201800000000FE02020200000000E9
:101A80007F40404000000C30C0000000000000001B
:101A9000010638C00000020202FE000000004040C3
:101AA000407F000000000004020202040000000069
:101AB00000000000000000000000000000808080A6
:101AC000808080808000020204000000000000008E
:101AD00000000000000000808080800000001924C9
:101AE0002222223F2008F8008080000000003F11E1
:101AF0002020110E000000008080800000000E11E8
:101B00002020201100000000808088F800000E11C5
:101B10002020103F200000808080800000001F22D5
:101B20002222221300008080F0888888180020205C
:101B30003F202000000000808080808000006B94A7
:101B4000949493600008F8008080800000203F217A
:101B50000000203F20008098980000000000202016
:101B60003F20200000000000809898000000C08006
:101B700080807F000008F8000080808000203F24E3
:101B8000022D302000000808F8000000000020208E
:101B90003F202000008080808080808000203F20C7
:101BA000003F20003F8080008080800000203F2197
:101BB0000000203F200000808080800000001F2067
:101BC0002020201F00808000808000000080FFA176
:101BD0002020110E000000008080808000000E1187
:101BE0002020A0FF80808080008080800020203F17
:101BF00021200001000000808080808000003324CC
:101C00002424241900008080E0808000000000006F
:101C10001F202000008080000000808000001F2026
:101C20002020103F20808080000080808000010EF6
:101C3000300806010080800080008080800F300C1A
:101C4000030C300F00008080008080800000203175
:101C50002E0E312000808080000080808080818E68
:101C60007018060100008080808080800000213094
:101C70002C2221300000000000807C0202000000C5
:101C800000003F40400002027C8000000000404015
:101C90003F0000000000000000FF00000000000006
:101CA00000FF000000000000000000808000000035
:101CB00000000001012030AC63205820F84F484953
:101CC000FA4848080022672212121200FF2222223C
:101CD0003F222220000000101098A44744A4540C76
:101CE00004000000000081898944444A312111091F
:101CF0000503000000000000E0000000FF000000FD
:101D00002040800000080403000040807F000000A5
:101D10000000010E0080828282828282E2A2928A88
:101D20008682808000000000000040807F0000006C
:101D30000000000000000000581D00080000002006
:101D400008000000F0130008601D000808000020D3
:101D500040040000001400080000000000A24A0433
:04000005080000ED02
:00000001FF
